:020000040800F2
:1000000020570020110300087F400008D533000866
:100010007D400008A90A0008A14A0008000000006D
:100020000000000000000000000000005102000875
:100030009110000800000000AD02000845430008D0
:100040002B0300082B0300082B0300082B030008D8
:100050002B0300082B0300082B0300082B030008C8
:100060002B0300082B0300082B030008ED0C0008ED
:10007000F90C0008050D0008110D00082B030008FD
:100080001D0D00082B0300082B0300082B0300089C
:10009000D50A00082B0300082B0300082B030008D7
:1000A0002B0300082B0300082B0300082B03000878
:1000B000154400082B0300082B0300082B0300083D
:1000C0002B0300082B0300082B0300082B03000858
:1000D0002B0300085D490008A1490008ED4900080C
:1000E0002B0300082B0300082B0300082B03000838
:1000F0002B0300082B0300082B030008290D000820
:100100002B0300082B0300082B0300082B03000817
:10011000F5460008014700082B0300082B030008E0
:100120002B0300082B030008350D00082B030008E3
:100130002B0300082B0300082B0300082B030008E7
:10014000850B00082B0300082B0300082B03000875
:100150002B0300082B0300082B0300082B030008C7
:100160002B0300082B0300082B0300082B030008B7
:100170002B0300082B0300082B03000800000000DD
:100180002B0300082B03000800F002F800F050F8E1
:100190000AA090E8000C82448344AAF10107DA45E2
:1001A00001D100F045F8AFF2090EBAE80F0013F0E4
:1001B000010F18BFFB1A43F001031847E4D60000F3
:1001C00004D700000A4410F8014B14F00F0508BFD3
:1001D00010F8015B240908BF10F8014B6D1E05D013
:1001E00010F8013B6D1E01F8013BF9D1641E03D0EC
:1001F000641E01F8015BFBD19142E4D3704700001B
:100200000023002400250026103A28BF78C1FBD81F
:10021000520728BF30C148BF0B6070471FB50BF0B5
:1002200012FA9DE8030000F0FBF91FBD10B510BDE8
:1002300000F062FA1146FFF7F1FF07F0B9F900F09C
:1002400080FA03B4FFF7F2FF03BC00F0B1FA00003C
:100250002C4B19680868B0E8F04F80F30988BFF3A9
:100260006F8F4FF0000080F311887047000000008E
:1002700008480068006880F308884FF0000080F3A9
:10028000148862B661B6BFF34F8FBFF36F8F00DF84
:1002900000BF00BF08ED00E0DFF80C00016841F48A
:1002A00070010160704700BF88ED00E0EFF3098046
:1002B000BFF36F8F134B1A681EF0100F08BF20EDAD
:1002C000108A20E9F04F106009B44FF0500080F31D
:1002D0001188BFF34F8FBFF36F8F0AF0C7F94FF04C
:1002E000000080F3118809BC19680868B0E8F04F75
:1002F0001EF0100F08BFB0EC108A80F30988BFF31E
:100300006F8F704738000020EFF3058070470000C2
:100310000948804709480047FEE7FEE7FEE7FEE799
:10032000FEE7FEE7FEE7FEE7FEE7FEE704480549D5
:10033000054A064B70470000F94300088901000890
:10034000205100202057002020530020205300205F
:1003500070B5064600F048F9056806F10B0020F07C
:100360000704B4429CBF002070BD2B466A68BAB136
:100370001068A04210D304F1080188423CBF5068C5
:10038000586007D35168101941601168091B01605A
:1003900058601460101D70BD13465268002AE7D1E2
:1003A0002146284600F028F90028DED170BD70B53E
:1003B0000446051F00F018F90068002C14BF4468BB
:1003C00070BD002C18BFAC423CBF20466468F8D317
:1003D00001680A18AA4218BF456003D12A68054679
:1003E0001144016028684119A1421CBF6C6070BDB6
:1003F0006168696021680844286070BD53EA020C96
:1004000000F069802DE9F04B4FF00006002B1FBF74
:10041000B3FA83F503FA05F424FA05F65E4012BF39
:100420001643B2FA82F502FA05F4C5F120051EBFA3
:1004300022FA05FC44EA0C04203556EA044C4FEA43
:10044000144418BF641C4FF000084FF0000990429C
:1004500071EB030C39D3002919BFB1FA81F701FA06
:1004600007F6B0FA80F700FA07F6C7F120071EBFBB
:1004700020FA07FC46EA0C062037B6FBF4FCA7EB93
:100480000507103F07F01F0BCBF120060CFA0BFB02
:100490002CFA06F644BFB3460026202FA4BF5E46C2
:1004A0004FF0000B5BEA060C08BF4FF0010B19EB95
:1004B0000B09ABFB027C48EB0608C01B06FB02CC19
:1004C0000BFB03CC71EB0C01C1E70B460246414626
:1004D0004846BDE8F08B13B54FF000004FF0000127
:1004E000AFF30080BDE81C40704710B5203AC0F063
:1004F0000B80B1E81850203AA0E81850B1E8185025
:10050000A0E81850BFF4F5AF5FEA027C24BFB1E861
:100510001850A0E8185044BF18C918C0BDE81040D2
:100520005FEA827C24BF51F8043B40F8043B08BFDB
:100530007047D20728BF31F8023B48BF11F8012BA2
:1005400028BF20F8023B48BF00F8012B70474FF04E
:1005500000020429C0F0128010F0030C00F01B8090
:10056000CCF1040CBCF1020F18BF00F8012BA8BF9E
:1005700020F8022BA1EB0C0100F00DB85FEAC17C62
:1005800024BF00F8012B00F8012B48BF00F8012B15
:1005900070474FF0000200B5134694469646203946
:1005A00022BFA0E80C50A0E80C50B1F12001BFF42C
:1005B000F7AF090728BFA0E80C5048BF0CC05DF892
:1005C00004EB890028BF40F8042B08BF704748BFE0
:1005D00020F8022B11F0804F18BF00F8012B704754
:1005E000704770477047000000487047C8500020AF
:1005F000704770477047704738B504460A46002078
:100600006946AFF30080002808BF38BD0246009954
:10061000204600F04FF8012038BD012000F064B8FA
:10062000F8B5AFF30080054600200C46102000BF4F
:100630000646A819A0420DD9324669460020AFF3FC
:100640000080070008BF00F04FF80098A04218BFD4
:100650000546C419FFF7C8FF05600746F01D20F0E6
:1006600007004619284600F00AF8B44208BFF8BD52
:10067000A21B31463868BDE8F84000F01BB80021E5
:100680000160C0E9011070471020704710B500F0FC
:100690000DF8006810BD10B5044600F007F80460BE
:1006A00010BD000000487047C0500020004870474F
:1006B000C0500020034640688C46002818BF88427E
:1006C0003CBF03464068F8D318681844884207D0F6
:1006D0000CF1030020F00700001D411A521A0146D8
:1006E000081D0A60FFF763BE10B500F039F8BDE8D9
:1006F000104000F02FB870477546FFF7D3FFAE46A5
:1007000005006946534620F00700854618B020B51D
:10071000FFF70CFEBDE820404FF000064FF0000749
:100720004FF000084FF0000B21F00701AC46ACE899
:10073000C009ACE8C009ACE8C009ACE8C0098D4606
:10074000704710B50446AFF300802046BDE8104066
:10075000FFF777BD002801D000F02AB870470000ED
:1007600010B5012805D0002103A000F027F80120D2
:1007700010BD09A1F8E7000053494752544D454DBB
:100780003A204F7574206F662068656170206D6532
:100790006D6F7279000000003A2048656170206D2D
:1007A000656D6F727920636F727275707465640025
:1007B00001491820ABBEFEE72600020070B50546D1
:1007C0000C460A2000E06D1C00F011F835B12878C5
:1007D0000028F8D102E0641C00F009F814B1207878
:1007E0000028F8D1BDE870400A20AFF3008008B5BA
:1007F00069468DF800000320ABBE08BD464910B520
:100800004A6822F440324A604A6843681A434A60A0
:1008100001684A6822F480724A6001684A68036984
:1008200042EA03224A6001684A6822F040724A6044
:1008300001684A6883681A434A6001688A6822F43A
:1008400000628A6001688A68C3681A438A60816AA4
:100850006FF07062D14201688A6822F070628A602B
:1008600001688A680CD0836A1A438A6001688A68C2
:1008700022F040528A6001688A68C36A1A4301E024
:1008800022F040528A6001688A6822F002028A607F
:1008900001688A68037E42EA43028A6090F8201069
:1008A000002901684A680FD042F400624A6001687A
:1008B0004A6822F460424A6001684A68174C436AF9
:1008C00004EB43331A4301E022F400624A600168FA
:1008D000CA6A22F47002CA620168CA6A838B104C29
:1008E00004EB03531A43CA6201688A6822F4007257
:1008F0008A6001688A6890F8303042EA43228A6050
:1009000001688A6822F480628A6001688A684069A6
:1009100042EA8020886010BD0023014000E0FFFF14
:100920000000F0FF70472DE9FE4F1546DDE90C9AF7
:100930000E4607460C221C466946104603F03CF85A
:10094000BDF80080BDF802C0BDF80430BDF8062037
:10095000BDF80810BDF80A00A4F80080A9F800C08E
:10096000AAF800303A8031802880BDE8FE8F000070
:1009700038B51A4805F072F904F0E4FD174804F0A0
:10098000A5FD044604F0DEFD00251CBB01208DF80A
:1009900000000146114A684605F0EEF904F0D2FD68
:1009A0000E4803F059FC8DF800500C4A01216846AE
:1009B00005F0E2F904F0C6FD084803F023FC02202C
:1009C0008DF80000054A0121684605F0D5F9044676
:1009D00004F0B8FD02480572204638BD004B0020E7
:1009E0002C0100207CB5254C254D207A40B9B5F965
:1009F0000000411C2980B0F57A7F01DD01202072C2
:100A000020492148CDE90001204B214A21492248B3
:100A1000FFF789FF00231A46A11C184806F01EFEA6
:100A2000B4F9040095ED091A00EE100A1948F8EE21
:100A3000C00AB0F9000000EE100AB8EEC00A02F0D9
:100A4000DBFDBDEEC00A10EE100AA080B4F906006E
:100A500095ED081A00EE100A0D48F8EEC00AB0F93C
:100A6000000000EE100AB8EEC00A02F0C5FDBDEEAF
:100A7000C00A10EE100AE0807CBD00002C010020AE
:100A80009C0000200A000020080000200600002032
:100A9000040000200200002000000020FFF7A2FF59
:100AA000012007F042F8F9E7FEE7000000B58BB03F
:100AB000684600F087F86946054800F085FD022188
:100AC000034800F001FD024801F096F80BB000BDAC
:100AD00004040020014800F072BE0000040400205D
:100AE0000021A0F50072063A16D0A0F50072053A72
:100AF00017D0A0F50072033A19D0A0F50072013AA0
:100B00001BD0A0F50072023A1CD10F48406801705A
:100B10000D4800BF02F000BE0C48406801700B4851
:100B200003E00B4840680170094802F0A9BE09487B
:100B300040680170074802F069BD074840680170CD
:100B40000548E7E770470000A04B0020904E0020CA
:100B5000604E0020684B0020BC4B002000B58BB0DD
:100B6000684600F02FF86946054800F02DFD022187
:100B7000034800F0A9FC024801F03EF80BB000BDAC
:100B80002C040020014800F01ABE00002C040020B4
:100B9000F1280DD0B0F5007F0AD0A0F500710B3917
:100BA0000AD10649002049680870044802F08CBE4A
:100BB0000A46034900F030BB70470000604E002039
:100BC000985000200021016041608160C160016196
:100BD00001224161C0E90612C0E908217047000006
:100BE00010B5124A016891420DD1114B00211C46EB
:100BF000A3F11C0200F06FFD0D4821461C3800686F
:100C0000FFF76EFF10BD0B4A9142FBD1084B00214C
:100C100024331C46A3F11C0200F05DFD044821466C
:100C200008300068FFF7B4FF10BD0000006400400A
:100C30001446002000680040264C244E244DDFF866
:100C40009880671596F82E000028A87F0DD068B30D
:100C5000224890F82200B0B301223946404601F004
:100C6000C8FA012006F061FFECE70028394640464B
:100C70000CD001F0B7FA0221204601F0B3FA0421AA
:100C8000204601F0AFFA4FF4FA7019E001F0AAFA29
:100C90000221204601F0A6FA0421204601F0A2FA22
:100CA0000821204601F09EFA642009E039464046BA
:100CB00001F098FA0221204601F094FA4FF47A707C
:100CC00006F033FFCDE7FFE70022C6E7380100203A
:100CD0007050002000080240000C02409850002094
:100CE0000021014801F020B854040020014801F01F
:100CF00063B8000088060020014801F05DB80000DC
:100D000008080020014801F057B80000280600201C
:100D1000014801F051B8000068080020014801F0C6
:100D20004BB80000A8070020014801F045B80000BA
:100D3000E8060020014801F03FB800004807002005
:100D40002DE9F04F85680024099E802D18D0894D2B
:100D5000C563894D456490F83450012D15D00125A7
:100D600080F8345090F83550012D10D0002180F8D3
:100D700034100224002180F834102046BDE8F08FA2
:100D80004FF4807141650120F8E70220F6E7022563
:100D900080F835500025456505682F6847F48027A1
:100DA0002F6005682B6103685E608368402B0368D1
:100DB0002AD099600168CA60714D704E704FDFF89B
:100DC000BC81DFF8B891DFF8B8A1DFF8B4B1EA145C
:100DD000DFF8A8E10168183630379302A9F1480915
:100DE0000AF1600A0BF1180BAEF1300E4FF0006CF7
:100DF00041452DD9A94205D0494503D0514501D0DF
:100E0000B14205D1202220E09A600268D160D3E788
:100E100059451AD0714518D0594D7835A94214D08A
:100E2000564D3035A94210D0B9420BD0534A183A2A
:100E3000914207D0524A9032914203D04F4A4832F1
:100E4000914201D11A4600E062464C494C392EE0ED
:100E5000DFF82C8108F1A80841452AD9A94205D01C
:100E6000494503D0514501D0B14201D120221CE0B7
:100E700059451AD0714518D0414D7835A94214D042
:100E80003E4D3035A94210D0B9420BD03B4A183AFA
:100E9000914207D03A4A9032914203D0374A4832C1
:100EA000914201D11A4600E06246344950390A6045
:100EB0005AE0DFF8CC8008F1480841452AD9A94218
:100EC00005D0494503D0514501D0B14201D120227E
:100ED0001CE059451AD0714518D0294D7835A942E2
:100EE00014D0264D3035A94210D0B9420BD0234A38
:100EF000183A914207D0224A9032914203D01F4AB9
:100F00004832914201D11A4600E062461C4910392C
:100F1000CA6029E0A94205D0494503D0514501D016
:100F2000B14201D120221CE059451AD0714518D098
:100F3000134D7835A94214D0104D3035A94210D048
:100F4000B9420BD00D4A183A914207D00C4A903260
:100F5000914203D0094A4832914201D11A4600E039
:100F60006246074910398A6001680A6842F0010246
:100F70000A60FFE6C9620008E162000858640240A6
:100F80001060024001681823CAB2103AB2FBF3F2B3
:100F9000054B6FF30901032A9B5CC36500D9091D4A
:100FA0008165084670470000F8B6000810B5014694
:100FB00000208B698A6A4FF0C07453B1B3F5005FAB
:100FC00015D072B1012A0CD0022A0AD0032A09D105
:100FD00004E01AB1012A06D0022A03D1C96AC90164
:100FE00000D5012010BDC96AA142FAD010BD002A67
:100FF000F7D0012AF2D0022AF3D0032AF3D010BD91
:1010000070B590F834500024012D0CD0012580F8E3
:10101000345090F835600025012E06D080F8345009
:101020000224204670BD022070BD022680F8356083
:10103000456505682E6826F480262E6005686B607D
:101040008368402B036808D099600168CA60006813
:10105000016841F001010160E3E79A600268D16034
:10106000F5E710B503F018F8FFF75CFCFFF738FE62
:1010700003F07AFC03F09AFC03F0BEFC03F0D8FC0A
:1010800003F0F2FCFFF712FDBDE81040FFF766BD6C
:1010900070477047044A00F57A701060101D01F522
:1010A0007A710160704700003404004010B50446B6
:1010B000B0F92C00404200EE100A6068F8EEC00A59
:1010C0000068B0F9020000EE100AE068B8EEC00A4D
:1010D00006F062FDBDEEC00A616810EE100A0881DC
:1010E000B4F92C0000EE100AA068F8EEC00A0068FF
:1010F000B0F9020000EE100A2069B8EEC00A06F04E
:101100004BFDBDEEC00AA16810EE100A088110BDAB
:10111000184D194E194C00BF00F042F8307A0128E2
:1011200006D095F8240002280BD001281AD01DE023
:10113000134841882984008868840E4806F0F2F834
:1011400014E028680068018829B16968096809887D
:101150006180008809E041F23060208041F606009D
:10116000608003E07088608030882080032006F073
:10117000DCFCD1E7705000202C010020260100206B
:101180009850002001684968897831B14168496800
:10119000897811B10121817770470021FBE70000B8
:1011A00010B5054802F0BEFB044802F0BBFBBDE8E9
:1011B00010400348FFF7E6BF604E0020904E00202D
:1011C00070500020DFF844800126114C114D00279B
:1011D0000F4802F023FFA87F012812D084F8147072
:1011E00098F82E0001280ED06775286800680088DE
:1011F0002083686800680088E082012006F095FC82
:10120000E6E72675ECE76675EFE700003801002099
:10121000985000207050002010B50023F1281CD0F9
:10122000A0F58070FF383CD0012831D0B0F5807F28
:1012300012D1907800028883D47820438883107973
:101240000002C88354792043C88390798876D07986
:1012500081F81B0081F8233010BD1078000208804F
:10126000547820430880907800024880D478204346
:101270004880107900024881547920434881907950
:1012800000028881D2791043888181F82030E1E71B
:10129000107908725079887490794872D079C8743E
:1012A00010BD10780002C88254782043C88290781C
:1012B00000020883D4782043088390790875D07998
:1012C000487581F8203010BD78B50024009490F85E
:1012D0003C20012A19D0012280F83C200A6807230B
:1012E0000568092A13D9EE680A3A02EB42029340D4
:1012F0009E43EE600B788A680A3B03EB43039A40F7
:101300000368DD682A43DA6010E0022078BD2E69A8
:1013100002EB420293409E432E610B788A6803EBF6
:1013200043039A4003681D692A431A614A681F23D0
:10133000072A13D205686E6B521E02EB820293409D
:101340009E436E630B790A885B1E92B203EB8303A4
:101350009A4003685D6B2A435A6327E005680D2AAB
:1013600012D22E6BD21F02EB820293409E432E6359
:101370000B790A88DB1F92B203EB83039A40036860
:101380001D6B2A431A6311E0EE6A0D3A02EB8202EA
:1013900093409E43EE620B790A880D3B92B203EBB9
:1013A00083039A400368DD6A2A43DA62164B0568B4
:1013B000144A9D4206D10D68122D03D1556845F49B
:1013C0008005556005689D4218D10B68102B01D02F
:1013D000112B13D1536843F400035360096810299B
:1013E0000CD10A490A4A0968B1FBF2F101EB81010B
:1013F000490000E0491E00910029FBD180F83C40E3
:10140000002078BD0023014000200140340000206E
:1014100040420F0070B504004FF0000503D0206C6F
:10142000002610B107E0012070BD204600F01CF836
:10143000666484F83C60206CC00610D4206C20F4F4
:10144000885040F0020020642046FFF7D7F9666418
:10145000206C20F0020040F00100206400E0012533
:1014600084F83C60284670BD10B586B0044614214F
:101470006846FFF78EF81149206888421CD1104851
:101480000021026842F480720260006800F48070FB
:1014900005900B481438026842F0040202600068AC
:1014A00000F004000590012000900320CDE9010127
:1014B0006946044800F0BAFD06B010BD00200140A6
:1014C000443802400008024090F82020012A07D04A
:1014D000022A05D0416A41F480214162012070470F
:1014E000006842690A43426100207047F0B590F8F5
:1014F00020500468A468012D05D0022D03D0416A54
:1015000041F480215DE014F0406F01D1E50055D534
:10151000C4F30164022C03D9416A41F4000150E094
:101520000125A5401D608D684FF4C0739DB1CE6844
:1015300035434E6845EAC605066803EB0417F551C6
:101540004FF4C275076805EB04150E697E51097DDD
:10155000012905D009E00E88CD6845EA4655EBE73C
:1015600001684E5946F480764E511179D5795679F5
:1015700041EA056195792D0445EA062529434FF492
:10158000C676056806EB0416A9511178D57841EAAC
:101590000561957852782D0445EA022211434FF4F3
:1015A000C475026805EB04155151006803EB041182
:1015B000425842F0010242500020F0BD416A41F41D
:1015C000001141620120F0BD10B590F82020012AE1
:1015D00007D0022A05D0416A41F4802141620120EE
:1015E00010BD3B48D0F8002242F00102C0F80022B2
:1015F000D0F8002222F47C52C0F80022D0F8002259
:101600004B6A42EA0322C0F800220A7D02F01F035F
:1016100001229A40D0F81C329343C0F81C32CB69A7
:10162000B3B9D0F80C329343C0F80C328C894B68B4
:1016300064F31F434C6900EBC404C4F840320C89C6
:101640000B6864F31F434C6900EBC404C4F84432D4
:10165000CB69012B16D1D0F80C321343C0F80C32F1
:101660000C884B6864F31F434C6900EBC404C4F856
:1016700040320C89CB6864F31F434C6900EBC4040F
:10168000C4F844328B69002BD0F804320ED01343D7
:10169000C0F804320B69002BD0F8143208D0134381
:1016A000C0F81432096A012904D008E09343EFE737
:1016B0009343F5E7D0F81C121143C0F81C12D0F880
:1016C000001221F00101C0F80012002010BD00003E
:1016D00000640040704730B590F82040012C05D0E0
:1016E000022C03D0416A41F480215DE004680029A6
:1016F00055D02469A40754D04FF4D874056804EB7E
:1017000001142D5915F00405956005682D594ED02A
:10171000ED08556005682C5904F00204D4604FF4BC
:10172000DA74056804EB01142D5905F00F051561F5
:1017300005682D59C5F30725956105682C59240CBA
:1017400054614FF4DC72046802EB0112A4581C705F
:101750000468A458240A5C700468A458240C9C7083
:101760000468A258120EDA704FF4DE72046802EBBD
:101770000112A4581C710468A458240A5C710468FE
:10178000A458240C9C710468A258120EDA710068E7
:1017900081B1016941F020010161002030BDE468A0
:1017A000A8E7416A41F400114162012030BD6D0D8E
:1017B0001560AFE7C16841F02001C160EDE72DE998
:1017C000F05F0546006800244669D0F804908768F9
:1017D000D0F80CB0D0F810A0D0F81880F10748D09D
:1017E000F90714D001218160B80703D5284600F01D
:1017F00030FA0CE0780702D54FF4006407E03807B0
:1018000002D54FF4805402E0284600F021FAF80592
:1018100016D529684FF480708860B80503D528462E
:1018200000F019FA0CE0780502D544F4005407E002
:10183000380502D544F4804402E0284600F00AFA54
:10184000F80316D529684FF480308860B80303D5B3
:10185000284600F002FA0CE0780302D544F4004474
:1018600007E0380302D544F4803402E0284600F053
:10187000F3F9300707D55FEACB6004D5296810205B
:1018800044F40074C86070074FF0080707D55FEA9A
:101890000B7004D52868C760284600F099F9B00796
:1018A00006D52868C068800702D0284600F092F963
:1018B000700607D55FEACA6004D52968102044F491
:1018C00080640861B00607D55FEA0A7004D528680D
:1018D0000761284600F08CF9F00606D528680069F3
:1018E000800702D0284600F084F9B00308D55FEAEB
:1018F000C96005D5296810204860284600F07AF9AB
:10190000F00307D55FEA097004D5286847602846C8
:1019100000F0A4F9300446D55FEA497040D5F005DF
:1019200004D55FEAC87001D044F00104B00504D5C5
:101930005FEA887001D544F00204700504D55FEABF
:10194000487001D544F00404300529D518F0700F13
:1019500026D008F07000402815D006DC102809D0E9
:1019600020280AD0302816D10AE050280ED060284E
:1019700011D10EE044F008040DE044F010040AE038
:1019800044F0200407E044F0400404E044F0800404
:1019900001E044F480742868816921F0700181615C
:1019A000296804204860002C05D0686A20436862DA
:1019B0002846FFF78FFEBDE8F09F70B5040003D006
:1019C00094F8200010B104E0012070BD204600F022
:1019D00081F82068016821F00201016000F00EFC2E
:1019E0000546052604E000F009FC401B0A2811D832
:1019F000206840688007F6D42068016841F0010142
:101A0000016000F0FBFB05460BE000F0F7FB401B1C
:101A10000A2806D9606A40F40030606284F82060C9
:101A2000D2E720684068C007EFD0207E01282068F8
:101A300001683DD021F080010160607E01282068AE
:101A4000016838D021F040010160A07E01282068A3
:101A5000016833D021F020010160E07E0128206878
:101A600001682ED041F010010160207F012820681C
:101A7000016829D021F008010160607F01282068F9
:101A8000016824D021F004010160D4E90201084377
:101A9000D4E90412114308436168491E08432168D0
:101AA000C86100206062012084F82000002070BD21
:101AB00041F08001C0E741F04001C5E741F020015D
:101AC000CAE721F01001CFE741F00801D4E741F067
:101AD0000401D9E7F0B587B0044614216846FEF743
:101AE00058FD364B3648DFF8D0E01968D4F800C00E
:101AF000334A03250226092710300024491CF445E7
:101B000022D11960012907D1016841F000710160FB
:101B1000006800F000700590106840F00800106048
:101B20001068CDE9005600F00800CDE90470694660
:101B30002448CDE9024500F079FA0022114614202C
:101B400000F0E8FB142032E0DFF87CE0F44530D10F
:101B5000D0F800C04CF0806CC0F800C0D0F800C0D5
:101B600001290CF0806CCDF814C0196007D1016810
:101B700041F000710160006800F00070059010688D
:101B800040F002001060106802AB00F00200059007
:101B90006020CDE9000683E8B00069460B4800F0FC
:101BA00045FA00221146402000F0B4FB402000F02E
:101BB000A3FB07B0F0BD000000640040240000203B
:101BC00030380240000C024000680040000402402F
:101BD00070470000044A0168914202D0034A9142D2
:101BE00001D1FEF7FDBF704700640040006800406F
:101BF000704770477047000070B5044690F82000A9
:101C0000012804D0606A40F40020606218E00220DD
:101C100084F820002068016821F00101016000F0D3
:101C2000EDFA05460EE000BF00F0E8FA401B0A2876
:101C300008D9606A40F400306062052084F8200012
:101C4000012070BD20684068C007EDD1606270BDA2
:101C5000704770477047704770477047704770B55E
:101C60004379012B1AD001264671022303710568BE
:101C70002C6840F6FE7393409C43D1E900310B433E
:101C8000934023432B6001680B68C0249440A34316
:101C90000B60067100214171084670BD022070BDC5
:101CA00070B5040003D02079002510B105E00120B3
:101CB00070BD6571204600F007F802202071256193
:101CC00001202071002070BD10B586B0044614219B
:101CD0006846FEF75EFC1149206888421CD1104816
:101CE0000021026842F000520260006800F00050DB
:101CF00005900B481038026842F00102026000684B
:101D000000F001000590102000900320CDE90101B2
:101D10006946044800F08AF906B010BD007400401E
:101D2000403802400000024030B54279012A16D006
:101D3000012242710223037103681D6802FA01F453
:101D400025431D60002901680B680AD00C6803F464
:101D5000802304F46014B3F5802F0FD015E0022027
:101D600030BD0C6803F0040304F03804042B0CD1DC
:101D7000382C0AD14B6843F0010305E0B4F5601F2D
:101D800003D14B6843F002034B60027100214171A3
:101D9000084630BD90F83510022903D080214165F6
:101DA00001207047052180F835100068016821F096
:101DB00001010160002070472DE9F84304464FF00F
:101DC0000009CDF8009063484FF41651A56D0068E6
:101DD000B0FBF1F72E6894F85C10082000FA01F1CE
:101DE00031420FD021680A6852070BD50A6822F0E9
:101DF00004020A6094F85C108840A860606D40F0AE
:101E00000100606594F85C104FF0010808FA01F0D9
:101E1000304208D021684969090604D5A860606D80
:101E200040F00200606594F85C1004208840304265
:101E300008D021680968890704D5A860606D40F062
:101E40000400606594F85C1010208840304218D07F
:101E500021680968090714D5A8602068016849034A
:101E600004D50068000308D5A16C07E00168C90526
:101E700003D4016821F008010160216C09B12046FA
:101E8000884794F85C1020208840304231D0216887
:101E90000968C9062DD5A86094F835000528206882
:101EA000016806D0490347D5006800031DD4616C62
:101EB0001CE021F0160101602068416921F08001D9
:101EC0004161206C08B9A06C20B12068016821F044
:101ED0000801016094F85C103F208840A86084F8F5
:101EE000349084F83580216D1FE0E16B09B1204604
:101EF0008847606D00282BD0606DC00714D0052086
:101F000084F835002068016821F001010160009823
:101F1000401C0090B84203D820680068C007F6D182
:101F200084F8349084F83580E16C002910D001B039
:101F30002046BDE8F04308470168C905D5D40168CB
:101F400021F01001016084F8349084F83580CCE7EA
:101F5000BDE8F883340000202DE9F041044600F08C
:101F60004DF906465CB1002584F83450022084F80F
:101F700035002068016821F0010101600DE00120B9
:101F8000BDE8F08100F03AF9801B052805D9202032
:101F90006065032084F83500F2E720680068C00718
:101FA000F0D12268116820480140D4E901031843A8
:101FB000D4E903363343184363691843A3691843CC
:101FC000E3691843236A18430843616A042903D16B
:101FD000D4E90B1319430843106020684069666A0E
:101FE00020F0070130460E43012704280CD1A06AD7
:101FF0000643E06A40B12046FEF7D8FF20B14020FA
:10200000606584F83570BAE7206846612046FEF7BF
:10201000B9FF94F85C203F2191408160656584F8A8
:1020200035700020ACE700003F8010F02DE9F84F3C
:1020300000224FF0010803254FF00F0E0B6808FA3D
:1020400002F42340A3426ED14E68012E05D0022E29
:1020500003D0112E01D0122E12D186684FEA420C05
:1020600005FA0CF7BE43CF6807FA0CF737438760D1
:102070004668A6430C79C4F300149440344344608A
:10208000C668570005FA07FC8C6826EA0C06BC40B7
:102090003443C4604C68022C01D0122C13D1D408F4
:1020A00000EB8404A346D4F8209054074FEAD46A86
:1020B0000EFA0AF629EA06090E6906FA0AF646EA4F
:1020C0000906CBF8206006680C7926EA0C0604F0B5
:1020D0000304BC40344304604C68E40065D5364CCE
:1020E000266846F480462660246822F0030604F43D
:1020F00080440094314C3444A446D4F808489607F0
:10210000370F0EFA07F6B4432D4EB04201D1002628
:1021100024E02C4EB04201D101261FE02A4EB042ED
:1021200002D102261AE040E0284EB04201D1032637
:1021300014E0274EB04201D104260FE0254EB042F4
:1021400001D105260AE0244EB04201D1062605E061
:10215000224EB04201D1072600E00826BE402643A9
:10216000CCF808681E4E34684F689C43FF0300D5C6
:102170001C4334601A4C241D26684F689E43BF03DD
:1021800000D51E432660164E083634684F689C43BF
:10219000FF0200D51C433460114E0C3634684F6882
:1021A0009C43BF0200D51C433460521C102AFFF42C
:1021B00045AFBDE8F88F00004438024000300140D0
:1021C000000002400004024000080240000C0240EF
:1021D000001002400014024000180240001C02409F
:1021E000003C0140426931EA020200D109048161E8
:1021F00070470AB1816170470904FBE701488068B4
:1022000070470000280000200248816802781144CD
:1022100081607047280000200B4810B5016841F428
:1022200000710160016841F480610160016841F45E
:1022300080710160032000F08DF8002000F006F8A6
:1022400000F03EF8002010BD003C024010B50146F1
:1022500088B000221C2000F05DF81C2000F04CF833
:1022600014480024016841F001010160006805A9DB
:1022700000F001000690684600F018F900F036F909
:102280000D494000B0FBF1F10C484FF08042491E6F
:10229000026040F2E732C0E90324C0E9011400F013
:1022A00099FB10B1012008B010BD044800F0D0FB2C
:1022B000F9E700004038024040420F00C808002003
:1022C0000C4882B0016841F480410160006800F46C
:1022D000804000900748001F016841F08051016074
:1022E0000068002200F0805000900F21901E02B084
:1022F00000F010B844380240002809DB00F01F024B
:10230000012191404009800000F1E020C0F8001157
:1023100070470000F0B40E4B1B680C46C3F3022359
:10232000C3F10705042D00D90425191D072901D281
:10233000002300E0DB1E012606FA05F1491E2140BC
:1023400099409E40761E16403143F0BC02F0C1BB5E
:102350000CED00E0064900F0070208684FF6FF03A5
:10236000184040EA0220034A10430860704700000A
:102370000CED00E00000FA052DE9F0470E460500DF
:1023800065D0DFF81481D8F80000F7B200F00F0034
:10239000B04207D288F80070D8F8000000F00F00B3
:1023A000B04254D128683D4C810712D5400703D56F
:1023B000206840F4E05020602878000703D52068AA
:1023C00040F4604020602068A96820F0F0000843D5
:1023D00020602878C0072DD0304968680839012866
:1023E00012D0022813D0032811D0096889070029C8
:1023F0002DDA216821F0030101432160FFF7FEFE81
:10240000814641F2883A0EE009688903EFE70968DE
:102410008901ECE7FFF7F2FEA0EB0901514502D973
:102420000320BDE8F0872068696800F00C00B0EB7D
:10243000810FEFD1D8F80010404601F00F01B142F2
:1024400007D90770006800F00F00B04201D00120EA
:10245000E7E72878400705D52068E96820F4E050D0
:10246000084320602878000706D52068296920F4F1
:10247000604040EAC100206000F058F82168084A36
:10248000C1F30311515CC840064908600648006862
:10249000FFF7DCFE0020C4E7003C024008380240A1
:1024A00000B70008340000202C0000200F2202603A
:1024B0000C4A136803F003034360136803F0F0034E
:1024C0008360136803F4E053C36012684FF4E05371
:1024D00003EAD20202610448006800F00F000860BD
:1024E0007047000008380240003C0240044805499B
:1024F00000680968044AC1F38221515CC8407047F2
:10250000340000200838024010B70008044805498C
:1025100000680968044AC1F34231515CC840704701
:10252000340000200838024010B70008154810B5E4
:10253000006810F00C02144813D01449042A0FD07C
:10254000082A0ED10F4C241F2268236802F03F0294
:102550005B0207D52068C0F38810A0FB010106E0EC
:10256000084610BD2168C1F38811A1FB00010023BA
:10257000FDF744FF2168C1F30141491C4900B0FB4C
:10258000F1F010BD083802400024F40040787D01CD
:102590002DE9F84F04006ED02078DFF83C93C00797
:1025A000A9F104054AD009F104000168C1F38101D1
:1025B000012908D00068C0F3810002280AD1D9F8A7
:1025C0000000400206D52868800337D560680028DF
:1025D000E1D033E06068B0F5803F10D0B0F5A02FB7
:1025E000286810D020F480302860286820F48020EB
:1025F00028606068A8B1FFF701FE06460DE0286874
:1026000040F48030F4E740F480202860F7E700BF12
:10261000FFF7F4FD801B642873D828688003F7D582
:102620000CE0FFF7EBFD064605E000BFFFF7E6FD17
:10263000801B6428F0D828688003F7D42078DFF85E
:102640009C8280074FF0000A3ED5A348001D016818
:1026500011F00C0F08D00068C0F3810002280BD1E4
:10266000D9F80000400207D42868800716D5E06832
:10267000012800D112E02BE1E068B8B10120C8F8D0
:102680000000FFF7BBFD064605E000BFFFF7B6FD03
:10269000801B0228C0D828688007F7D528682169E0
:1026A00020F0F80040EAC10028600DE0C8F800A062
:1026B000FFF7A4FD064604E0FFF7A0FD801B0228FB
:1026C0001FD828688007F7D42078000722D5824ECB
:1026D00083486169703671B101210160FFF78EFD99
:1026E000074604E0FFF78AFDC01B022809D83068BE
:1026F0008007F7D50EE0C0F800A0FFF77FFD074682
:1027000005E082E0FFF77AFDC01B02287DD8306823
:102710008007F7D42078400768D5DFF8BCB10027E0
:102720000BF13C0BDBF80000C0000BD4DBF8001011
:1027300041F08051CBF80010DBF80000012700F0D9
:1027400080500090674E3068C00510D4306840F467
:1027500080703060FFF752FD009005E0FFF74EFDFE
:102760000099401A022850D83068C005F6D55A4E54
:10277000A0686C3601280FD00528306810D020F0F2
:1027800001003060306820F004003060A068B8B10B
:10279000FFF734FD00900FE0306840F00100F4E7EF
:1027A00040F004003060F7E7FFF728FD0099411A78
:1027B00041F28830814266D830688007F4D50EE057
:1027C000FFF71CFD009007E0FFF718FD0099411A84
:1027D00041F28830814256D830688007F4D42FB156
:1027E000DBF8001021F08051CBF80010A069C8B3CD
:1027F0003949091D0968C1F3810102294AD002281B
:10280000504607D0C8F8600000E03CE0FFF7F6FC57
:1028100004463BE04746C8F86000FFF7EFFC064679
:1028200005E000BFFFF7EAFC801B02282BD82868D0
:102830008001F7D4D4E907010843A16A2A4A49086C
:1028400002EB0141626A41EA8211084394F82C10BC
:1028500040EA0161C9F8001001203866FFF7CEFC9C
:10286000044606E036E000BFFFF7C8FC001B022864
:1028700009D828688001F7D52CE000BFFFF7BEFC1F
:10288000001B022802D90320BDE8F88F28688001C8
:10289000F4D41FE00128F7D0D9F80000E26900F471
:1028A0008001914214D1226A00F03F0191420FD180
:1028B00047F6C071626A0140914209D1A26A00F4F0
:1028C0004031914204D1E16A00F07060884201D049
:1028D0000120D9E70020D7E7043802400000474232
:1028E000800E4742007000400000FFFF70477047B5
:1028F00010B590F83C20012A22D0012280F83C201B
:10290000CA688C6822F4407222434C6822F48062C8
:1029100022430C6822F4006222430C6922F48052A4
:1029200022434C6922F400522243C969002322F455
:1029300080420A4301684A6480F83C30002010BDA0
:10294000022010BD70B590F83C20012A32D001243D
:1029500080F83C40022280F83D2003685A689D6858
:1029600022F070060A6832435A60134B02689A429A
:1029700014D0B2F1804F11D0104B9A420ED0104BB0
:102980009A420BD00F4B9A4208D00F4B9A4205D077
:102990000E4B9A4202D00E4B9A4204D1496825F060
:1029A00080031943916080F83D40002180F83C107D
:1029B000084670BD022070BD0000014000040040C8
:1029C00000080040000C00400004014000400140AD
:1029D0000018004010B5040003D094F83D0010B179
:1029E00007E0012010BD002084F83C00204600F0E4
:1029F0000DF8022084F83D00211D206801F010FD33
:102A0000012084F83D00002010BD000008B50068DA
:102A10000C49884208D10C48016841F0010101606D
:102A2000006800F001000BE00849884209D106481F
:102A3000001F016841F002010160006800F002001F
:102A4000009008BD000001404438024000040040EE
:102A50000168CA6842F00102CA600068816801F03A
:102A60000701062903D0016841F00101016000203F
:102A7000704770B5044690F83C00012817D0012536
:102A800084F83C50022084F83D002068826822F0DF
:102A9000770222F47F4282600868502830D00DDC33
:102AA00020284DD005DC98B310283BD148E0022007
:102AB00070BD302844D0402834D139E0602828D077
:102AC000702806D0B0F5805F2CD0B0F5005F29D11A
:102AD0000AE0CB68D1E90121206801F012FD2068ED
:102AE000816841F0770109E0CB68D1E901212068D4
:102AF00001F007FD2068816841F48041816011E0A8
:102B0000CA684968206801F0D1FD5021206807E0BB
:102B100016E0CA684968206801F0D9FD6021206884
:102B200001F0F9FC84F83D50002084F83C0070BDB1
:102B3000CA684968206801F0B9FD40212068EFE7C4
:102B4000226801461046EBE7704770B504460068FE
:102B500001694FF00005C943890715D4C168C9430D
:102B6000890711D4E91E016101202077206880695E
:102B70008007204602D0FFF7E7FF04E000F0DAF814
:102B8000204600F05CF9257720680169C9434907B0
:102B900017D4C168C943490713D46FF00401016118
:102BA000022020772068806910F4407F204602D000
:102BB000FFF7CAFF04E000F0BDF8204600F03FF93F
:102BC000257720680169C943090716D4C168C9433C
:102BD000090712D46FF008010161042020772068F2
:102BE000C0698007204602D0FFF7AEFF04E000F086
:102BF000A1F8204600F023F9257720680169C94330
:102C0000C90617D4C168C943C90613D46FF01001AF
:102C10000161082020772068C06910F4407F2046B9
:102C200002D0FFF791FF04E000F084F8204600F0A6
:102C300006F9257720680169C943C90708D1C16829
:102C4000C943C90704D1891E0161204600F01AF961
:102C500020680169C943090609D4C168C943090646
:102C600005D46FF0800101612046FFF73FFE206828
:102C70000169C943490609D4C168C943490605D455
:102C80006FF040010161204600F003F920680169FE
:102C9000C94389060BD4C168C943890607D46FF0BC
:102CA000200101612046BDE87040FFF720BE70BDE5
:102CB00010B586B0044614216846FDF76AFC236807
:102CC000174C002117480222A34211D1036843F098
:102CD00010030360006800F010000590900200905F
:102CE000CDE901210120CDE9031069460E4812E02B
:102CF0000E4CA34211D1036843F001030360006846
:102D000000F001000590C0200090CDE90121CDE93F
:102D1000031269460648FFF789F906B010BD0000A6
:102D20000000014030380240001002400004004022
:102D300000000240704770B5044690F83C000D4614
:102D400001280DD0012684F83C60022084F83D0063
:102D500042B1042A18D0082A2AD00C2A4DD139E0D1
:102D6000022070BD206801F0DFFB2068816941F01E
:102D7000080181612068816921F004018161206876
:102D800081692A69114311E0206801F0FDFB206888
:102D9000816941F4006181612068816921F4806169
:102DA0008161206881692A6941EA0221816124E008
:102DB000206801F01FFC2068C16941F00801C16171
:102DC0002068C16921F00401C1612068C1692A69D4
:102DD000114311E0206801F041FC2068C16941F411
:102DE0000061C1612068C16921F48061C16120680E
:102DF000C1692A6941EA0221C16184F83D6000206D
:102E000084F83C0070BD10B5040003D094F83D0078
:102E100010B107E0012010BD002084F83C002046DE
:102E200000F00CF8022084F83D00211D206801F01C
:102E3000F7FA012084F83D00002010BD704770476C
:102E400010B504460068012201F04EFB0B492068D2
:102E5000884202D00A49884203D1416C41F40041C2
:102E600041642068816801F00701062903D00168E8
:102E700041F001010160002010BD00000000014090
:102E8000000401400068B0F1804F01D1FFF7BCB9E8
:102E9000704770477047000070B5026804461068BC
:102EA000D168536910F00F0F52D003F0010501F4FF
:102EB00090762E435FD0C20705D0CA0503D5E26BDA
:102EC00042F00102E263420705D5DA0703D0E26B64
:102ED00042F00202E263820705D5DA0703D0E26B13
:102EE00042F00402E263020707D501F020022A4300
:102EF00003D0E26B42F00802E263E26B002A33D0B7
:102F0000800604D5880602D5204601F015FC20680D
:102F10004069E16BC0F38010090700D428B3204654
:102F200001F0FCFB2068416949061AD5416921F08E
:102F300040014161606BA0B11B490165606BFEF708
:102F400029FF002810D0606B016DBDE87040084774
:102F5000830610D58B060ED52046BDE8704001F0E3
:102F6000EBBB2046FFF796FF70BD2046FFF792FFB0
:102F70000020E06370BD030606D50B0604D520468D
:102F8000BDE8704001F0B8BC4006F3D54806F1D565
:102F9000D168204621F04001D160202184F8391009
:102FA00000F017FA70BD00000D47000870B504006E
:102FB00004D094F83900002510B106E0012070BD5E
:102FC00084F83850204600F023F8242084F8390093
:102FD0002068C16821F40051C160204601F0F8FB6F
:102FE0002068016921F4904101612068416921F064
:102FF0002A0141612068C16841F40051C160E56364
:10300000202084F8390084F83A00002070BD0000C8
:103010002DE9F04F87B0054614216846FDF7B9FA4F
:10302000DD48DFF870830221D5F800C0DA4A103895
:1030300003260123DFF864E300248F064FF0080B1A
:103040004FF480694FF4807AC44535D1D2F800C07E
:103050004CF4002CC2F800C0126802F40022059261
:10306000026842F0010202600068CDE9006100F0F0
:103070000100CDE904B0CDE9023669467046FEF79D
:10308000D5FFC84EC6483060C6E90174C6E9034999
:103090007461C6E9064A346230467462FEF75CFF2A
:1030A00008B1FDF7F6FF6E63002211463420B563C8
:1030B000FFF730F9342076E0DFF8EC82C44578D1B0
:1030C000D2F800C04CF4801CC2F800C0126802F4B0
:1030D00080120592026842F004020260026802F067
:1030E00004020592026842F00802026000689846F5
:1030F00000F0080005904FF4805000900220CDE9C8
:103100000103CDE9036B6946A848FEF78FFF042051
:1031100000900220CDE90108CDE9036B6946A4487F
:10312000FEF784FFDFF87C829D4908F16008404685
:10313000303902C0BB46E0E802745646E0E8034975
:103140004FF4403740F8044C80E8D0004046C8F8BF
:103150002440FEF701FF08B1FDF79BFFC5F834805E
:10316000C8F83850DFF83C828D4908F1C008404665
:103170007831E0E8021B4021A0E8120210C080E88C
:10318000D0004046C8F82440FEF7E6FE08B1FDF73F
:1031900080FFC5F83080002211463520C8F838502D
:1031A000FFF7B8F83520FFF7A7F807B0BDE8F08FB4
:1031B000FFE7DFF800820723C44539D1764A121DA4
:1031C000D2F800C04CF0100CC2F800C0126802F037
:1031D00010020592026842F0010202600068049346
:1031E00000F0010005904FF4C0608DE8530069467F
:1031F0007046FEF71BFF714E6F483060C6E90174E0
:10320000C6E903497461C6E9064A4FF40030C6E9CD
:1032100008043046FEF7A0FE08B1FDF73AFF6E63E2
:10322000002211462520B563FFF774F82520BAE780
:10323000DFF88C81C4454ED1D2F800C04CF4003C7C
:10324000C2F800C0126802F400320592026842F02F
:1032500001020260026802F001020592026842F077
:10326000080202600068CDE900B100F00800CDE975
:103270000430CDE9024688469B4669467046FEF713
:10328000D5FE2020CDE900080DF10808694688E840
:1032900050084748FEF7CAFE484E4148603648305D
:1032A0003060C6E90174C6E903497461C6E9064A9B
:1032B0004FF44030C6E908043046FEF74DFE08B131
:1032C000FDF7E7FE6E63002211462620B563FFF787
:1032D00021F8262067E7DFF8EC80C4457FF465AF6E
:1032E000D2F800C0A0464CF4802CC2F800C012688E
:1032F00002F480220592026842F002020260006835
:10330000049300F0020005904FF440608DE85300F4
:1033100069462D48FEF78AFE28482149C0301839F1
:103320000160C0E90174C0E90349BB464E4600F1A3
:10333000180C57464FF4003944618CE890024462FF
:10334000FEF70AFE08B1FDF7A4FE1C481F4CC03072
:1033500068638563124804F118011830C4E9000B52
:103360004020A060C4E903864046C4F8148081E888
:1033700081022046C4F82480FEF7EEFD08B1FDF777
:1033800088FE2C63002211462720A563FEF7C2FFAA
:10339000272008E7004C004040380240000002406F
:1033A0004060024028060020005000400008024013
:1033B000000C024000100140406402404807002019
:1033C000004400400048004000040240680800201B
:1033D00070477047FEE7000070B50D4C0025C4F83B
:1033E000B4520C48016821F040410160016841F08D
:1033F00080410160C4F8BC52022004F52D7402F033
:1034000057FF01202060022002F052FF256070BDAE
:10341000008040420004024070B50D4C0025C4F805
:10342000B4520C48016821F040410160016841F04C
:10343000804101600126C4F8BC62022004F52D74AD
:1034400002F036FF2660022002F032FF256070BDD8
:1034500000804042000402402DE9F04781461648B2
:103460000024016821F04041016001680160134EB1
:10347000254627464FF00108C6F8B472022002F034
:1034800017FFC6F8B4826006040ED6F83C0208B1F5
:10349000641CE4B2012002F00BFF6D1CEDB2082D9C
:1034A000EAD3B9F1000F04D0FFF796FF2046BDE83C
:1034B000F087FFF7B1FFF9E70004024000804042C7
:1034C0002DE9F04106461448016821F040410160B1
:1034D000016841F080410160104C0027C4F8B472CB
:1034E0003D464FF00108F009C4F8BC027006060E14
:1034F000022002F0DDFEC4F8B482022002F0D8FE01
:10350000C4F8B472022002F0D3FE6D1CEDB2082D97
:10351000E9D3BDE8F0810000000402400080404291
:1035200070B50D48016821F040410160016841F02B
:1035300080410160094C0120C4F8BC02C4F8B40207
:10354000042004F52D7402F0B3FE0025A5600420CC
:1035500002F0AEFE256070BD0004024000804042D3
:103560000E4810B5016821F040410160016841F04A
:10357000804101600A4C0020C4F8B402C4F8BC02C7
:10358000042004F52D7402F093FE01202060A06059
:10359000BDE81040042002F08BBE00000004024091
:1035A0000080404270B512480024016821F040417B
:1035B0000160016801600F4D0126C5F8BC6230460C
:1035C00002F076FEC5F8B462012002F071FE07E059
:1035D000641CE4B2FA2C03D9FFF7C2FF012070BDCE
:1035E000D5F83C020028F3D1C5F8B40270BD000044
:1035F0000004024000804042F7EE001A21EE000A6B
:1036000031EEC11A01EE200A7047000030B504689F
:103610001F49238811F81C2F22800468120222807F
:103620004D7804682A43228004688A78628004689E
:1036300012026280CD7804682A43628004680A79A5
:10364000A28004681202A2804D7904682A43A280F5
:1036500002688979D18002681188C91A09B251813A
:1036600001F580530268B3F5005F09D9002901DD37
:10367000012301E04FF0FF335B4201EB4331518105
:103680000068B0F90A20C1691144C16130BD000071
:10369000F845002070B50446016008461546202113
:1036A000FCF777FF00206560A8706268192111702F
:1036B0006268517020812168088221680880216831
:1036C00048612168C86170BD10B58AB0040A8DF8E0
:1036D00000408DF80100080A8DF80200100A8DF8EC
:1036E00004008DF80520180A8DF806004FF40070CC
:1036F00002908DF8031000208DF80730049005909B
:103700000820069008AB6A4602A90248FDF7EEFEC3
:103710000AB010BD0404002010B51B4A036812F85B
:103720001C1F19800368090219805478036821431B
:10373000198003689178598004680B026380D478FB
:10374000016823434B8003681179998003680C0258
:103750009C80537901681C438C8091790268D180E8
:103760000168B1F90000B1F90A20831AB3F5805F4E
:1037700007DBA3F5FD50002801DCC3F5FD5088816F
:1037800010BD101AFBE70000F845002042681178D0
:103790004B1C137042685378994206D300219170F4
:1037A00040680178491E0170704701209070704791
:1037B00070B504460160084615460E21FCF7C7FEA9
:1037C00000206560A87062681921117062685170EC
:1037D000208170BD10B58AB0040A8DF800408DF8C4
:1037E0000100080A8DF80200100A8DF804008DF817
:1037F0000520180A8DF8060040F2FF1002908DF89F
:10380000031000208DF807300490059008200690E2
:1038100008AB6A4602A90248FDF768FE0AB010BD6F
:103820000404002010B514498AB0C88A0B8B040A1E
:103830008DF800408DF80100180A8DF80200100A7A
:103840008DF804008DF803308DF80520087D8DF883
:103850000600487D8DF8070040F2FF20029000200E
:10386000049005900820069008AB6A4602A9034818
:10387000FDF73CFE0AB010BD985000202C0400203B
:1038800010B51049036811F81C2F1A800368120242
:103890001A804C78036822431A8003688A785A8019
:1038A000036812025A80CC78036822435A80036866
:1038B0000A799A80036812029A80006849790A435B
:1038C000828010BDF8450020144910B591F82310EE
:1038D000002922D11249036811F81C2F1A800368AD
:1038E00012021A804C78036822431A8003688A788F
:1038F0005A80036812025A80CC78036822435A80A7
:1039000003680A799A80036812029A804C790368E6
:1039100022439A8000688979C18010BDF845002053
:103920001C460020426811784B1C13704268537883
:10393000994205D300219170406841780170704729
:1039400001209070704770B5044601600846154626
:103950001821FCF71EFE00206560A8706268322105
:10396000117062685170208170BD000070B505460D
:10397000FFF7D6FD0F4C20784006000EFFF7A0FDA4
:10398000FFF710FE2846FFF79BFDFFF70BFEFFF742
:10399000C7FD2078012101EB4000C0B2FFF790FD88
:1039A000FFF700FE0020FFF757FD0446FFF7D8FDA4
:1039B000204670BD140100202DE9F04116460D4649
:1039C0000746FFF7ADFD134C20784006000EFFF7C9
:1039D00077FDFFF7E7FD3846FFF772FDFFF7E2FDE1
:1039E000FFF79EFD2078012101EB4000C0B2FFF7F8
:1039F00067FDFFF7D7FD002406E00120FFF72CFD4F
:103A0000641C05F8010BE4B2B442F6D3BDE8F04102
:103A1000FFF7A6BD140100207FB5002415480094CF
:103A2000019402941249039401604FF48031C0E97B
:103A300001140461047680F820400F49C0E90A149B
:103A40000125C561C46080F830404561FDF7E2FCA6
:103A500008B1FDF71EFB0A20CDE900056946029476
:103A60000448FDF731FC002801D0FDF712FB7FBDB3
:103A700000200140BC0300200100000F104810B5D9
:103A80000E4901600321416000214FF40022816052
:103A9000C0E903124FF4401242610176417681760B
:103AA000C176017701214177FDF787FF002803D018
:103AB000BDE81040FDF7EDBA10BD00000064004005
:103AC00004040020104810B50E4901600321416034
:103AD00000214FF400228160C0E903124FF440122C
:103AE0004261017641768176C17601210177417785
:103AF000FDF763FF002803D0BDE81040FDF7C9BA09
:103B000010BD0000006800402C0400201CB50024FB
:103B10000C4900940A48019408600846FEF7C0F872
:103B200008B1FDF7B6FA0220CDE90040002269464F
:103B30000448FEF794F8002801D0FDF7AAFA1CBD4E
:103B40000074004054040020254808B5016841F481
:103B500000110160016801F400110091016841F455
:103B6000800101600068002200F48000009011468E
:103B70000B20FEF7CFFB0B20FEF7BEFB0022114609
:103B80000C20FEF7C7FB0C20FEF7B6FB0022114607
:103B90000D20FEF7BFFB0D20FEF7AEFB0022114605
:103BA0000E20FEF7B7FB0E20FEF7A6FB0022114603
:103BB0001020FEF7AFFB1020FEF79EFB00221146FF
:103BC0002F20FEF7A7FB2F20FEF796FB00221146C1
:103BD0003A20FEF79FFBBDE808403A20FEF78CBB79
:103BE0003038024010B5AAB01C2221496846FCF7C3
:103BF0007CFC0021684603F0A4FF1E4C1C491C22DB
:103C000020601C3107A8FCF770FC002107A803F016
:103C100098FF174960601C2238310EA8FCF765FC3C
:103C200000210EA803F08DFF1149A0601C22543121
:103C300015A8FCF75AFC002115A803F082FF0C49D7
:103C4000E0601C2270311CA8FCF74FFC00211CA86E
:103C500003F077FF064920611C228C3123A8FCF772
:103C600044FC002123A803F06CFF60612AB010BD62
:103C700050B600080C0000202DE9F04F87B0142149
:103C80006846FCF786FC3C480024016841F080014E
:103C90000160016801F080010591016841F00401B3
:103CA0000160016801F004010591016841F0010122
:103CB0000160016801F001010591016841F0100106
:103CC0000160016801F010010591016841F00201F5
:103CD0000160016801F002010591016841F00801ED
:103CE00001600068254E00F00800059001220E21B9
:103CF0003046FEF77EFADFF88890002224214846FD
:103D0000FEF777FADFF87CA04FF42047012239460E
:103D10005046FEF76EFADFF870B04FF400780122DB
:103D200041465846FEF765FA0E2000900125CDE980
:103D30000154694630460394FEF778F9242003269F
:103D4000CDE90005CDE9024669464846FEF76EF921
:103D500000970396CDE9015469465046FEF766F98F
:103D6000CDF80080CDE90154694658460394FEF72A
:103D70005DF907B0BDE8F08F30380240000802401E
:103D80000000024000040240000C024010B596B052
:103D900000240F9410941194129413941C2108A8D9
:103DA0001494FCF7F6FB20216846FCF7F2FB294847
:103DB0002749016040F61F51C0E9011440F2E73184
:103DC000C0E9031444618461FEF704FE08B1FDF705
:103DD00060F94FF480500F900FA91E48FEF749FE7E
:103DE00008B1FDF756F91B48FFF70DF808B1FDF7CC
:103DF00050F9139413A917481494FEF7A3FD08B1C2
:103E0000FDF747F96020CDE908040A940B940C945F
:103E10000D94042208A90F480E94FEF78CFF08B1F8
:103E2000FDF737F900944FF40050CDE904400294B7
:103E300001940394694607480794FEF759FD08B1B9
:103E4000FDF727F90348FEF733FF16B010BD000059
:103E5000000001406804002010B58EB000240794D3
:103E6000089409940A940B941C2168460C94FCF75E
:103E700090FB2248204901605321C0E9011440F61B
:103E8000C311C0E903148461FEF7A4FD08B1FDF776
:103E900000F94FF48050079007A91848FEF7E9FD94
:103EA00008B1FDF7F6F81548FEF7ADFF08B1FDF7CC
:103EB000F0F80B940BA911480C94FEF743FD08B1E0
:103EC000FDF7E7F86020CDE900040294002269467E
:103ED0000A480494FEF72FFF08B1FDF7DAF8042230
:103EE00069460648FEF727FF08B1FDF7D2F80348F8
:103EF000FEF7DEFE0EB010BD00040040A804002056
:103F00000C4810B50A4901604FF4E13141600021CD
:103F100081600C22C160C0E904128161C161FFF7B8
:103F200045F8002803D0BDE81040FDF7B2B810BD39
:103F3000004C0040E80400200C4810B50A4901601C
:103F40004FF4E1314160002181600C22C160C0E981
:103F500004128161C161FFF729F8002803D0BDE890
:103F60001040FDF796B810BD005000402805002015
:103F70000C4810B50A4901604FF4E131416000215D
:103F800081600C22C160C0E904128161C161FFF748
:103F90000DF8002803D0BDE81040FDF77AB810BD39
:103FA00000100140680500200C4810B50A49016066
:103FB0000B494160002181600C22C160C0E90412FC
:103FC0008161C161FEF7F2FF002803D0BDE8104017
:103FD000FDF75FB810BD000000440040A8050020B8
:103FE000A08601000C4810B50A4901604FF4E13188
:103FF0004160002181600C22C160C0E9041281612E
:10400000C161FEF7D3FF002803D0BDE81040FDF7E3
:1040100040B810BD00480040E805002030B590F8D9
:10402000201019234A1C80F820200022012419297D
:1040300004D380F8222080F8203001E080F822406C
:1040400090F823104D1C80F82350192904D380F8D0
:10405000252080F8233030BD80F8254030BD002178
:1040600020F8061B192220F8041C8180C18082766A
:10407000C276017742778277C1777047FEE7704753
:1040800030B4034C4466034C846630BC03F046BF36
:104090001D7F00082B7F000810B500210948FEF79E
:1040A000CFFE04210748FEF7CBFE00210846FCF7AF
:1040B000F1FF04210448FEF7C3FE04490020886391
:1040C00010BD0000A804002068040020000001408A
:1040D00070B5454904462DED028BA1F10C00414A13
:1040E000FFF766FB40493F4A1C31D21CA1F10C008E
:1040F000FFF75EFB3C493B4A2C39D21EA1F1180068
:10410000FFF7C8FA38489FED398A443820603830C4
:104110006060DFED378A1C304FF4FA55A060B0EED6
:10412000481AF0EE680AB3EE040A00232A46032177
:104130001C30FFF7A5FF2C48B0EE481AF0EE680AD5
:10414000B3EE040A00232A4603219830FFF798FFB4
:104150009FED288A40F6B836B2EE040AB0EE481A4F
:10416000F0EE480A33462A4603212348FFF788FF2A
:104170002148B0EE481AF0EE480AB6EE000AEB10FD
:104180002A4603216C30FFF77BFF42F22835B0EE60
:10419000481AF0EE480AB2EE0E0A33462A460321C8
:1041A0001648FFF76DFF1548B0EE481ADFED140A08
:1041B000B2EE000A41F288332A4603216C38FFF739
:1041C0005FFF09482C30E0606C3020616C3060612A
:1041D0006C30A0616C30E0616C302062BDEC028B11
:1041E00070BD00001A010020AC4B00203333333F78
:1041F000CDCCCC3D00000000B04C0020F44D0020A0
:104200000AD7233C70B58EB00646002502468DF8CD
:1042100000500121684601F081FA01F093F932461D
:104220000121042001F03AFD044601F08BF984B924
:104230000C208DF8020002208DF8030001208DF87B
:1042400005508DF8040001463246684601F030FE04
:1042500004460EB0204670BD70B58EB001240646EF
:1042600002468DF800402146684601F057FA01F0F9
:1042700069F932460221042001F010FD054601F0E3
:1042800061F995B90C208DF8020000208DF8060028
:1042900002208DF803008DF807408DF80440324667
:1042A0000121684601F004FE05460EB0284670BDA7
:1042B00000F004F8012003F038FCF9E770B51C4861
:1042C00000251C4C90F8221001290BD1407A48B1EE
:1042D000C0EBC00000EB400041F2A861084440423E
:1042E000A08500E0A5851348FCF7E0FEA068FFF775
:1042F0004DFA6068FFF74AFA61684868807870B1E3
:10430000A0684268927852B12268098900891289AE
:104310000023FFF7D9F9012084F82E0070BD002397
:104320001A4619461846FFF7CFF984F82E5070BD8B
:10433000985000203801002010B5012003F0F5FB53
:10434000FBE7000010B5502080F31188BFF34F8FBA
:10435000BFF36F8F06F0FCFA18B104494FF080509C
:104360000860002080F3118810BD000004ED00E01B
:1043700030B593B030216846FCF70BF914210CA836
:10438000FCF707F91A480025016841F080510160E7
:10439000006800F0805011901648016841F4804197
:1043A00001600068022400F4804011900120009018
:1043B000000401908001CDE90640192008904FF4D7
:1043C000A870CDE9090404200B906846FEF7E0F8D8
:1043D0000CA90F2081E831004FF4A0500F90E002AB
:1043E000109005210CA8FDF7C7FF13B030BD0000E9
:1043F00040380240007000400548016841F47001F7
:10440000016003494FF00060803908607047000088
:1044100088ED00E00148FEF798BB0000C8080020C6
:10442000F0B50268254C264D264E274F274B4FF0FE
:10443000804CA04209D0604507D0A84205D0B042C8
:1044400003D0B84201D0984204D122F0700E4A68DD
:1044500042EA0E02A0421BD0604519D0A84217D0F4
:10446000B04215D0B84213D0984211D0184DA8428E
:104470000ED0184DA8420BD0174DA84208D0174DAA
:10448000A84205D0164DA84202D0164DA84203D12D
:1044900022F44075CA682A434D6922F080022A43FB
:1044A00002608A68C2620A688262A04201D09842B1
:1044B00001D10969016301214161F0BD00000140A2
:1044C0000004004000080040000C004000040140CF
:1044D00000400140004401400048014000180040F5
:1044E000001C00400020004010B501F01F03012116
:1044F000046A99408C430462016A9A401143016244
:1045000010BD10B5846842EA032224F47F440A43B4
:104510002243826010BD826822F070020A4342F09A
:104520000701816070470000F0B5026A22F00102C5
:104530000262036A42688469124E24F073050C68B3
:104540002C4323F002058B682B430D4DA84201D06C
:10455000B04205D123F00807CB683B4323F00403A6
:10456000A84201D0B04205D14D6922F440721543F2
:104570008A692A4342608461496841630362F0BDED
:104580000000014000040140F0B5026A22F0100270
:104590000262026A436884690D6824F4E64444EACE
:1045A00005248D6822F0200242EA05120F4D104EBC
:1045B000A84201D0B04206D1CF6822F0800242EA80
:1045C000071222F04002A84201D0B04207D14D6943
:1045D00023F4406343EA85038D6943EA850343601E
:1045E0008461496881630262F0BD000000000140FF
:1045F00000040140F0B5026A22F480720262026A8D
:104600004368C46922F4007224F073050C68124EEA
:104610002C438D6842EA05220E4DA84201D0B042DB
:1046200006D1CF6822F4006242EA072222F48062B7
:10463000A84201D0B04207D14D6923F4405343EA68
:1046400005138D6943EA05134360C4614968C1637A
:104650000262F0BD000001400004014030B5026A72
:1046600022F480520262046A4268C3690D6823F42E
:10467000E64343EA05238D6824F4005444EA0534F4
:10468000084DA84202D0084DA84204D14D6922F439
:10469000804242EA85124260C36149680164046253
:1046A00030BD0000000001400004014010B5036A65
:1046B000046A24F001040462846924F0F00444EAEA
:1046C000021423F00A020A438461026210BD10B58D
:1046D000036A23F0100303628369046A23F47043BE
:1046E00043EA023224F0A00343EA0111826101622D
:1046F00010BD00000148FEF7CFBB0000E804002019
:104700000148FEF7C9BB00002805002010B5806BEA
:104710000021C185C184FEF7BDFB10BD0168CA68D8
:1047200022F49072CA6001684A6922F001024A616B
:10473000202180F83A10704710B590F83A102229DD
:1047400001D0022010BD8168B1F5805F11D00169F0
:10475000002901681FD0496801F07F03816A4A1C63
:1047600082620B70C18D491E0904090CC18518D0E5
:104770002BE00269816A002A0268526805D0D2B231
:104780000A80816A491C8162ECE7C2F308020A8050
:10479000816A891CF7E74A68816A4B1C83620A7048
:1047A000E0E70168CA6822F02002CA600168CA68AE
:1047B00022F48072CA6001684A6922F001024A61EB
:1047C000202180F83A10FEF703FE002010BD000003
:1047D0002DE9F041044600680169E26821F4405186
:1047E000114301612169A068E269084361691143CD
:1047F00008432168CA6849F20C639A430243CA60BD
:1048000020684169A26921F4407111434161E06966
:10481000192764253226B0F5004F354A35492068FE
:104820004FF0000806D0884201D0904236D1FDF703
:104830006DFE35E0884201D0904202D1FDF766FE60
:1048400001E0FDF753FE61684A18A0FB070148EB41
:104850000803FBF7D3FD0146B0FBF5F00201B1FB05
:10486000F5F06FF01803584301EB800006EBC00031
:10487000B0FBF5F000F0F80002EB4002B1FBF5F000
:10488000584301EB800006EBC000B0FBF5F000F0F0
:104890000700216810448860BDE8F081FDF726FE1E
:1048A00061688B0F8A00A0FB0701FBF7A7FD01469B
:1048B000B0FBF5F06FF01802504301EB800006EBFF
:1048C0000010B0FBF5F000F0F002B1FBF5F002EBE8
:1048D0000012B1FBF5F06FF01803584301EB8000B4
:1048E00006EB0010B0FBF5F000F00F00D1E7000080
:1048F000001401400010014090F83910212901D026
:10490000022070478168B1F5805F016A0BD04A1CB4
:104910000262026809785160C18C491E0904090CC1
:10492000C1840ED017E009880268C1F30801516004
:1049300001690029016A02D0491C0162ECE7891C67
:10494000FBE70168CA6822F08002CA600068C1689B
:1049500041F04001C1600020704700000148FEF7AF
:104960009BBA0000680500200B4882B001680A6805
:104970004A680092CA6842F01002CA6001684A6937
:1049800042F040024A610168406B4FF4AF73034A42
:10499000091D02B0FCF734BB6805002080460020EA
:1049A0000148FEF779BA0000A80500200C4808B5B8
:1049B00001680A684A680092CA6842F01002CA6038
:1049C00001684A6942F040024A611221009101687F
:1049D000044B406BA3F11802091DFCF7B1F908BDA7
:1049E000A8050020F6470020704700000148FEF7A8
:1049F00053BA0000E80500200B4882B001680A683D
:104A00004A680092CA6842F01002CA6001684A69A6
:104A100042F040024A610168406B4FF4AF73034AB1
:104A2000091D02B0FCF7ECBAE80500200E48002092
:104A30000B4882B001680A684A680092CA6842F06E
:104A40001002CA6001684A6942F040024A61016886
:104A5000406BC823034A091D02B0FCF7D1BA00001D
:104A6000E80400206C4900200B4882B001680A6805
:104A70004A680092CA6842F01002CA6001684A6936
:104A800042F040024A610168406BC823034A091D95
:104A900002B0FCF7B5BA000028050020344A002017
:104AA000FEE703B401984100009850EAC12018BF06
:104AB00004204A0D18BF40F0010040F2FF72B2EB33
:104AC000515F08BF40F00200012808BF052002B076
:104AD00070470907090E002804DB00F1E02080F888
:104AE0000014704700F00F0000F1E02080F8141D62
:104AF000704700000000000070B5C1482DED020BAA
:104B00002DED0E8B82B0119D25F000449FEDBEDB94
:104B10009FEDBFEB84423EDBA4F140511098A1F120
:104B20007F6108430FD0BC48844202DC28D1109832
:104B300030B39DED100B02B0BDEC0E8B02B0BDE8A2
:104B4000704000F071BC9DED100B53EC1D2B51EC2F
:104B5000100B06F047FA9DED100B41EC180B53ECCF
:104B60001E2B51EC100B06F03DFA53EC182B05F000
:104B7000C1FF41EC100B02B0BDEC0E8B02B070BD5A
:104B80000120FBF788FD02B0BDEC0E8B02B0BDE842
:104B9000704000F05DBCA1489FEDA18B844256DAC5
:104BA0009DED100BB4F1795F0ADA51EC100BFFF7B1
:104BB00078FF042808BF00F05BFC9DED100BDAE7DE
:104BC00053EC102B51EC100B06F00CFA41EC190BC6
:104BD00095480621B0EE490AF0EE690A784400F0E3
:104BE000A7FB53EC192B51EC100B06F0FBF941EC31
:104BF0001A0B8E48B0EE490AF0EE690A0421784497
:104C000000F096FB53EC192B51EC100B06F0EAF96F
:104C100053EC182B05F06EFF41EC100B51EC1A0B06
:104C200053EC102B06F01AF8CDE900019DED000BB6
:104C300053EC102B9DED100B51EC100B06F0D2F93C
:104C40009DED101B53EC112B05F054FFD2E09DEDB0
:104C5000100B51EC100B01F06AFB53EC182B06F013
:104C6000BFFA9FED730BCDE9000153EC102B9DEDC6
:104C7000000B51EC100B06F0B5F941EC190B6E4826
:104C80000621B0EE490AF0EE690A784400F050FBC4
:104C900053EC192B51EC100B06F0A4F941EC1B0B53
:104CA0006648B0EE490AF0EE690A0421784400F043
:104CB0003FFB53EC192B51EC100B06F093F953EC1E
:104CC000182B05F017FF41EC1C0B51EC190B05F0EC
:104CD00013FB41EC180B5A489FED5BABA04222DC62
:104CE00053EC1C2B51EC1B0B05F0B8FFCDE9000178
:104CF0009DED000B51EC180B53EC102B06F072F9E4
:104D000053EC182B05F0F6FE53EC1A2B06F06AF95B
:104D100053EC1D2B06F03CFB53EC1E2B06F060FA07
:104D200041EC100B5FE08DED008B002000909DEDBD
:104D3000000B51EC180B53EC102B05F0DBFE9DED36
:104D4000000B41EC1E0B53EC102B51EC100B06F03A
:104D500049F953EC192B06F043FA53EC1E2B05F0DE
:104D60007DFF41EC190B53EC1C2B51EC1B0B05F098
:104D700075FF41EC1B0B53EC1A2B51EC190B06F091
:104D800031F953EC1D2B06F02BFA41EC190B53ECC7
:104D90001A2B51EC180B06F025F953EC1B2B06F0DF
:104DA00021F953EC192B06F0F3FA9DED000B41ECC1
:104DB000180B53EC1A2B51EC100B06F013F99FED66
:104DC000249B53EC192B06F00BFA41EC100B51EC21
:104DD000180B53EC102B06F0DBFA53EC192B06F0F2
:104DE000FFF941EC100B002D3FF7C5AE51EC100B55
:104DF00005F074FE41EC100BBDE600000000000061
:104E00000000F03F00000000075C143326A6913C30
:104E1000182D4454FB21F93F0000F07F0000E03FD3
:104E2000000000000000F03F888B0000968B00001F
:104E3000000000000000E03FDA8A0000E88A00007D
:104E40003333EF3F0000000000000000000000408E
:104E5000182D4454FB21E93F70B59B482DED020B02
:104E60002DED068B079D25F00044A04218DC9748E5
:104E7000844202DC0AD1069840B19DED060BBDECE0
:104E8000068B02B0BDE8704000F0CEBA002DCCBF5A
:104E90009FED8F0B9FED900BBDEC068B02B070BDAC
:104EA0008F48A04215DD8F48A042D8BF4FF0FF3495
:104EB00058DD9DED060B51EC100BFFF7F2FD0428B9
:104EC00008BF00F0D5FA9DED060BBDEC068B02B0D5
:104ED00070BD9DED060B51EC100B01F028FACDE9E9
:104EE000060181489FED828BA0423CDD8248A042B2
:104EF0001FDD00249FED82AB9DED060B53EC1A2BBA
:104F000051EC100B05F0F6FD9DED060B41EC190B75
:104F100053EC1A2B51EC100B06F064F853EC182BE1
:104F200006F036FA53EC192B05F098FECDE9060190
:104F300049E09DED060B012453EC182B51EC100BAE
:104F400005F0D8FD9DED060B41EC190B53EC182B29
:104F500051EC100B06F01CFA53EC192B05F07EFEF9
:104F6000CDE906012FE06848A0421FDD02249FED35
:104F7000689B9DED060B53EC192B51EC100B06F0C2
:104F800031F853EC182B05F0B5FD9DED060B41EC07
:104F9000180B53EC192B51EC100B06F0F9F953ECEC
:104FA000182B05F05BFECDE906010CE09DED060B2C
:104FB000032453EC102B9FED580B51EC100B05F014
:104FC0004DFECDE906019DED060B53EC102B51EC87
:104FD000100B06F007F841EC180B53EC182B06F0F9
:104FE00001F841EC190B4E480621B0EE490AF0EEEB
:104FF000690A784400F09CF953EC182B51EC100B23
:1050000005F0F0FF41EC180B4648B0EE490AF0EE0F
:10501000690A0521784400F08BF953EC192B51EC07
:10502000100B05F0DFFF41EC100B51EC180B53ECAB
:10503000102B002C0EDA05F05DFD9DED061B53ECE8
:10504000112B05F0CFFF9DED061B53EC112B06F045
:10505000C7F835E005F04EFD9DED061B53EC112B16
:1050600005F0C0FF41EC100B2F48784400EBC40062
:1050700090ED001B51EC100B53EC112B06F088F94E
:105080009DED061B53EC112B06F082F941EC100B41
:105090002648784400EBC40090ED001B51EC100B47
:1050A00053EC112B06F09CF841EC100B002DA2BF25
:1050B000BDEC068B02B070BD51EC100B05F00EFD7F
:1050C00041EC100B01E70000000010440000F07FED
:1050D000182D4454FB21F93F182D4454FB21F9BFEE
:1050E0000000DC3F0000203E0000F33F0000000015
:1050F000000000000000F03F0000E63F000000005C
:10510000000000000000004000800340000000009C
:10511000000000000000F83F000000000000F0BFA9
:105120002A880000E08700006A87000022870000CC
:1051300070B56F4E2DED040B2DED048B82B0DDF8B4
:1051400024C0DDE907235C422CF000411C4341EA06
:10515000D474069D22F00040B44205D86C422C4322
:1051600040EAD474B4420BD99DED081B9DED060BAB
:1051700002B0BDEC048B04B0BDE8704000F05EB935
:10518000ACF14054A4F17F641C430BD0022404EA28
:10519000AC7444EAD27405439FED578B9FED582BB6
:1051A00007D015E09DED060B51EC100B00F085F9D2
:1051B00042E0002C11BF012C9DED060B02B0BDECAE
:1051C000048B04BF04B070BD022C38D0032C3BD03C
:1051D0000B439FED4D1B9FED4E0B0AD0B14218D1F2
:1051E000B04209D121F0804120F080400991079020
:1051F0000FE0002A15DA10E0474B7B44002C08BF73
:1052000093ED000B0DD0012C10D0022C17D0032CE5
:105210001AD0B0421DD1002A03DAB0EE410AF0EEF6
:10522000610A02B0BDEC048B04B070BD93ED000BBD
:1052300051EC100B05F052FC41EC100BF1E7B0EE15
:10524000480AF0EE680AECE7B0EE420AF0EE620AB5
:10525000E7E7401A00159FED329B3C28C8BF8DED53
:10526000000B17DCBCF1000FBCBF10F13C0F8DED43
:10527000009B0FDB9DED080B53EC102B9DED060BF7
:1052800051EC100B05F0EAFC01F051F800F015F9B3
:10529000CDE90001B4B1012C10D0022C9FED220BFE
:1052A00053EC102B9DED000B51EC100B19D006F0B8
:1052B0006FF853EC182B06F06BF8BDE7019880F0FF
:1052C000004001909DED000B53EC192B51EC100B9D
:1052D00005F01CFE04BF0220FBF7DDF99DED000B7D
:1052E0009FE706F055F853EC182B05F079FFA3E77C
:1052F0000000F07F00000000182D4454FB210940FD
:10530000182D4454FB2109C0182D4454FB21F9BF2A
:10531000182D4454FB21F93F528600000000000084
:105320000000000000000000075C143326A6A13C2A
:1053300070B504462DED028B4D1E00EBC500B0EE9E
:10534000408AF0EE608A90ED000B35F0060017D031
:1053500053EC182B51EC100B05F044FE41EC100BF4
:105360006D1E04EBC50090ED001B51EC100B53ECCF
:10537000112B05F0BFFB41EC100B35F00600E7D117
:10538000022D36D0042D1CD0062D1CBFBDEC028B87
:1053900070BD53EC182B51EC100B05F023FE94ED6F
:1053A0000A1B53EC112B05F0A5FB53EC182B05F051
:1053B00019FE94ED081B53EC112B05F09BFB41ECFF
:1053C000100B53EC182B51EC100B05F00BFE94ED69
:1053D000061B53EC112B05F08DFB53EC182B05F03D
:1053E00001FE94ED040B53EC102B05F083FB41EC14
:1053F000100B53EC182B51EC100B05F0F3FD94ED52
:10540000021B53EC112B05F075FB53EC182B05F028
:10541000E9FD94ED001B53EC112B05F06BFBBDEC8B
:10542000028B41EC100B70BD10B553EC102B51ECFE
:10543000100B05F05FFB41EC100B10BD10B553ECE9
:10544000112B51EC100B05F055FB41EC100B10BD6E
:105450009FED050B10B553EC102B51EC100B05F024
:10546000FDFB41EC100B10BD00000000000000002F
:105470009FED050B10B553EC102B51EC100B05F004
:10548000B1FD41EC100B10BD000000000000001049
:10549000D0ED000AF4EEC00AF1EE10FA01DD80ED65
:1054A000000AD0ED000AB1EE400AF4EEC00AF1EEB7
:1054B00010FA01D280ED000A704710B541EC100BD4
:1054C000FFF7CAFC51EC100B10BD000010B5040032
:1054D0004FF0FF3030D0A16C00292DD0E16C0029B5
:1054E0002AD0216D002927D0242020704FF40050AD
:1054F000A4F85A000320A4F85800607A20B10020D4
:10550000E072206910B103E00120F9E70B48206147
:10551000204600F0FFFB00280ED10948E061303042
:10552000206208202075102060750720A075204695
:10553000BDE8104000F072B810BD00001EB70008B2
:105540001ED700087047F0B5044600231846557D65
:1055500011E0D66903EB4307F65D8E4209D1D069AD
:1055600003EB43010844018821808078A07001206A
:10557000F0BD5B1CDBB29D42EBD8F0BD2DE9F743DB
:105580004FF0000514465FEA01094FF010064FF096
:1055900030082F4626D02CB3207D9DF8001088427D
:1055A00039D91346012269462F2000F033FC002828
:1055B0001AD1E089102827D2C10701D0401EE0810E
:1055C000E28909EB0701B24223460FD8404600F0BA
:1055D0005BF8A17BCA19D7B201EB080202F0FF0801
:1055E000294408E04FF0FF30BDE8FE8332464046D4
:1055F00000F04AF8A919CDB2C5F11001CEB20028C9
:10560000F2D1002EDCD1EFE72346102249463020AC
:1056100000F03AF8E8E76FF00900E5E71FB5044647
:10562000002094F85810890705D5204602F071FA39
:1056300018B14FF0FF3004B010BD28208DF80000E5
:1056400022460121684600F086F90028F3D1BDF812
:105650000410A4F85410EEE770B505460C46084651
:1056600002F057FA68B965B1226D44F620606168AE
:10567000904723462946BDE870400122212000F0D2
:1056800003B84FF0FF3070BD2DE9F05F824617463A
:105690008B461C460025184602F03BFA060037D11F
:1056A000BBF1000F34D0E07A384480B28046FAF77C
:1056B0004FFE8146607A08B94AF0800A94F8570094
:1056C000D4F848C0012863684246494650460DD088
:1056D000E047A072226D142061689047A07AA0B1C3
:1056E0006FF001064846FAF762FE13E0E047A07249
:1056F0004FF4E170226D6168EFE7E17A09EB050094
:10570000095C0BF805106D1CADB2BD42F5D3E9E79D
:105710004FF0FF363046BDE8F09F00002DE9F0471E
:10572000044686B088469246104602F0F2F90028F8
:1057300075D1002C73D09AF8577000266FF00709C6
:10574000F6E000BF06EB860000EBC60514F8250066
:10575000042801D2022807D1012F05D1514600208B
:1057600000F026FB002870D114F825001D286DD20A
:10577000DFE800F00F161D242B32404040474E5604
:105780005D646D747B82899097A59EACD2646464DD
:10579000390004EB85005146801C00F0E4FDC1E0B7
:1057A00004EB85005146801C00F0AEFFBAE004EB2C
:1057B00085005146801C00F076FEB3E004EB8500C6
:1057C0005146801C01F067FAACE004EB85005146BD
:1057D000801C00F023FEA5E004EB85005146801CF0
:1057E00001F00EF99EE004EB85005146801C01F0AB
:1057F000F6FA97E004EB85005146801C01F0AAFA06
:1058000090E004EB85005146801C00F0E5FF89E044
:1058100004EB85005146801C01F06DFB82E095E0B1
:1058200004EB85005146801C01F091FB7AE004EB0B
:1058300085005146801C00F03BFF73E004EB8500BF
:105840005146801C01F0AFFB6CE081E06CE004EBA2
:1058500085005146801C01F0ADF963E004EB850042
:105860005146801C01F031F85CE004EB85005146A4
:10587000801C01F07CF855E004EB85005146801C4B
:1058800000F092FE4EE004EB85005146801C00F0D3
:105890005FFE47E004EB85005146801C01F0C1FB30
:1058A00040E004EB85005146801C01F03AFC39E0F1
:1058B00004EB85005146801C01F0EEFB32E004EB66
:1058C00085005146801C01F073FC2BE0002004EBA6
:1058D0008505009001900290039004905246172194
:1058E00004A8AD1CFFF72FFEF0B19DF81100524641
:1058F0006946FFF743FEF0B99DF812101DF801103C
:1059000001F001022A70C1F341026A70C1F38012F2
:10591000EA70C909297109E004EB85005146801C31
:1059200000F085FE38B901E0484604E0761CF6B286
:105930004645FFF407AF012F0AD1002808D106B071
:105940005146BDE8F047012000F032BA4FF0FF3079
:1059500006B0BDE8F0872DE9F74F86B082468B464A
:10596000089802F0D6F8040078D1BAF1000F75D08B
:10597000089800276FF0070690F8579050E10AEB5F
:1059800007152878042807D3B9F1010F04D10020A6
:10599000089900F00DFA0446002C52D128780F28FF
:1059A00070D00FDC072871D005DCE0B101282ED0C3
:1059B000022869D146E008286DD0092877D00E2842
:1059C000F7D179E0262873D006DC132871D0162889
:1059D000FCD02028EDD10FE127286BD028286AD0F1
:1059E0002D28E6D10DE105F104080021089D009164
:1059F00001910C202B4606226946FFF745FE20B98F
:105A00006946404600F09FFC17E004460EE105F1B0
:105A100004080021089D0091019112202B460622C6
:105A20006946FFF731FE0028EFD16946404600F095
:105A30008AFC2946404600F0C0FB2946404601F05A
:105A4000FFF8D0E005F104080025089B00950195BA
:105A5000D87D2C4618B16FF00D00D6E7E4E008229F
:105A600069460420FFF710FE0028CED169460B5D81
:105A700008F80530641C6D1CEDB2E4B2082DF6D3B5
:105A80000446B0E03DE001E089E004E0281D08990B
:105A900001F0FAF956E0002005F10408089D009095
:105AA0000190029003902A460821049089E045E085
:105AB0004BE07BE04EE09AE00020DDF82080009093
:105AC000019002900390049042460E2104A82D1DDF
:105AD00000F012FC002862D09DF811004246694691
