:020000040800F2
:100000008062002031030008454F00082D3B0008A6
:100010009D490008050B00086D5F00080000000006
:100020000000000000000000000000007102000855
:100030004718000800000000CD020008155700080E
:100040004B0300084B0300084B0300084B03000858
:100050004B0300084B0300084B0300084B03000848
:100060004B0300084B0300084B030008E51300088E
:10007000F1130008FD130008091400084B030008E1
:10008000151400084B0300084B0300084B0300083D
:10009000310B00084B0300084B0300084B0300081A
:1000A0004B0300084B0300084B0300084B030008F8
:1000B000E95700084B0300084B0300084B030008F6
:1000C0004B0300084B0300084B0300084B030008D8
:1000D0004B030008DD5D0008315E0008895E000802
:1000E0004B0300084B0300084B0300084B030008B8
:1000F0004B0300084B0300084B03000821140008C1
:100100004B0300084B0300084B0300084B03000897
:10011000C95A0008E15A00084B0300084B030008C5
:100120004B0300082D140008391400084B03000885
:100130004B0300084B0300084B0300084B03000867
:10014000DD0B00084B0300084B0300084B030008BD
:100150004B0300084514000851140008195F0008FB
:100160004B0300084B0300084B0300084B03000837
:100170004B0300084B0300084B030008000000007D
:100180004B0300084B03000800F002F800F060F891
:100190000AA090E8000C82448344AAF10107DA45E2
:1001A00001D100F055F8AFF2090EBAE80F0013F0D4
:1001B000010F18BFFB1A43F0010318472C1B010065
:1001C0004C1B01000A444FF0000C10F8013B13F0E7
:1001D000070408BF10F8014B1D1108BF10F8015BA0
:1001E000641E05D010F8016B641E01F8016BF9D193
:1001F00013F0080F1EBF10F8014BAD1C0C1B09D1EA
:100200006D1E58BF01F801CBFAD505E014F8016B5B
:1002100001F8016B6D1EF9D59142D6D370470000ED
:100220000023002400250026103A28BF78C1FBD8FF
:10023000520728BF30C148BF0B6070471FB50FF091
:10024000D2F99DE8030000F03FFA1FBD10B510BDC4
:1002500000F0A6FA1146FFF7F1FF09F0B5FF00F034
:10026000C4FA03B4FFF7F2FF03BC00F0F5FA000094
:100270002C4B19680868B0E8F04F80F30988BFF389
:100280006F8F4FF0000080F311887047000000006E
:1002900008480068006880F308884FF0000080F389
:1002A000148862B661B6BFF34F8FBFF36F8F00DF64
:1002B00000BF00BF08ED00E0DFF80C00016841F46A
:1002C00070010160704700BF88ED00E0EFF3098026
:1002D000BFF36F8F134B1A681EF0100F08BF20ED8D
:1002E000108A20E9F04F106009B44FF0500080F3FD
:1002F0001188BFF34F8FBFF36F8F0DF027FE4FF0C4
:10030000000080F3118809BC19680868B0E8F04F54
:100310001EF0100F08BFB0EC108A80F30988BFF3FD
:100320006F8F704764000020EFF305807047000076
:100330000948804709480047FEE7FEE7FEE7FEE779
:10034000FEE7FEE7FEE7FEE7FEE7FEE704480549B5
:10035000054A064B70470000CD5700088901000888
:10036000805C002080620020805E0020805E002093
:1003700070B5064600F08CF9056806F10B0020F018
:100380000704B4429CBF002070BD2B466A68BAB116
:100390001068A04210D304F1080188423CBF5068A5
:1003A000586007D35168101941601168091B01603A
:1003B00058601460101D70BD13465268002AE7D1C2
:1003C0002146284600F06CF90028DED170BD70B5DA
:1003D0000446051F00F05CF90068002C14BF446857
:1003E00070BD002C18BFAC423CBF20466468F8D3F7
:1003F00001680A18AA4218BF456003D12A68054659
:100400001144016028684119A1421CBF6C6070BD95
:100410006168696021680844286070BD53EA020C75
:1004200000F069802DE9F04B4FF00006002B1FBF54
:10043000B3FA83F503FA05F424FA05F65E4012BF19
:100440001643B2FA82F502FA05F4C5F120051EBF83
:1004500022FA05FC44EA0C04203556EA044C4FEA23
:10046000144418BF641C4FF000084FF0000990427C
:1004700071EB030C39D3002919BFB1FA81F701FAE6
:1004800007F6B0FA80F700FA07F6C7F120071EBF9B
:1004900020FA07FC46EA0C062037B6FBF4FCA7EB73
:1004A0000507103F07F01F0BCBF120060CFA0BFBE2
:1004B0002CFA06F644BFB3460026202FA4BF5E46A2
:1004C0004FF0000B5BEA060C08BF4FF0010B19EB75
:1004D0000B09ABFB027C48EB0608C01B06FB02CCF9
:1004E0000BFB03CC71EB0C01C1E70B460246414606
:1004F0004846BDE8F08B13B54FF000004FF0000107
:10050000AFF30080BDE81C407047032A40F2308002
:1005100010F0030C00F0158011F8013BBCF1020F44
:10052000624498BF11F801CB00F8013B38BF11F8C5
:10053000013BA2F1040298BF00F801CB38BF00F8DC
:10054000013B11F0030300F02580083AC0F0088059
:1005500051F8043B083A51F804CBA0E80810F5E73D
:10056000121D5CBF51F8043B40F8043BAFF3008020
:10057000D20724BF11F8013B11F801CB48BF11F895
:10058000012B24BF00F8013B00F801CB48BF00F865
:10059000012B704710B5203AC0F00B80B1E818501D
:1005A000203AA0E81850B1E81850A0E81850BFF45D
:1005B000F5AF5FEA027C24BFB1E81850A0E81850FC
:1005C00044BF18C918C0BDE810405FEA827C24BF50
:1005D00051F8043B40F8043B08BF7047D20728BFDE
:1005E00031F8023B48BF11F8012B28BF20F8023B2D
:1005F00048BF00F8012B70474FF000020429C0F0FB
:10060000128010F0030C00F01B80CCF1040CBCF144
:10061000020F18BF00F8012BA8BF20F8022BA1EB96
:100620000C0100F00DB85FEAC17C24BF00F8012B7B
:1006300000F8012B48BF00F8012B70474FF0000273
:1006400000B5134694469646203922BFA0E80C50C8
:10065000A0E80C50B1F12001BFF4F7AF090728BFA3
:10066000A0E80C5048BF0CC05DF804EB890028BF1F
:1006700040F8042B08BF704748BF20F8022B11F048
:10068000804F18BF00F8012B7047704770477047C4
:1006900000487047285C00207047704770477047DB
:1006A00038B504460A4600206946AFF300800028AA
:1006B00008BF38BD02460099204600F04FF80120DF
:1006C00038BD012000F064B8F8B5AFF300800546EE
:1006D00000200C46102000BF0646A819A0420DD9E4
:1006E000324669460020AFF30080070008BF00F0E3
:1006F0004FF80098A04218BF0546C419FFF7C8FF7D
:1007000005600746F01D20F007004619284600F056
:100710000AF8B44208BFF8BDA21B31463868BDE8EC
:10072000F84000F01BB800210160C0E901107047DB
:100730001020704710B500F00DF8006810BD10B51E
:10074000044600F007F8046010BD00000048704740
:10075000205C002000487047205C00200346406871
:100760008C46002818BF88423CBF03464068F8D337
:1007700018681844884207D00CF1030020F00700E5
:10078000001D411A521A0146081D0A60FFF71FBEDC
:1007900010B500F039F8BDE8104000F02FB87047F0
:1007A0007546FFF7D3FFAE4605006946534620F075
:1007B0000700854618B020B5FFF7C8FDBDE820400A
:1007C0004FF000064FF000074FF000084FF0000B0D
:1007D00021F00701AC46ACE8C009ACE8C009ACE8C0
:1007E000C009ACE8C0098D46704710B50446AFF3A8
:1007F00000802046BDE81040FFF733BD002801D03F
:1008000000F02AB87047000010B5012805D000217B
:1008100003A000F027F8012010BD09A1F8E70000AF
:1008200053494752544D454D3A204F7574206F66D9
:100830002068656170206D656D6F72790000000041
:100840003A2048656170206D656D6F727920636F25
:10085000727275707465640001491820ABBEFEE7C2
:100860002600020070B505460C460A2000E06D1C0B
:1008700000F011F835B128780028F8D102E0641CA6
:1008800000F009F814B120780028F8D1BDE87040D4
:100890000A20AFF3008008B569468DF800000320F8
:1008A000ABBE08BD30B50C4605000CD0022C0AD9F1
:1008B0000548A11E0288284601F006F8291901F80A
:1008C000020D000A487030BDF201002030B50C4620
:1008D00005000AD0022C08D9601E81B2FF222846EA
:1008E00001F008F8291901F8010C30BD044810B5D1
:1008F000407800F0C3F8BDE8104003F0C5BA00002E
:10090000CC0000202DE9FE4F1546DDE90C9A0E467D
:1009100007460C221C466946104603F093FCBDF8BE
:100920000080BDF802C0BDF80430BDF80620BDF857
:100930000810BDF80A00A4F80080A9F800C0AAF8C1
:1009400000303A8031802880BDE8FE8F38B51948E4
:1009500007F0EEF906F060FE164806F021FE0446A8
:1009600006F05AFE24BB01208DF800000146114A12
:10097000684607F06BFA06F04FFE0E4804F040FEA2
:1009800000208DF800000B4A0121684607F05EFA4E
:1009900006F042FE074804F009FE02208DF8000030
:1009A000044A0121684607F051FA044606F034FE75
:1009B000204638BD205200201CB525492548CDE9E8
:1009C0000001254B254A26492648FFF79BFF26496B
:1009D00000230C461A46A01C09F04EFFB4F904008F
:1009E000B6EE001A00EE100A1C48F8EEC00AB0F984
:1009F000000000EE100AB8EEC00A03F061FABDEE86
:100A0000C00AB6EE001A10EE100AA080B4F9060073
:100A100000EE100A1248F8EEC00AB0F9000000EE2D
:100A2000100AB8EEC00A03F04BFABDEEC00A10EE91
:100A3000100AE0800D484188B1F57A7F02D0491C48
:100A400041801CBD2188218140F2E931F8E7000096
:100A50000A000020080000200600002004000020FA
:100A600002000020000000208C020020D0000020A6
:100A700001490860704700003448014070B5164DC8
:100A8000040013D001221021284601F04FFE01225C
:100A90002021284601F04AFE00220821284601F0C4
:100AA00045FE20460AF088F9642C14D20122102158
:100AB000284601F03BFE01222021284601F036FEA7
:100AC00001220821284601F031FEC4F10A00BDE8E8
:100AD00070400AF071B970BD000C0240FFF76CFF66
:100AE00003F02EFA054804F019FC09F05BF90448FC
:100AF00001F051FE01200AF05FF9EFE70C00002041
:100B000018090020FEE7000000B58BB0684600F031
:100B1000C5F86946054801F04BF80221034800F08A
:100B2000C6FF024801F05CFB0BB000BDC808002006
:100B3000014801F038B90000C8080020A0F5807213
:100B4000413A14D00022A0F50073023B12D0A0F568
:100B50000073013B13D0A0F50073033B14D0B0F534
:100B6000017F16D030281AD1084607F0BFBB0C48C9
:100B700004F02CB90B48406802700A480DE00A489E
:100B800040680270084808E008484068027007485A
:100B900003E0074840680270054803F0B3BF7047A0
:100BA000704C002004040020E803002020040020F2
:100BB0003C04002000B58BB0684600F06FF8694631
:100BC000054800F0F5FF0221034800F070FF0248DD
:100BD00001F006FB0BB000BDF0080020014801F059
:100BE000E2B80000F008002010B5A0F50072FF3A4E
:100BF00013D0A0F58072FF3A0FD00022A0F5007349
:100C0000013B10D0A0F50073023B1FD030281CD14F
:100C1000BDE81040084607F069BB0A46BDE8104031
:100C2000184900F0EDBE184C60680270204603F0D1
:100C3000B7FE164890F82A0008B1032805D12068AD
:100C4000B0F90A20C1681144C16010BD104C606841
:100C50000270204603F0A4FE0E4890F82A0008B166
:100C6000032805D12068B0F90A20C1681144C16089
:100C7000094C20780028E8D104F08EF8012020707B
:100C800010BD00008852002044560020EC55002082
:100C90007C56002018560020C4000020002101606E
:100CA00041608160C160016101224161C0E90612B9
:100CB000C0E908217047000010B5124A016891424E
:100CC0000DD1114B00211C46A3F11C0200F0F7FFCF
:100CD0000D4821461C380068FFF730FF10BD0B4A55
:100CE0009142FBD1084B002124331C46A3F11C0286
:100CF00000F0E5FF0448214608300068FFF774FF64
:100D000010BD000000640040704C002000680040EE
:100D100038B50B46164C0168A14201D1154904E0D3
:100D2000154CA14222D1134920310B6000238B6066
:100D3000CB6008230B6113881B0A0B7613784B7664
:100D400053881B0A8B769378CB7693881B0A0B7794
:100D500013794B77D3881B0A8B779279CA776B46C6
:100D600001F1180200F0B5FE002800D0012038BDC6
:100D7000006400409C4C00200068004038B50B46E1
:100D8000144C0168A14201D1134904E0134CA14263
:100D90001ED1114920310B6000238B60CB600823EA
:100DA0000B6113780B7653784B7693788B76D378E8
:100DB000CB7613790B7753794B7793798B77D279FD
:100DC000CA776B4601F1180200F083FE002800D0BC
:100DD000012038BD006400409C4C002000680040A9
:100DE00007F0ECFB012009F0E7FFF9E708B1012863
:100DF00002D1024981F83400704700004801002008
:100E0000014981F830007047480100200C4A4FF436
:100E1000007352689278012A09D000200880488027
:100E20008880C8800A4619460648FFF771BF028DC0
:100E30000A80428D4A80828D8A80C08DF1E7000051
:100E40000C000020C808002010B50446806803F09C
:100E500083FEE06803F080FE206803F07DFE60689A
:100E600003F07AFEA0684068807880B1E06840684E
:100E7000807860B120684068807840B160684068E0
:100E8000807820B15FF0010084F83A0010BD0020A6
:100E9000FAE700002DE9F04104462DED028B2E4AC1
:100EA0002E492F4803F069FE2E4A2F492F4803F0A0
:100EB00064FE2F4A2F49304803F05FFE2F4A304925
:100EC000304803F05AFE304F9FED308ADFED308A14
:100ED00000254FF4FA5642F2107800BF05EBC5002A
:100EE00000EB400007EB8000B0EE481AF0EE680A15
:100EF000B2EE080A33464246032104F0BBF96D1CEA
:100F0000EDB2042DEAD3F0EE480A9FED220AB0EECE
:100F1000601A0023324603211F4804F0ABF9104841
:100F20002060124860601448A0601648E0601B48CA
:100F300043F2C8214068001DE06342F22830E08699
:100F40002187002184F83410322184F83010608623
:100F5000BDEC028BBDE8F0811D000020F4030020F1
:100F6000E8030020200000201004002004040020DA
:100F7000230000202C040020200400202600002054
:100F8000480400203C040020580400200000000019
:100F90003333B33ECDCC4C3E080600202002002067
:100FA00010B50446B0F9200000EE100A2B48F8EE08
:100FB000C00A0068B0F9020000EE100A2848B8EE36
:100FC000C00A09F02FFFBDEEC00A10EE100A2085FE
:100FD000B4F9220000EE100A2248F8EEC00A0068B8
:100FE000B0F9020000EE100A1D48B8EEC00A6C30DD
:100FF00009F018FFBDEEC00A10EE100A6085B4F9C2
:10100000240000EE100A1848F8EEC00A0068B0F993
:10101000020000EE100A1248B8EEC00AD83009F0FB
:1010200001FFBDEEC00A10EE100AA085B4F926003B
:1010300000EE100A0D48F8EEC00A0068B0F9020090
:1010400000EE100A0A48B8EEC00A09F0EBFEBDEE49
:10105000C00A10EE100AE08510BD0000E803002071
:101060005804002004040020200400203C04002038
:101070009C050020FCB53E4989688978012905D086
:101080004FF4FA6141864900C186FCBD42F2283125
:1010900041863849B0F92840374EC96B9FED371A61
:1010A000B1F90010ADF8004000EE101AB0F92A3086
:1010B000ADF80230B8EEC00AB0F92C20ADF804202B
:1010C00010EE105AB0F92E10ADF80610B54201DD41
:1010D000B0EE410A10EE105AC0EE010A284FBD4290
:1010E00001DA60EEA00A10EE105A9FED260AB54212
:1010F00001DA20EE800A002C00DC6442002B00DCC8
:101100005B422344002A00DC52421A44002900DCDE
:101110004942114400EE901AF8EEE00A80EE201ADF
:10112000F4EEC00AF1EE10FA14DB00214FEA0D02D2
:1011300032F9113000EE103AB8EEC00A20EE010A82
:10114000BDEEC00A10EE103A22F81130491CC9B2A7
:101150000429EDD3BDF800100185BDF802104185CA
:10116000BDF804108185BDF80610C185FCBD0000E6
:101170002002002048010020000070420000704260
:101180000000C84100A00C472DE9F0410446881832
:10119000C5182DED028B181A2584551A1D44658437
:1011A000A084881A1844E084206867688046006834
:1011B0003968A668B0F90200B1F90210E568084480
:1011C00031682A68B1F90210B2F9022011440844CA
:1011D0000DF0ADFE9FED1F8B53EC182B0DF0D2FEE2
:1011E0000DF076FE6083D8F800003968B0F902008F
:1011F000B1F9021008443168B1F90210401A2968A7
:10120000B1F90210401A0DF092FE53EC182B0DF0BC
:10121000B9FE0DF05DFE2083D8F800003968B0F902
:101220000200B1F90210401A3168B1F90210401AF7
:101230002968B1F9021008440DF079FE53EC182B1F
:101240000DF0A0FE0DF044FEE082BDEC028BBDE887
:10125000F0810000000000000000D03F30B5B0F980
:101260001030002B01DD194600E05942B0F9122080
:10127000002A01DD144600E054420D19B0F91410A3
:10128000002901DD0C4600E04C422C44058F24B2BD
:10129000A5420ADA00EE105AF8EE400A00EE104AB3
:1012A000B8EEC01A80EE810A01E0B7EE000A00EE47
:1012B000903AF8EEE00A60EE800AFDEEE00A10EEE9
:1012C000903A00EE902A0382F8EEE00A60EE800A7F
:1012D000FDEEE00A10EE902A00EE901A4282F8EE3F
:1012E000E00A20EE800ABDEEC00A10EE101A8182DC
:1012F00030BD70B504462DED028BC56928460EF051
:1013000001F941EC100B05F017FC51EC100B0DF03E
:1013100065FB08EE100A28460EF0F4F841EC100BBD
:1013200005F0A6FB51EC100B0DF058FB00EE100A77
:10133000B4F91000B4F9121000EE900AF8EEE00AC9
:1013400020EE201A00EE901AF8EEE00A08EE601A7D
:10135000FDEEC10A10EE902A00EE900A2282F8EE0D
:10136000E00A28EE201A00EE901AF8EEE00A00EEED
:10137000201ABDEEC10A10EE100A6082BDEC028B8D
:1013800070BD2DE9FC410446B0F91070B0F912604F
:10139000B0F91450FFF758FD2B4632463946204627
:1013A000FFF7F2FE2046FFF759FF2046FFF7F8FD52
:1013B0002046FFF75FFE69462046FFF727FDBDE8A0
:1013C000FC81000008B1012802D1024981F83500F2
:1013D00070470000480100200CF098FF012009F040
:1013E000EBFCF9E7014800F041BF0000C40B00200E
:1013F000014800F03BBF0000040E0020014800F04F
:1014000035BF0000640B0020014800F02FBF000032
:10141000A40D0020014800F029BF0000440D002069
:10142000014800F023BF0000240C0020014800F018
:101430001DBF0000640E0020014800F017BF00002F
:10144000840C0020014800F011BF0000C40E0020F1
:10145000014800F00BBF0000E40C00202DE9F04F24
:1014600085680024099E802D18D0894DC563894D5B
:10147000456490F83450012D15D0012580F8345082
:1014800090F83550012D10D0002180F8341002243E
:10149000002180F834102046BDE8F08F4FF48071B1
:1014A00041650120F8E70220F6E7022580F8355073
:1014B0000025456505682F6847F480272F6005687B
:1014C0002B6103685E608368402B03682AD09960B3
:1014D0000168CA60714D704E704FDFF8BC81DFF853
:1014E000B891DFF8B8A1DFF8B4B1EA14DFF8A8E1E9
:1014F0000168183630379302A9F148090AF1600AE9
:101500000BF1180BAEF1300E4FF0006C41452DD9A8
:10151000A94205D0494503D0514501D0B14205D17A
:10152000202220E09A600268D160D3E759451AD0A2
:10153000714518D0594D7835A94214D0564D3035E3
:10154000A94210D0B9420BD0534A183A914207D061
:10155000524A9032914203D04F4A4832914201D1CF
:101560001A4600E062464C494C392EE0DFF82C81E7
:1015700008F1A80841452AD9A94205D0494503D018
:10158000514501D0B14201D120221CE059451AD069
:10159000714518D0414D7835A94214D03E4D3035B3
:1015A000A94210D0B9420BD03B4A183A914207D019
:1015B0003A4A9032914203D0374A4832914201D19F
:1015C0001A4600E06246344950390A605AE0DFF8B2
:1015D000CC8008F1480841452AD9A94205D049459F
:1015E00003D0514501D0B14201D120221CE0594520
:1015F0001AD0714518D0294D7835A94214D0264DFE
:101600003035A94210D0B9420BD0234A183A914242
:1016100007D0224A9032914203D01F4A4832914269
:1016200001D11A4600E062461C491039CA6029E01F
:10163000A94205D0494503D0514501D0B14201D15D
:1016400020221CE059451AD0714518D0134D783529
:10165000A94214D0104D3035A94210D0B9420BD058
:101660000D4A183A914207D00C4A9032914203D069
:10167000094A4832914201D11A4600E062460749C0
:1016800010398A6001680A6842F001020A60FFE6C8
:10169000FD8B0008298C000858640240106002404D
:1016A00001681823CAB2103AB2FBF3F2054B6FF38C
:1016B0000901032A9B5CC36500D9091D81650846A1
:1016C00070470000F8F6000810B5014600208B694D
:1016D0008A6A4FF0C07453B1B3F5005F15D072B190
:1016E000012A0CD0022A0AD0032A09D104E01AB137
:1016F000012A06D0022A03D1C96AC90100D50120F6
:1017000010BDC96AA142FAD010BD002AF7D0012A43
:10171000F2D0022AF3D0032AF3D010BD30B504680A
:10172000256825F480252560046863608368402B64
:10173000036803D099600068C26030BD9A60006899
:10174000C16030BD70B590F834500024012D0CD02C
:10175000012580F8345090F835600025012E06D020
:1017600080F834500224204670BD022070BD02264D
:1017700080F83560456505682E6826F480262E6061
:1017800005686B608368402B036808D09960016826
:10179000CA600068016841F001010160E3E79A60F6
:1017A0000268D160F5E7000010B50446408B642163
:1017B000B0FBF1F201FB1202401C60832068E1687B
:1017C000322A0068B0F9020000EE100AB8EEC00A32
:1017D00002D3DFED0C0A01E0DFED0B0A084609F049
:1017E00021FBBDEEC00A216810EE100A0881608B53
:1017F000642806D1A08B401CA08300206083208336
:10180000207510BD00409C4500409CC510B503F0FC
:101810003DFD04F0EFFA04F017FB04F041FB04F087
:101820005DFB04F085FBFFF76FF9BDE81040FFF7A3
:10183000C1B901680A68D20604D5C968C90601D5CC
:101840000CF076B97047704730B590F82A20002127
:101850004FF4C874012362B1012A21D0032A1FD09A
:10186000022A05D102681268D160006800684161EF
:1018700030BD026812685569D268AA1A00D5524272
:1018800040F2DC55AA4208DB028B551C0583A242BC
:1018900001D3037530BD818330BD0183017530BD37
:1018A0000268B0F922501268B2F90220521B00D52A
:1018B0005242B2F5FA7FF0DB018B4A1C0283A1424F
:1018C000E7D230BD7047000010B558B1084C491E32
:1018D0000BD310F8013B5340DBB234F8133083EAEA
:1018E0001222F4E74FF6FF7010BD104610BD000045
:1018F0006418010810B5064C04E000BF10F8013B65
:101900005340E25C491E89B2F8D2104610BD000077
:101910006417010808F04AF9012009F04DFAF9E7C7
:10192000016FB1F5803F02DBA1F5803103E00029B2
:1019300002DC01F5803101677047000010B50446F4
:1019400003F074F994F88600012804D1084840682F
:101950008078012803D0BDE8104003F0E3B90549C1
:10196000206F09688860BDE8104003F019B90000D5
:101970000C0000203403002010B5044603F056F993
:1019800094F88600012804D108484068807801282E
:1019900003D0BDE8104003F0C5B90549206F0968C0
:1019A0008860BDE8104003F0C1B900000C000020C1
:1019B0003403002070B50446002044F8741B05462B
:1019C00044F80C090D4EA060A0772075208260823B
:1019D000A076E0822083683C06E000BF03F0A2F915
:1019E00028466D1CB04204D220680068807C002824
:1019F000F4D120680068C08A206770BDA08601000D
:101A000010B50023F1281BD0A0F58070FF383BD023
:101A1000012830D0B0F5807F11D110780002C88243
:101A200054782043C882907800020883D4782043F9
:101A3000088390790875D079487581F8203010BDF9
:101A400010780002088054782043088090780002C3
:101A50004880D47820434880107900024881547926
:101A600020434881907900028881D279104388818F
:101A700081F8203018E010790872507988749079D4
:101A80004872D079C87410BD907800028883D478E9
:101A90002043888310790002C88354792043C88387
:101AA00090798876D079C87681F8253010BD90F885
:101AB0002020012A07D0022A05D0416A41F4802162
:101AC000416201207047006842690A434261002078
:101AD0007047F0B590F820500468A468012D05D037
:101AE000022D03D0416A41F480215DE014F0406F83
:101AF00001D1E50055D5C4F30164022C03D9416A34
:101B000041F4000150E00125A5401D608D684FF4AF
:101B1000C0739DB1CE6835434E6845EAC605066878
:101B200003EB0417F5514FF4C275076805EB041574
:101B30000E697E51097D012905D009E00E88CD6826
:101B400045EA4655EBE701684E5946F480764E511A
:101B50001179D579567941EA056195792D0445EADF
:101B6000062529434FF4C676056806EB0416A951ED
:101B70001178D57841EA0561957852782D0445EAC7
:101B8000022211434FF4C475026805EB041551514C
:101B9000006803EB0411425842F001024250002059
:101BA000F0BD416A41F4001141620120F0BD000026
:101BB00010B590F82020012A07D0022A05D0416AEA
:101BC00041F480214162012010BD3B48D0F8002241
:101BD00042F00102C0F80022D0F8002222F47C5228
:101BE000C0F80022D0F800224B6A42EA0322C0F873
:101BF00000220A7D02F01F0301229A40D0F81C3215
:101C00009343C0F81C32CB69B3B9D0F80C3293437C
:101C1000C0F80C328C894B6864F31F434C6900EBAD
:101C2000C404C4F840320C890B6864F31F434C6948
:101C300000EBC404C4F84432CB69012B16D1D0F8B0
:101C40000C321343C0F80C320C884B6864F31F430A
:101C50004C6900EBC404C4F840320C89CB6864F3CF
:101C60001F434C6900EBC404C4F844328B69002B59
:101C7000D0F804320ED01343C0F804320B69002BA5
:101C8000D0F8143208D01343C0F81432096A01297D
:101C900004D008E09343EFE79343F5E7D0F81C1234
:101CA0001143C0F81C12D0F8001221F00101C0F855
:101CB0000012002010BD000000640040704730B5E5
:101CC00090F82040012C05D0022C03D0416A41F449
:101CD00080215DE00468002955D02469A40754D010
:101CE0004FF4D874056804EB01142D5915F0040560
:101CF000956005682D594ED0ED08556005682C5942
:101D000004F00204D4604FF4DA74056804EB0114A3
:101D10002D5905F00F05156105682D59C5F30725E7
:101D2000956105682C59240C54614FF4DC720468E9
:101D300002EB0112A4581C700468A458240A5C70B9
:101D40000468A458240C9C700468A258120EDA701F
:101D50004FF4DE72046802EB0112A4581C7104688F
:101D6000A458240A5C710468A458240C9C7104686B
:101D7000A258120EDA71006881B1016941F02001A8
:101D80000161002030BDE468A8E7416A41F4001118
:101D90004162012030BD6D0D1560AFE7C16841F0B3
:101DA0002001C160EDE72DE9F05F054600680024E1
:101DB0004669D0F804908768D0F80CB0D0F810A02D
:101DC000D0F81880F10748D0F90714D001218160BC
:101DD000B80703D5284600F030FA0CE0780702D5A2
:101DE0004FF4006407E0380702D54FF4805402E056
:101DF000284600F021FAF80516D529684FF48070BE
:101E00008860B80503D5284600F019FA0CE078057B
:101E100002D544F4005407E0380502D544F4804468
:101E200002E0284600F00AFAF80316D529684FF4B4
:101E300080308860B80303D5284600F002FA0CE031
:101E4000780302D544F4004407E0380302D544F493
:101E5000803402E0284600F0F3F9300707D55FEA46
:101E6000CB6004D52968102044F40074C860700762
:101E70004FF0080707D55FEA0B7004D52868C760E4
:101E8000284600F099F9B00706D52868C068800791
:101E900002D0284600F092F9700607D55FEACA60C2
:101EA00004D52968102044F480640861B00607D581
:101EB0005FEA0A7004D528680761284600F08CF9AB
:101EC000F00606D528680069800702D0284600F091
:101ED00084F9B00308D55FEAC96005D529681020E8
:101EE0004860284600F07AF9F00307D55FEA0970E8
:101EF00004D528684760284600F0A4F9300446D588
:101F00005FEA497040D5F00504D55FEAC87001D09A
:101F100044F00104B00504D55FEA887001D544F0AF
:101F20000204700504D55FEA487001D544F004044A
:101F3000300529D518F0700F26D008F07000402821
:101F400015D006DC102809D020280AD0302816D158
:101F50000AE050280ED0602811D10EE044F00804A9
:101F60000DE044F010040AE044F0200407E044F0DF
:101F7000400404E044F0800401E044F480742868E4
:101F8000816921F070018161296804204860002C7A
:101F900005D0686A204368622846FFF78FFEBDE8D7
:101FA000F09F70B5040003D094F8200010B104E055
:101FB000012070BD204600F081F82068016821F002
:101FC0000201016000F0B8FB0546052604E000F0C0
:101FD000B3FB401B0A2811D8206840688007F6D45C
:101FE0002068016841F00101016000F0A5FB054691
:101FF0000BE000F0A1FB401B0A2806D9606A40F400
:102000000030606284F82060D2E720684068C00732
:10201000EFD0207E0128206801683DD021F08001AA
:102020000160607E01282068016838D021F04001FD
:102030000160A07E01282068016833D021F02001D2
:102040000160E07E0128206801682ED041F0100177
:102050000160207F01282068016829D021F0080153
:102060000160607F01282068016824D021F004010C
:102070000160D4E902010843D4E904121143084382
:102080006168491E08432168C86100206062012020
:1020900084F82000002070BD41F08001C0E741F0CD
:1020A0004001C5E741F02001CAE721F01001CFE768
:1020B00041F00801D4E741F00401D9E7F0B587B059
:1020C000044614216846FEF7B9FA364B3648DFF865
:1020D000D0E01968D4F800C0334A03250226092746
:1020E00010300024491CF44522D11960012907D180
:1020F000016841F000710160006800F00070059017
:10210000106840F0080010601068CDE9005600F03B
:102110000800CDE9047069462448CDE9024500F085
:1021200029FA00221146142000F0C2FB142032E0EC
:10213000DFF87CE0F44530D1D0F800C04CF0806C82
:10214000C0F800C0D0F800C001290CF0806CCDF8B8
:1021500014C0196007D1016841F000710160006886
:1021600000F000700590106840F0020010601068E8
:1021700002AB00F0020005906020CDE9000683E884
:10218000B00069460B4800F0F5F9002211464020E6
:1021900000F08EFB402000F07DFB07B0F0BD00009A
:1021A000006400405000002030380240000C024023
:1021B000006800400004024070470000044A0168C3
:1021C000914202D0034A914201D1FEF775BD70479A
:1021D000006400400068004070477047704700008E
:1021E00070B5044690F82000012804D0606A40F4DD
:1021F0000020606218E0022084F820002068016856
:1022000021F00101016000F097FA05460EE000BFE1
:1022100000F092FA401B0A2808D9606A40F40030A6
:102220006062052084F82000012070BD20684068AD
:10223000C007EDD1606270BD70477047704770474E
:1022400070477047704790F83510022903D08021FD
:10225000416501207047052180F83510006801684C
:1022600021F0010101600020704700002DE9F843D2
:1022700004464FF00009CDF8009063484FF4165122
:10228000A56D0068B0FBF1F72E6894F85C1008208B
:1022900000FA01F131420FD021680A6852070BD5CC
:1022A0000A6822F004020A6094F85C108840A86072
:1022B000606D40F00100606594F85C104FF001081B
:1022C00008FA01F0304208D021684969090604D5AE
:1022D000A860606D40F00200606594F85C10042016
:1022E0008840304208D021680968890704D5A86071
:1022F000606D40F00400606594F85C101020884028
:10230000304218D021680968090714D5A8602068F0
:102310000168490304D50068000308D5A16C07E0F3
:102320000168C90503D4016821F008010160216C2E
:1023300009B12046884794F85C102020884030423C
:1023400031D021680968C9062DD5A86094F83500F8
:1023500005282068016806D0490347D500680003B6
:102360001DD4616C1CE021F01601016020684169F8
:1023700021F080014161206C08B9A06C20B1206877
:10238000016821F00801016094F85C103F2088404A
:10239000A86084F8349084F83580216D1FE0E16BEB
:1023A00009B120468847606D00282BD0606DC007BA
:1023B00014D0052084F835002068016821F001015F
:1023C00001600098401C0090B84203D82068006863
:1023D000C007F6D184F8349084F83580E16C002988
:1023E00010D001B02046BDE8F04308470168C90598
:1023F000D5D4016821F01001016084F8349084F88C
:102400003580CCE7BDE8F883600000202DE9F0417D
:10241000044600F091F906465CB1002584F834507A
:10242000022084F835002068016821F00101016074
:102430000DE00120BDE8F08100F07EF9801B052849
:1024400005D920206065032084F83500F2E7206874
:102450000068C007F0D12268116820480140D4E923
:1024600001031843D4E9033633431843636918431F
:10247000A3691843E3691843236A18430843616A50
:10248000042903D1D4E90B131943084310602068D1
:102490004069666A20F0070130460E430127042890
:1024A0000CD1A06A0643E06A40B12046FFF70CF960
:1024B00020B14020606584F83570BAE72068466135
:1024C0002046FFF7EDF894F85C203F2191408160B1
:1024D000656584F835700020ACE700003F8010F09F
:1024E0002DE9F0410446866D90F83400002501285E
:1024F0000DD0012084F8340094F835700020012FAD
:1025000007D084F8340002252846BDE8F081022077
:10251000FBE7022784F8357060652046FFF7FEF878
:1025200094F85C103F208840B0602068016841F05A
:1025300016010160206C20B12068016841F008019B
:1025400001602068016841F001010160DCE70000E2
:1025500070B5044600F0F0F80546601C02D004484F
:102560000078044400F0E8F8401BA042FAD370BDA4
:10257000540000202DE9F84F00224FF001080325F8
:102580004FF00F0E0B6808FA02F42340A3426ED1FD
:102590004E68012E05D0022E03D0112E01D0122E2E
:1025A00012D186684FEA420C05FA0CF7BE43CF6899
:1025B00007FA0CF7374387604668A6430C79C4F3E3
:1025C0000014944034434460C668570005FA07FC81
:1025D0008C6826EA0C06BC403443C4604C68022C6C
:1025E00001D0122C13D1D40800EB8404A346D4F8F4
:1025F000209054074FEAD46A0EFA0AF629EA06092F
:102600000E6906FA0AF646EA0906CBF82060066863
:102610000C7926EA0C0604F00304BC403443046041
:102620004C68E40065D5364C266846F48046266042
:10263000246822F0030604F480440094314C3444AE
:10264000A446D4F808489607370F0EFA07F6B443A5
:102650002D4EB04201D1002624E02C4EB04201D1D3
:1026600001261FE02A4EB04202D102261AE040E0C5
:10267000284EB04201D1032614E0274EB04201D1CA
:1026800004260FE0254EB04201D105260AE0244E73
:10269000B04201D1062605E0224EB04201D1072604
:1026A00000E00826BE402643CCF808681E4E346879
:1026B0004F689C43FF0300D51C4334601A4C241D13
:1026C00026684F689E43BF0300D51E432660164E02
:1026D000083634684F689C43FF0200D51C433460C1
:1026E000114E0C3634684F689C43BF0200D51C4322
:1026F0003460521C102AFFF445AFBDE8F88F00008B
:102700004438024000300140000002400004024012
:1027100000080240000C0240001002400014024079
:1027200000180240001C0240003C01400AB18161D7
:1027300070470904FBE7000001488068704700000B
:102740005400002070B5040011D021684CF6CC4034
:102750000860216845F255500860D4E900014160E5
:102760002168A0688860FFF7E7FF054609E00120BF
:1027700070BD00BFFFF7E0FF401B302801D90320E8
:1027800070BD2068C0680028F4D121684AF6AA20EC
:102790000860002070BD00684AF6AA210160002090
:1027A00070470000024881680278114481607047D8
:1027B000540000200B4810B5016841F4007101601D
:1027C000016841F480610160016841F48071016039
:1027D000032000F08DF8002000F006F800F03EF82D
:1027E000002010BD003C024010B5014688B0002218
:1027F0001C2000F05DF81C2000F04CF81448002468
:10280000016841F001010160006805A900F00100C4
:102810000690684600F018F900F036F90D494000BE
:10282000B0FBF1F10C484FF08042491E026040F2CB
:10283000E732C0E90324C0E9011400F099FB10B1AC
:10284000012008B010BD044800F0DEFBF9E70000ED
:102850004038024040420F00240F00200C4882B054
:10286000016841F480410160006800F480400090FC
:102870000748001F016841F0805101600068002294
:1028800000F0805000900F21901E02B000F010B8B0
:1028900044380240002809DB00F01F02012191406A
:1028A0004009800000F1E020C0F8001170470000EE
:1028B000F0B40E4B1B680C46C3F30223C3F10705AB
:1028C000042D00D90425191D072901D2002300E099
:1028D000DB1E012606FA05F1491E214099409E4063
:1028E000761E16403143F0BC03F082BC0CED00E0D4
:1028F000064900F0070208684FF6FF03184040EA57
:102900000220034A10430860704700000CED00E00D
:102910000000FA052DE9F0470E46050065D0DFF806
:102920001481D8F80000F7B200F00F00B04207D2CF
:1029300088F80070D8F8000000F00F00B04254D1C1
:1029400028683D4C810712D5400703D5206840F424
:10295000E05020602878000703D5206840F46040EC
:1029600020602068A96820F0F000084320602878E3
:10297000C0072DD0304968680839012812D00228D4
:1029800013D0032811D00968890700292DDA21689E
:1029900021F0030101432160FFF7CEFE814641F2A1
:1029A000883A0EE009688903EFE709688901ECE7D6
:1029B000FFF7C2FEA0EB0901514502D90320BDE893
:1029C000F0872068696800F00C00B0EB810FEFD150
:1029D000D8F80010404601F00F01B14207D9077046
:1029E000006800F00F00B04201D00120E7E728782E
:1029F000400705D52068E96820F4E05008432060CE
:102A00002878000706D52068296920F4604040EA4C
:102A1000C100206000F058F82168084AC1F3031192
:102A2000515CC8400649086006480068FFF7DCFEB4
:102A30000020C4E7003C02400838024000F70008CC
:102A400060000020580000200F2202600C4A13682A
:102A500003F003034360136803F0F003836013681B
:102A600003F4E053C36012684FF4E05303EAD20268
:102A700002610448006800F00F0008607047000021
:102A800008380240003C02400448054900680968D3
:102A9000044AC1F38221515CC840704760000020A5
:102AA0000838024010F70008044805490068096822
:102AB000044AC1F34231515CC840704760000020B5
:102AC0000838024010F70008154810B5006810F0EB
:102AD0000C02144813D01449042A0FD0082A0ED12E
:102AE0000F4C241F2268236802F03F025B0207D5C7
:102AF0002068C0F38810A0FB010106E0084610BD65
:102B00002168C1F38811A1FB00010023FDF786FCB9
:102B10002168C1F30141491C4900B0FBF1F010BD2F
:102B2000083802400024F40040787D012DE9F84F78
:102B300004006ED02078DFF83C93C007A9F10405AB
:102B40004AD009F104000168C1F38101012908D0CC
:102B50000068C0F3810002280AD1D9F800004002C1
:102B600006D52868800337D560680028E1D033E0B7
:102B70006068B0F5803F10D0B0F5A02F286810D065
:102B800020F480302860286820F480202860606865
:102B9000A8B1FFF7D1FD06460DE0286840F480306B
:102BA000F4E740F480202860F7E700BFFFF7C4FD9A
:102BB000801B642873D828688003F7D50CE0FFF7E2
:102BC000BBFD064605E000BFFFF7B6FD801B64288D
:102BD000F0D828688003F7D42078DFF89C8280073B
:102BE0004FF0000A3ED5A348001D016811F00C0FFC
:102BF00008D00068C0F3810002280BD1D9F800008A
:102C0000400207D42868800716D5E068012800D163
:102C100012E02BE1E068B8B10120C8F80000FFF72E
:102C20008BFD064605E000BFFFF786FD801B0228EE
:102C3000C0D828688007F7D52868216920F0F800F7
:102C400040EAC10028600DE0C8F800A0FFF774FD5D
:102C5000064604E0FFF770FD801B02281FD8286895
:102C60008007F7D42078000722D5824E8348616917
:102C7000703671B101210160FFF75EFD074604E087
:102C8000FFF75AFDC01B022809D830688007F7D526
:102C90000EE0C0F800A0FFF74FFD074605E082E018
:102CA000FFF74AFDC01B02287DD830688007F7D4A3
:102CB0002078400768D5DFF8BCB100270BF13C0B4A
:102CC000DBF80000C0000BD4DBF8001041F08051AD
:102CD000CBF80010DBF80000012700F080500090D6
:102CE000674E3068C00510D4306840F480703060A2
:102CF000FFF722FD009005E0FFF71EFD0099401A46
:102D0000022850D83068C005F6D55A4EA0686C36F7
:102D100001280FD00528306810D020F00100306065
:102D2000306820F004003060A068B8B1FFF704FDFF
:102D300000900FE0306840F00100F4E740F004003C
:102D40003060F7E7FFF7F8FC0099411A41F288304C
:102D5000814266D830688007F4D50EE0FFF7ECFCBE
:102D6000009007E0FFF7E8FC0099411A41F2883033
:102D7000814256D830688007F4D42FB1DBF80010B8
:102D800021F08051CBF80010A069C8B33949091D62
:102D90000968C1F3810102294AD00228504607D0B0
:102DA000C8F8600000E03CE0FFF7C6FC04463BE0EA
:102DB0004746C8F86000FFF7BFFC064605E000BFC5
:102DC000FFF7BAFC801B02282BD828688001F7D4B3
:102DD000D4E907010843A16A2A4A490802EB0141E4
:102DE000626A41EA8211084394F82C1040EA0161BA
:102DF000C9F8001001203866FFF79EFC044606E083
:102E000036E000BFFFF798FC001B022809D82868AD
:102E10008001F7D52CE000BFFFF78EFC001B0228D5
:102E200002D90320BDE8F88F28688001F4D41FE0A0
:102E30000128F7D0D9F80000E26900F4800191423E
:102E400014D1226A00F03F0191420FD147F6C071C0
:102E5000626A0140914209D1A26A00F44031914274
:102E600004D1E16A00F07060884201D00120D9E706
:102E70000020D7E70438024000004742800E474256
:102E8000007000400000FFFF7047704710B590F8D9
:102E90003C20012A22D0012280F83C20CA688C689C
:102EA00022F4407222434C6822F4806222430C6870
:102EB00022F4006222430C6922F4805222434C69BE
:102EC00022F400522243C969002322F480420A43BB
:102ED00001684A6480F83C30002010BD022010BD1B
:102EE00070B590F83C20012A32D0012480F83C4093
:102EF000022280F83D2003685A689D6822F070061F
:102F00000A6832435A60134B02689A4214D0B2F1F5
:102F1000804F11D0104B9A420ED0104B9A420BD0DA
:102F20000F4B9A4208D00F4B9A4205D00E4B9A4253
:102F300002D00E4B9A4204D1496825F08003194310
:102F4000916080F83D40002180F83C10084670BD3B
:102F5000022070BD00000140000400400008004055
:102F6000000C0040000401400040014000180040F7
:102F700010B5040003D094F83D0010B107E0012023
:102F800010BD002084F83C00204600F00DF802201F
:102F900084F83D00211D206802F02CFC012084F8FB
:102FA0003D00002010BD000008B5134A0168134819
:102FB000914207D1016841F001010160006800F011
:102FC00001000BE00E4A91420AD10C48001F016833
:102FD00041F002010160006800F00200009008BDAD
:102FE000084A9142FBD1016841F4802101600068E8
:102FF00000F48020F2E70000000001404438024065
:1030000000040040004801400168CA6842F0010223
:10301000CA600068816801F00701062903D00168D1
:1030200041F0010101600020704770B5044690F83E
:103030003C00012817D0012584F83C50022084F878
:103040003D002068826822F0770222F47F4282608D
:103050000868502830D00DDC20284DD005DC98B30E
:1030600010283BD148E0022070BD302844D04028D1
:1030700034D139E0602828D0702806D0B0F5805FC0
:103080002CD0B0F5005F29D10AE0CB68D1E901214D
:10309000206802F020FC2068816841F0770109E097
:1030A000CB68D1E90121206802F015FC2068816815
:1030B00041F48041816011E0CA684968206802F0EB
:1030C000DFFC5021206807E016E0CA6849682068E4
:1030D00002F0E7FC6021206802F007FC84F83D5014
:1030E000002084F83C0070BDCA684968206802F07E
:1030F000C7FC40212068EFE7226801461046EBE755
:10310000704770B50446006801694FF00005C94377
:10311000890715D4C168C943890711D4E91E016123
:1031200001202077206880698007204602D0FFF7C1
:10313000E7FF04E000F0F2F8204600F074F925778C
:1031400020680169C943490717D4C168C9434907C1
:1031500013D46FF004010161022020772068806998
:1031600010F4407F204602D0FFF7CAFF04E000F0D1
:10317000D5F8204600F057F9257720680169C94342
:10318000090716D4C168C943090712D46FF00801B2
:103190000161042020772068C0698007204602D0A2
:1031A000FFF7AEFF04E000F0B9F8204600F03BF96D
:1031B000257720680169C943C90617D4C168C94386
:1031C000C90613D46FF01001016108202077206830
:1031D000C06910F4407F204602D0FFF791FF04E061
:1031E00000F09CF8204600F01EF925772068016960
:1031F000C943C90708D1C168C943C90704D1891E99
:103200000161204600F032F920680169C9430906CE
:1032100009D4C168C943090605D46FF08001016172
:103220002046FFF731FE20680169C943490609D4E9
:10323000C168C943490605D46FF0400101612046C9
:1032400000F01BF920680169C94389060BD4C168E5
:10325000C943890607D46FF0200101612046BDE80B
:103260007040FFF712BE70BD10B586B00446142141
:103270006846FDF7E3F92368214C0021214802222A
:10328000A34211D1036843F010030360006800F00B
:103290001000059090020090CDE901210120CDE9B8
:1032A00003106946184812E0184CA34213D1036872
:1032B00043F001030360006800F001000590C020A6
:1032C0000090CDE90121CDE9031269461048FFF7CE
:1032D00051F906B010BD0F4CA342FAD1036843F078
:1032E00002030360006800F0020005906015009082
:1032F000CDE901210320CDE9031069460648E6E740
:10330000000001403038024000100240000400403C
:10331000000002400048014000040240704770B5C0
:10332000044690F83C000D4601280DD0012684F893
:103330003C60022084F83D0042B1042A18D0082ADB
:103340002AD00C2A4DD139E0022070BD206802F04D
:10335000D5FA2068816941F008018161206881699E
:1033600021F004018161206881692A69114311E01B
:10337000206802F0F3FA2068816941F400618161FC
:103380002068816921F480618161206881692A69EE
:1033900041EA0221816124E0206802F015FB2068E7
:1033A000C16941F00801C1612068C16921F00401CF
:1033B000C1612068C1692A69114311E0206802F0E7
:1033C00037FB2068C16941F40061C1612068C169AF
:1033D00021F48061C1612068C1692A6941EA022142
:1033E000C16184F83D60002084F83C0070BD10B5D8
:1033F000040003D094F83D0010B107E0012010BD97
:10340000002084F83C00204600F00CF8022084F8EC
:103410003D00211D206802F0EDF9012084F83D00F7
:10342000002010BD7047704710B5044600680122A7
:1034300002F044FA0B492068884202D00A498842C7
:1034400003D1416C41F4004141642068816801F07E
:103450000701062903D0016841F001010160002045
:1034600010BD000000000140000401400068B0F100
:10347000804F01D1FFF796B9704770477047000041
:1034800070B5026804461068D168536910F00F0FD8
:1034900052D003F0010501F490762E435FD0C207AD
:1034A00005D0CA0503D5E26B42F00102E263420790
:1034B00005D5DA0703D0E26B42F00202E26382072D
:1034C00005D5DA0703D0E26B42F00402E26302079B
:1034D00007D501F020022A4303D0E26B42F0080234
:1034E000E263E26B002A33D0800604D5880602D559
:1034F000204602F061FB20684069E16BC0F3801058
:10350000090700D428B3204602F03FFB2068416938
:1035100049061AD5416921F040014161606BA0B1B3
:103520001B490165606BFEF78EFE002810D0606BB2
:10353000016DBDE870400847830610D58B060ED597
:103540002046BDE8704002F037BB2046FFF796FFEB
:1035500070BD2046FFF792FF0020E06370BD0306B8
:1035600006D50B0604D52046BDE8704002F004BC29
:103570004006F3D54806F1D5D168204621F0400138
:10358000D160202184F8391000F0CEFA70BD00001F
:10359000F95A000870B5040004D094F839000025E9
:1035A00010B106E0012070BD84F83850204600F0CC
:1035B00023F8242084F839002068C16821F40051E0
:1035C000C160204602F044FB2068016921F490416B
:1035D00001612068416921F02A0141612068C168C8
:1035E00041F40051C160E563202084F8390084F87B
:1035F0003A00002070BD00002DE9F04F87B004466E
:1036000014216846FDF71AF8FF48DFF8F8831038F0
:10361000D4F800C0FC4B03210222002507158615B3
:103620004FF0080E4FF00069C4453ED1D3F800C0FA
:103630004CF4002CC3F800C01B6803F4002305936E
:10364000036843F00103036000680DF1080800F00F
:1036500001000590CDE90012012088E80340694689
:10366000EA48FEF787FFDFF8AC83E9494046C8F82F
:103670000010C0E90195C0E90357C8F81450C0E92B
:103680000656C8F82050C8F82450FEF7BFFE08B10F
:10369000FEF718F9C4F83480002211463420C8F827
:1036A0003840FFF705F9342072E0DFF86C834FF003
:1036B000400A4FF4403BC44570D1D3F800C04CF4ED
:1036C000801CC3F800C01B6803F4801305930368D3
:1036D00043F004030360036803F0040305930368E5
:1036E00043F0080303600068884600F00800059076
:1036F0004FF480500090022001900120CDE902019A
:10370000082004906946C548FEF734FF0420009065
:10371000022001900120CDE90208082004906946AA
:10372000BF48FEF727FFBB48B94960303039016018
:10373000C0E90195C0E9035700F11802456182E82C
:103740006008B8464562FEF761FE08B1FEF7BAF8B8
:10375000B048B04F603060638463C03707F1180130
:10376000C7E903587D6181E86008A9487D62783027
:1037700087E801063846FEF749FE08B1FEF7A2F8D1
:103780002763002211463520BC63FFF791F83520EE
:10379000FFF780F807B0BDE8F08FFFE7DFF884821D
:1037A000C4455DD1984B1B1DD3F800C04CF0100CE4
:1037B000C3F800C01B6803F010030593036843F0CF
:1037C00001030360006800F0010005904FF4C06041
:1037D0008DE825000720CDE9031069468B48FEF7E8
:1037E000C9FEDFF848B290495846B84602C0E0E842
:1037F0000295E0E803574FF4003740F8045C80E896
:10380000E0005846CBF82450FEF700FE08B1FEF762
:1038100059F8C4F834B0CBF83840DFF810B2824918
:103820000BF1600B58467831C0E90358CBF81450BF
:103830008BE80206183080E8E0005846CBF82450A8
:10384000FEF7E4FD08B1FEF73DF8C4F830B0002201
:1038500011462520CBF83840FFF72AF8252097E7B6
:10386000DFF8CC81C4453ED1D3F800C04CF4003C15
:10387000C3F800C01B6803F400330593036843F0EA
:1038800001030360006800F0010005900C208DE842
:1038900025000720CDE9031069465C48FEF76AFE63
:1038A000DFF888815A4908F1C0084046483102C013
:1038B000E0E80295E0E8035740F8045C80E860081F
:1038C0004046C8F82450FEF7A1FD08B1FDF7FAFF05
:1038D000C4F83480002211462620C8F83840FEF78C
:1038E000E7FF262054E7DFF84C81C44555D1D3F8D3
:1038F00000C04CF4802CC3F800C01B6803F4802384
:103900000593036843F008030360006800F00800B3
:1039100005904FF440708DE825000720CDE9031095
:1039200069463F48FEF726FE43484FF4003800F151
:10393000180CC0F808A0C0E9035745618CE8600185
:103940003349CB4618314562C0E9001BB946FEF742
:103950005DFD08B1FDF7B6FF37482063364F84633D
:103960002B48603718383860C7E901B5C7E90359F3
:1039700007F118017D6181E8600138467D62FEF73C
:1039800045FD08B1FDF79EFF676300221146272021
:10399000BC63FEF78DFF2720FAE6284B9C457FF499
:1039A000F9AE194B1B1DD3F800C04CF0200CC3F826
:1039B00000C01B6803F020030593036843F0040371
:1039C00003600068CDE9025100F004000590C020BA
:1039D000CDE90002CDF810E069461048FEF7CAFDB7
:1039E000DFF85480104908F1C0084046183902C079
:1039F0004FF02069E0E80295E0E8035740F8045CE6
:103A00001EE00000004C0040403802400000024030
:103A100040600240640B002000500040000802405B
:103A2000000C02400010014040640240840C002061
:103A30000044004000480040A40D00200014014054
:103A400080E860084046C8F82450FEF7DFFC08B163
:103A5000FDF738FFC4F83480C8F83840DFF84080FC
:103A60000E494046C0E90357C8F8145088E80206DA
:103A7000183080E860084046C8F82450FEF7C6FCBD
:103A800008B1FDF71FFFC4F830800022114647201F
:103A9000C8F83840FEF70CFF472079E6A0640240E2
:103AA000C40E00207047000070B5044690F839003D
:103AB000202830D169B362B394F8380001282AD0A5
:103AC000012084F838002162A284E2840025E563A5
:103AD000212084F83900236B1048D863236B1048E9
:103AE0001864236B0F48D864206B1346056526685D
:103AF000206B321DFEF7F4FC21686FF04000086077
:103B000084F838502068416941F08001416100200B
:103B100070BD012070BD022070BD0000535B000825
:103B2000815B0008095B00087047704701F0FAF8F4
:103B30001420FEF70DFD012080F31388BFF34F8F93
:103B400005480168054A01F4E06111430160BFF3D3
:103B50004F8F00BFFDE700000CED00E00400FA0508
:103B6000164910B514480968B0F870000A7A00B216
:103B7000002A20D1C97B00291DD1114C616891F820
:103B8000221031B1012907D0022908D0032909D018
:103B90000DE046F2E41107E04AF2E41104E04EF2CF
:103BA000E41101E042F2E411034800F00DFB626809
:103BB000062182F8221010BD48030020085300207F
:103BC0002002002070B50D4C0025C4F8B4520C48FA
:103BD000016821F040410160016841F080410160CD
:103BE000C4F8BC52022004F52D7404F0FBFF012040
:103BF0002060022004F0F6FF256070BD0080404286
:103C00000004024070B50D4C0025C4F8B4520C48B5
:103C1000016821F040410160016841F0804101608C
:103C20000126C4F8BC62022004F52D7404F0DAFF0A
:103C30002660022004F0D6FF256070BD008040425F
:103C4000000402402DE9F04781461648002401682F
:103C500021F04041016001680160134E254627466E
:103C60004FF00108C6F8B472022004F0BBFFC6F89A
:103C7000B4826006040ED6F83C0208B1641CE4B2BB
:103C8000012004F0AFFF6D1CEDB2082DEAD3B9F1AD
:103C9000000F04D0FFF796FF2046BDE8F087FFF73E
:103CA000B1FFF9E700040240008040422DE9F041F5
:103CB00006461448016821F040410160016841F066
:103CC00080410160104C0027C4F8B4723D464FF0AB
:103CD0000108F009C4F8BC027006060E022004F0C8
:103CE00081FFC4F8B482022004F07CFFC4F8B472EF
:103CF000022004F077FF6D1CEDB2082DE9D3BDE87A
:103D0000F0810000000402400080404270B50D4880
:103D1000016821F040410160016841F0804101608B
:103D2000094C0120C4F8BC02C4F8B402042004F514
:103D30002D7404F057FF0025A560042004F052FF05
:103D4000256070BD00040240008040420E4810B55E
:103D5000016821F040410160016841F0804101604B
:103D60000A4C0020C4F8B402C4F8BC02042004F5D4
:103D70002D7404F037FF01202060A060BDE81040E2
:103D8000042004F02FBF00000004024000804042E5
:103D900070B512480024016821F0404101600168BB
:103DA00001600F4D0126C5F8BC62304604F01AFFD1
:103DB000C5F8B462012004F015FF07E0641CE4B20A
:103DC000FA2C03D9FFF7C2FF012070BDD5F83C02E1
:103DD0000028F3D1C5F8B40270BD00000004024011
:103DE00000804042154830B4A52101706721A0F839
:103DF00001100022C27040F20731A0F805101049EE
:103E00008B78C371CB8803810B894381CB78037393
:103E10000B7980F83D300B4B5B68DC7C32234CB176
:103E2000427309480078012806D07D20087130BC13
:103E300000F00CB84373F4E70B71F8E7D85A002090
:103E40000C020020C4530020F00100200C4910B5E2
:103E5000702201F17000FCF758FB09480521703011
:103E6000FCF734FD064870217030FCF71BFD044957
:103E70007022BDE8104070310248FFF715BE000007
:103E8000D85A0020240B00200C48014603784A78B9
:103E90008978012B08D0511A11F0FF01417002D12D
:103EA00041700121017070471144C9B241700A2963
:103EB000F9D30A214170FF21F4E70000CC00002073
:103EC000F7EE001A21EE000A31EEC11A01EE200AC7
:103ED000704706F0D5F9022006F06EFFF9E7000002
:103EE00000B5018889B0090A8DF8001001788DF8B5
:103EF0000110418808AB090A8DF8021081788DF80D
:103F0000031041896A46090A8DF80410817A8DF8F8
:103F100005108189090A8DF80610007B8DF80700CD
:103F2000F12002900020049005900820069002A93C
:103F30000248FDF7CEFD09B000BD0000F0080020EA
:103F40002DE9F05F894D286807F0D0FC286803F060
:103F500088FA286803F0D0FA2A68854FD07A147B53
:103F6000A04204D0022C02D1397849423970A042D3
:103F700004D0012C02D1787840427870686800261D
:103F80007C4990F802C002207B4B7C4DBCF1010FB4
:103F900009D07B4A5672D67483F82A0085F82A0025
:103FA0004E70BDE8F09F92F80980DFF8D8C14FF05D
:103FB0000A094FF0050A4FF0070BB8F1010F11D1B4
:103FC000012C1DD1947C012C02D0032C06D0ABE037
:103FD000DCF80480042488F8294003E0DCF804407D
:103FE00084F8296092F8098001244FF4257EB8F105
:103FF000020F1AD0B8F1030F49D0B8F1010FD0D198
:10400000147B032C78D0012C74D0022CC9D181F8F8
:1040100001A000BF83F82A6085F82A60907C0328FD
:1040200069D00128BDD1286852E083F82A0085F8BC
:104030002A00137B012B0FD0022B10D0032BB0D101
:10404000B8784870B2F9100010F5257F1DD0704582
:10405000A7D10920B870A4E704204870A1E74870F0
:10406000907C032801D001289BD14E7000F05AFEAD
:1040700000231A461946184600F0EEFC1420FEF7FD
:1040800067FA84F3138802F0C3F80320E2E7177B92
:104090004FF0060C012F18D0032F1FD0022F80D114
:1040A00081F80190B2F91010714503D183F82A000C
:1040B00085F82A40B2F9101011F5257FCBD100BF49
:1040C00083F82A0085F82A006BE781F801C0A1E790
:1040D00000684169A1F51041416162E781F801C0C2
:1040E000B2F910107145E5D183F82A4085F82A000D
:1040F000E0E701E018E037E0234A12685278012A2D
:104100000CD0022A0DD0032A0BD081F801B01F4A2F
:104110001278012AD4D181F801B0D1E781F801A049
:10412000F5E781F80190F2E7DCF8042092F8292005
:10413000042A02D008224A70C2E7032083F82A002A
:1041400085F82A00104800684078012806D0022827
:1041500007D0032805D081F801B022E781F801A03B
:104160001FE781F801901CE71868B1E70C000020F8
:10417000F401002029000020EC55002018560020F2
:10418000885200202002002008530020F001002067
:1041900070B50B4CA121002521736573A573E573E0
:1041A0002074000A6074A574E57404F10C0240F2F6
:1041B00041110448FCF7E2FDE560256170BD000097
:1041C00034030020C808002000680068C08A081A6C
:1041D0000849B1F9001000EBC10010F5004F02DAF8
:1041E00000F5803004E0B0F5004F01DDA0F580302F
:1041F00000B270478C02002070B50546FFF786FDBF
:104200000F4C20784006000EFFF750FDFFF7C0FD71
:104210002846FFF74BFDFFF7BBFDFFF777FD207842
:10422000012101EB4000C0B2FFF740FDFFF7B0FDF8
:104230000020FFF707FD0446FFF788FD204670BD0C
:10424000440100202DE9F04116460D460746FFF7D0
:104250005DFD134C20784006000EFFF727FDFFF7A9
:1042600097FD3846FFF722FDFFF792FDFFF74EFD61
:104270002078012101EB4000C0B2FFF717FDFFF7E6
:1042800087FD002406E00120FFF7DCFC641C05F834
:10429000010BE4B2B442F6D3BDE8F041FFF756BDDE
:1042A00044010020104810B50E490160032141600F
:1042B00000214FF400228160C0E903124FF4401244
:1042C00042610176012242768176C1760277427799
:1042D000FDF767FE002803D0BDE81040FDF7F2BAF5
:1042E00010BD000000640040C8080020104810B550
:1042F0000E4901600321416000214FF400228160DA
:10430000C0E903124FF44012426101760122427665
:104310008176C17602774277FDF743FE002803D00D
:10432000BDE81040FDF7CEBA10BD000000680040A7
:10433000F0080020314808B5016841F4001101601F
:10434000016801F400110091016841F480010160ED
:104350000068002200F48000009011460B20FEF758
:10436000A7FA0B20FEF796FA002211460C20FEF762
:104370009FFA0C20FEF78EFA002211460D20FEF760
:1043800097FA0D20FEF786FA002211460E20FEF75E
:104390008FFA0E20FEF77EFA002211461020FEF75B
:1043A00087FA1020FEF776FA002211462F20FEF73A
:1043B0007FFA2F20FEF76EFA002211463920FEF711
:1043C00077FA3920FEF766FA002211463A20FEF706
:1043D0006FFA3A20FEF75EFA002211464520FEF7FA
:1043E00067FA4520FEF756FA002211464620FEF7EE
:1043F0005FFABDE808404620FEF74CBA303802406C
:1044000010B5C0B01C2232496846FCF7C3F8002141
:10441000684606F0DDFC2F4C2D491C2220601C3123
:1044200007A8FCF7B7F8002107A806F0D1FC284937
:1044300060601C2238310EA8FCF7ACF800210EA8F1
:1044400006F0C6FC2249A0601C22543115A8FCF7D6
:10445000A1F8002115A806F0BBFC1D49E0601C2254
:1044600070311CA8FCF796F800211CA806F0B0FCDF
:10447000174920611C228C3123A8FCF78BF80021FE
:1044800023A806F0A5FC124960611C22A8312AA8C5
:10449000FCF780F800212AA806F09AFC0C49A061DC
:1044A0001C22C43131A8FCF775F8002131A806F0B0
:1044B0008FFC0749E0611C22E03138A8FCF76AF85C
:1044C000002138A806F084FC206240B010BD000036
:1044D000FCF500082C000020F0B587B014216846D8
:1044E000FCF7ACF83B480024016841F08001016012
:1044F000016801F080010591016841F0010101604E
:10450000016801F001010591016841F010010160AD
:10451000016801F010010591016841F0020101609C
:10452000016801F002010591016841F00801016094
:10453000016801F008010591016841F00401016082
:104540000068254E00F00400059001224FF4604100
:104550003046FEF7EBF8214F002238213846FEF7AF
:10456000E5F800224FF4C0713046FEF7DFF84FF453
:1045700020400125CDE900050320CDE90240694630
:104580003046FDF7F7FFA803CDE90005CDE9025459
:1045900069463046FDF7EEFF38200090CDE9015422
:1045A000694638460394FDF7E5FF8020009011200E
:1045B000CDE90104694630460394FDF7DBFF28028C
:1045C0000090CDE90154694630460394FDF7D2FFCF
:1045D00007B0F0BD3038024000040240000C024039
:1045E000094810B5074901600021416040F6FF719C
:1045F0008160FEF7A7F8002803D0BDE81040FDF762
:1046000061B910BD003000401809002010B588B015
:104610001C216846FCF712F8154814490024016073
:10462000A721C0E901144FF4FA71C0E903148461B1
:10463000FEF79EFC08B1FDF745F90D48FEF7D7FEE1
:1046400008B1FDF73FF96020CDE900040294002293
:10465000694607480494FEF762FE08B1FDF732F997
:104660000348FEF701FE08B010BD000000480140FD
:10467000A409002010B596B000240F941094119452
:10468000129413941C2108A81494FBF7D7FF20213F
:104690006846FBF7D3FF29482749016040F61F51C0
:1046A000C0E9011440F2E731C0E9031444618461B8
:1046B000FEF75EFC08B1FDF705F94FF480500F904E
:1046C0000FA91E48FEF7B1FC08B1FDF7FBF81B4827
:1046D000FEF78DFE08B1FDF7F5F8139413A91748FE
:1046E0001494FEF7FDFB08B1FDF7ECF86020CDE96E
:1046F00008040A940B940C940D94042208A90F4802
:104700000E94FEF70CFE08B1FDF7DCF800944FF4B0
:104710000050CDE90440029401940394694607488F
:104720000794FEF7B3FB08B1FDF7CCF80348FEF79A
:104730009BFD16B010BD00000000014024090020C0
:1047400010B58EB000240794089409940A940B9431
:104750001C2168460C94FBF771FF22482049016038
:104760005321C0E9011440F6C311C0E90314846168
:10477000FEF7FEFB08B1FDF7A5F84FF48050079057
:1047800007A91848FEF751FC08B1FDF79BF815483A
:10479000FEF72DFE08B1FDF795F80B940BA9114813
:1047A0000C94FEF79DFB08B1FDF78CF86020CDE975
:1047B00000040294002269460A480494FEF7AFFD03
:1047C00008B1FDF77FF8042269460648FEF7A7FD09
:1047D00008B1FDF777F80348FEF746FD0EB010BDAF
:1047E00000040040640900200C4810B50A4901602B
:1047F0004FF4E1314160002181600C22C160C0E9C9
:1048000004128161C161FEF7C5FE002803D0BDE836
:104810001040FDF757B810BD004C0040E4090020DF
:104820000C4810B50A4901604FF4E13141600021A4
:1048300081600C22C160C0E904128161C161FEF790
:10484000A9FE002803D0BDE81040FDF73BB810BD1D
:1048500000500040240A00200C4810B50A490160AD
:104860004FF4E1214160002181600C22C160C0E968
:1048700004128161C161FEF78DFE002803D0BDE8FE
:104880001040FDF71FB810BD00100140640A002061
:104890000C4810B50A4901600B4941600021816054
:1048A0000C22C160C0E904128161C161FEF772FE91
:1048B000002803D0BDE81040FDF704B810BD00008B
:1048C00000440040A40A0020A08601000C4810B556
:1048D0000A4901604FF4E1214160002181600C220E
:1048E000C160C0E904128161C161FEF753FE002876
:1048F00003D0BDE81040FCF7E5BF10BD0048004004
:10490000E40A00200C4810B50A4901604FF4E13177
:104910004160002181600C22C160C0E90412816104
:10492000C161FEF737FE002803D0BDE81040FCF758
:10493000C9BF10BD00140140240B002030B590F811
:10494000201019234A1C80F8202000220124192954
:1049500004D380F8222080F8203001E080F8224043
:1049600090F825104D1C80F82550192904D380F8A3
:10497000272080F8253030BD80F8274030BD002149
:1049800020F8081B192220F8061C4180818002763D
:104990004276817642778277C1777047FEE70000E2
:1049A00030B504681E49238811F81C2F2280046842
:1049B000120222804D7804682A43228004688A7893
:1049C0006280046812026280CD7804682A436280A3
:1049D00004680A79A28004681202A2804D790468F2
:1049E0002A43A28002688979D18002681188C91A95
:1049F00009B251810068002901DB0A4600E04A4201
:104A000041F270739A4209DD002901DD012201E0C3
:104A10004FF0FF32524201EB4231418130BD000084
:104A2000784C002070B504460160084615462021E8
:104A3000FBF704FE00206560A87062681921117000
:104A4000626851702081216808822168088021688D
:104A500048612168C86170BD10B58AB0040A8DF83C
:104A600000408DF80100080A8DF80200100A8DF848
:104A700004008DF80520180A8DF806004FF4007028
:104A800002908DF8031000208DF8073004900590F7
:104A90000820069008AB6A4602A90248FDF719F8FB
:104AA0000AB010BDC808002000B589B0020A8DF810
:104AB00000208DF80100080A8DF802000F488DF8DB
:104AC000031008AB017A8DF80410817C8DF8051075
:104AD000417A8DF80610C07C8DF807004FF4007005
:104AE0000290002004900590082006906A4602A9D2
:104AF0000348FCF7EEFF09B000BD0000885200201B
:104B0000F008002010B51349036811F81C2F1A8013
:104B1000036812021A804C78036822431A800368E3
:104B20008A785A80036812025A80CC78036822433C
:104B30005A8003680A799A80036812029A804C7935
:104B4000036822439A8002688979D18040680021F5
:104B5000017010BD544C0020426811784B1C13703A
:104B600042685378994205D300219170406841789A
:104B70000170704701209070704770B50446016065
:104B8000084615460E21FBF737FD00206560A8702A
:104B900062681921117062685170208170BD000037
:104BA00070B51C481D4C2DED028BB0F904501A480D
:104BB00090ED008A206880680AF0D0F99FED180B0C
:104BC00053EC102B0AF0DEF909F008FF00EE900A12
:104BD000B0EE480A144806F007FABDEEC00A206895
:104BE00080ED030AF8EEC00A00EE105A0E48B8EE47
:104BF000C00A6C3806F016F9BDEEC00A216810EE46
:104C0000100A00B20882BDEC028BBDE87040FFF7CD
:104C1000BFBA00008C020020F00000203403002006
:104C2000000000000000C03FA8540020084842686F
:104C300011784B1C137042685378994204D3137057
:104C4000406800218170704701209070704700001B
:104C50003403002070B54FF4FA642DED028BB1EEF1
:104C6000040A9FED258ADFED250A0023B0EE481ADD
:104C700022460321224800F0FDFADFED228A204877
:104C80006500B7EE001AF0EE680A9FED1F0A0023D8
:104C90002A460321D83000F0EDFA1948B0EE481A40
:104CA000F0EE680AB1EE020A00232A4603216C30B6
:104CB00000F0E0FAB0EE481ADFED140AB1EE080A8F
:104CC000A31022460321124800F0D4FA12491148D9
:104CD000124A134B81E80D0003688360B0F9043079
:104CE000C36019201070507000209070C860086177
:104CF000BDEC028B70BD0000000000000AD7233C11
:104D00003C5400206F12833A6666663FCDCCCC3DA2
:104D100080550020D0030020340300201400002020
:104D2000170000200020FFF733BA000010B5184C20
:104D30001648216880888880206890ED020AC08A21
:104D4000F8EE400A00EE100A1248B8EE400A06F0EB
:104D500011FABDEEC00A206880ED030A2068F8EE63
:104D6000C00AB0F9040000EE100A0A48B8EEC00A02
:104D70006C3006F057F8BDEEC00A216810EE100A3C
:104D800000B20882BDE81040FFF702BA8C02002092
:104D9000340300201455002070B50A4C88200025EB
:104DA00020736573A573E57325746574A574E57444
:104DB00004F10C0240F241110348FBF7DFFFE5600C
:104DC000256170BD34030020C808002010B52E49AD
:104DD000027800234C68942A23703BD018DC302AD8
:104DE00003D0312A01D0322A11D18B6882781A700F
:104DF0008B68C2785A708B6802799A708B68427996
:104E0000DA708B6882791A718968C079487110BD2F
:104E1000A12A01D0A22AFAD10B6842789A74C278EA
:104E20000B6812029A82847822439A8242799A808D
:104E30000B6812029A8004790B6822439A80C37926
:104E40000A684FF6FF7101EA0321D182807901439C
:104E5000D18210BD0B68C2791A600B6812021A6009
:104E600084790B6822431A600B6812021A60447935
:104E70000B6822431A600B6812021A6009680079F5
:104E800002430A6010BD00003403002070B5174CC7
:104E900015482168B0F90450B0F9000091ED020AFC
:104EA000F8EE400A00EE100A1148B8EEC00A06F00B
:104EB0009BF8BDEEC00A206880ED030AF8EEC00A38
:104EC00000EE105A0A48B8EEC00A6C3805F0AAFF86
:104ED000BDEEC00A216810EE100A00B20882BDE8DB
:104EE0007040FFF755B900008C0200203403002009
:104EF000A854002010B5104CFBF728FDB4F90010A1
:104F00004A1C228064290FDB012080F31388BFF341
:104F10004F8F0A4801680A4A01F4E06111430160B9
:104F2000BFF34F8F00BFFDE70028E5D1BDE810407B
:104F30006420FDF70DBB0000D00000200CED00E068
:104F40000400FA057047000010B504460078A52853
:104F50000BD10321204601F029F8012805D1242195
:104F6000204601F005F8012801D0002010BD2422C0
:104F700021461148FBF7C9FA0F484FF448625142E5
:104F8000B0F90330934202DBA0F8032003E08B4228
:104F900001DCA0F80310B0F90530934202DBA0F861
:104FA000052003E08B4201DCA0F805100249002037
:104FB00044318884012010BD805300200B49A52274
:104FC00001F144000160243141600A70426800210F
:104FD000517043680122DA74426811754FF4967279
:104FE000C284828480F82210704700008053002021
:104FF000164810B5B0F92420511C09B28184B0F9CB
:1050000026309A4203DB491E8184002100E0012101
:1050100080F822100D491F22203901F14800FBF7CA
:10502000B9FA0A4803212830FBF750FC07481F2132
:105030002830FBF737FC05491F2228310448FEF7CA
:1050400033FD08B1002010BD012010BDC453002065
:10505000640A0020F0B47E487F4A43787D48082BDC
:10506000416828D0536893F83430592B25D04B2B06
:1050700025D0492B25D0562B25D01024482B11D0D4
:105080004F2B22D04C2B22D0542B22D0472B22D076
:10509000462B22D0512B22D04E2B22D05A2B22D05D
:1050A0004A2B2DD04C705168012391F834400021D7
:1050B000522C28D031E0022323E00B2321E00C23E3
:1050C0001FE00E231DE00F231BE0122319E0132322
:1050D00017E0082315E0152313E0162311E00A2337
:1050E0000FE009230DE007234B70D168446851F8A5
:1050F000633FC4F8153043684968C3F81910D2E714
:105100000D234B70CFE7D468544DD4F86340AC42C4
:10511000446801DBE37400E0E174514C4568032608
:105120002488A5F803405468456894F829406C73B6
:10513000D4684568D4F84A40C5F80540D468456845
:10514000D4F84E40C5F809405468456894F82340A7
:10515000AC734468E3734468237444686374414CDB
:1051600045682468E47CAC74D5682C7AB6EB141FCF
:105170003DD1546894F823604FF49674C6B9B5F8DD
:105180008650A542456801D1EB7300E0E973D5680C
:10519000B5F88860A642466801D1337400E03174E6
:1051A000B5F88A50A542456801D16B7400E0697476
:1051B000556895F82350012D19D1D568B5F876506A
:1051C000A542456801D1EB7300E0E973D268B2F8FB
:1051D0007850A542456801D12B7400E02974B2F8DB
:1051E0007A20A242426801D1537400E0517490F8D1
:1051F00022204ABB0268A2F803100268A2F8051038
:105200000268517202685181026811730268A2F843
:105210000D100268D17302681182026891740268ED
:10522000A2F81310026851750268D18202681176E3
:105230000268A2F819100268D176026891830268A8
:1052400091770068A0F81F10F0BCFFF7D1BE0000F6
:1052500029000020C45300202002002000006041EB
:105260008C020020085300204FF47A74204605F089
:10527000A3FDFBE730B4034C4466034C846630BCAA
:1052800006F054B82DB300083BB3000810B5002158
:105290000348FEF7C9F803493220086010BD00003A
:1052A000A40900203448014041F6A373B0F902205C
:1052B0005B1A0A499A4201DB002305E0084BB3F967
:1052C00000309A4201DC01234B70497821B1012959
:1052D00001D1121D42807047121FFBE7C40100205C
:1052E000E2010020B0F90C200A4B82318A4201DC35
:1052F000002105E00849B1F900108A4201DB0121D3
:105300001970197821B1012901D1121F82817047CA
:10531000121DFBE7C4010020E401002041680A8857
:10532000521C12B20A8041681E2A05DB00228A70D4
:1053300040681E21018001E0012088700D4840680E
:105340008078A8B90C490868401C08604FF448717F
:10535000B0FBF1F201FB1202642A06D9B0FBF1F2B4
:1053600001FB1200C838642802D83220FBF780BB4A
:105370000020FBE70C000020EC010020044810B5E1
:10538000407800F007F8BDE81040FEF77DBD000052
:10539000CC00002070B5164D040013D0002210215F
:1053A0002846FDF7C3F9012220212846FDF7BEF962
:1053B000012208212846FDF7B9F9204605F0FCFC3A
:1053C000642C14D2012210212846FDF7AFF90122E6
:1053D00020212846FDF7AAF9012208212846FDF7D9
:1053E000A5F9C4F10A00BDE8704005F0E5BC70BD48
:1053F000000C024010B50446B0F9220000EE100A7D
:105400002068F8EEC00A0068B0F9020000EE100A49
:105410002069B8EEC00A05F005FDBDEEC00A21689E
:1054200010EE100A088110BD2DE9F0475849574A7F
:10543000A1F118002DED048BFFF7F4FA9FED558ACA
:10544000B0EE481ADFED548A42F2486650483346BF
:10545000F0EE680AB2EE040A1A4603215830FFF74C
:1054600009FFB0EE481AF0EE480A9FED4C9A484802
:105470004FF47A774FF4FA58B0EE490A3B46424669
:105480000321C430FFF7F6FE4FF47A69B0EE481AF4
:10549000F0EE480AB2EE0E0A4B463246032140486F
:1054A000FFF7E8FEDFED3F9A3D4841F2883AB0EE63
:1054B000481AF0EE690AB2EE000A5346324603215A
:1054C0006C38FFF7D7FE32480024703800F1C8016D
:1054D00080F8284041606C3181606C31C1606C3172
:1054E000016100F1580101600225284A80F82A5024
:1054F000D21C50319030FFF795FA29483346B0EE70
:10550000481AF0EE680AB2EE040A1A4603216C301B
:10551000FFF7B0FE2248B0EE481AF0EE480AB0EEAF
:10552000490A3B4642460321D830FFF7A3FEB0EEBE
:10553000481AF0EE480AB2EE0E0A4B4632460321F4
:105540001948FFF797FE1848B0EE481AF0EE690ABE
:10555000B2EE000A5346324603216C38FFF78AFE4A
:105560000B48443800F5137180F8284041606C31D5
:1055700081606C31C1606C31016100F164010160D6
:1055800080F82A50BDEC048BBDE8F087F7010020BD
:105590005C56002000000000CDCC4C3E3333B33EBF
:1055A000F85700200AD7233CA859002070B58EB0C8
:1055B0000646002502468DF800500121684602F09B
:1055C00017F902F029F832460121042002F0D0FB3D
:1055D000044602F021F884B90C208DF80200022064
:1055E0008DF8030001208DF805508DF80400014668
:1055F0003246684602F0C6FC04460EB0204670BD36
:1056000070B58EB00124064602468DF80040214652
:10561000684602F0EDF801F0FFFF32460221042057
:1056200002F0A6FB054601F0F7FF95B90C208DF8B6
:10563000020000208DF8060002208DF803008DF88E
:1056400007408DF8044032460121684602F09AFC7A
:1056500005460EB0284670BD08F01EF9052005F07D
:10566000ABFBF9E710B504460068006890ED050A49
:10567000F8EEC00A90ED030AA068B8EEC00A05F083
:10568000D1FBBDEEC00A10EE100A00B2608400EE3D
:10569000100A2068F8EEC00A0068B0F9020000EEB7
:1056A000100A6068B8EEC00A05F0BCFBBDEEC00A87
:1056B000216810EE100A088110BDB0F9042041885D
:1056C00000EE102AB0F90030C91AB8EEC00A09B2CB
:1056D000002901DB0A4600E04A4200EE902AF8EE7B
:1056E000E00AF4EEC00AF1EE10FA08DD002901DC50
:1056F000B1EE400ABDEEC00A10EE101A09B219440C
:1057000009B201800846704710B5012005F054FB2E
:10571000FBE7000010B5502080F31188BFF34F8FD6
:10572000BFF36F8F09F088F818B104494FF080502B
:105730000860002080F3118810BD000004ED00E037
:1057400030B593B030216846FAF778FF14210CA8E1
:10575000FAF774FF1B480025016841F08051016091
:10576000006800F0805011901748016841F48041B2
:1057700001600068022400F480401190092000902C
:105780004FF4803001900120CDE905048005079099
:10579000192008904FF4A870CDE9090404200B905B
:1057A0006846FDF7C3F90CA90F2081E831004FF4DA
:1057B000A0500F90E002109005210CA8FDF7AAF868
:1057C00013B030BD40380240007000400548016809
:1057D00041F47001016003494FF0006080390860B6
:1057E0007047000088ED00E00148FDF78ABC00002A
:1057F000240F0020F0B50268254C264D264E274F79
:10580000274B4FF0804CA04209D0604507D0A842FA
:1058100005D0B04203D0B84201D0984204D122F062
:10582000700E4A6842EA0E02A0421BD0604519D0B1
:10583000A84217D0B04215D0B84213D0984211D028
:10584000184DA8420ED0184DA8420BD0174DA842B3
:1058500008D0174DA84205D0164DA84202D0164DCB
:10586000A84203D122F44075CA682A434D6922F048
:1058700080022A4302608A68C2620A688262A04289
:1058800001D0984201D10969016301214161F0BD54
:10589000000001400004004000080040000C0040EF
:1058A0000004014000400140004401400048014024
:1058B00000180040001C00400020004010B501F01E
:1058C0001F030121046A99408C430462016A9A40D3
:1058D0001143016210BD10B5846842EA032224F42A
:1058E0007F440A432243826010BD826822F0700226
:1058F0000A4342F00701816070470000F0B5026A78
:1059000022F001020262036A42688469124E24F0A6
:1059100073050C682C4323F002058B682B430D4D57
:10592000A84201D0B04205D123F00807CB683B4321
:1059300023F00403A84201D0B04205D14D6922F4FE
:10594000407215438A692A43426084614968416311
:105950000362F0BD0000014000040140F0B5026A9E
:1059600022F010020262026A436884690D6824F41E
:10597000E64444EA05248D6822F0200242EA05123A
:105980000F4D104EA84201D0B04206D1CF6822F090
:10599000800242EA071222F04002A84201D0B0423F
:1059A00007D14D6923F4406343EA85038D6943EAD7
:1059B000850343608461496881630262F0BD000031
:1059C0000000014000040140F0B5026A22F4807238
:1059D0000262026A4368C46922F4007224F073050B
:1059E0000C68124E2C438D6842EA05220E4DA842E7
:1059F00001D0B04206D1CF6822F4006242EA072209
:105A000022F48062A84201D0B04207D14D6923F44C
:105A1000405343EA05138D6943EA05134360C461AB
:105A20004968C1630262F0BD00000140000401400A
:105A300030B5026A22F480520262046A4268C36985
:105A40000D6823F4E64343EA05238D6824F40054EB
:105A500044EA0534084DA84202D0084DA84204D1BA
:105A60004D6922F4804242EA85124260C36149686E
:105A70000164046230BD00000000014000040140E8
:105A800010B5036A046A24F001040462846924F0F6
:105A9000F00444EA021423F00A020A438461026219
:105AA00010BD10B5036A23F0100303628369046A12
:105AB00023F4704343EA023224F0A00343EA0111C5
:105AC0008261016210BD000010B50448FDF7D8FCEA
:105AD000BDE810400148FBF7ACBE0000E40900201F
