:020000040800F2
:10000000580900209D0100083537000851300008CC
:100010003137000879020008B93E000800000000EE
:10002000000000000000000000000000B1370008E0
:10003000A50200080000000041370008D53700087D
:10004000B7010008B7010008B7010008B7010008B0
:10005000B7010008B7010008B7010008B7010008A0
:10006000B7010008B7010008B70100088D020008B9
:1000700099020008B7010008B7010008B70100089D
:10008000B7010008B7010008B7010008B701000870
:1000900081020008B7010008B7010008B701000895
:1000A000B7010008B7010008B7010008B701000850
:1000B000193800082538000800000000B7010008C2
:1000C000B70100080000000000000000B7010008B0
:1000D00000000000B7010008B7010008B7010008E0
:1000E000B7010008B7010008000000000000000090
:1000F0000000000000000000000000000000000000
:1001000000000000000000000000000000000000EF
:100110000000000000000000B7010008B70100085F
:1001200000000000000000000000000000000000CF
:1001300000000000000000000000000000000000BF
:10014000B7010008B701000800000000B70100086F
:10015000B7010008B7010008B7010008B70100089F
:10016000B7010008B701000800000000000000000F
:10017000000000000000000000000000000000007F
:1001800000000000B7010008DFF80CD000F02AF8EA
:1001900000480047BD3E0008580900200648804737
:1001A00006480047FEE7FEE7FEE7FEE7FEE7FEE75C
:1001B000FEE7FEE7FEE7FEE70538000889010008D4
:1001C000D2B201E000F8012B491EFBD27047002299
:1001D000F6E710B513460A4604461946FFF7F0FF46
:1001E000204610BD064C074D06E0E06840F00103D4
:1001F00094E8070098471034AC42F6D3FFF7C8FFE5
:1002000048430008684300080146406A026C12F047
:10021000500F03D0806B026B084610470168026CD8
:1002200042F400720264C96811F4406F02D000F019
:100230001FBB00BF417E0029F9D1016C21F4807100
:100240000164016CC90448BF00F012BB016C41F0AD
:100250000101016400F00CBB406A016C41F04001F7
:100260000164416C41F00401416400F005BB0000F1
:10027000406A00F0FFBA0000FEE70000704700008F
:1002800040F20820C2F2000000F070BE40F24000D0
:10029000C2F2000001F080B840F25420C2F2000027
:1002A00001F07AB870470000EFF3108072B600BF1B
:1002B000FEE70000F0B581B0044690F83C0001284C
:1002C00002D1022001B0F0BD0D460127216884F85B
:1002D0003C70886800F00300012813D10868C0074B
:1002E00010D0886800F00D00012859D1886840F0CE
:1002F000020088600320086001F022FA21688A6801
:10030000D2073FD1264646F8407F8868012D20F06D
:100310008040886003D1886840F0804088608868A9
:1003200040F00040886001F00BFA21688968B1F163
:10033000FF3F0BDD306820F00301002041F0010198
:100340003160002184F83C1001B0F0BD054602E0A8
:1003500080680028EED501F0F3F9411B20680B29D5
:10036000F6D38168B1F1FF3FF2DC306840F0100055
:1003700020F0020030600120002184F83C1001B020
:10038000F0BD00BF064602E08868C007BAD001F0A1
:10039000D7F9801B21680328F6D38868C007F3D0FB
:1003A000206C264640F01000206456F8441F0120BF
:1003B000C4E70000F0B5026890F83C5040F2083CF9
:1003C0004FF0A043B2F1A04FC5F2000C08BFACF54E
:1003D0000273012D04BF0220F0BD95686D0737D46C
:1003E0004FF6005ECFF6FF7EB2F1A04F04BF4FF68E
:1003F000006ECFF6FF7E5EF80C40640728D40C68D0
:10040000DCF8005025F4604564B34E6890F8307015
:1004100046EA47363543CCF80050956805F00305A9
:10042000012D02D11268D20736D15EF80C2002F0FD
:100430000302012A02D11A68D2072DD1DCF800206C
:1004400040F61F7389689A431143214322E000BF9D
:10045000016C41F0200101640121002280F83C2060
:100460000846F0BDCCF80050916801F00301012965
:1004700002D11168C9070FD15EF80C1001F0030119
:10048000012902D11968C90706D1DCF8001040F62D
:100490001F729143CCF800100021002280F83C200C
:1004A0000846F0BD2DE9F04181B00022009290F89D
:1004B0003C20012A04D10221084601B0BDE8F081A8
:1004C0000123026880F83C3093685B0700F1728179
:1004D0004B68042B14D803EB4303146B5B001F25FC
:1004E000D1F800809D4024EA050508FA03F32B4368
:1004F0001363936813F00C0F40F0D78043E000BF04
:10050000092B17D803EB43036FF01D06556B06EB61
:1005100043031F26D1F8008006FA03F4A54308FA26
:1005200003F32B435363936813F00C0F40F0BD802B
:1005300029E000BF03EB43060E2B4FEA460311D818
:10054000956B3C3B1F26D1F8008006FA03F4A543C7
:1005500008FA03F32B439363936813F00C0F40F0F6
:10056000A48010E0D56B5A3B1F26D1F8008006FA14
:1005700003F4A54308FA03F32B43D363936813F002
:100580000C0F40F0928008EB48031425B8F1090FD6
:1005900088BF1E3B88BF1825545907268F689E4088
:1005A00024EA060607FA03F333435351D1E9043C26
:1005B000D468013B032B17D8062707EA94070CFAE7
:1005C00007FCDFE803F00329374500BF136E4FF245
:1005D0000007C0F2FF373B4043EA886343EA0C035D
:1005E00043F00043136660E0136E4FEA886C03F03B
:1005F000F84363453AD0536E03F0F84363453ED069
:10060000936E03F0F843634542D0D36E03F0F84392
:10061000634546D049E000BF536E4FF20007C0F279
:10062000FF373B4043EA886343EA0C0343F000434F
:1006300053663AE0936E4FF20007C0F2FF373B403B
:1006400043EA886343EA0C0343F0004393662CE0DB
:10065000D36E4FF20007C0F2FF373B4043EA886396
:1006600043EA0C0343F000431EE000BF136E23F087
:1006700000431366536E03F0F8436345C0D1536ED5
:1006800023F000435366936E03F0F8436345BCD1F7
:10069000936E23F000439366D36E03F0F8436345F3
:1006A00003D1D36E23F00043D366936803F00303B2
:1006B000012B02D11368DB073CD1CB680127012B4A
:1006C00007FA08F31ED1D2F8B070B8F10A0F43EA66
:1006D0000703C2F8B03008EB48032DD397691B3BE2
:1006E000072689689E40B74399403943916140F29B
:1006F000083CB8F1120FC5F2000C0FD1DCF8001065
:1007000049022AE0D2F8B0109943C2F8B01040F282
:10071000083CB8F1120FC5F2000CEFD0B8F1110F80
:1007200018D0B8F1100F51D1DCF8001009024FD4E5
:10073000012115E0002142E0576938258968DE1C57
:1007400005FA03F327EA0303B1401943516100217D
:1007500035E000BFDCF80010C9014FF000012ED4D5
:1007600093684FF0A04EB2F1A04F03F0030308BF0F
:10077000ACF5027E012B02D11368DB071AD14FF6CC
:100780000053CFF6FF73B2F1A04F04BF4FF60063E2
:10079000CFF6FF7353F80C3003F00303012B03D1A2
:1007A000DEF80030DB0705D1A1B1B2F1A04F1FD0B8
:1007B000002104E0016C41F02001016401210022CC
:1007C00080F83C20084601B0BDE8F0810021F6E742
:1007D0000021F4E7B8F1110F04D1B2F1A04F37D0E6
:1007E0000021ECE7DCF8001041F4800134E000BFA8
:1007F000DCF800104DF6836241F40001CCF80010E3
:1008000040F20C01C2F200010968C4F21B32A1FBE4
:100810000212910C01EB8101490000910099F9B19C
:100820000099013900910099E1B1009901390091D5
:100830000099C9B10099013900910099B1B10099AD
:1008400001390091009900294FF00001E8D1B6E785
:10085000DCF8001041F08071CCF800100021AEE708
:100860000021ACE70021AAE70021A8E70021A6E7C4
:10087000704700007047000070470000B0B582B0BC
:100880000446002001904CB1206CC0060AD4206CB4
:10089000002879D02168002529E100BF012002B09D
:1008A000B0BD00BF0025206C00F01000401940F0E2
:1008B000308120688168490700F12B81226C40F269
:1008C000083122F481720232226483684FF0A04220
:1008D000B0F1A04F03F00303C5F2000108BFA1F57A
:1008E0000272012B02D10368DB0718D14FF60053C7
:1008F000CFF6FF73B0F1A04F04BF4FF60063CFF601
:10090000FF735B5803F00303012B02D11268D20777
:1009100005D10A68636822F440321A430A60616BA9
:10092000627E0129D4E902154FEA423341EA05010A
:1009300094F8205003F5805308BF5303012D41EA7A
:10094000030179D0A26A012A40F09180826812F0F6
:100950000C0F00F09480C2684CF20703CFF6F073DE
:100960001A401143C1602169026B012922F00F0175
:1009700002D1E269013A11430163002001216FF0C5
:1009800003026064C9E000BF002520466564C4E935
:10099000125584F83C5000F0C7F821688868C00000
:1009A00000F1A580886800F00300012802D10868E2
:1009B000C00771D1206CC0063FF56DAF206C41F2CD
:1009C000021290430230206488684DF6836220F062
:1009D000405088608868C4F21B3240F080508860C4
:1009E00040F20C00C2F2000000680025A0FB0202E9
:1009F000900C00EB8000400001900198002876D018
:100A0000019801380190019800283FF444AF019803
:100A100001380190019800283FF43DAF019801385A
:100A20000190019800283FF436AF019801380190F9
:100A300001980028E4D15AE072B1226C42F0200201
:100A400022F002022264626C42F001026264A26A35
:100A5000012A3FF47BAF0AE0626A0023CFF6FF73FE
:100A600003EB42421143A26A012A3FF46FAFE36AEB
:100A700019431143826812F00C0F7FF46CAFC26807
:100A800044F202039A43C260227E94F8303092030B
:100A900042EA430211435EE7886800F00D00012836
:100AA0001BD1886840F0020088600320086000F0D5
:100AB00047FE21688A68D2073FF47CAF054603E011
:100AC0008868C0073FF476AF00F03AFE401B21680B
:100AD0000328F5D38868C007F2D0206C012540F0C8
:100AE00010002064606C40F001006064206C886835
:100AF000C00003D5886880007FF5D5AE206C40F03B
:100B0000100020F002002064606C40F0010060647E
:100B1000206C012010216FF01202236C1A40114347
:100B2000216402B0B0BD00002DE9F04186B004465A
:100B3000006840F20011C5F2000188424FF0000148
:100B40000591CDE90311CDE9011159D0B0F1A04FC4
:100B500040F0B78040F23C05C2F20005296841F23E
:100B60001400C4F202004A1C2A6041B9016841F035
:100B700080510160016801F0805100910099016885
:100B800001AE41F40031016001684FF0030801F447
:100B90000031009100990168002741F48021016033
:100BA0000068314600F480200090009808200190F1
:100BB0004FF09040CDF80880039700F0DDFC42F242
:100BC0000100CDE9010840F20040C4F600003146C2
:100BD000039700F0D1FC0820C4F2020045F8040F8E
:100BE000802005F10C0C4FF480714FF480622023BB
:100BF0004FF40056C5E901778CE84F0057E000BF7D
:100C000040F23C01C2F200010A6841F21400C4F251
:100C10000200531C0B6042B9016841F08051016031
:100C2000016801F0805100910099016801AD41F423
:100C3000003101600168032701F40031009100993F
:100C40000168002641F4802101600068294600F413
:100C5000802000900098102001904FF09040029763
:100C6000039600F089FC41F20400CDE9010740F24F
:100C70000040C4F600002946039600F07DFC0820E1
:100C8000C4F2020040F254251430C2F20005802163
:100C90004FF48072C5E9000605F110004FF480633F
:100CA00020274FF4005CC5E9026180E88C102846DB
:100CB00000F0C4FB05F1240608B1FFF7F5FAA563BF
:100CC000346006B0BDE8F0812DE9F04103680446C8
:100CD0009868400703D494F83C00012802D1022010
:100CE000BDE8F08140F208380120C5F2000884F820
:100CF0003C00D8F80000C00606D0002084F83C0074
:100D00000120BDE8F08100BF9868154600F003009F
:100D10000E46012802D11868C0072DD198683F21DE
:100D2000C8F2000108420DD0206C40F01000206491
:100D3000606C40F001006064002084F83C000120F9
:100D4000BDE8F081986840F00100986000F0F8FC80
:100D500023681968C9070FD1074602E01868C00761
:100D60000AD100F0EDFCC01B23680328F6D31868F5
:100D7000C007F3D1D8E700BF206C40F6017188436B
:100D800000F580702064D8F80010206CC90618BFE8
:100D9000B3F1A04F04D120F480102064D8680CE097
:100DA000A8F5027140F480108B4220640CD14FF6FC
:100DB0000450CFF6FF7058F80000800104D5206C75
:100DC000012161F30D302064206C40F20921C00440
:100DD0004FF0000044BF606C20F006006064A06B20
:100DE000C0F6000140F2712240F2592C00F1280EA9
:100DF0000027C0F60002C0F6000C8EE806101C2189
:100E000084F83C7019605968324641F0100159600D
:100E1000D96841F00101D96003F140012B4600F08F
:100E200049FB2068816841F0040181603846BDE8D3
:100E3000F08100007047000010B590F82040013CA0
:100E4000012C7BD8D0F800C0002900F08180DCF8AC
:100E50001040A40700F081800CEB011CDCF8B041CD
:100E60000CF5D87E14F004049460DCF8B04119BF8E
:100E7000E4085460640D1460DEF800400CF5DA7E7E
:100E800004F00204D460DCF8B44124075ABFDEF851
:100E9000004004F00F0408241461DEF8004000292B
:100EA000C4F307249461DEF800404FEA144454610F
:100EB000DCF8B8211A70026802EB0112D2F8B821EE
:100EC0004FEA12225A70026802EB0112D2F8B821DE
:100ED0004FEA12429A70026802EB0112D2F8B8216E
:100EE0004FEA1262DA70026802EB0112D2F8BC21FA
:100EF0001A71026802EB0112D2F8BC214FEA1222E9
:100F00005A71026802EB0112D2F8BC214FEA124278
:100F10009A71026802EB0112D2F8BC214FEA126208
:100F2000DA71006814BF00F1100100F10C0100201B
:100F300020220B681A430A6010BD00BF00F1240193
:100F400001204FF480220B681A430A6010BD00BFD5
:100F5000DCF80C40A4077FF47FAF00F124010120EE
:100F60004FF400120B681A430A6010BD2DE9F04FD0
:100F700081B0044600684669D0F804908768D0F8CC
:100F80000CB0D0F810A0D0F81880F10704D10025DB
:100F900030071DD424E000BFF90710D00121BA07A3
:100FA000816009D4780700F1AF80380700F1B6807E
:100FB000204600F0E3F902E0204600F0E1F90025C8
:100FC000F80500F18780F80300F1B180300707D5FC
:100FD0001BF0100004D0206845F400751021C1609A
:100FE000700708D51BF0080005D020680821C160F3
:100FF000204600F0A1F9B00706D52068C068800738
:1010000002D0204600F09AF9700607D51AF01000B9
:1010100004D0206845F4806510210161B00608D530
:101020001AF0080005D0206808210161204600F070
:101030009FF9F00606D520680069800702D0204697
:1010400000F098F9B00308D519F0100005D0206819
:1010500010214160204600F08FF9F00308D519F007
:10106000080005D0206808214160204600F092F970
:10107000300440F19B805FEA497040F1948006F4AF
:10108000807008EA102028435FEA8871014648BF53
:1010900041F00201B20558BF01465FEA48700D46B3
:1010A00048BF45F00405700558BF0D46300540F1B6
:1010B0007A8018F0700000F076801038000905285A
:1010C0006CD8DFE800F003595D61656945F00805FB
:1010D00064E000BF20684FF48071BA0581600BD4D2
:1010E000780515D438051DD4204600F04BF9F803D7
:1010F0007FF56CAF1BE000BF204600F045F9F80318
:101100007FF564AF13E000BF4FF4006558E700BF00
:1011100005F50055F8037FF559AF08E04FF4805509
:101120004EE700BF05F58045F8037FF54FAF206817
:101130004FF48031BA0381600AD4780310D43803A5
:1011400014D4204600F022F930073FF541AF47E7BD
:10115000204600F01DF930073FF53AAF40E700BFE9
:1011600005F5004530073FF533AF39E705F5803524
:1011700030073FF52DAF33E745F010050EE000BF17
:1011800045F020050AE000BF45F0400506E000BF3D
:1011900045F0800502E000BF45F480752068816954
:1011A00021F07001816120680421416055B1606ABD
:1011B00040EA05012046616201B0BDE8F04FFFF74B
:1011C00039BE00BF01B0BDE8F08F0000B0B5C8B1B6
:1011D000044690F8200010B9204600F071F820680D
:1011E000016841F00101016000F0AAFA054600BF64
:1011F00020684168C90707D100F0A2FA401B0B28FC
:10120000F6D312E00120B0BD016821F002010160B7
:1012100000F096FA054600BF2068416889070DD5A1
:1012200000F08EFA401B0B28F6D3606A052140F4CB
:1012300000306062012084F82010B0BD217E026879
:10124000012922F0800208BF80320260617E0268BC
:10125000012922F0400208BF40320260A17E0268EC
:10126000012922F0200208BF20320260E17E0268DC
:10127000012922F0100218BF10320260217F02689B
:10128000012922F0080208BF08320260617F02686B
:10129000012922F0040208BF04320260D4E901C22D
:1012A000D4E9033561691A432A431143ACF10102C1
:1012B0001143C16100200121606284F82010B0BD9B
:1012C00080B586B0006846F20041C4F20001884251
:1012D00002D006B080BD00BF41F21400C4F202008B
:1012E000816841F000718160816801F000710191B5
:1012F0000199016841F400310160006801A900F41E
:101300000030019001984FF4C050019002200290EB
:101310000020039003200490092005904FF0904096
:1013200000F02AF914200521002200F04FFE1420BD
:1013300000F038FE06B080BD70470000B0B501680F
:1013400046F20042C4F20002914218BFB0BD40F222
:101350003024C2F2000404F11C05002122462B4671
:10136000FFF76AFD20682946BDE8B040FEF786BF5A
:101370007047000070470000704700007047000091
:101380007047000070470000704700007047000081
:101390007047000070470000B0B5D0E90FC3026885
:1013A000DCF800100424D2F800E09C400C4218BF86
:1013B0001EF0040520D102249C400C4218BF1EF0F0
:1013C000020527D1D940090722D51EF0080108BF20
:1013D000B0BD116821F00E011160012101FA03F284
:1013E000CCF804208163016B4FF48072028479B1E0
:1013F000BDE8B040084700BF1168890603D41168F2
:1014000021F004011160CCF80440C16A0029EFD139
:10141000B0BD00BF1168890606D4116821F00A0129
:101420001160012180F82110CCF80440816A00226B
:10143000002980F82020DBD1EAE70000002804BF63
:10144000012070472DE9F04301684FF6F872CBF6A2
:10145000FD724CF6CD430A44CCF6CC43A2FB032CE0
:1014600000F1040E9EE80441D0E90495D0E9066736
:101470000B6843F6F074A3431A4342EA080242EAB7
:101480000E0242EA09022A4332433A430A606FF0ED
:101490000301002201EA9C01C4F20202C0E90F210B
:1014A00000214FF4807281630284BDE8F043084656
:1014B00070470000F0B590F820C0BCF1010F32D0A9
:1014C00090F821C04FF0010EBCF1010F80F820E030
:1014D00026D14FF0020C80F821C04FF0000CC0F86C
:1014E00038C0D0E900C4C56AC66BDCF80070102CA7
:1014F00027F00107CCF80070006C0EFA00F0706065
:101500000846CCF8043004BF10460A46CCF8080060
:10151000CCF80C20DCF8000045B140F00E000DE0E6
:10152000002180F820100220F0BD00BF40F00A002A
:10153000CCF80000DCF8000020F00400CCF800003B
:10154000DCF8000040F00100CCF800000020F0BD05
:10155000B0B5044600F0F4F8054640F20000C2F2CF
:1015600000000078611C18BF044400BF00F0E8F8D8
:10157000401BA042FAD3B0BD2DE9F04F82B00F68F6
:10158000002F00F0D38040F2004C40F60042C4F23D
:10159000010CC4F600020523002400264FF0000AC7
:1015A000904208BF0323009344E000BF012206F0ED
:1015B0000C050F27AF402EEA0707AA404FEA9A030F
:1015C0003A4349F82320DCF808204B6842EA080730
:1015D00040F20C4EDD0258BF22EA0807CCF8087032
:1015E000C4F2010EDEF800209D0242EA080758BF4F
:1015F00022EA0807CEF80070DCF804209D0342EAD6
:10160000080758BF22EA0807CCF80470DCF800206D
:10161000DB0342EA080758BF22EA0807CCF800704B
:101620000F680AF1010A37FA0AF206F1040604F11A
:1016300002047BD0012202FA0AF517EA0508EFD06E
:10164000D1F804E003230EF0030BABF1010203FA1F
:1016500004F7012A6FEA070910D88268CF6802EA06
:101660000902A7403A4382604268AA43CEF30015BC
:1016700005FA0AF52A43426006E000BFBBF1030FFA
:1016800002D14FF0030B1EE0C2688D6802EA090226
:10169000A5402A43BBF1020FC26014D16FF00302D0
:1016A00002EA5A020244D2F820E006F01C050F2399
:1016B0000F69AB402EEA0303AF403B431362D1F8FE
:1016C00004E00EF0030B02680BFA04F302EA0902CD
:1016D0001A431EF4403F0260A2D041F21803C4F244
:1016E00002031A68ACF57E7942F001021A601A68AA
:1016F000B0F1904F02F001020192019A2AF0030228
:1017000059F802E010D040F20042C4F600029042C4
:101710003FF44CAF40F60002C4F600029042009A3B
:1017200008BF022243E700BF002240E702B0BDE845
:10173000F08F00001823002A08BF2823C1507047EB
:1017400040F25450C2F200000068704790F8C02088
:10175000012A4FF0020221D0012380F8C03080F826
:10176000C12002684B1CD2F8CCC309D04CF0020354
:10177000C2F8CC33D2F8CC3323F00C03194301E088
:101780002CF00201C2F8CC13D2F8CC1341F00101C5
:10179000C2F8CC130121002280F8C1101046704716
:1017A00070B590F8C130022B04BF022070BD90F8D4
:1017B000C030012B4FF002033AD080F8C130D2E99B
:1017C00000C3D2E902E60CF4E0546FF35F2315691D
:1017D00023440EF40074234405F480452B4406F49E
:1017E0000046334456690025C0F2FF1505EA064657
:1017F0009569334405F00076156A334405F0804658
:10180000D2693343066802F0004206EBC1111A4365
:10181000D1F8B83042F20006C3F6004633401A430E
:10182000C1F8B8200121002380F8C11080F8C03031
:10183000184670BD002804BF0120704710B582B063
:101840000446022084F8C100207AC0074FF000004F
:10185000C4E93100C4E93300C4E935001FD0206871
:1018600047F20041C4F2010188420CD141F2180153
:10187000C4F202010A6842F000520A60096801F0ED
:101880000051019101990168D4E9042321F47041C8
:1018900002F44042114403F44052114401602046D6
:1018A00000F038F8207A800706D52068E1680268E1
:1018B000090A61F309220260012084F8C1000020B6
:1018C00084F8C000C4F8BC00C4E90600C4E90800FC
:1018D000A062C4E90C00C4E90E00C4E91000C4E928
:1018E0001300C4E91500C4E91700C4E91A00C4E9EB
:1018F0001C00C4E91E00C4E92100C4E92300C4E9B6
:101900002500C4E92800C4E92A00C4E92C0002B07B
:1019100010BD000081B0006847F20041C4F201012F
:10192000884201D001B0704741F21800C4F20200B1
:10193000016841F000510160006800F00050009023
:10194000009801B07047000070B50D460446FFF7DF
:10195000F7FE2168D1F88823D2031FD435B3064699
:10196000681C11D1D1F88803C00317D4D1F88803BB
:10197000C0035CBFD1F888035FEAC0300ED4D1F851
:101980008803C003EED509E0FFF7DAFE801BA8420A
:101990000ED82068D0F88803C003F5D5012084F85C
:1019A000C100002084F8C00070BD00BFFFF7C8FE72
:1019B000072084F8C100032070BD000010B590F826
:1019C000C130022B4FF002032ED080F8C1300368E3
:1019D000052911D11968D2E900CED2E9024221F0DD
:1019E0001F0124F01804214311431960C3F814C0E7
:1019F000C3F818E014E000BF03EBC111D1F8803048
:101A0000D2E900ECD2E9024223F01F0324F01804CB
:101A100023431A43C1F88020C1F894E0C1F898C06C
:101A20000121002380F8C110184610BD80B590F840
:101A3000C1C0BCF1020F04BF022080BD90F8C0C03D
:101A4000BCF1010F4FF0020C00F09E804FF0010E30
:101A5000052980F8C0E080F8C1C00FD1511E0729C8
:101A600026D80FF20602DFE801F0051F232B2323FF
:101A7000232F00BF19680268D16128E0A2F1010C90
:101A8000BCF1070F46D80FF20602DFE80CF005277D
:101A9000434B4343435300BF02681B6802EBC11131
:101AA000C1F89C3063E000BF1968026851620EE023
:101AB000072180F8C110002180F8C01007E000BFA6
:101AC00019680268916202E019680268D16290F8B0
:101AD000C110072904BF012080BD4EE0026802EB5F
:101AE000C11CD3E9001ECCF8A410614651F8802F28
:101AF000BEF1000F22F440520A6038D00A6842EA70
:101B00000E02BEF5405F0A602BD19968CCF8A81090
:101B10002DE000BF072180F8C110002180F8C0101F
:101B200025E000BF02681B6802EBC111C1F8A830B4
:101B30001DE000BF026802EBC11CD3E9001ECCF817
:101B4000AC10614651F8802FBEF1000F22F44042E4
:101B50000A600CD00A6842EA8E02BEF5405F0A6055
:101B6000D3D0BEF5005F02D19968CCF89C1090F8F4
:101B7000C110072904BF012080BD01214FF0000CD6
:101B800080F8C11080F8C0C0604680BD90F8C020C9
:101B9000012A4FF002020BD080F8C12002681368BE
:101BA000194311600121002280F8C11080F8C02083
:101BB00010467047B0B5044690F8C100022804BF33
:101BC0000220B0BD94F8C00001284FF0020008BF09
:101BD000B0BD012584F8C05084F8C100204601F052
:101BE000C3F9002084F8C15084F8C000B0BD0000E3
:101BF00090F8C020012A4FF002020DD080F8C120D9
:101C00000268D2F894331943C2F8941301210022D8
:101C100080F8C11080F8C020104670472DE9F04FC1
:101C20008EB090F8C130022B04D1022318460EB0BA
:101C3000BDE8F08F90F8C030012B4FF00203F5D0D3
:101C4000012780F8C07080F8C130D0F800804FF2D2
:101C5000DF360529CFF2FF1630D1D8F80070D8F85A
:101C6000A0C3374006F12005D2E90546D2E9073E78
:101C70002C404FF6FF35C1F2FF153C4335402C4355
:101C800023F06E4323432EF06847566A3B433343A9
:101C9000976A4FF6FC76CDF6FF76156B06EA870756
:101CA00023F060432F433B43D76A2CF480363743FD
:101CB000C8F80030C8F8A0739EE000BF08EBC11C54
:101CC000E6465EF8803F644623F07043CEF800306D
:101CD000DEF80030E146079354F8E83FCDE90C43C5
:101CE00059F8E4AFD8F8A053546B24B9136C2AF414
:101CF000807743EA070A5369009393690193D36994
:101D00000293136A0393536A0493936A0593136BC4
:101D10000693136D0993D2E911B30893936B0B9358
:101D2000D36B0A934BF48053B3F5F05F01D1402C91
:101D300003D12AF4F05343EA0B0AD76CA3460429D3
:101D40000DD83EA353F82130D66A4C1C2B4006FA1E
:101D500004F44FF2DF36CFF2FF1644EA0305079B87
:101D600006F120043340009E344023434FF6FF34F5
:101D7000019EC0F2FD1426403343029E04F58064A8
:101D8000344023434FF6FF74039EC0F2FD74264097
:101D90003343049E04F1006433432340059C24F440
:101DA00000342343069CB4F1005F08BF03F5003301
:101DB0004FF6BF74099ECFF6036423402BF0FE74E8
:101DC00026F0FC763443089E34432343CEF800309B
:101DD0004FF6E0730D9EC7F6FF7333400B9E06F07F
:101DE0001F0633440A9E33430C9E3360C9F800A09B
:101DF000CCF8D470C8F8A053C1EBC103D2E9007687
:101E0000D2E90254126900EB83030529C3E908767D
:101E1000C3E90A541A6307D80DA252F82110D8F862
:101E200084231143C8F884130121002380F8C110D2
:101E300080F8C03018460EB0BDE8F08FFFFFFDFF00
:101E4000FFFFFBFFFFFFF7FFFFFFEFFFFFFFDFFFDE
:101E50000200000004000000080000001000000064
:101E6000200000000100000040F2000040F2545148
:101E7000C2F20000C2F2000100780A681044086053
:101E80007047000080B542F20000C4F20200016811
:101E900041F010010160032000F0C4F80F2000F0B1
:101EA00005F800F061F8002080BD0000B0B586B0F4
:101EB00041F21C01C4F202010A68044642F0020227
:101EC0000A60096801A801F00201019101996946BF
:101ED00000F0ECFA049D002D18BF012500F008FB6E
:101EE0004DF68361A840C4F21B31A0FB01014FF005
:101EF000FF3000EB914140F2F43040F20042C2F278
:101F00000000C4F2000240F2E7330025C0E90021DE
:101F1000C0E902530561856100F028FD054618B14E
:101F2000284606B0B0BD00BF40F2F430C2F2000057
:101F300000F0C8FD05460028F2D11D2000F032F85F
:101F40000F2C0DD81D2021460022002500F03EF860
:101F500040F20400C2F200000460284606B0B0BDA2
:101F60000125284606B0B0BD82B041F21800C4F287
:101F700002000168002241F001010160016801F0E6
:101F8000010101910199416841F08051416040682F
:101F90000F2100F08050009000986FF0010002B017
:101FA00000F014B8002848BF7047C1B200F01F000D
:101FB000012202FA00F04EF20012CEF2000242EAD2
:101FC000D10121F0030108607047000010B54EF602
:101FD0000C5CCEF2000CDCF80030C3F3022E8EF065
:101FE0000704042C28BF0424BEF103034FF0FF3E76
:101FF0000EFA04F438BF0023A14399400EFA03F30C
:102000009A43114300F00F0200F160430901043AC2
:1020100003F564436244002848BF02F10C031970C1
:1020200010BD00004EF60C51CEF200010A684FF6CA
:10203000FF031A4060F30A2242F0806040F0FD7016
:10204000086070472DE9F04F81B040B1044690F828
:102050003200052803D094F83200022804D1012070
:1020600001B0BDE8F08F00BF41F21800C4F20200D9
:10207000016843F6110841F0010101600068CEF2E9
:10208000000800F001000090009894F83200002849
:1020900004BF002084F83100204600F04BF8D4F84B
:1020A00004C04CF02001602918D1216804F1180EF9
:1020B000D4E903239EE8E044D4F82C90086800EAB1
:1020C00008001043184328433043384340EA0A00CD
:1020D00040EACE4040EA09621EE000BF2168D4E930
:1020E00002ABD4E90437D4E90665D4E908E9086805
:1020F00000EA080040EA0A0040EA0B0018433843AF
:1021000030432843D4E90A2840EA0E0040EA090097
:1021100040EAC24040EA086242EA0C00086094F8D3
:102120003200002804BF012084F83200002001B0F2
:10213000BDE8F08F80B586B000683C22C4F2010291
:10214000002190420591049102D006B080BD00BFED
:1021500041F21400C4F20200026842F4003202604C
:10216000006800F4003000900098E0200190032007
:10217000CDE9020101A94FF09040FFF7FDF906B04B
:1021800080BD000090B190F8321005290ED090F873
:10219000321001290AD101680A6842F001020A607E
:1021A000042180F832100020704700BF01207047E2
:1021B0002DE9F04182B00446807841F23006C00734
:1021C000C4F2020655D056F8140C10F080580BD10A
:1021D00056F8140C40F0805046F8140C56F8140CC5
:1021E00000F080500190019847F20007C4F2000708
:1021F0003868C00512D4386840F480703860FFF742
:102200009FFA05463868C00508D4FFF799FA401BC5
:102210006428F7D9032002B0BDE8F08156F8100C0D
:1022200010F4407014D0616801F4407188420FD0FE
:1022300056F8100C40F24042C4F24222012320F42E
:10224000407113600023C007136046F8101C4BD187
:1022500056F8100C616820F440700843B8F1000F84
:1022600046F8100C05D156F8140C20F0805046F8B2
:10227000140C2068C1070BD1810611D4010617D4B4
:10228000C1041FD4400425D4002002B0BDE8F08171
:102290003168A26821F00301114331608106EDD558
:1022A0003168E26821F01001114331600106E7D581
:1022B00056F8041C226921F4F871114346F8041CF5
:1022C000C104DFD53168626921F480711143316046
:1022D0004004D9D53068A16920F4805008433060AB
:1022E000002002B0BDE8F081FFF72AFA054641F26E
:1022F000883700BF56F8100C8007A9D4FFF720FAE2
:10230000401BB8424FF00300F4D9EAE72DE9F0434F
:1023100081B0002877D042F20008C4F202080446D7
:10232000D8F800000D4600F0070088420CD2D8F81B
:10233000000020F007002843C8F80000D8F800008B
:1023400000F00700A8425ED1206841F2040981072D
:10235000C4F2020907D5D9F80010A26821F0F001F3
:102360001143C9F80010C00744D1D8F8000000F0AC
:102370000700A8420CD9D8F8000020F00700284335
:10238000C8F80000D8F8000000F00700A8423AD1D1
:102390002068410707D5D9F80010E26821F4E06110
:1023A0001143C9F80010000708D5D9F800002169C9
:1023B00020F4605040EAC100C9F80000D9F80020BC
:1023C00002F00C00082841F20020C0F27A0051D13E
:1023D00044F22833C2F38341C0F60003595CD9F8B4
:1023E0002830D2033CD440F60010C0F23D004843F0
:1023F00040E000BF606802280AD001282AD159F8BD
:10240000041C890308D4012001B0BDE8F08300BF9B
:1024100059F8041C8901F6D5D9F8001021F0030100
:102420000843C9F80000FFF78BF9064641F28837E8
:10243000D9F80000616800F00C00B0EB810F94D077
:10244000FFF77EF9801BB842F2D9032001B0BDE846
:10245000F08300BF59F8041C8907D4D5DCE700BF1E
:1024600003F00F0244F23833C0F600039A5CB0FB6D
:10247000F2F04843D9F8001044F21032C1F30311CE
:10248000C0F60002515C40F20C0220FA01F140F269
:102490000400C2F200000068C2F200021160FFF7FF
:1024A00005FD002001B0BDE8F08300000F220260AE
:1024B00041F20402C4F20202136803F00303436012
:1024C000136803F0F0038360136803F4E063C360F0
:1024D00012684FF4E06303EAD202026142F20000A4
:1024E000C4F20200006800F00700086070470000B6
:1024F00040F20C0041F20401C2F20000C4F20201F9
:102500000068096844F22032C1F30221C0F60002DB
:10251000515CC8407047000041F2040CC4F2020C48
:10252000DCF8003003F00C00082841F20020C0F273
:102530007A0018BF704744F22831C3F38342C0F6D3
:1025400000018A5CDCF82810DB0305D440F600109B
:10255000C0F23D005043704744F2383301F00F01A0
:10256000C0F60003595CB0FBF1F050437047000027
:102570002DE9F04182B0002850D00446007841F2A5
:102580000006C007C4F202060AD0706800F00C0012
:10259000042840F085803068800301D56068E8B386
:1025A000207880071AD5706810F00C0F09D0706879
:1025B00000F00C00082840F0A5807068C00300F10E
:1025C000A1803068800702D52069012826D13068B3
:1025D000616920F0F80040EAC1003060207800070F
:1025E00020D42078400735D4E56995B1706800F0B3
:1025F0000C00082840F0C280012D0FD07068216ABD
:1026000000F480328A4209D1616A00F47010884275
:1026100004D1002002B0BDE8F08100BF012002B06B
:10262000BDE8F081A069002800F094800020C4F289
:1026300042200121C0F88014FFF782F8054600BF50
:10264000706A8007CDD4FFF77BF8401B0228F7D9CA
:102650001CE100BFF06910F0805808D1F06940F02B
:102660008050F061F06900F080500190019847F2CD
:102670000007C4F200073868C00559D4386840F430
:1026800080703860FFF75CF8054600BF3868C00509
:102690004ED4FFF755F8401B6428F7D9F6E000BF89
:1026A000706800F00C00082803D17068C0033FF583
:1026B00072AF6068B0F5A02F00F09480B0F5803F55
:1026C00000F09480002840F09580306820F480303D
:1026D0003060306820F480203060F06AA16820F01B
:1026E0000F000843F062FFF72BF8054630688003BF
:1026F0007FF556AFFFF724F8401B64284FF0030026
:10270000F4D987E72069002840F20000C4F2422093
:1027100056D001210160FFF713F8054630688007A5
:102720003FF555AFFFF70CF8401B0228F6D9ADE096
:10273000E068002800F07A80052800F091800128E8
:1027400000F09280306A20F001003062306A20F0A0
:1027500004008CE00020C4F242200021C0F8801464
:10276000FEF7EEFF054600BF706A80077FF539AFC0
:10277000FEF7E6FF401B0228F6D987E00027C4F2E7
:10278000422700203866FEF7DBFF022D05460BD1FD
:102790003068800140F18880FEF7D2FF401B02289C
:1027A0004FF00300F4D935E7306880017FF531AF91
:1027B000FEF7C6FF401B02284FF00300F4D929E7BB
:1027C00000210160FEF7BCFF054600BF30688007AE
:1027D0007FF504AFFEF7B4FF401B02284FF0030063
:1027E000F4D917E7306840F480203060306840F456
:1027F000803006E0306820F480303060306820F4AB
:1028000080203060F06AA16820F00F000843F06279
:10281000FEF796FF054600BF306880033FF5C0AE67
:10282000FEF78EFF401B6428F6D92FE0306A20F0B7
:1028300001003062306A20F004003062FEF780FF51
:10284000054641F2883700BF306A800722D5FEF77F
:1028500077FF401BB8424FF00300F5D9DAE600BF1E
:10286000306A40F004003062306A40F001003062AB
:10287000FEF766FF054641F2883700BF306A8007E1
:1028800008D4FEF75DFF401BB842F7D9032002B021
:10289000BDE8F081B8F1000F7FF4A6AEF06920F03A
:1028A0008050F061A0E600BF7068D4E9082120F4F0
:1028B000741008431043706001203866FEF740FF33
:1028C000044600BF306880013FF5A3AEFEF738FF35
:1028D000001B02284FF00300F4D99BE6704700006C
:1028E000704700007047000010B590F83C20012AA6
:1028F0004FF0020237D080F83D20026842F6004CCB
:102900005368D2F808E0C4F2010C624503D14C6868
:1029100023F4700323430C6823F07003234342F62F
:10292000FF34C4F20104A242536009DCB2F1804FCB
:102930000ED040F20043C4F200039A4208D00CE0EB
:1029400044F20003C4F201039A4201D0624504D16B
:1029500089682EF08003194391600121002280F8DC
:102960003D1080F83C20104610BD0000002804BF38
:102970000120704710B5044690F83D0028B90020AA
:1029800084F83C00204600F07DF8022084F83D00E9
:1029900020680168B0F1804F0BD042F60042C4F2CB
:1029A0000102904205D040F20042C4F2000290427F
:1029B00003D1A26821F07001114343F6FF72C4F203
:1029C0000102904210DCB0F1804F1FD040F2004273
:1029D000C4F20002904219D042F60042C4F2010251
:1029E000904213D016E000BF44F20002C4F201028C
:1029F00090420BD044F60002C4F20102904205D08E
:102A000044F20042C4F20102904203D1226921F44F
:102A100040711143A36921F080011943D4F804C027
:102A2000E2680160A0F18041A1F596314FEAB12141
:102A30000729C262C0F828C007D8012202FA01F1B2
:102A400011F0E10F1CBF61690163012141610020A8
:102A500084F8481084F83E1084F83F1084F8401041
:102A600084F8411084F8421084F8431084F844102C
:102A700084F8451084F8461084F8471084F83D1017
:102A800010BD000080B582B00068B0F1804F1CBF5F
:102A900002B080BD41F21C00C4F2020001680022B5
:102AA00041F0010101600068052100F00100019082
:102AB00001981C20FFF78AFA1C2002B0BDE8804074
:102AC000FFF770BA90F83D1001291CBF0120704734
:102AD000022180F83D10016842F6FF32C868C4F256
:102AE0000102914240F00100C86009DCB1F1804F61
:102AF00012D040F20040C4F2000081420CD018E035
:102B000044F20000C4F20100814205D042F60040C8
:102B1000C4F2010081420CD188680722C0F2010290
:102B20000240062A4FF0000008D0B2F5803F08BFEF
:102B30007047086840F001000860002070470000FE
:102B400080B590F83C20012A4FF0020200F0C280CC
:102B500080F83D20D0F800C08822DCF80830CFF69D
:102B6000FE721A40CCF808200B684F2B28DC1F2B74
:102B700044DD202B45D0302B43D0402B40F0AC809F
:102B8000D1F804E0C968DCF82030DCF8202022F01D
:102B90000102CCF82020DCF8182022F0F00242EAF2
:102BA000011123F00A0242EA0E02CCF81810CCF808
:102BB0002020DCF8081041F0470121F0300180E0CE
:102BC0006F2B27DDB3F5005F48D0B3F5805F7AD077
:102BD000702B40F08180D1E901E3C968DCF808205E
:102BE00043EA0E0322F47F4243EA01211143CCF869
:102BF0000810DCF8081041F0770162E00BB1102BEF
:102C00006AD1DCF8081021F07001194341F0070186
:102C100057E000BF502B35D0602B5DD1D1F804E0D8
:102C2000C968DCF8203023F01003CCF82030DCF841
:102C30001830DCF8202023F4704322F0A00243EA8D
:102C4000013142EA0E12CCF81810CCF82020DCF842
:102C5000081041F0670121F0100132E0D1E901E3F1
:102C6000C968DCF8082043EA0E0322F47F4243EAF5
:102C700001211143CCF80810DCF8081041F4804120
:102C80001FE000BFD1F804E0C968DCF82030DCF8B0
:102C9000202022F00102CCF82020DCF8182022F0BD
:102CA000F00242EA011123F00A0242EA0E02CCF8D5
:102CB0001810CCF82020DCF8081041F0570121F062
:102CC0002001CCF808100022012180F83D100021DD
:102CD00080F83C10104680BD0122F5E770470000E7
:102CE00010B5016804460869800744BFC8685FEAF8
:102CF00080703FD40869400744BFC8685FEA4070ED
:102D000044D40869000744BFC8685FEA00704BD428
:102D10000869C00644BFC8685FEAC06050D408694B
:102D2000C0071CBFC8685FEAC07057D108690006B9
:102D300044BFC8685FEA006058D40869C00544BF52
:102D4000C8685FEA006059D40869400644BFC86893
:102D50005FEA40605AD40869800646BFC8685FEAE7
:102D6000806010BD6FF0200220460A61BDE810406F
:102D7000FFF7B8BD6FF00200086101202077886975
:102D800080074BD02046FFF7A9FF4DE06FF004000D
:102D9000086102202077886910F4407F48D02046DF
:102DA000FFF79CFF4AE000BF6FF0080008610420B5
:102DB0002077C869800745D02046FFF78FFF47E09E
:102DC0006FF01000086108202077C86910F4407F78
:102DD00042D02046FFF782FF44E000BF6FF00100C1
:102DE0000861204600F046F821689FE76FF08000F8
:102DF00008612046FFF774FD21689EE76FF480703C
:102E000008612046FFF76AFD21689DE76FF04000EA
:102E10000861204600F03EF821689CE7204600F05B
:102E200025F8204600F024F821680020207761E78B
:102E3000204600F01BF8204600F01AF82168002018
:102E400020775EE7204600F011F8204600F010F8E9
:102E50002168002020775BE7204600F007F8204635
:102E600000F006F821680020207758E7704700003E
:102E70007047000010B50446006840F20041C4F2FB
:102E80000001884208BFFEF7EFFF2046BDE8104072
:102E900000F0CEBC7047000010B5A0B10446C06F72
:102EA00028B9002084F87800204600F027F8242074
:102EB000E0672068016821F001010160204600F010
:102EC000E1FD012802D1012010BD00BF606A10B1F0
:102ED000204600F0AFFC2168486820F4904048602C
:102EE000886820F02A008860086840F001022046C7
:102EF0000A60BDE8104000F011BD000080B586B04A
:102F0000006844F20041C4F20001884202D006B0D9
:102F100080BD00BF41F21400C4F20200816841F498
:102F200000318160816801F40031019101990168EB
:102F300041F480210160006801A900F48020019023
:102F40000198182001900220029000200390032095
:102F500004900720059040F20040C4F60000FEF700
:102F60000BFB06B080BD00002DE9F04100687F2A10
:102F700000EBC114A04658F8E4EF4FF0000158F8F8
:102F80002CCC00F32F80013A3F2A00F23C80DFE88E
:102F900002F021333A213A3A3A333A3A3A3A3A3A53
:102FA0003A213A3A3A3A3A3A3A3A3A3A3A3A3A3A9A
:102FB0003A333A3A3A3A3A3A3A3A3A3A3A3A3A3A78
:102FC0003A3A3A3A3A3A3A3A3A3A3A3A3A3A3A3A61
:102FD0003A2100BFD3E90112C4F8BC10C4F8C020E4
:102FE000002110E0802A07D0B2F5007F04D0B2F5AE
:102FF000807FEFD007E000BFD3E90112C4F8C4100E
:103000001021C4F8C820D3E90506D3E903473043AB
:103010001D683843FE2220438A4028432EEA0202DC
:103020008840082F42EA000205D11CF4007008BF56
:103030001CF0007004D0C8F80020BDE8F08100BF8B
:10304000D86988400243C8F80020BDE8F08100003C
:10305000FEE7000010B58AB040F26810C2F200002E
:10306000032100244FF0A04C4FF480320123C161B2
:1030700004210994CDE90744CDE90544CDE9034491
:10308000CDE90144437680F82040C0E90A3480F855
:103090003030C0E900C2C0E90244C0E9043104761E
:1030A0004363FDF7EBFB002818BFFDF7FDF840F286
:1030B0006810C2F2000007A90794FDF77BF9002809
:1030C00018BFFDF7F1F804200190012002900020C4
:1030D00004900721CDE9050040F268100391C2F287
:1030E000000001A9FDF7DEF9002818BFFDF7DCF8A4
:1030F0000B2001900220029040F26810C2F2000002
:1031000001A9FDF7CFF9002818BFFDF7CDF80D2074
:1031100001900320029040F26810C2F2000001A961
:10312000FDF7C0F9002818BFFDF7BEF80AB010BDC2
:10313000B0B586B040F2B81040F20011C2F2000003
:10314000C5F2000103234FF4803200240125C3613E
:10315000042380E816004FF4807180F82040C0E915
:103160000A5480F83050C0E9034543610183456348
:10317000FDF784FB002818BFFDF796F80D20CDE978
:1031800000050720029040F2B810C2F20000694624
:103190000394CDE90444FDF785F9002818BFFDF735
:1031A00083F80C2000900220019040F2B810C2F287
:1031B00000006946FDF776F9002818BFFDF774F89E
:1031C000012000900320019040F2B810C2F20000EC
:1031D0006946FDF767F9002818BFFDF765F806B0E6
:1031E000B0BD000080B540F2082046F20041C2F2B6
:1031F0000000C4F200010322002380E80E0000F169
:103200000C014FF4C02C4FF4401E81E808504FF4DD
:10321000807183618183FDF7D9FF002808BF80BDDD
:10322000BDE88040FDF740B880B582B041F214009F
:10323000C4F202000168002241F00101016000684F
:10324000052100F00100019001980B20FEF7BEFE61
:103250000B20FEF7A7FE0C2005210022FEF7B6FE8C
:103260000C2002B0BDE88040FEF79CBEF0B587B0F0
:10327000002641F214000696C4F20200016840F2F2
:10328000004441F4800101600168C4F6000401F4C7
:103290008001019101990168002241F4003101602F
:1032A000016801F4003101910199016841F4802124
:1032B000016000684FF4587100F48020019001987B
:1032C0002046FEF737FA602002AD02900127204623
:1032D0002946CDE903760596FEF74EF98020CDE923
:1032E0000206204629460496FEF746F94FF4807000
:1032F000CDE9020703272046294604960597FEF7E5
:103300003BF94FF400700290112003A9C1C120467F
:103310002946FEF731F907B0F0BD00002DE9F04174
:10332000B2B047F20045002414A85421C4F20105AC
:10333000CDE92B44CDE92944FCF749FF08A8242115
:103340001394CDE91144FCF742FF40F29820C2F2F9
:103350000000CDE90644CDE90444CDE90244CDE9BD
:103360000044C0E900548460FEF764FA002818BFE6
:10337000FCF79AFF40F29820C2F200000C21FEF701
:10338000E5F9002818BFFCF78FFF40F29820C2F241
:1033900000000A21FEF7D8FA002818BFFCF784FFC6
:1033A0004FF43440299008202C9040F298200024BB
:1033B000C2F2000029AA0521CDE92A44FEF7FEFA4F
:1033C000002818BFFCF770FF0120CDE918044FF06A
:1033D0000060CDE91D044FF00050209040F298208D
:1033E000C2F2000014AA0521CDE91644CDE9144427
:1033F000CDE91A441C941F94FEF710FC002818BF56
:10340000FCF752FF40F29820C2F2000029AA0021E6
:103410000024FEF7D3FA002818BFFCF745FF4FF44D
:103420008070CDE9240440F29820C2F2000014AA72
:103430000021CDE91444CDE921442394CDE926446B
:103440002894FEF7EBFB002818BFFCF72DFF0020A7
:10345000259040F29820C2F2000014AA0321FEF742
:10346000DDFB002818BFFCF71FFF4FF4B44011909C
:1034700040F29820C2F2000011AB0021012200248A
:10348000FEF7D4FA002818BFFCF70EFF40F2982090
:10349000C2F2000011AB00210222CDE91244FEF776
:1034A000C5FA002818BFFCF7FFFE40F29820C2F2D0
:1034B000000011AB03210222FEF7B8FA002818BF62
:1034C000FCF7F2FE00204FF4FA710890CDE90910E4
:1034D000CDE90B00CDE90D10CDE90F0040F29820A9
:1034E000C2F2000008AA0021FEF75AF9002818BF0E
:1034F000FCF7DAFE40F29820C2F2000008AA03218D
:10350000FEF74EF9002818BFFCF7CEFE0821002078
:10351000019110210090CDE90210CDE90400CDE920
:10352000060040F29820C2F200006B460021012202
:10353000FEF740FB002818BFFCF7B6FE40F29820CB
:10354000C2F200006B4603214022FEF733FB002845
:1035500018BFFCF7A9FE0020CDE9010040F2982039
:10356000C2F200006B4600210222FEF723FB002876
:1035700018BFFCF799FE40F29820C2F200006B469B
:1035800003218022FEF716FB002818BFFCF78CFEF3
:1035900040F29820C2F2000029AA0321FEF70EFA99
:1035A000002818BFFCF780FE40F29824C2F2000405
:1035B00011AB204603210122FEF738FA002818BF7C
:1035C000FCF772FE2068A84202D032B0BDE8F0815C
:1035D00041F21400C4F2020001682DAC41F48021D4
:1035E000016001684FF0020801F480212D912D99AE
:1035F0000168002641F4003101600068032700F4EF
:1036000000302D902D984FF440402D9040F2004016
:103610000D25C4F600002146CDF8B8802F963097CE
:103620003195FDF7A9FF4FF44070CDE92D084FF01B
:1036300090402146CDE92F673195FDF79DFF32B0CF
:10364000BDE8F08180B540F274303C21C2F2000048
:10365000C4F2010100224FF00C0C202380E80E1070
:1036600002614262FEF7EEFC002808BF80BDBDE8A3
:103670008040FCF719BE000080B588B040F2A83049
:103680000021C2F200004FF0630C0791CDE9051153
:1036900002914FF080424723C0E9021C0161802162
:1036A000C0E900238161FFF761F9002818BFFCF72A
:1036B000FBFD4FF48050049040F2A830C2F20000AD
:1036C00004A9FFF73DFA002818BFFCF7EDFD002024
:1036D0000190039040F2A830C2F2000001A9FFF768
:1036E00003F9002818BFFCF7DFFD08B080BD00001B
:1036F00080B540F2404044F20041C2F20000C4F202
:10370000000100234FF00C0C4FF4164280E80E002D
:10371000C0E90333C0E905C3C0E907334362FFF7DB
:10372000BBFB002808BF80BDBDE88040FCF7BCBDE6
:10373000FEE70000FEE700000000000000000000BF
:10374000EFF30980BFF36F8F154B1A681EF0100F4F
:1037500008BF20ED108A20E9F04F10602DE9090024
:103760004FF0500080F31188BFF34F8FBFF36F8F7E
:1037700000F004FD4FF0000080F31188BDE809005F
:1037800019680868B0E8F04F1EF0100F08BFB0ECE1
:10379000108A80F30988BFF36F8F704700BF00BFA6
:1037A0008400002000000000000000000000000075
:1037B000074B19680868B0E8F04F80F30988BFF339
:1037C0006F8F4FF0000080F31188704700BF00BF7B
:1037D0008400002080B54FF0500080F31188BFF3C3
:1037E0006F8FBFF34F8F00F001FD30B14EF60450E4
:1037F000CEF200004FF080510160002080F311886C
:1038000080BD00004EF68850CEF20000016841F401
:10381000700101607047000040F2A830C2F2000061
:10382000FFF75EBA40F2F430C2F20000FFF758BA78
:103830007047000080B5416ACA070DD18A0716D4C7
:103840004A071FD40A0728D4CA0631D48A063AD4B4
:103850004A0658D542E000BF0268D0F828C0536835
:1038600023F4003343EA0C0353608A07E8D5026867
:10387000D0F82CC0536823F4803343EA0C03536020
:103880004A07DFD50268D0F830C0536823F480239C
:1038900043EA0C0353600A07D6D50268D0F834C057
:1038A000536823F4004343EA0C035360CA06CDD5A2
:1038B0000268D0F838C0936823F4805343EA0C03BD
:1038C00093608A06C4D50268D0F83CC0936823F49C
:1038D000005343EA0C0393604A0614D50268D0F8FB
:1038E00040C05368BCF5801F23F4801343EA0C03E7
:1038F000536008D1D2F804C0D0F844E02CF4C003DF
:1039000043EA0E035360090658BF80BD0168806C0E
:103910004A6822F400221043486080BDB0B582B0EE
:1039200004460020C4F88400FDF70AFF216805461C
:103930000A68120735D56FF07E4C20464FF400110F
:1039400000222B46CDF800C000F050F940B300BF74
:10395000206850E8000F216820F0800041E8000254
:10396000DAB1206850E8000F216820F0800041E8BB
:10397000000292B1206850E8000F216820F080001A
:1039800041E800024AB1206850E8000F216820F0A9
:10399000800041E80002002ADAD12020E0675FE0E1
:1039A00021680868400761D56FF07E4C20464FF4CF
:1039B000800100222B46CDF800C000F017F9002846
:1039C00054D000BF206850E8000F216820F49070A8
:1039D00041E80002E2B1206850E8000F216820F4BD
:1039E000907041E800029AB1206850E8000F216809
:1039F00020F4907041E8000252B1206850E8000FB6
:103A0000216820F4907041E80002002ADAD100BF5A
:103A1000206850E8020F216820F0010041E802020E
:103A2000DAB1206850E8020F216820F0010041E877
:103A3000020292B1206850E8020F216820F00100D4
:103A400041E802024AB1206850E8020F216820F0E4
:103A5000010041E80202002ADAD12020C4F88000E7
:103A60000320002184F8781002B0B0BD2020E06768
:103A7000C4F88000002020666066002184F8781079
:103A800002B0B0BD10B5044601688068D4E903C334
:103A9000626918430243D4F81CE00B6846F6F31041
:103AA000CEF6FF701840104340EA0E0008604868E8
:103AB00020F4405040EA0C004860A069226A8B68FC
:103AC000104323F430621043886044F20040C4F293
:103AD000000081424FF0000215D044F60000C4F20D
:103AE000000081420FD043F60000C4F20100814281
:103AF00020D141F23000C4F20200006837A100F08A
:103B0000030051F8202041F20020BEF5004FC0F222
:103B10007A0017D1082A4FF0010100F25A80DFE83D
:103B200002F005582958215858582700FEF7E0FCA4
:103B300000BB1AE0102241F20020BEF5004FC0F297
:103B40007A00E7D0082A4FF0010142D8DFE802F0FE
:103B500006413041284141412E0000BFFEF7C8FC1C
:103B600030BB20E0FEF7D8FC20B9002131E000BFD7
:103B70004FF4004061684A0802EB4000B0FBF1F0EE
:103B80004FF6EF72A0F11001914207D84FF6F07195
:103B90000140C0F34200084415E000BF012118E0D5
:103BA000FEF7BAFC20B9002113E000BF4FF400403B
:103BB00061684FF6EF7200EB5100B0FBF1F0A0F13D
:103BC0001001914204D82168C860002101E000BFC3
:103BD000012100220846A266E26610BD0000000036
:103BE0000400000008000000020000002DE9F04180
:103BF000044600681546C2690E461140891BB1FA99
:103C000081F14909A94227D1DDF81880B8F1000FE8
:103C100026D018F1010129D1C1693140891BB1FABF
:103C200081F14909A94217D1C1693140891BB1FA13
:103C300081F14909A9420FD1C1693140891BB1FA0B
:103C400081F14909A94207D1C1693140891BB1FA03
:103C500081F14909A942DFD00020BDE8F08100BF11
:103C6000FDF76EFD0320BDE8F08100BF1F4607E0B1
:103C7000C0693040801BB0FA80F04009A842EBD107
:103C8000FDF75EFDC01B404500F28E802068016894
:103C90004907EDD5C169090700F18A80C1690905A5
:103CA000E6D54FF400610162206850E8000F2168FA
:103CB00020F4907041E80002BAB3206850E8000F89
:103CC000216820F4907041E8000272B3206850E847
:103CD000000F216820F4907041E800022AB32068A8
:103CE00050E8000F216820F4907041E80002002A9B
:103CF000DAD11AE0206850E8020F216820F00100B4
:103D000041E80202DAB1206850E8020F216820F091
:103D1000010041E8020292B1206850E8020F2168D8
:103D200020F0010041E802024AB1206850E8020F89
:103D3000216820F0010041E80202002ADAD1206E59
:103D4000012824D1206850E8000F216820F01000DD
:103D500041E80002DAB1206850E8000F216820F045
:103D6000100041E8000292B1206850E8000F21687D
:103D700020F0100041E800024AB1206850E8000F2E
:103D8000216820F0100041E80002002ADAD120204A
:103D90000021C4F880002166A166C4F884000320D5
:103DA00084F87810BDE8F0810320BDE8F08100BF01
:103DB00008210162206850E8000F216820F490700B
:103DC00041E80002BAB3206850E8000F216820F4EF
:103DD000907041E8000272B3206850E8000F21683B
:103DE00020F4907041E800022AB3206850E8000FE8
:103DF000216820F4907041E80002002ADAD11AE02C
:103E0000206850E8020F216820F0010041E802021A
:103E1000DAB1206850E8020F216820F0010041E883
:103E2000020292B1206850E8020F216820F00100E0
:103E300041E802024AB1206850E8020F216820F0F0
:103E4000010041E80202002ADAD1206E012824D1C3
:103E5000206850E8000F216820F0100041E80002BF
:103E6000DAB1206850E8000F216820F0100041E826
:103E7000000292B1206850E8000F216820F0100085
:103E800041E800024AB1206850E8000F216820F0A4
:103E9000100041E80002002ADAD12020C4F8800096
:103EA000002008212066A066C4F8841084F87800F9
:103EB0000120BDE8F0810000FEE7000096B0FDF7AC
:103EC000E1FF00240120CDE91144CDE90F440C901D
:103ED00010904FF4E0104FF48031022515900CA89B
:103EE0000594CDE90344CDE90144CDE90D14CDE9B4
:103EF0001351FEF73DFB28B1EFF3108072B600BFFF
:103F0000FEE700BF0F20CDE907054FF48060CDE943
:103F10000A0407A802210994FEF7F8F920B1EFF38B
:103F2000108072B6FEE700BF4FF4804000904FF45F
:103F3000805006906846FEF73BF928B1EFF31080F9
:103F400072B600BFFEE700BFFFF790F9FFF76CF90C
:103F5000FFF748F9FFF77EF8FFF7EAF8FFF772FB83
:103F6000FFF78AFBFFF7DAF9FFF7C2FB40F2982868
:103F7000C2F2000840464FF48031FDF707FE40468C
:103F80004FF49011FDF702FE4046C321FDF730FECD
:103F900040F26815C2F20005284600210024FCF713
:103FA00089F90A20FDF7D4FA40F21006C2F20006A1
:103FB00006F1080128460322FCF786FE40F2B815F8
:103FC000C2F2000528460021FCF774F90A20FDF72B
:103FD000BFFA06F10E0128460322FCF775FE40F2F7
:103FE0007430C2F20000FEF7CDF840F2080940F24A
:103FF000FC0A9FED4C9A9FED4CAA9FED4CCA9FED99
:104000004CDA9FED4CEA9FED4CFAB6EE008AC2F214
:104010000009C2F2000AB2EE0EBA0020C6E900445E
:10402000D8F800100AF1240C91ED250AB8EE400AE8
:1040300020EE080ABCEEC00A10EE102A131A104433
:1040400089ED000AC1F89C30C1F8A400A018C1F89D
:104050001C02101BC1F824023189706900EE101A8D
:10406000B8EE400A20EE090A20EE0A0AF18920EE95
:104070000B0A86ED050A00EE101AB8EE400A20EE93
:10408000090A20EE0A0A30EE0C0A80EE0D0A318A87
:10409000728901EE101AB189B8EE411A02EE101AB7
:1040A000B8EE422A21EE091A22EE092A21EE0A1A56
:1040B00022EE0A2A31EE0C1A32EE0C2A81EE0E1A8A
:1040C00082EE0F2A316A86ED080A00EE102AB8EE59
:1040D000400A20EE090A20EE0A0A758A20EE0B0A31
:1040E000B36986ED060A00EE105AB8EE400A20EEDB
:1040F000090A726AF469B76A20EE0A0A20EE0B0A0E
:104100008CE80B000A2086ED091A86ED072A86ED59
:104110000A0ACAE90C27CAF83840FDF719FAD6E9A5
:1041200000047DE700008039333353403333D3BF7D
:104130009A99993D9A9999BDB6F37DBDD0E901321E
:1041400001699A60D1F804C082688445536008BF51
:104150004A600022026108680138086008687047F8
:10416000D0F800C0436808619A684B608A609A681A
:10417000996051600CF101010160704740F28400C8
:10418000C2F20000816900291EBF012181627047CF
:10419000002181624168B1FA81F1C9B2C1F11F0108
:1041A00040F2C84201EB8101C2F2000252F8213014
:1041B00063B102EB810252F8041F4968131D994252
:1041C00011600DD0C9680160704700BF4FF050000A
:1041D00080F31188BFF36F8FBFF34F8FFEE700BFEF
:1041E00049681160C9680160704700002DE9F04717
:1041F00040F28406C2F20006B06928B1F06A0024D9
:104200000130F0626EE000BF706A10F1010AC6F87A
:1042100024A020D3306B006850B14FF0500080F3E1
:104220001188BFF36F8FBFF34F8F00BFFEE700BF52
:10423000306B716B31637063B06B0130B063306BA6
:10424000006828B1306BC068C068406802E000BFF9
:104250004FF0FF303062306A40F2C8488245C2F207
:10426000000801D2002434E0306B0024006868B3F9
:104270004FF0010916E000BFF86A716809FA00F210
:10428000114300EB8000716008EB80002946FFF7C6
:1042900067FFF86A3168C96A326B8842106828BFC4
:1042A0004C4698B1306BC068C7683D4655F8040F5E
:1042B00082450DD32846FFF741FFB86A0028DBD0BE
:1042C00007F11800FFF73AFFD6E700BF4FF0FF30C5
:1042D00030623068C06A00EB800058F82000012886
:1042E00088BF0124B06A002818BF01242046BDE819
:1042F000F08702E008C8121F08C1002AFAD17047EF
:104300007047002001E001C1121F002AFBD1704755
:104310000000000000000000010203040607080975
:104320000000000001020304020304050607080957
:104330000A0B0C0D0E0F10100102030405060708EE
:10434000090A0B0C0D0E0F10684300080000002036
:1043500010000000F242000878430008100000201E
:10436000480900000243000801000000100000009E
:08437000F401000000127A00C4
:040000050800018965
:00000001FF
