:020000040800F2
:10000000205D0020310300087B5E0008694700087E
:10001000795E0008250C00087B6D000800000000D8
:100020000000000000000000000000007102000855
:100030003F21000800000000CD0200083D650008D7
:100040004B0300084B0300084B0300084B03000858
:100050004B0300084B0300084B0300084B03000848
:100060004B0300084B0300084B030008F91C000871
:10007000051D0008111D00081D1D00084B03000888
:10008000291D00084B0300084B0300084B03000820
:10009000510C00084B0300084B0300084B030008F9
:1000A0004B0300084B0300084B0300084B030008F8
:1000B000116600084B0300084B0300084B030008BF
:1000C0004B0300084B0300084B0300084B030008D8
:1000D0004B030008056C0008596C0008B16C00085F
:1000E0004B0300084B0300084B0300084B030008B8
:1000F0004B0300084B0300084B030008351D0008A4
:100100004B0300084B0300084B0300084B03000897
:10011000F1680008096900084B0300084B03000858
:100120004B0300084B030008411D00084B03000867
:100130004B0300084B0300084B0300084B03000867
:10014000250D00084B0300084B0300084B03000873
:100150004B0300084B0300084B0300084B03000847
:100160004B0300084B0300084B0300084B03000837
:100170004B0300084B0300084B030008000000007D
:100180004B0300084B03000800F002F800F060F891
:100190000AA090E8000C82448344AAF10107DA45E2
:1001A00001D100F055F8AFF2090EBAE80F0013F0D4
:1001B000010F18BFFB1A43F001031847300F01006D
:1001C000500F01000A444FF0000C10F8013B13F0EF
:1001D000070408BF10F8014B1D1108BF10F8015BA0
:1001E000641E05D010F8016B641E01F8016BF9D193
:1001F00013F0080F1EBF10F8014BAD1C0C1B09D1EA
:100200006D1E58BF01F801CBFAD505E014F8016B5B
:1002100001F8016B6D1EF9D59142D6D370470000ED
:100220000023002400250026103A28BF78C1FBD8FF
:10023000520728BF30C148BF0B6070471FB50EF092
:10024000EAFB9DE8030000F03FFA1FBD10B510BDAA
:1002500000F0A6FA1146FFF7F1FF09F0FBFF00F0EE
:10026000C4FA03B4FFF7F2FF03BC00F0F5FA000094
:100270002C4B19680868B0E8F04F80F30988BFF389
:100280006F8F4FF0000080F311887047000000006E
:1002900008480068006880F308884FF0000080F389
:1002A000148862B661B6BFF34F8FBFF36F8F00DF64
:1002B00000BF00BF08ED00E0DFF80C00016841F46A
:1002C00070010160704700BF88ED00E0EFF3098026
:1002D000BFF36F8F134B1A681EF0100F08BF20ED8D
:1002E000108A20E9F04F106009B44FF0500080F3FD
:1002F0001188BFF34F8FBFF36F8F0DF08BFA4FF064
:10030000000080F3118809BC19680868B0E8F04F54
:100310001EF0100F08BFB0EC108A80F30988BFF3FD
:100320006F8F704760000020EFF30580704700007A
:100330000948804709480047FEE7FEE7FEE7FEE779
:10034000FEE7FEE7FEE7FEE7FEE7FEE704480549B5
:10035000054A064B70470000F56500088901000852
:1003600020570020205D0020205900202059002027
:1003700070B5064600F08CF9056806F10B0020F018
:100380000704B4429CBF002070BD2B466A68BAB116
:100390001068A04210D304F1080188423CBF5068A5
:1003A000586007D35168101941601168091B01603A
:1003B00058601460101D70BD13465268002AE7D1C2
:1003C0002146284600F06CF90028DED170BD70B5DA
:1003D0000446051F00F05CF90068002C14BF446857
:1003E00070BD002C18BFAC423CBF20466468F8D3F7
:1003F00001680A18AA4218BF456003D12A68054659
:100400001144016028684119A1421CBF6C6070BD95
:100410006168696021680844286070BD53EA020C75
:1004200000F069802DE9F04B4FF00006002B1FBF54
:10043000B3FA83F503FA05F424FA05F65E4012BF19
:100440001643B2FA82F502FA05F4C5F120051EBF83
:1004500022FA05FC44EA0C04203556EA044C4FEA23
:10046000144418BF641C4FF000084FF0000990427C
:1004700071EB030C39D3002919BFB1FA81F701FAE6
:1004800007F6B0FA80F700FA07F6C7F120071EBF9B
:1004900020FA07FC46EA0C062037B6FBF4FCA7EB73
:1004A0000507103F07F01F0BCBF120060CFA0BFBE2
:1004B0002CFA06F644BFB3460026202FA4BF5E46A2
:1004C0004FF0000B5BEA060C08BF4FF0010B19EB75
:1004D0000B09ABFB027C48EB0608C01B06FB02CCF9
:1004E0000BFB03CC71EB0C01C1E70B460246414606
:1004F0004846BDE8F08B13B54FF000004FF0000107
:10050000AFF30080BDE81C407047032A40F2308002
:1005100010F0030C00F0158011F8013BBCF1020F44
:10052000624498BF11F801CB00F8013B38BF11F8C5
:10053000013BA2F1040298BF00F801CB38BF00F8DC
:10054000013B11F0030300F02580083AC0F0088059
:1005500051F8043B083A51F804CBA0E80810F5E73D
:10056000121D5CBF51F8043B40F8043BAFF3008020
:10057000D20724BF11F8013B11F801CB48BF11F895
:10058000012B24BF00F8013B00F801CB48BF00F865
:10059000012B704710B5203AC0F00B80B1E818501D
:1005A000203AA0E81850B1E81850A0E81850BFF45D
:1005B000F5AF5FEA027C24BFB1E81850A0E81850FC
:1005C00044BF18C918C0BDE810405FEA827C24BF50
:1005D00051F8043B40F8043B08BF7047D20728BFDE
:1005E00031F8023B48BF11F8012B28BF20F8023B2D
:1005F00048BF00F8012B70474FF000020429C0F0FB
:10060000128010F0030C00F01B80CCF1040CBCF144
:10061000020F18BF00F8012BA8BF20F8022BA1EB96
:100620000C0100F00DB85FEAC17C24BF00F8012B7B
:1006300000F8012B48BF00F8012B70474FF0000273
:1006400000B5134694469646203922BFA0E80C50C8
:10065000A0E80C50B1F12001BFF4F7AF090728BFA3
:10066000A0E80C5048BF0CC05DF804EB890028BF1F
:1006700040F8042B08BF704748BF20F8022B11F048
:10068000804F18BF00F8012B7047704770477047C4
:1006900000487047C8560020704770477047704741
:1006A00038B504460A4600206946AFF300800028AA
:1006B00008BF38BD02460099204600F04FF80120DF
:1006C00038BD012000F064B8F8B5AFF300800546EE
:1006D00000200C46102000BF0646A819A0420DD9E4
:1006E000324669460020AFF30080070008BF00F0E3
:1006F0004FF80098A04218BF0546C419FFF7C8FF7D
:1007000005600746F01D20F007004619284600F056
:100710000AF8B44208BFF8BDA21B31463868BDE8EC
:10072000F84000F01BB800210160C0E901107047DB
:100730001020704710B500F00DF8006810BD10B51E
:10074000044600F007F8046010BD00000048704740
:10075000C056002000487047C0560020034640683D
:100760008C46002818BF88423CBF03464068F8D337
:1007700018681844884207D00CF1030020F00700E5
:10078000001D411A521A0146081D0A60FFF71FBEDC
:1007900010B500F039F8BDE8104000F02FB87047F0
:1007A0007546FFF7D3FFAE4605006946534620F075
:1007B0000700854618B020B5FFF7C8FDBDE820400A
:1007C0004FF000064FF000074FF000084FF0000B0D
:1007D00021F00701AC46ACE8C009ACE8C009ACE8C0
:1007E000C009ACE8C0098D46704710B50446AFF3A8
:1007F00000802046BDE81040FFF733BD002801D03F
:1008000000F02AB87047000010B5012805D000217B
:1008100003A000F027F8012010BD09A1F8E70000AF
:1008200053494752544D454D3A204F7574206F66D9
:100830002068656170206D656D6F72790000000041
:100840003A2048656170206D656D6F727920636F25
:10085000727275707465640001491820ABBEFEE7C2
:100860002600020070B505460C460A2000E06D1C0B
:1008700000F011F835B128780028F8D102E0641CA6
:1008800000F009F814B120780028F8D1BDE87040D4
:100890000A20AFF3008008B569468DF800000320F8
:1008A000ABBE08BD464910B54A6822F440324A60E2
:1008B0004A6843681A434A6001684A6822F48072B1
:1008C0004A6001684A68036942EA03224A60016893
:1008D0004A6822F040724A6001684A6883681A4395
:1008E0004A6001688A6822F400628A6001688A6846
:1008F000C3681A438A60816A6FF07062D1420168EE
:100900008A6822F070628A6001688A680CD0836A03
:100910001A438A6001688A6822F040528A6001683E
:100920008A68C36A1A4301E022F040528A60016873
:100930008A6822F002028A6001688A68037E42EABD
:1009400043028A6090F82010002901684A680FD09D
:1009500042F400624A6001684A6822F460424A60D8
:1009600001684A68174C436A04EB43331A4301E0B9
:1009700022F400624A600168CA6A22F47002CA6204
:100980000168CA6A838B104C04EB03531A43CA6292
:1009900001688A6822F400728A6001688A6890F8A7
:1009A000303042EA43228A6001688A6822F4806219
:1009B0008A6001688A68406942EA8020886010BDC8
:1009C0000023014000E0FFFF0000F0FF704700003F
:1009D00030B50C4605000CD0022C0AD90548A11EE2
:1009E0000288284601F028FC291901F8020D000AA6
:1009F000487030BDD201002030B50C4605000AD049
:100A0000022C08D9601E81B2FF22284601F02AFC80
:100A1000291901F8010C30BD2DE9FE4F1546DDE91D
:100A20000C9A0E4607460C221C466946104604F0F6
:100A30009DFEBDF80080BDF802C0BDF80430BDF8D1
:100A40000620BDF80810BDF80A00A4F80080A9F837
:100A500000C0AAF800303A8031802880BDE8FE8FBF
:100A600038B5194808F054F807F0C6FC164807F0E6
:100A700087FC044607F0C0FC24BB01208DF8000071
:100A80000146114A684608F0D1F807F0B5FC0E4857
:100A900005F06EFB00208DF800000B4A012168462E
:100AA00008F0C4F807F0A8FC074805F037FB02205F
:100AB0008DF80000044A0121684608F0B7F80446A2
:100AC00007F09AFC204638BD385000201CB51F495D
:100AD0001F48CDE900011F4B1F4A20492048FFF75E
:100AE0009BFF204900230C461A46A01C09F026FC57
:100AF000B4F90400B6EE001A00EE100A1648F8EE3B
:100B0000C00AB0F9000000EE100AB8EEC00A04F006
:100B100019F8BDEEC00AB6EE001A10EE100AA08059
:100B2000B4F9060000EE100A0C48F8EEC00AB0F95D
:100B3000000000EE100AB8EEC00A04F003F8BDEEA3
:100B4000C00A10EE100AE0801CBD00000A00002060
:100B50000800002006000020040000200200002001
:100B60000000002044020020016FB1F5803F02DB4D
:100B7000A1F5803103E0002902DC01F58031016735
:100B80007047000010B5044604F0FEFB94F88600A0
:100B9000012804D1084840688078012803D0BDE8C6
:100BA000104004F077BC0549206F09688860BDE8F3
:100BB000104004F073BC00000C000020EC02002088
:100BC00010B5044604F0E0FB94F88600012804D137
:100BD000084840688078012803D0BDE8104004F040
:100BE00059BC0549206F09688860BDE8104004F0D1
:100BF0008BBC00000C000020EC020020074802F033
:100C000091FCFFF763FF04F0B5F9054805F0A0F982
:100C100009F0A2FA012009F059FEEFE79809002037
:100C20000C000020FEE7000000B58BB0684600F025
:100C3000CFF86946054801F005FE0221034801F09E
:100C400081FD024802F016F90BB000BD3409002006
:100C5000014801F0F2BE000034090020A0F58072C6
:100C6000413A27D00022A0F50073023B25D0A0F521
:100C70000073013B26D0A0F50073033B27D0B0F5ED
:100C8000017F29D0B0F5407F12D0A0F54072013A23
:100C90000ED0A0F54072023A0AD0A0F54072033A95
:100CA00006D0B0F5417F03D0A0F54072053A19D1C6
:100CB00003F0AEBE0C4804F0D3BC0C484068027090
:100CC0000A480DE00A4840680270094808E00948EF
:100CD00040680270074803E0074840680270064811
:100CE00004F004BB70470000504B00202804002093
:100CF0000C040020440400206004002000B58BB0E8
:100D0000684600F065F86946054801F09BFD022140
:100D1000034801F017FD024802F0ACF80BB000BD2B
:100D20005C090020014801F088BE00005C09002039
:100D300010B5A0F50072FF3A17D0A0F58072FF3A07
:100D400013D00021A0F50072013A14D0A0F5007272
:100D5000023A21D1184C60680170204604F006FA6E
:100D6000164890F82A00C0B11DE00A46BDE81040C0
:100D7000134901F08FBB134C60680170204604F0EA
:100D8000F5F9114890F82A00002805D12068B0F93B
:100D90000A20C1681144C16010BD2068B0F90A2062
:100DA000C1681144C160094C20780028F4D104F0D6
:100DB00025FC0120207010BD28530020C4520020C3
:100DC000A0500020F052002098520020C0000020C7
:100DD0000021016041608160C160016101224161C7
:100DE000C0E90612C0E908217047000010B5124A98
:100DF000016891420DD1114B00211C46A3F11C0248
:100E000001F0A7FD0D4821461C380068FFF726FFBA
:100E100010BD0B4A9142FBD1084B002124331C46E4
:100E2000A3F11C0201F095FD04482146083000683A
:100E3000FFF77EFF10BD000000640040504B002013
:100E40000068004038B50B46164C0168A14201D13C
:100E5000154904E0154CA14222D1134920310B6001
:100E600000238B60CB6008230B6113881B0A0B7671
:100E700013784B7653881B0A8B769378CB769388BE
:100E80001B0A0B7713794B77D3881B0A8B779279E0
:100E9000CA776B4601F1180201F066FC002800D009
:100EA000012038BD006400407C4B002000680040F9
:100EB00038B50B46144C0168A14201D1134904E036
:100EC000134CA1421ED1114920310B6000238B60CD
:100ED000CB6008230B6113780B7653784B769378AD
:100EE0008B76D378CB7613790B7753794B779379CD
:100EF0008B77D279CA776B4601F1180201F034FC86
:100F0000002800D0012038BD006400407C4B002048
:100F1000006800402DE9F05FFF4A2DED088B107846
:100F20009FEDFE1ADFEDFE0AFE4EDFF8FC934CF655
:100F300064779FEDFEABB0EE008A9FEDFE9BFF4C09
:100F4000DFF8FC834FF47A7A0025FE49D1F800C01F
:100F5000316820B1012872D0022871D0F7E25378AD
:100F60009FEDF90AF548022BB0F9322015D0EE4872
:100F7000092B00686DD0DFF8D4B3042B7DD0062B8D
:100F800007D0032B7AD0072B79D00A2BFCD0052B66
:100F9000FAD025826582A582D9E2B1F9060000EE79
:100FA000900AF8EEE01A00EE902AF8EEE00A61EE00
:100FB000A00AC0EE801AFDEEE10A10EE900A20822F
:100FC000B1F9040000EE900AF8EEE01A00EE902A63
:100FD000F8EEE00A61EEA00AC0EE801ABDEEE10A6A
:100FE00010EE100A6082B1F9000000EE100AB8EEAF
:100FF000C00AC0EE010A00EE102AB8EEC00A20EEC8
:10100000800ABDEEC00A10EE100AA082216D0020F9
:101010008847CF4885603068B0F9100010F5257F0B
:1010200003D0B0F5257F0CD091E2B4F93200411C19
:10103000618642F21071884290DB618687E250E25D
:1010400058E2B4F93200411E6186002886DC6586CC
:101050007DE2BCF9031000EE101AB8EEC00AB1EE42
:10106000400ABDEEC00A10EE101A2182BCF905102C
:1010700000EE101AB8EEC00A02E029E087E0E4E0D2
:10108000B1EE400ABDEEC00A10EE101A6182A582D0
:101090000068C08A381A0DF062F953EC1A2B0DF073
:1010A00089F90CF0B3FE00EE100A20EE080A10EEEB
:1010B000100A0DF03FFC53EC192B0DF07BF90CF0EE
:1010C000A5FEE0619D4800F0E1FC0120216DBAE041
:1010D000B1F906209E4E01EE102AB8EEC11A21EE9B
:1010E000201AC1EE001ABDEEE11A11EE102A22827A
:1010F000B1F9041001EE101AB8EEC11A61EE200A1F
:1011000080EE801ABDEEC10A10EE101A618271885D
:10111000A1820068C08A381A0DF021F953EC1A2B0D
:101120000DF048F90CF072FE00EE100A20EE080AED
:1011300010EE100A0DF0FEFB53EC192B0DF03AF9EE
:101140000CF064FEE0617D4800F0A0FC216D012000
:10115000884774480068B0F9100010F5257F03D067
:10116000B0F5257F0AD0F2E1B6F90200411C71808A
:1011700041F658318842F6DB7180E8E1B6F90200A9
:10118000411E71805845EEDCA6F802B0DFE1B1F9EE
:1011900006304E4600EE903AB8EEE01A00EE902A85
:1011A000F8EEE00A61EE200A80EE801AFDEEC10A38
:1011B00010EE903A2382B1F9041000EE901AB8EEC6
:1011C000E01A00EE902AF8EEE00A61EE200A80EEC6
:1011D000801ABDEEC10A10EE101A61820068C08A42
:1011E00000EE100AB8EE400ADFED5A0A5A4809F03C
:1011F0004BFDBDEEC00A10EE100AA08230680068F8
:10120000C08A381A0DF0ABF853EC1A2B0DF0D2F857
:101210000CF0FCFD00EE100A20EE080A10EE100A99
:101220000DF088FB53EC192B0DF0C4F80CF0EEFD1B
:10123000E061424800F02AFC30684068807800B9DC
:10124000A582216D0020884781E1414E47F230514F
:1012500041F65833B06990FBF1F201FB1202401CD9
:10126000DFED3E8AB0619A4202DC40F6E44031E0B4
:1012700090FBF1F201FB1201401CB0613848814241
:1012800026DBF06840F21451B0FBF1F201FB1200D2
:10129000400000EE100AB8EE400A20EE280A10EED8
:1012A000100A0DF047FB41EC100B06F035FB9FEDEB
:1012B0002D1B51EC100B53EC112B0DF07BF89FED17
:1012C0002B1B53EC112B0CF0D3FD0DF019F801E0A2
:1012D0004FF21C30F080D8F8040090F8291004294F
:1012E00002D190F82A00A8B1A4F814A0154800680B
:1012F00030F9031F00EE101AB8EEC00AB1EE400A32
:10130000BDEEC00A10EE101A2182B0F9020000EE04
:10131000100A2FE06EE000002900002000002544A4
:1013200000A00C460C0000206C0300200000000010
:101330000000F03E4AD8124DFB2109404001002038
:101340003802002004510020000025C4A8E4FFFF5B
:101350009401002000644F472C060020C3F548404C
:10136000E02202000000000000C072400000000007
:101370000058AB40B8EEC00AB1EE400ABDEEC00A5C
:1013800010EE100A6082D9F800000068C08A381A8E
:101390000CF0E5FF53EC1A2B0DF00CF80CF036FDB9
:1013A00000EE100A20EE080A10EE100A0DF0C2FA44
:1013B00053EC192B0CF0FEFF0CF028FDE061C04847
:1013C00000F064FB216D01208847D8F804004188B3
:1013D0000088091ABB48092901DB32788AB36329DE
:1013E00001DB317871B3317801292ED0022948D040
:1013F0003561ACE0F068B0FBFAF20AFB120149007B
:1014000000EE101A401CF060B8EE400A20EE280AE8
:1014100010EE100A0DF08EFA41EC100B06F07CFA7B
:1014200030690CF09CFF41EC1B0BB6F906000CF088
:1014300096FF53EC1B2B0CF01BFD0CF061FFA08200
:1014400054E700E01BE00121317071694A1C7261B0
:1014500040F68C22914201D975613570716940F274
:10146000A462B1FBF2F302FB1311B1F5617F22D349
:10147000B6F9061000291CDBC6F810B067E002219F
:10148000317071694A1C726141F27072914201D9E6
:1014900075613570716940F6B832B1FBF2F302FB49
:1014A0001313B3F5FA6F0CD3B6F90600002805DB69
:1014B000854830614BE04FF42F70FAE78148C83817
:1014C000F7E7B1FBF2F302FB1312524506D8B6F967
:1014D00006100029EDDB4FF41670EAE7C6F810A0FD
:1014E00035E0BCF803002082BCF805006082BCF83F
:1014F00007002BE0B1F9060000EE100AB8EEC00AB2
:1015000020EE200AC0EE011ABDEEE10A10EE100A2C
:101510002082B1F9040000EE100AB8EEC00A20EEF5
:10152000200AC0EE011ABDEEE10A10EE100A608238
:10153000B1F9000000EE100AB8EEC00AC0EE011AC0
:1015400021EEA00ABDEEC00A10EE100AA082D8F863
:1015500008108A780521012A02D05C484170A7E072
:10156000D8F80420DFF868815A4E12F8330F537808
:1015700040F2DC529FED58BB984201D0572816D05C
:10158000984201D0412820D0984201D053282BD036
:10159000984201D0442835D04C484078012809D0E1
:1015A000022815D0042830D0032820D080E0474BF3
:1015B000012058704548B0F804C00CF10103838045
:1015C00094452AD2A4F8108030E0404B0220587095
:1015D0003E48B0F804C00CF10103838094451CD24E
:1015E0002582A4F8128022E0384B03205870374B34
:1015F000988800F1010CA3F804C0904214D35970EC
:101600009D8055E0314B042058703048838803F1A9
:10161000010CA0F804C0934202D34170858047E0DA
:101620002582A4F812A002E0A4F810A06582D9F8DF
:1016300000000068C08A381A0CF091FE53EC1A2B97
:101640000CF0B8FE0CF0E2FB00EE100A20EE080AE7
:1016500010EE100A0DF06EF953EC192B0CF0AAFEE7
:101660000CF0D4FBE061164800F010FAB6F908005F
:10167000B6F90010401A0CF072FE53EC1B2B0CF064
:1016800099FE0CF0C3FB00EE100A20EE080A10EEE3
:10169000100A0DF04FF953EC192B0CF08BFE0CF0E7
:1016A000B5FBE061064800F0F1F9216D01208847A3
:1016B000BDEC088BBDE8F05F014800F02FBA0000D8
:1016C000400100200CFEFFFF90E8FFFF9401002086
:1016D00018FCFFFF44020020000000000000203F33
:1016E000FFF718FC012009F0F1F8F9E708B101282B
:1016F00002D1024981F83400704700004001002007
:10170000014981F830007047400100202DE9F04187
:1017100004462DED028B2D4A2D492E4803F021FE63
:101720002D4A2E492E4803F01CFE2E4A2E492F48E2
:1017300003F017FE2E4A2F492F4803F012FE2F4FB9
:101740009FED2F8ADFED2F8A002540F6B83843F24F
:10175000C82600BF05EBC50000EB400007EB80008A
:10176000B0EE481AF0EE680AB2EE080A4346324676
:10177000032104F083FB6D1CEDB2042DEAD3F0EEDF
:10178000480A9FED210AB0EE601A00234246032169
:101790001E4804F073FB0F48206011486060134836
:1017A000A0601548E0601A4800214068001DE06311
:1017B00042F22830E086268784F83410322184F8FB
:1017C00030106086BDEC028BBDE8F0811D0000206A
:1017D000180400200C040020200000203404002005
:1017E000280400202300002050040020440400208E
:1017F000260000206C040020600400207C040020EF
:1018000000000000CDCCCC3E9A99993E2C060020D9
:101810003802002010B50446B0F9200000EE100A8E
:101820002B48F8EEC00A0068B0F9020000EE100A7A
:101830002848B8EEC00A09F07FF8BDEEC00A10EEE5
:10184000100A2085B4F9220000EE100A2248F8EEB2
:10185000C00A0068B0F9020000EE100A1D48B8EE98
:10186000C00A6C3009F068F8BDEEC00A10EE100A2C
:101870006085B4F9240000EE100A1848F8EEC00A9A
:101880000068B0F9020000EE100A1248B8EEC00A73
:10189000D83009F051F8BDEEC00A10EE100AA0854C
:1018A000B4F9260000EE100A0D48F8EEC00A0068F0
:1018B000B0F9020000EE100A0A48B8EEC00A09F0BA
:1018C0003BF8BDEEC00A10EE100AE08510BD000026
:1018D0000C0400207C040020280400204404002084
:1018E00060040020C0050020FCB53749B0F928404D
:1018F000364EC96B9FED361AB1F90010ADF80040B5
:1019000000EE101AB0F92A30ADF80230B8EEC00A75
:10191000B0F92C20ADF8042010EE105AB0F92E10BA
:10192000ADF80610B54201DDB0EE410A10EE105AD6
:10193000C0EE010A274FBD4201DA60EEA00A10EEA8
:10194000105A9FED250AB54201DA20EE800A002CDC
:1019500000DC6442002B00DC5B422344002A00DCF4
:1019600052421A44002900DC4942114400EE901A08
:10197000F8EEE00A80EE201AF4EEC00AF1EE10FA5A
:1019800014DB00214FEA0D0232F9113000EE103A5B
:10199000B8EEC00A20EE010ABDEEC00A10EE103A01
:1019A00022F81130491CC9B20429EDD3BDF800104A
:1019B0000185BDF802104185BDF804108185BDF890
:1019C0000610C185FCBD00004001002000007042EF
:1019D000000070420000C84100A00C4730B58C18D0
:1019E000E5180584551A1D44891A458419448184D3
:1019F000191BC18430BD30B5B0F91030002B01DDAA
:101A0000194600E05942B0F91220002A01DD1446BF
:101A100000E054420D19B0F91410002901DD0C4604
:101A200000E04C422C44058F24B2A5420ADA00EEB5
:101A3000105AF8EE400A00EE104AB8EEC01A80EED6
:101A4000810A01E0B7EE000A00EE903AF8EEE00AF3
:101A500060EE800AFDEEE00A10EE903A00EE902A69
:101A60000382F8EEE00A60EE800AFDEEE00A10EE76
:101A7000902A00EE901A4282F8EEE00A20EE800AE8
:101A8000BDEEC00A10EE101A818230BD70B504465A
:101A90002DED028BC56928460CF04CFF41EC100B74
:101AA00005F03AFF51EC100B0CF0B0F908EE100AFB
:101AB00028460CF03FFF41EC100B05F0C9FE51EC3D
:101AC000100B0CF0A3F900EE100AB4F91000B4F9F1
:101AD000121000EE900AF8EEE00A20EE201A00EE56
:101AE000901AF8EEE00A08EE601AFDEEC10A10EE58
:101AF000902A00EE900A2282F8EEE00A28EE201AE0
:101B000000EE901AF8EEE00A00EE201ABDEEC10ACF
:101B100010EE100A6082BDEC028B70BD7CB50446ED
:101B2000806803F00DFCE06803F00AFC206803F015
:101B300007FC606803F004FCA0684FF4007540687F
:101B400081780020A1B1E1684968897881B1216874
:101B50004968897861B161684968897841B1012132
:101B600084F83A10204949688978012909D001E0B0
:101B700084F83A00ADF80000ADF80200ADF80400BA
:101B800022E0B4F91010B4F91220B4F91430204650
:101B9000FFF724FF2046FFF72EFF2046FFF73AFE0F
:101BA000124880688078012816D04FF4FA60608669
:101BB0004000E086208DADF80000608DADF8020099
:101BC000A08DADF80400E08DADF806006A46294608
:101BD0000748FFF737F97CBD4FF4FA50608620467E
:101BE000FFF782FEE6E700000C000020380200202C
:101BF0003409002008B1012802D1024981F83500DA
:101C00007047000040010020324D334C334E344FBA
:101C1000DFF8D0804FF480494FF4005A4FF4006B46
:101C200095F83A0001280AD0002249462E4801F0D2
:101C300068FC00BF94F82200012808D00BE0494658
:101C4000294801F057FC642008F040FEF2E794F8C0
:101C50002700012825D000225146234801F051FCDD
:101C600096F88600012824D0002259461E4801F02B
:101C700048FC00BF97F82200012822D000224FF430
:101C80008061194801F03DFCD8F8080080780128EF
:101C900003D04FF4FA7008F019FE012008F016FE88
:101CA000BEE75146104801F025FC642008F00EFE06
:101CB000D6E759460C4801F01DFC642008F006FEEA
:101CC000D8E74FF48061084801F014FC642008F064
:101CD000FDFDD9E740010020A05000206C0300204A
:101CE0000451002038020020000802400021014871
:101CF00001F058B984090020014801F09BB90000A7
:101D0000C40B0020014801F095B90000A40D00208B
:101D1000014801F08FB90000640B0020014801F078
:101D200089B90000440D0020014801F083B900008A
:101D3000E40C0020014801F07DB90000240C0020D3
:101D4000014801F077B90000840C00202DE9F04F24
:101D500085680024099E802D18D0894DC563894D62
:101D6000456490F83450012D15D0012580F8345089
:101D700090F83550012D10D0002180F83410022445
:101D8000002180F834102046BDE8F08F4FF48071B8
:101D900041650120F8E70220F6E7022580F835507A
:101DA0000025456505682F6847F480272F60056882
:101DB0002B6103685E608368402B03682AD09960BA
:101DC0000168CA60714D704E704FDFF8BC81DFF85A
:101DD000B891DFF8B8A1DFF8B4B1EA14DFF8A8E1F0
:101DE0000168183630379302A9F148090AF1600AF0
:101DF0000BF1180BAEF1300E4FF0006C41452DD9B0
:101E0000A94205D0494503D0514501D0B14205D181
:101E1000202220E09A600268D160D3E759451AD0A9
:101E2000714518D0594D7835A94214D0564D3035EA
:101E3000A94210D0B9420BD0534A183A914207D068
:101E4000524A9032914203D04F4A4832914201D1D6
:101E50001A4600E062464C494C392EE0DFF82C81EE
:101E600008F1A80841452AD9A94205D0494503D01F
:101E7000514501D0B14201D120221CE059451AD070
:101E8000714518D0414D7835A94214D03E4D3035BA
:101E9000A94210D0B9420BD03B4A183A914207D020
:101EA0003A4A9032914203D0374A4832914201D1A6
:101EB0001A4600E06246344950390A605AE0DFF8B9
:101EC000CC8008F1480841452AD9A94205D04945A6
:101ED00003D0514501D0B14201D120221CE0594527
:101EE0001AD0714518D0294D7835A94214D0264D05
:101EF0003035A94210D0B9420BD0234A183A91424A
:101F000007D0224A9032914203D01F4A4832914270
:101F100001D11A4600E062461C491039CA6029E026
:101F2000A94205D0494503D0514501D0B14201D164
:101F300020221CE059451AD0714518D0134D783530
:101F4000A94214D0104D3035A94210D0B9420BD05F
:101F50000D4A183A914207D00C4A9032914203D070
:101F6000094A4832914201D11A4600E062460749C7
:101F700010398A6001680A6842F001020A60FFE6CF
:101F80007D910008A9910008586402401060024049
:101F900001681823CAB2103AB2FBF3F2054B6FF393
:101FA0000901032A9B5CC36500D9091D81650846A8
:101FB000704700000CEB000810B5014600208B694B
:101FC0008A6A4FF0C07453B1B3F5005F15D072B197
:101FD000012A0CD0022A0AD0032A09D104E01AB13E
:101FE000012A06D0022A03D1C96AC90100D50120FD
:101FF00010BDC96AA142FAD010BD002AF7D0012A4B
:10200000F2D0022AF3D0032AF3D010BD30B5046811
:10201000256825F480252560046863608368402B6B
:10202000036803D099600068C26030BD9A600068A0
:10203000C16030BD70B590F834500024012D0CD033
:10204000012580F8345090F835600025012E06D027
:1020500080F834500224204670BD022070BD022654
:1020600080F83560456505682E6826F480262E6068
:1020700005686B608368402B036808D0996001682D
:10208000CA600068016841F001010160E3E79A60FD
:102090000268D160F5E7000010B50446408B2821A6
:1020A000B0FBF1F201FB1202401C60832068E16882
:1020B000142A0068B0F9020000EE100AB8EEC00A57
:1020C00002D3DFED0C0A01E0DFED0B0A084608F051
:1020D00033FCBDEEC00A216810EE100A0881608B47
:1020E000282806D1A08B401CA08300206083208379
:1020F000207510BD00409C4500409CC510B503F004
:10210000C9FEFEF763FCFFF7F1FD04F087FD04F064
:10211000AFFD04F0D9FD04F0F5FD04F011FEFEF76B
:1021200083FDBDE81040FEF7E9BD01680A68D206EC
:1021300004D5C968C90601D50BF070B9704770475E
:1021400010B590F82A2000210123AAB1012A2AD033
:10215000032A28D0022A0ED11C4802681268D160D6
:1021600000680068416119482C3002681268D1602B
:1021700000680068416110BD026812685469D26845
:10218000A21A00D5524240F2DC54A24208DB028B74
:10219000541C0483DC2A01D3037510BD818310BD58
:1021A0000183017510BD0268B0F922401268B2F9CE
:1021B0000220121B00D55242B2F5FA7FF0DB018BF0
:1021C0004A1C0283DC29E7D210BD0000985200208F
:1021D00070470000044A00F57A701060101D01F588
:1021E0007A710160704700003404004070B5044605
:1021F000002044F8741B054644F80C090D4EA060FD
:10220000A077207520826082A076E0822083683CDF
:1022100006E000BF03F03EF928466D1CB04204D230
:1022200020680068807C0028F4D120680068C08A9B
:10223000206770BDA086010010B558B1084C491E3A
:102240000BD310F8013B5340DBB234F8133083EA70
:102250001222F4E74FF6FF7010BD104610BD0000CB
:10226000780C010810B5064C04E000BF10F8013BE3
:102270005340E25C491E89B2F8D2104610BD0000FE
:10228000780B010800F004F8012008F01FFBF9E7C3
:102290002DE9F0472DED028B03F076F8724D012702
:1022A0004FF00008286840688078012824D085F81D
:1022B00086806E4E307800287CD170786C4C022875
:1022C0001DD0DFF8B0A19FED6C8BDFF8B49103282F
:1022D0001FD006282CD00A282AD06A4A6A49052825
:1022E00034D0082832D0042840D009283ED007280E
:1022F0003CD000287DD0A3E085F88670D9E74CF665
:10230000647028675848FEF72FFC5748FEF73AFCE0
:1023100093E0DAF80000B0F900000CF020F853EC7C
:10232000182B0CF047F80BF0EBFF296F08442867D7
:10233000A08818B9B9F90000C0002867A7804A48EA
:10234000FEF712FC4848FEF73BFC76E0608810B9C7
:10235000B9F90000286767800868B0F81500286799
:1023600011688860404803F015F966E0E08818B904
:10237000B9F90000C0002867E780086841780329A0
:1023800050D002F005FA07462867DAF80000B0F9E5
:1023900000000BF0E4FF53EC182B0CF00BF80BF0E3
:1023A000AFFF384428673048FEF7DEFB2E48FEF7C3
:1023B00007FC00E054E0286821880068C08A401AC1
:1023C0004FF6E75108444900884224D901F09EF8AD
:1023D000A06001F0A1F800EE100AD4E90201F8EEC5
:1023E000400A401A00EE100AB8EE401A81EE200AA8
:1023F00000E020E010EE100A0CF09CFA41EC100B0B
:1024000053EC102B9FED210B51EC100B0BF0E4FD66
:102410000BF0FCFC2061A068E06028680068C08ABE
:1024200020800AE0B0F815002867116888600E481F
:1024300003F0B0F8BDE703F02DF87078032808D05A
:10244000A4F804807078042808D0092806D007284A
:1024500004D0A4F806807078052801D0A4F8028082
:10246000BDEC028BBDE8F0876C0300202900002042
:10247000BC0100200C0000200AD7A3703D0AB7BFA2
:1024800044020020EC020020045100204AD8124DE2
:10249000FB21194010B50023F1281BD0A0F5807056
:1024A000FF383BD0012830D0B0F5807F11D11078B3
:1024B0000002C88254782043C882907800020883C2
:1024C000D4782043088390790875D079487581F8CD
:1024D000203010BD10780002088054782043088016
:1024E000907800024880D478204348801079000218
:1024F0004881547920434881907900028881D279BB
:102500001043888181F8203018E0107908725079E2
:10251000887490794872D079C87410BD90780002A0
:102520008883D4782043888310790002C883547943
:102530002043C88390798876D079C87681F8253091
:1025400010BD000078B50024009490F83C20012ACA
:1025500019D0012280F83C200A6807230568092A5F
:1025600013D9EE680A3A02EB420293409E43EE60B2
:102570000B788A680A3B03EB43039A400368DD68E3
:102580002A43DA6010E0022078BD2E6902EB420295
:1025900093409E432E610B788A6803EB43039A4075
:1025A00003681D692A431A614A681F23072A13D248
:1025B00005686E6B521E02EB820293409E436E636F
:1025C0000B790A885B1E92B203EB83039A4003687F
:1025D0005D6B2A435A6327E005680D2A12D22E6BE1
:1025E000D21F02EB820293409E432E630B790A882E
:1025F000DB1F92B203EB83039A4003681D6B2A43EF
:102600001A6311E0EE6A0D3A02EB820293409E4398
:10261000EE620B790A880D3B92B203EB83039A407A
:102620000368DD6A2A43DA62164B0568144A9D4244
:1026300006D10D68122D03D1556845F4800555600B
:1026400005689D4218D10B68102B01D0112B13D1B6
:10265000536843F400035360096810290CD10A49F8
:102660000A4A0968B1FBF2F101EB8101490000E07F
:10267000491E00910029FBD180F83C40002078BD24
:1026800000230140002001405C00002040420F0078
:1026900070B504004FF0000503D0206C002610B187
:1026A00007E0012070BD204600F01CF8666484F845
:1026B0003C60206CC00610D4206C20F4885040F0A0
:1026C000020020642046FEF7EDF86664206C20F0DE
:1026D000020040F00100206400E0012584F83C6025
:1026E000284670BD10B586B0044614216846FDF733
:1026F000A5FF1149206888421CD1104800210268BA
:1027000042F480720260006800F4807005900B480B
:102710001438026842F004020260006800F004000D
:102720000590012000900320CDE90101694604488D
:1027300000F004FE06B010BD002001404438024005
:102740000008024090F82020012A07D0022A05D074
:10275000416A41F48021416201207047006842696A
:102760000A43426100207047F0B590F82050046899
:10277000A468012D05D0022D03D0416A41F48021C7
:102780005DE014F0406F01D1E50055D5C4F301645C
:10279000022C03D9416A41F4000150E00125A54013
:1027A0001D608D684FF4C0739DB1CE6835434E688F
:1027B00045EAC605066803EB0417F5514FF4C275E8
:1027C000076805EB04150E697E51097D012905D0C6
:1027D00009E00E88CD6845EA4655EBE701684E5999
:1027E00046F480764E511179D579567941EA0561E2
:1027F00095792D0445EA062529434FF4C6760568E8
:1028000006EB0416A9511178D57841EA056195784F
:1028100052782D0445EA022211434FF4C475026830
:1028200005EB04155151006803EB0411425842F0C6
:10283000010242500020F0BD416A41F400114162A2
:102840000120F0BD10B590F82020012A07D0022AFF
:1028500005D0416A41F480214162012010BD3B480E
:10286000D0F8002242F00102C0F80022D0F8002285
:1028700022F47C52C0F80022D0F800224B6A42EACF
:102880000322C0F800220A7D02F01F0301229A40B1
:10289000D0F81C329343C0F81C32CB69B3B9D0F8DE
:1028A0000C329343C0F80C328C894B6864F31F439D
:1028B0004C6900EBC404C4F840320C890B6864F323
:1028C0001F434C6900EBC404C4F84432CB69012BAC
:1028D00016D1D0F80C321343C0F80C320C884B6878
:1028E00064F31F434C6900EBC404C4F840320C8904
:1028F000CB6864F31F434C6900EBC404C4F8443252
:102900008B69002BD0F804320ED01343C0F8043288
:102910000B69002BD0F8143208D01343C0F81432DE
:10292000096A012904D008E09343EFE79343F5E7F0
:10293000D0F81C121143C0F81C12D0F8001221F07C
:102940000101C0F80012002010BD0000006400402A
:10295000704730B590F82040012C05D0022C03D0F0
:10296000416A41F480215DE00468002955D0246962
:10297000A40754D04FF4D874056804EB01142D5902
:1029800015F00405956005682D594ED0ED08556089
:1029900005682C5904F00204D4604FF4DA74056819
:1029A00004EB01142D5905F00F05156105682D592B
:1029B000C5F30725956105682C59240C54614FF423
:1029C000DC72046802EB0112A4581C700468A4585D
:1029D000240A5C700468A458240C9C700468A258F3
:1029E000120EDA704FF4DE72046802EB0112A45882
:1029F0001C710468A458240A5C710468A458240C4F
:102A00009C710468A258120EDA71006881B10169E4
:102A100041F020010161002030BDE468A8E7416A6F
:102A200041F400114162012030BD6D0D1560AFE72A
:102A3000C16841F02001C160EDE72DE9F05F054676
:102A4000006800244669D0F804908768D0F80CB07C
:102A5000D0F810A0D0F81880F10748D0F90714D0AA
:102A600001218160B80703D5284600F030FA0CE058
:102A7000780702D54FF4006407E0380702D54FF419
:102A8000805402E0284600F021FAF80516D529689E
:102A90004FF480708860B80503D5284600F019FA15
:102AA0000CE0780502D544F4005407E0380502D55F
:102AB00044F4804402E0284600F00AFAF80316D5F0
:102AC00029684FF480308860B80303D5284600F0A9
:102AD00002FA0CE0780302D544F4004407E038031E
:102AE00002D544F4803402E0284600F0F3F93007C0
:102AF00007D55FEACB6004D52968102044F4007440
:102B0000C86070074FF0080707D55FEA0B7004D55F
:102B10002868C760284600F099F9B00706D52868EC
:102B2000C068800702D0284600F092F9700607D5E9
:102B30005FEACA6004D52968102044F48064086103
:102B4000B00607D55FEA0A7004D5286807612846F1
:102B500000F08CF9F00606D528680069800702D0DD
:102B6000284600F084F9B00308D55FEAC96005D5AE
:102B7000296810204860284600F07AF9F00307D54C
:102B80005FEA097004D528684760284600F0A4F978
:102B9000300446D55FEA497040D5F00504D55FEAB8
:102BA000C87001D044F00104B00504D55FEA887014
:102BB00001D544F00204700504D55FEA487001D5E0
:102BC00044F00404300529D518F0700F26D008F021
:102BD0007000402815D006DC102809D020280AD023
:102BE000302816D10AE050280ED0602811D10EE00E
:102BF00044F008040DE044F010040AE044F020041E
:102C000007E044F0400404E044F0800401E044F4B0
:102C100080742868816921F070018161296804202D
:102C20004860002C05D0686A204368622846FFF798
:102C30008FFEBDE8F09F70B5040003D094F820002B
:102C400010B104E0012070BD204600F081F820683A
:102C5000016821F00201016000F058FC05460526DC
:102C600004E000F053FC401B0A2811D8206840689B
:102C70008007F6D42068016841F00101016000F08E
:102C800045FC05460BE000F041FC401B0A2806D934
:102C9000606A40F40030606284F82060D2E7206807
:102CA0004068C007EFD0207E0128206801683DD031
:102CB00021F080010160607E01282068016838D021
:102CC00021F040010160A07E01282068016833D016
:102CD00021F020010160E07E0128206801682ED0EB
:102CE00041F010010160207F01282068016829D08F
:102CF00021F008010160607F01282068016824D06C
:102D000021F004010160D4E902010843D4E904126E
:102D1000114308436168491E08432168C8610020C7
:102D20006062012084F82000002070BD41F0800125
:102D3000C0E741F04001C5E741F02001CAE721F0BA
:102D40001001CFE741F00801D4E741F00401D9E7D1
:102D5000F0B587B0044614216846FDF76FFC364B8A
:102D60003648DFF8D0E01968D4F800C0334A0325AC
:102D70000226092710300024491CF44522D119608D
:102D8000012907D1016841F000710160006800F07D
:102D900000700590106840F0080010601068CDE9E0
:102DA000005600F00800CDE9047069462448CDE9DA
:102DB000024500F0C3FA00221146142000F03EFC48
:102DC000142032E0DFF87CE0F44530D1D0F800C0C8
:102DD0004CF0806CC0F800C0D0F800C001290CF0A5
:102DE000806CCDF814C0196007D1016841F0007102
:102DF0000160006800F000700590106840F002006B
:102E00001060106802AB00F0020005906020CDE970
:102E1000000683E8B00069460B4800F08FFA0022F4
:102E20001146402000F00AFC402000F0F9FB07B0FA
:102E3000F0BD0000006400404C000020303802402B
:102E4000000C02400068004000040240704700008F
:102E5000044A0168914202D0034A914201D1FDF730
:102E6000C5BF70470064004000680040704770476D
:102E70007047000070B5044690F82000012804D087
:102E8000606A40F40020606218E0022084F82000AC
:102E90002068016821F00101016000F037FB054660
:102EA0000EE000BF00F032FB401B0A2808D9606A20
:102EB00040F400306062052084F82000012070BDDD
:102EC00020684068C007EDD1606270BD70477047F0
:102ED0007047704770477047704770B54379012B52
:102EE0001AD0012646710223037105682C6840F64A
:102EF000FE7393409C43D1E900310B43934023433D
:102F00002B6001680B68C0249440A3430B600671DA
:102F100000214171084670BD022070BD70B50400EB
:102F200003D02079002510B105E0012070BD657146
:102F3000204600F007F80220207125610120207151
:102F4000002070BD10B586B0044614216846FDF718
:102F500075FB1149206888421CD110480021026885
:102F600042F000520260006800F0005005900B48EB
:102F70001038026842F001020260006800F00100AF
:102F80000590102000900320CDE901016946044816
:102F900000F0D4F906B010BD007400404038024083
:102FA0000000024030B54279012A16D00122427158
:102FB0000223037103681D6802FA01F425431D60B2
:102FC000002901680B680AD00C6803F4802304F41C
:102FD0006014B3F5802F0FD015E0022030BD0C68CF
:102FE00003F0040304F03804042B0CD1382C0AD16C
:102FF0004B6843F0010305E0B4F5601F03D14B6853
:1030000043F002034B60027100214171084630BD5C
:1030100090F83510022903D08021416501207047C6
:10302000052180F835100068016821F00101016078
:10303000002070472DE9F84304464FF00009CDF811
:10304000009063484FF41651A56D0068B0FBF1F78E
:103050002E6894F85C10082000FA01F131420FD07C
:1030600021680A6852070BD50A6822F004020A6038
:1030700094F85C108840A860606D40F001006065C5
:1030800094F85C104FF0010808FA01F0304208D0C3
:1030900021684969090604D5A860606D40F0020006
:1030A000606594F85C1004208840304208D02168A4
:1030B0000968890704D5A860606D40F00400606568
:1030C00094F85C1010208840304218D021680968BC
:1030D000090714D5A86020680168490304D5006871
:1030E000000308D5A16C07E00168C90503D4016895
:1030F00021F008010160216C09B12046884794F84D
:103100005C1020208840304231D021680968C9060F
:103110002DD5A86094F8350005282068016806D0F0
:10312000490347D5006800031DD4616C1CE021F001
:10313000160101602068416921F080014161206C25
:1031400008B9A06C20B12068016821F00801016075
:1031500094F85C103F208840A86084F8349084F88C
:103160003580216D1FE0E16B09B120468847606D15
:1031700000282BD0606DC00714D0052084F83500DE
:103180002068016821F0010101600098401C009056
:10319000B84203D820680068C007F6D184F834909C
:1031A00084F83580E16C002910D001B02046BDE8DC
:1031B000F04308470168C905D5D4016821F0100122
:1031C000016084F8349084F83580CCE7BDE8F8835A
:1031D0005C0000202DE9F041044600F097F9064616
:1031E0005CB1002584F83450022084F83500206852
:1031F000016821F0010101600DE00120BDE8F081CE
:1032000000F084F9801B052805D920206065032083
:1032100084F83500F2E720680068C007F0D1226822
:10322000116820480140D4E901031843D4E903366A
:103230003343184363691843A3691843E369184388
:10324000236A18430843616A042903D1D4E90B13A4
:1032500019430843106020684069666A20F007013E
:1032600030460E43012704280CD1A06A0643E06AC9
:1032700040B12046FEF7A0FE20B14020606584F8F2
:103280003570BAE7206846612046FEF781FE94F863
:103290005C203F2191408160656584F83570002095
:1032A000ACE700003F8010F02DE9F0410446866D48
:1032B00090F83400002501280DD0012084F8340056
:1032C00094F835700020012F07D084F834000225CF
:1032D0002846BDE8F0810220FBE7022784F835701C
:1032E00060652046FEF792FE94F85C103F2088400F
:1032F000B0602068016841F016010160206C20B1C7
:103300002068016841F0080101602068016841F00F
:1033100001010160DCE7000070B5044600F0F6F83A
:103320000546601C02D004480078044400F0EEF822
:10333000401BA042FAD370BD500000202DE9F84F89
:1033400000224FF0010803254FF00F0E0B6808FA1A
:1033500002F42340A3426ED14E68012E05D0022E06
:1033600003D0112E01D0122E12D186684FEA420CE2
:1033700005FA0CF7BE43CF6807FA0CF737438760AE
:103380004668A6430C79C4F3001494403443446067
:10339000C668570005FA07FC8C6826EA0C06BC4094
:1033A0003443C4604C68022C01D0122C13D1D408D1
:1033B00000EB8404A346D4F8209054074FEAD46A63
:1033C0000EFA0AF629EA06090E6906FA0AF646EA2C
:1033D0000906CBF8206006680C7926EA0C0604F092
:1033E0000304BC40344304604C68E40065D5364CAB
:1033F000266846F480462660246822F0030604F41A
:1034000080440094314C3444A446D4F808489607CC
:10341000370F0EFA07F6B4432D4EB04201D1002605
:1034200024E02C4EB04201D101261FE02A4EB042CA
:1034300002D102261AE040E0284EB04201D1032614
:1034400014E0274EB04201D104260FE0254EB042D1
:1034500001D105260AE0244EB04201D1062605E03E
:10346000224EB04201D1072600E00826BE40264386
:10347000CCF808681E4E34684F689C43FF0300D5A3
:103480001C4334601A4C241D26684F689E43BF03BA
:1034900000D51E432660164E083634684F689C439C
:1034A000FF0200D51C433460114E0C3634684F685F
:1034B0009C43BF0200D51C433460521C102AFFF409
:1034C00045AFBDE8F88F00004438024000300140AD
:1034D000000002400004024000080240000C0240CC
:1034E000001002400014024000180240001C02407C
:1034F000003C0140426931EA020200D109048161C5
:1035000070470AB1816170470904FBE70148806890
:10351000704700005000002001480078704700000C
:103520005000002000684AF6AA2101600020704780
:103530000248816802781144816070475000002081
:103540000B4810B5016841F400710160016841F455
:1035500080610160016841F480710160032000F026
:103560008DF8002000F006F800F03EF8002010BDB5
:10357000003C024010B5014688B000221C2000F03B
:103580005DF81C2000F04CF814480024016841F05C
:1035900001010160006805A900F00100069068467D
:1035A00000F018F900F036F90D494000B0FBF1F1D8
:1035B0000C484FF08042491E026040F2E732C0E9F9
:1035C0000324C0E9011400F099FB10B1012008B0F8
:1035D00010BD044800F0D0FBF9E70000403802407D
:1035E00040420F00040E00200C4882B0016841F4F4
:1035F00080410160006800F4804000900748001F8F
:10360000016841F0805101600068002200F08050A4
:1036100000900F21901E02B000F010B84438024014
:10362000002809DB00F01F020121914040098000C1
:1036300000F1E020C0F8001170470000F0B40E4B1C
:103640001B680C46C3F30223C3F10705042D00D900
:103650000425191D072901D2002300E0DB1E0126E5
:1036600006FA05F1491E214099409E40761E1640FB
:103670003143F0BC03F0ACBC0CED00E0064900F0B7
:10368000070208684FF6FF03184040EA0220034A89
:1036900010430860704700000CED00E00000FA05E0
:1036A0002DE9F0470E46050065D0DFF81481D8F803
:1036B0000000F7B200F00F00B04207D288F80070A7
:1036C000D8F8000000F00F00B04254D128683D4CFB
:1036D000810712D5400703D5206840F4E0502060F0
:1036E0002878000703D5206840F4604020602068F7
:1036F000A96820F0F000084320602878C0072DD08A
:10370000304968680839012812D0022813D00328EC
:1037100011D00968890700292DDA216821F00301F9
:1037200001432160FFF7F2FE814641F2883A0EE044
:1037300009688903EFE709688901ECE7FFF7E6FE0E
:10374000A0EB0901514502D90320BDE8F0872068AC
:10375000696800F00C00B0EB810FEFD1D8F80010D1
:10376000404601F00F01B14207D90770006800F030
:103770000F00B04201D00120E7E72878400705D5C7
:103780002068E96820F4E0500843206028780007AA
:1037900006D52068296920F4604040EAC100206015
:1037A00000F058F82168084AC1F30311515CC84081
:1037B0000649086006480068FFF7DCFE0020C4E701
:1037C000003C02400838024014EB00085C00002076
:1037D000540000200F2202600C4A136803F0030318
:1037E0004360136803F0F0038360136803F4E0534D
:1037F000C36012684FF4E05303EAD2020261044846
:10380000006800F00F0008607047000008380240B0
:10381000003C02400448054900680968044AC1F3B5
:103820008221515CC84070475C000020083802408B
:1038300024EB00080448054900680968044AC1F3FC
:103840004231515CC84070475C000020083802409B
:1038500024EB0008154810B5006810F00C0214485D
:1038600013D01449042A0FD0082A0ED10F4C241F5C
:103870002268236802F03F025B0207D52068C0F38C
:103880008810A0FB010106E0084610BD2168C1F3C5
:103890008811A1FB00010023FCF7C0FD2168C1F3E2
:1038A0000141491C4900B0FBF1F010BD083802404D
:1038B0000024F40040787D012DE9F84F04006ED01B
:1038C0002078DFF83C93C007A9F104054AD009F13C
:1038D00004000168C1F38101012908D00068C0F328
:1038E000810002280AD1D9F80000400206D52868D4
:1038F000800337D560680028E1D033E06068B0F518
:10390000803F10D0B0F5A02F286810D020F4803070
:103910002860286820F4802028606068A8B1FFF73C
:10392000F5FD06460DE0286840F48030F4E740F4E9
:1039300080202860F7E700BFFFF7E8FD801B6428C0
:1039400073D828688003F7D50CE0FFF7DFFD064643
:1039500005E000BFFFF7DAFD801B6428F0D8286877
:103960008003F7D42078DFF89C8280074FF0000AAC
:103970003ED5A348001D016811F00C0F08D0006867
:10398000C0F3810002280BD1D9F80000400207D40F
:103990002868800716D5E068012800D112E02BE1E5
:1039A000E068B8B10120C8F80000FFF7AFFD064697
:1039B00005E000BFFFF7AAFD801B0228C0D82868D9
:1039C0008007F7D52868216920F0F80040EAC10097
:1039D00028600DE0C8F800A0FFF798FD064604E057
:1039E000FFF794FD801B02281FD828688007F7D4B2
:1039F0002078000722D5824E83486169703671B104
:103A000001210160FFF782FD074604E0FFF77EFD1C
:103A1000C01B022809D830688007F7D50EE0C0F82F
:103A200000A0FFF773FD074605E082E0FFF76EFD9B
:103A3000C01B02287DD830688007F7D42078400763
:103A400068D5DFF8BCB100270BF13C0BDBF80000B8
:103A5000C0000BD4DBF8001041F08051CBF800100F
:103A6000DBF80000012700F080500090674E3068BE
:103A7000C00510D4306840F480703060FFF746FD18
:103A8000009005E0FFF742FD0099401A022850D847
:103A90003068C005F6D55A4EA0686C3601280FD0A4
:103AA0000528306810D020F001003060306820F028
:103AB00004003060A068B8B1FFF728FD00900FE067
:103AC000306840F00100F4E740F004003060F7E7B0
:103AD000FFF71CFD0099411A41F28830814266D8F7
:103AE00030688007F4D50EE0FFF710FD009007E086
:103AF000FFF70CFD0099411A41F28830814256D8F7
:103B000030688007F4D42FB1DBF8001021F0805129
:103B1000CBF80010A069C8B33949091D0968C1F381
:103B2000810102294AD00228504607D0C8F8600017
:103B300000E03CE0FFF7EAFC04463BE04746C8F8FB
:103B40006000FFF7E3FC064605E000BFFFF7DEFC80
:103B5000801B02282BD828688001F7D4D4E90701FC
:103B60000843A16A2A4A490802EB0141626A41EA14
:103B70008211084394F82C1040EA0161C9F8001042
:103B800001203866FFF7C2FC044606E036E000BFBD
:103B9000FFF7BCFC001B022809D828688001F7D574
:103BA0002CE000BFFFF7B2FC001B022802D9032063
:103BB000BDE8F88F28688001F4D41FE00128F7D011
:103BC000D9F80000E26900F48001914214D1226A20
:103BD00000F03F0191420FD147F6C071626A014087
:103BE000914209D1A26A00F44031914204D1E16AC4
:103BF00000F07060884201D00120D9E70020D7E7AB
:103C00000438024000004742800E474200700040E6
:103C10000000FFFF7047704710B590F83C20012A64
:103C200022D0012280F83C20CA688C6822F44072BD
:103C300022434C6822F4806222430C6822F4006222
:103C400022430C6922F4805222434C6922F4005230
:103C50002243C969002322F480420A4301684A646E
:103C600080F83C30002010BD022010BD70B590F8E7
:103C70003C20012A32D0012480F83C40022280F806
:103C80003D2003685A689D6822F070060A68324336
:103C90005A60134B02689A4214D0B2F1804F11D08F
:103CA000104B9A420ED0104B9A420BD00F4B9A42B7
:103CB00008D00F4B9A4205D00E4B9A4202D00E4BC1
:103CC0009A4204D1496825F080031943916080F835
:103CD0003D40002180F83C10084670BD022070BDB8
:103CE000000001400004004000080040000C0040BB
:103CF00000040140004001400018004010B50400DD
:103D000003D094F83D0010B107E0012010BD002061
:103D100084F83C00204600F00DF8022084F83D00B5
:103D2000211D206802F07AFC012084F83D0000206B
:103D300010BD000008B500680C49884208D10C4845
:103D4000016841F001010160006800F001000BE032
:103D50000849884209D10648001F016841F0020164
:103D60000160006800F00200009008BD0000014002
:103D700044380240000400400168CA6842F0010271
:103D8000CA600068816801F00701062903D0016854
:103D900041F0010101600020704770B5044690F8C1
:103DA0003C00012817D0012584F83C50022084F8FB
:103DB0003D002068826822F0770222F47F42826010
:103DC0000868502830D00DDC20284DD005DC98B391
:103DD00010283BD148E0022070BD302844D0402854
:103DE00034D139E0602828D0702806D0B0F5805F43
:103DF0002CD0B0F5005F29D10AE0CB68D1E90121D0
:103E0000206802F07CFC2068816841F0770109E0BD
:103E1000CB68D1E90121206802F071FC206881683B
:103E200041F48041816011E0CA684968206802F06D
:103E30003BFD5021206807E016E0CA684968206809
:103E400002F043FD6021206802F063FC84F83D50DD
:103E5000002084F83C0070BDCA684968206802F000
:103E600023FD40212068EFE7226801461046EBE77A
:103E7000704770B50446006801694FF00005C943FA
:103E8000890715D4C168C943890711D4E91E0161A6
:103E900001202077206880698007204602D0FFF744
:103EA000E7FF04E000F0DAF8204600F05CF925773F
:103EB00020680169C943490717D4C168C943490744
:103EC00013D46FF00401016102202077206880691B
:103ED00010F4407F204602D0FFF7CAFF04E000F054
:103EE000BDF8204600F03FF9257720680169C943F5
:103EF000090716D4C168C943090712D46FF0080135
:103F00000161042020772068C0698007204602D024
:103F1000FFF7AEFF04E000F0A1F8204600F023F91F
:103F2000257720680169C943C90617D4C168C94308
:103F3000C90613D46FF010010161082020772068B2
:103F4000C06910F4407F204602D0FFF791FF04E0E3
:103F500000F084F8204600F006F925772068016912
:103F6000C943C90708D1C168C943C90704D1891E1B
:103F70000161204600F01AF920680169C943090669
:103F800009D4C168C943090605D46FF080010161F5
:103F90002046FFF73FFE20680169C943490609D45E
:103FA000C168C943490605D46FF04001016120464C
:103FB00000F003F920680169C94389060BD4C16880
:103FC000C943890607D46FF0200101612046BDE88E
:103FD0007040FFF720BE70BD10B586B004461421B6
:103FE0006846FCF72BFB2368174C00211748022278
:103FF000A34211D1036843F010030360006800F08E
:104000001000059090020090CDE901210120CDE93A
:10401000031069460E4812E00E4CA34211D103680A
:1040200043F001030360006800F001000590C02028
:104030000090CDE90121CDE9031269460648FFF75A
:104040007DF906B010BD000000000140303802408C
:10405000001002400004004000000240704770B5AC
:10406000044690F83C000D4601280DD0012684F846
:104070003C60022084F83D0042B1042A18D0082A8E
:104080002AD00C2A4DD139E0022070BD206802F000
:1040900049FB2068816941F00801816120688169DC
:1040A00021F004018161206881692A69114311E0CE
:1040B000206802F067FB2068816941F4006181613A
:1040C0002068816921F480618161206881692A69A1
:1040D00041EA0221816124E0206802F089FB206826
:1040E000C16941F00801C1612068C16921F0040182
:1040F000C1612068C1692A69114311E0206802F09A
:10410000ABFB2068C16941F40061C1612068C169ED
:1041100021F48061C1612068C1692A6941EA0221F4
:10412000C16184F83D60002084F83C0070BD10B58A
:10413000040003D094F83D0010B107E0012010BD49
:10414000002084F83C00204600F00CF8022084F89F
:104150003D00211D206802F061FA012084F83D0035
:10416000002010BD7047704710B50446006801225A
:1041700002F0B8FA0B492068884202D00A49884206
:1041800003D1416C41F4004141642068816801F031
:104190000701062903D0016841F0010101600020F8
:1041A00010BD000000000140000401400068B0F1B3
:1041B000804F01D1FFF7BCB97047704770470000CE
:1041C00070B5026804461068D168536910F00F0F8B
:1041D00052D003F0010501F490762E435FD0C20760
:1041E00005D0CA0503D5E26B42F00102E263420743
:1041F00005D5DA0703D0E26B42F00202E2638207E0
:1042000005D5DA0703D0E26B42F00402E26302074D
:1042100007D501F020022A4303D0E26B42F00802E6
:10422000E263E26B002A33D0800604D5880602D50B
:10423000204602F0D5FB20684069E16BC0F3801096
:10424000090700D428B3204602F0B3FB2068416977
:1042500049061AD5416921F040014161606BA0B166
:104260001B490165606BFEF7D3FE002810D0606B20
:10427000016DBDE870400847830610D58B060ED54A
:104280002046BDE8704002F0ABBB2046FFF796FF2A
:1042900070BD2046FFF792FF0020E06370BD03066B
:1042A00006D50B0604D52046BDE8704002F078BC68
:1042B0004006F3D54806F1D5D168204621F04001EB
:1042C000D160202184F8391000F04CFA70BD000054
:1042D0002169000870B5040004D094F83900002565
:1042E00010B106E0012070BD84F83850204600F07F
:1042F00023F8242084F839002068C16821F4005193
:10430000C160204602F0B8FB2068016921F49041A9
:1043100001612068416921F02A0141612068C1687A
:1043200041F40051C160E563202084F8390084F82D
:104330003A00002070BD00002DE9F04F87B005461F
:1043400014216846FCF77AF9D748DFF85883022130
:10435000D5F800C0D44A103803260123DFF84CE317
:1043600000248F064FF0080B4FF480694FF4807AD9
:10437000C44535D1D2F800C04CF4002CC2F800C0BE
:10438000126802F400220592026842F00102026003
:104390000068CDE9006100F00100CDE904B0CDE98D
:1043A000023669467046FEF7C9FFC24EC04830600B
:1043B000C6E90174C6E903497461C6E9064A346274
:1043C00030467462FEF706FF08B1FDF701FF6E6329
:1043D000002211463420B563FFF730F9342076E02F
:1043E000DFF8D482C44578D1D2F800C04CF4801CE8
:1043F000C2F800C0126802F480120592026842F00E
:1044000004020260026802F004020592026842F0AF
:10441000080202600068984600F0080005904FF41A
:10442000805000900220CDE90103CDE9036B69467D
:10443000A248FEF783FF042000900220CDE9010886
:10444000CDE9036B69469E48FEF778FFDFF864828A
:10445000974908F160084046303902C0BB46E0E8A1
:1044600002745646E0E803494FF4403740F8044CE4
:1044700080E8D0004046C8F82440FEF7ABFE08B103
:10448000FDF7A6FEC5F83480C8F83850DFF824825E
:10449000874908F1C00840467831E0E8021B402116
:1044A000A0E8120210C080E8D0004046C8F82440BE
:1044B000FEF790FE08B1FDF78BFEC5F830800022B4
:1044C00011463520C8F83850FFF7B8F83520FFF707
:1044D000A7F807B0BDE8F08FFFE77A4B4FF0070869
:1044E0009C4536D1704A121D136843F010031360C7
:1044F000126802F010020592026842F001020260A6
:10450000006800F0010005904FF4C0608DE8530191
:1045100069467046FEF712FF6C4E6B483060C6E984
:104520000174C6E903497461C6E9064A4FF4803054
:10453000C6E908043046FEF74DFE08B1FDF748FE17
:104540006E63002211462520B563FFF777F825201A
:10455000BDE75F4B9C454BD1136843F400331360B8
:10456000126802F400320592026842F00102026011
:10457000026802F001020592026842F0080202603D
:104580000068CDF800B000F00800CDE90480CDE966
:1045900002468B46019169467046FEF7CFFE202009
:1045A000CDE9000B02AB694683E850014448FEF7B1
:1045B000C5FE464E3E48603648303060C6E901745C
:1045C000C6E903497461C6E9064A4FF44030C6E9BA
:1045D00008043046FEF7FEFD08B1FDF7F9FD6E63F5
:1045E000002211462620B563FFF728F826206EE743
:1045F000384B9C457FF46DAF136843F48023136000
:10460000126802F480220592026842F002020260FF
:10461000006800F0020005904FF440608DE85301FF
:1046200069462D48FEF78AFEDFF8A080204908F190
:10463000C00840461831E0E8021740214E4652C0FB
:104640004FF4003940F81449BB46C0F82090C0E947
:10465000064A4046C8F82440FEF7BCFD08B1FDF705
:10466000B7FD13481D4FC5F830801838C8F83850CA
:104670003860C7E901B4C7E903467C61C7E9064A67
:10468000C7E908943846FEF7A5FD08B1FDF7A0FD7F
:104690006F63002211462720BD63FEF7CFFF27205E
:1046A00015E70000004C0040403802400000024086
:1046B00040600240640B00200050004000080240AF
:1046C000000C02400010014040640240840C0020B5
:1046D000004400400048004000040240A40D0020B7
:1046E0007047000070B5044690F83900202830D19A
:1046F00069B362B394F8380001282AD0012084F805
:1047000038002162A284E2840025E563212084F838
:104710003900236B1048D863236B10481864236B4F
:104720000F48D864206B134605652668206B321D40
:10473000FEF7BAFD21686FF04000086084F8385039
:104740002068416941F080014161002070BD012075
:1047500070BD022070BD00007B690008A9690008D7
:104760003169000870477047012080F31388BFF358
:104770004F8F05480168054A01F4E061114301606B
:10478000BFF34F8F00BFFDE70CED00E00400FA051A
:10479000154914480968B0F870008A7B00B2002AF5
:1047A0001FD1097D00291CD110494A6892F82210B6
:1047B00092F82120914214D051B101290BD0022945
:1047C0000CD003290DD148F66471064800F030BFC3
:1047D0004CF66471F9E740F66471F6E744F66471EB
:1047E000F3E770476C0300200451002038020020DA
:1047F00070B50D4C0025C4F8B4520C48016821F086
:1048000040410160016841F080410160C4F8BC5240
:10481000022004F52D7404F0A5FC01202060022084
:1048200004F0A0FC256070BD0080404200040240FE
:1048300070B50D4C0025C4F8B4520C48016821F045
:1048400040410160016841F0804101600126C4F8E7
:10485000BC62022004F52D7404F084FC2660022062
:1048600004F080FC256070BD0080404200040240DE
:104870002DE9F047814616480024016821F04041A7
:10488000016001680160134E254627464FF001087C
:10489000C6F8B472022004F065FCC6F8B482600663
:1048A000040ED6F83C0208B1641CE4B2012004F006
:1048B00059FC6D1CEDB2082DEAD3B9F1000F04D0FC
:1048C000FFF796FF2046BDE8F087FFF7B1FFF9E755
:1048D00000040240008040422DE9F04106461448A1
:1048E000016821F040410160016841F080410160B0
:1048F000104C0027C4F8B4723D464FF00108F0098F
:10490000C4F8BC027006060E022004F02BFCC4F8AA
:10491000B482022004F026FCC4F8B472022004F031
:1049200021FC6D1CEDB2082DE9D3BDE8F08100003B
:10493000000402400080404270B50D48016821F03B
:1049400040410160016841F080410160094C012053
:10495000C4F8BC02C4F8B402042004F52D7404F0B9
:1049600001FC0025A560042004F0FCFB256070BD5F
:1049700000040240008040420E4810B5016821F05A
:1049800040410160016841F0804101600A4C002013
:10499000C4F8B402C4F8BC02042004F52D7404F079
:1049A000E1FB01202060A060BDE81040042004F07D
:1049B000D9BB0000000402400080404270B512489C
:1049C0000024016821F040410160016801600F4D41
:1049D0000126C5F8BC62304604F0C4FBC5F8B462D9
:1049E000012004F0BFFB07E0641CE4B2FA2C03D9F9
:1049F000FFF7C2FF012070BDD5F83C020028F3D1BB
:104A0000C5F8B40270BD00000004024000804042BE
:104A1000F0B5484A0024A0F54070936806289C80B1
:104A20006FD2DFE800F01903376F6E7350680388A8
:104A3000438050680B8883818B7880F82330B1F8ED
:104A400003308384B1F805300380506810F8333F99
:104A50004370C979017052E050680B8883805068B8
:104A60004B88C3818B8803828B7980F8293090F83A
:104A7000223080F82130C97980F822102E49096847
:104A80004B7A012B3BD1097B012938D1042180F8D5
:104A9000291034E027480B78DFF8A0C0001F284F0A
:104AA000012B02D0022B14D025E05668D1F801303A
:104AB00073611D461F4B1B1F65451B7801DBDB1E09
:104AC00002E0BD4201DC5B1C0370C87986F832004D
:104AD00011E05368D1F801509D61654502DB4578CE
:104AE000ED1E04E05D69BD4202DC45786D1C457039
:104AF000C87983F832005068B1F80110818190685C
:104B00008480F0BD50680968C161F8E750680B788F
:104B100000F82A3F4A7842708A788270CA78C27058
:104B20000A7902714A7942718A798271C979C171AF
:104B3000F0BD0000380200200C0000200000E4411D
:104B40000000DC41F7EE001A21EE000A31EEC11A36
:104B500001EE200A704700002DED048B9FEDE18BE4
:104B6000DFF88883E24CE34FE34DE14801F054F96C
:104B7000287820B1D8F80400807860B10DE040F6C4
:104B80007830608041F65620208041F2EB50A081C1
:104B900041F6C870608101202870787806280CD012
:104BA00008284DD00A287DD005287CD000287BD04D
:104BB00007287AD0022879D006E1D8F80060B6F943
:104BC000020009F0CCFB53EC182B09F0F3FB09F0C1
:104BD00097FB6188421862809246B6F9000009F09E
:104BE000BEFB53EC182B09F0E5FB09F089FB21888B
:104BF000421822809146B6F9060009F0B0FB53EC4A
:104C0000182B09F0D7FB09F07BFBA1894218A28180
:104C10009346B6F9040009F0A2FB53EC182B09F0F7
:104C2000C9FB09F06DFB61890144B4486181A0F8BA
:104C30007AA0A0F87890A0F880B0A0F87E106DE07F
:104C4000AF480668B07B012841D0D8F80090B9F988
:104C5000020009F084FB53EC182B09F0ABFB09F0C0
:104C60004FFB618808446080B9F9000009F077FBC8
:104C700053EC182B09F09EFB09F042FB21880844F5
:104C80002080307D012828D0D8F80060B6F90600D1
:104C900009F065FB53EC182B09F08CFB09F030FB95
:104CA000A18904E01FE03BE083E096E0AEE0084429
:104CB000A081B6F9040009F052FB53EC182B09F05F
:104CC00079FB09F01DFB6189084460817CE0B6F83E
:104CD0000B006080B6F80900D2E7B6F81100A08199
:104CE000B6F80F00F1E728896421B0FBF1F201FB6F
:104CF0001201401C2881608860802088322906D3F8
:104D00000A382080A089A08160890A3089E00A30B1
:104D10002080A089A08160890A3882E0012051E0CA
:104D2000774890F82210012938D0D8F80060B6F9F9
:104D3000020009F014FB9FED739B53EC192B09F053
:104D400039FB09F0DDFAA1890844A081B6F9000019
:104D500009F005FB53EC192B09F02CFB09F0D0FAF4
:104D6000618908446081B6F9060009F0F8FA53EC4D
:104D7000192B09F01FFB09F0C3FA61880844608011
:104D8000B6F9040009F0EBFA53EC192B09F012FB09
:104D900009F0B6FA218808442080BFE70068B0F81F
:104DA0000B10618030F8091F21800189A181C08822
:104DB00037E0208B6080E08A2080E08BA081A08B90
:104DC000608100202072A074B4F90A004FF40051F1
:104DD000884228DBA0F5005029E0454802F098F809
:104DE000434801F073F8424802F0B4F8404801F03B
:104DF0008FF846480068B0F57A7F8FD8444800782D
:104E000000288BD041F6C870208008E041F2EB50BA
:104E1000608041F6C870208040F67830A08141F66D
:104E2000562060817AE7002802DA00F500506081A0
:104E3000B4F90C2040F67A50824203DA40F60410AE
:104E4000824200DCA081B4F90000884202DBA0F5B8
:104E5000005003E0002802DA00F500502080B4F989
:104E6000021041F63800814203DA41F20B20814200
:104E700000DC6080B4F90A0040F2DB51A0F6B342D6
:104E80008A4203D240F6B240608108E0B5F90410CE
:104E9000884204DC41F28E22904200DB6181B4F949
:104EA0000000B5F90210884204DBB0F5F36F01DCB5
:104EB000218008E040F20361A0F5F360884202D847
:104EC00040F69B5020807878072803D0052801D031
:104ED0000120E880064800F01DF8042005F0F6FCEB
:104EE00043E60000FCA9F1D24D6280BF0C00002017
:104EF000A050002029000020D40100206C030020D5
:104F0000045100207B14AE47E17A74BFA801002051
:104F10009401002000B5018889B0090A8DF80010BD
:104F200001788DF80110418808AB090A8DF802104C
:104F300081788DF8031041896A46090A8DF80410BA
:104F4000817A8DF805108189090A8DF80610007B99
:104F50008DF80700F12002900020049005900820B1
:104F6000069002A90248FDF7FFFB09B000BD000052
:104F70005C0900202DE9F05F734C206806F040FAD0
:104F8000206803F05EF9206803F0A6F92668DFF8D0
:104F9000BCC1F07A377BB84206D0022F04D19CF80E
:104FA000001049428CF80010B84206D0012F04D1FD
:104FB0009CF8010040428CF8010060680025022145
:104FC00084786348634A644B012C09D0634C657252
:104FD000E57482F82A1083F82A104570BDE8F09F26
:104FE00096F809800124DFF878B14FF0030A4FF4F6
:104FF0002579B8F1020F1ED0B8F1030F4FD0B8F1E8
:10500000010FEBD10524DFF85CC14FF00A094FF026
:105010000708032F69D0012F75D0022FDED144700D
:1050200082F82A5083F82A50B07C032875D00128D2
:10503000D4D1186840E082F82A1083F82A10327B15
:10504000012A0DD0022A0ED0032AC7D19CF80210E3
:105050004170B6F9100058451BD18CF802A0BDE78D
:1050600004214170BAE74170B17C032901D00129C4
:10507000B4D1457000F00EFA00231A4619461846BE
:1050800000F0DEF81420FEF747F984F3138801F0EE
:10509000AFFF4845A2D109208CF802009EE74FF0EF
:1050A000060C012F05D0032F0CD0022F96D1082417
:1050B00024E080F801C0B3E700684169A1F5104120
:1050C00041618BE780F801C0B6F91000484503D173
:1050D00082F82A4083F82A40B6F910005845BED11C
:1050E00082F82A1083F82A1078E7DCF800506D78EF
:1050F000012D03D0022D03D00CE004E04470EFE753
:1051000080F80190ECE7184D44706D6895F82950CF
:10511000042D03D080F80180E2E712E082F82AA093
:1051200083F82AA0DCF800104978012904D002296C
:1051300004D080F8018051E744704FE780F8019077
:105140004CE71068B8E700000C000020DE010020EA
:105150002900002098520020C4520020A0500020B6
:105160006CFDFFFF045100203802002030B50468B8
:105170001C49238811F81C2F228004681202228007
:105180004D7804682A43228004688A786280046823
:1051900012026280CD7804682A43628004680A792A
:1051A000A28004681202A2804D7904682A43A2807A
:1051B00002688979D18002681188C91A09B25181BF
:1051C000006801F58052B2F5005F09D9002901DDC0
:1051D000012201E04FF0FF32524201EB42314181A6
:1051E00030BD0000584B0020426811784B1C1370F2
:1051F00042685378994205D3002191704068417804
:105200000170704701209070704770B504460160CE
:10521000084615462021FBF711FA00206560A870AA
:1052200062681921117062685170208121680882BA
:1052300021680880216848612168C86170BD00004C
:1052400010B58AB0040A8DF800408DF80100080AF4
:105250008DF80200100A8DF804008DF80520180A58
:105260008DF806004FF4007002908DF803100020B6
:105270008DF80730049005900820069008AB6A4628
:1052800002A90248FDF770FA0AB010BD34090020E7
:1052900000B589B0020A8DF800208DF80100080AD7
:1052A0008DF802000F488DF8031008AB017A8DF8D5
:1052B0000410817C8DF80510417A8DF80610C07CB1
:1052C0008DF807004FF400700290002004900590C4
:1052D000082006906A4602A90348FDF745FA09B07E
:1052E00000BD0000A05000205C09002010B513494B
:1052F000036811F81C2F1A80036812021A804C7878
:10530000036822431A8003688A785A80036812026D
:105310005A80CC78036822435A8003680A799A80BD
:10532000036812029A804C79036822439A800268CB
:105330008979D18040680021017010BD344B002074
:10534000426811784B1C137042685378994205D318
:105350000021917040684178017070470120907081
:10536000704770B504460160084615460E21FBF7EC
:1053700043F900206560A8706268192111706268A5
:105380005170208170BD00000848426811784B1CA4
:10539000137042685378994204D313704068002117
:1053A000817070470120907070470000EC0200206F
:1053B00010B5DFED210A4FF47A732DED028BB0EEBC
:1053C000601A9FED1E0A5A0003211D4800F056FD89
:1053D0009FED1C8A1A4841F28834B0EE001AF0EEB4
:1053E000480A9FED190A0023224603216C3000F081
:1053F00045FD1348B0EE001AF0EE480AB9EE040A73
:10540000002322460321D83000F038FD10490F4810
:10541000104A114B81E80D0003688360B0F9043035
:10542000C36019201070507000209070C86008612F
:10543000BDEC028B10BD0000000000009A9999BFDE
:10544000545100206F12833A666666BFF403002051
:10545000EC020020140000201700002070B50B4C57
:10546000A121002521736573A573E5732074000ADB
:105470006074A574E57404F10C0240F24111044813
:10548000FBF716FDE560256170BD0000EC02002011
:10549000340900200020FFF7E1BF000010B5184CD0
:1054A0001648216880888880206890ED020AC08AAA
:1054B000F8EE400A00EE100A1248B8EE400A05F075
:1054C000E3FBBDEEC00A206880ED030A2068F8EE19
:1054D000C00AB0F9040000EE100A0A48B8EEC00A8B
:1054E0006C3805F029FABDEEC00A216810EE100AEA
:1054F00000B20882BDE81040FFF7B0BF44020020B0
:10550000EC020020C051002070B51C481D4C2DED50
:10551000028BB0F904501A4890ED008A2068806828
:1055200008F034FF9FED180B53EC102B08F042FFEE
:1055300008F06CFC00EE900AB0EE480A144805F042
:10554000DDFABDEEC00A206880ED030AF8EEC00A5D
:1055500000EE105A0E48B8EEC00AD83805F0ECF943
:10556000BDEEC00A216810EE100A00B20882BDEC40
:10557000028BBDE87040FFF771BF000044020020BD
:10558000E8000020EC020020000000000000C03F06
:105590002C52002070B5174C15482168B0F9045002
:1055A000B0F9000091ED020AF8EE400A00EE100A90
:1055B0001148B8EEC00A05F0A1FABDEEC00A206895
:1055C00080ED030AF8EEC00A00EE105A0A48B8EE61
:1055D000C00AD83805F0B0F9BDEEC00A216810EE57
:1055E000100A00B20882BDE87040FFF737BF000024
:1055F00044020020EC0200202C52002070B50A4C1E
:105600008820002520736573A573E5732574657480
:10561000A574E57404F10C0240F241110348FBF754
:1056200047FCE560256170BDEC02002034090020D4
:1056300000680068C08A081A0849B1F9001000EB38
:10564000C10010F5004F02DA00F5803004E0B0F53B
:10565000004F01DDA0F5803000B270474402002009
:1056600010B52E49027800234C68942A23703BD051
:1056700018DC302A03D0312A01D0322A11D18B68AC
:1056800082781A708B68C2785A708B6802799A7027
:105690008B684279DA708B6882791A718968C0796F
:1056A000487110BDA12A01D0A22AFAD10B68427814
:1056B0009A74C2780B6812029A82847822439A8282
:1056C00042799A800B6812029A8004790B6822430F
:1056D0009A80C3790A684FF6FF7101EA0321D182EB
:1056E00080790143D18210BD0B68C2791A600B68C2
:1056F00012021A6084790B6822431A600B68120246
:105700001A6044790B6822431A600B6812021A600F
:105710000968007902430A6010BD0000EC02002015
:1057200070B50546FFF708F90F4C20784006000ECB
:10573000FFF7D2F8FFF742F92846FFF7CDF8FFF759
:105740003DF9FFF7F9F82078012101EB4000C0B2E4
:10575000FFF7C2F8FFF732F90020FFF789F8044697
:10576000FFF70AF9204670BD3C0100202DE9F04109
:1057700016460D460746FFF7DFF8134C2078400623
:10578000000EFFF7A9F8FFF719F93846FFF7A4F85C
:10579000FFF714F9FFF7D0F82078012101EB400062
:1057A000C0B2FFF799F8FFF709F9002406E00120DD
:1057B000FFF75EF8641C05F8010BE4B2B442F6D3BF
:1057C000BDE8F041FFF7D8B83C0100207FB50024C8
:1057D00015480094019402941249039401604FF417
:1057E0008031C0E901140461047680F820400F493B
:1057F000C0E90A140125C561C46080F830404561E4
:10580000FCF746FF08B1FCF7E3FC0A20CDE90005F0
:10581000694602940448FCF795FE002801D0FCF785
:10582000D7FC7FBD00200140EC0800200100000FE4
:10583000104810B50E4901600321416000214FF46A
:1058400000228160C0E903124FF4401242610176E8
:1058500041768176C176017701214177FDF7EBF939
:10586000002803D0BDE81040FCF7B2BC10BD00001A
:105870000064004034090020104810B50E49016052
:105880000321416000214FF400228160C0E903122E
:105890004FF440124261017641768176C1760177FC
:1058A00001214177FDF7C7F9002803D0BDE810407A
:1058B000FCF78EBC10BD0000006800405C090020B1
:1058C0001CB500240C4900940A480194086008465D
:1058D000FDF724FB08B1FCF77BFC0220CDE900407A
:1058E000002269460448FDF7F8FA002801D0FCF7C9
:1058F0006FFC1CBD0074004084090020254808B5D9
:10590000016841F400110160016801F40011009187
:10591000016841F4800101600068002200F4800009
:10592000009011460B20FDF789FE0B20FDF778FE55
:10593000002211460C20FDF781FE0C20FDF770FEC1
:10594000002211460D20FDF779FE0D20FDF768FEBF
:10595000002211460E20FDF771FE0E20FDF760FEBD
:10596000002211461020FDF769FE1020FDF758FEB9
:10597000002211462F20FDF761FE2F20FDF750FE7B
:10598000002211463A20FDF759FEBDE808403A20B2
:10599000FDF746BE3038024010B5B8B01C222C4985
:1059A0006846FAF7F7FD0021684604F09BFF294C92
:1059B00027491C2220601C3107A8FAF7EBFD0021C3
:1059C00007A804F08FFF224960601C2238310EA81E
:1059D000FAF7E0FD00210EA804F084FF1C49A06046
:1059E0001C22543115A8FAF7D5FD002115A804F0A2
:1059F00079FF1749E0601C2270311CA8FAF7CAFD34
:105A000000211CA804F06EFF114920611C228C317A
:105A100023A8FAF7BFFD002123A804F063FF0C4977
:105A200060611C22A8312AA8FAF7B4FD00212AA837
:105A300004F058FF0649A0611C22C43131A8FAF7CE
:105A4000A9FD002131A804F04DFFE06138B010BD80
:105A50002CEA00082C0000202DE9F04F87B014211B
:105A60006846FAF7EBFD43480024016841F0040161
:105A70000160016801F004010591016841F08001B5
:105A80000160016801F080010591016841F00101A8
:105A90000160016801F001010591016841F0100108
:105AA0000160016801F010010591016841F00201F7
:105AB0000160016801F002010591016841F00801EF
:105AC00001600068DFF8B09000F008004FF4D8459E
:105AD0000590012229464846FDF713FD00220821C2
