:020000040800F2
:10000000805700202902000895490008953900080A
:1000100091490008210600086D5400080000000006
:10002000000000000000000000000000B14B0008CC
:10003000A508000800000000014A00086D4C0008F7
:10004000430200084302000843020008430200087C
:10005000430200084302000843020008430200086C
:100060004302000843020008430200082108000878
:100070002D08000839080008450800084302000858
:100080005108000843020008430200084302000828
:100090006506000843020008430200084302000806
:1000A000430200084302000843020008430200081C
:1000B000B94C00084302000843020008430200084C
:1000C00043020008430200084302000843020008FC
:1000D0004302000815500008B1500008B152000852
:1000E00043020008430200084302000843020008DC
:1000F0004302000843020008430200085D080008AC
:1001000043020008430200084302000843020008BB
:10011000014E00080D4E000843020008430200088B
:10012000430200084302000869080008430200086F
:10013000430200084302000843020008430200088B
:100140003107000843020008430200084302000888
:10015000430200084302000843020008430200086B
:10016000430200084302000843020008430200085B
:100170004302000843020008430200080000000098
:10018000430200084302000800F002F800F03CF8C7
:100190000AA090E8000C82448344AAF10107DA45E2
:1001A00001D100F031F8AFF2090EBAE80F0013F0F8
:1001B000010F18BFFB1A43F001031847282901005B
:1001C00048290100103A24BF78C878C1FAD85207EC
:1001D00024BF30C830C144BF04680C6070470000C1
:1001E0000023002400250026103A28BF78C1FBD840
:1001F000520728BF30C148BF0B6070471FB510F0D1
:1002000066FB1FBD10B510BD00F0BCF81146FFF72E
:10021000F5FF0BF0B5F800F0DAF803B4FFF7F2FFE2
:1002200003BC00F0DDF8000009488047094800479A
:10023000FEE7FEE7FEE7FEE7FEE7FEE7FEE7FEE796
:10024000FEE7FEE704480549054A064B70470000F3
:100250009D4C000889010008805100208057002033
:10026000805300208053002053EA020C00F0698084
:100270002DE9F04B4FF00006002B1FBFB3FA83F5BA
:1002800003FA05F424FA05F65E4012BF1643B2FAEB
:1002900082F502FA05F4C5F120051EBF22FA05FC1D
:1002A00044EA0C04203556EA044C4FEA144418BFC3
:1002B000641C4FF000084FF00009904271EB030CF2
:1002C00039D3002919BFB1FA81F701FA07F6B0FA5C
:1002D00080F700FA07F6C7F120071EBF20FA07FCD7
:1002E00046EA0C062037B6FBF4FCA7EB0507103FE7
:1002F00007F01F0BCBF120062CFA06F60CFA0BFBCD
:1003000044BFB3460026202FA4BF5E464FF0000B2B
:100310005BEA060C08BF4FF0010B19EB0B0948EB29
:100320000608ABFB027C06FB02CC0BFB03CCC01B1C
:1003300071EB0C01C1E70B46024641464846BDE859
:10034000F08B13B5084318BF4FF0FF300146AFF3F1
:100350000080BDE81C40704770477047704710B57B
:1003600000F008F8006810BD10B5044600F002F86F
:10037000046010BD004870474800002000487047E6
:10038000480000207546FFF7F9FFAE4605006946B4
:10039000534620F00700854618B020B5FFF752FFFE
:1003A000BDE820404FF000064FF000074FF0000876
:1003B0004FF0000BAC46ACE8C009ACE8C009ACE8B3
:1003C000C009ACE8C00921F007018D46704710B59F
:1003D0000446AFF300802046BDE81040FFF71DBF84
:1003E00001491820ABBEFEE726000200704700005E
:1003F00070470000B0B58EB040F26034C2F2000425
:10040000204606F0A5FF05F073F8204605F030F809
:10041000044605F06DF8002C70D140F26034C2F251
:10042000000401250DF10300012122468DF803503F
:1004300007F050F805F05CF801A8012122468DF87C
:10044000045005F08BF905F053F8042002212246F0
:1004500006F0A2FF044605F04BF88CB94FF4037088
:10046000ADF806004FF4807040F26032ADF80A003B
:10047000C2F2000201A801218DF8085007F03AFEEF
:1004800040F26034C2F2000400250DF103000121A6
:1004900022468DF8035007F01DF805F029F801A851
:1004A000012122468DF8045005F058F905F020F896
:1004B00004200121224606F06FFF044605F018F8DB
:1004C0006CB940F20C20C0F2010040F26032CDF86D
:1004D0000600C2F2000201A8012107F00BFE022073
:1004E00040F260328DF80300C2F200020DF1030009
:1004F000012106F0EFFF044604F0FAFF40F2CA3192
:10050000C2F20001002220460A720EB0B0BD000007
:10051000F0B583B040F2CA37C2F20007387A60B94A
:1005200040F2C830C2F20000B0F900104A1CB1F528
:100530007A7F0280C4BF0120387269460C200C22E9
:1005400003F064FDBDF8000040F25636C2F200062A
:10055000BDF80210308040F25830C2F20000BDF801
:100560000420018040F25A30BDF80850C2F2000069
:1005700040F20246BDF80630028040F20040C2F26E
:100580000006BDF80A40C2F20000358040F2044582
:100590000380C2F20005B91C3846002200232C80DB
:1005A0000AF07EFFB6F9000040F2080400EE100ADF
:1005B000B7F90400C2F2000402EE100A94ED051A25
:1005C000B8EEC00AF8EEC20A03F0B2FBBDEEC00AF4
:1005D00010EE100AB5F90010B880B7F9060000EE69
:1005E000101A02EE100A94ED041AB8EEC00AF8EEE2
:1005F000C20A03F09DFBBDEEC00A10EE100AF8809F
:1006000003B0F0BD40F27C74C2F20004FFF780FF3B
:10061000204601F017FC01200BF0C0F9F6E70000BE
:10062000FEE7000010B58AB040F2544400200121DA
:10063000C2F200040690CDE90400CDE90200CDE944
:100640000000CDE9071109906946204600F0AEFC94
:100650002046022100F032FC204601F01FF80AB0CB
:1006600010BD000040F25440C2F2000000F0A0BDF6
:10067000A0F20120052888BF70470FF20601DFE8CD
:1006800000F0030D1735212B40F2DC10C2F2000000
:10069000416800220A7003F0D5BB00BF40F2D010C1
:1006A000C2F20000416800220A7003F0CBBB00BF19
:1006B00040F20420C2F20000416800220A7003F0F8
:1006C00043BB00BF40F2C820C2F2000041680022D4
:1006D0000A7003F061BC00BF40F2E020C2F20000EB
:1006E000416800220A7003F057BC00BF7047000049
:1006F00010B58AB040F27C4400200121C2F200040F
:100700000690CDE90400CDE90200CDE90000CDE975
:10071000071109906946204600F048FC2046022156
:1007200000F0CCFB204600F0B9FF0AB010BD00007D
:1007300040F27C40C2F2000000F03ABDB0F5007F0C
:100740000A4602D0F12818BF704740F23031C2F299
:10075000000100F0C5B9000040F60004C4F2020434
:1007600040F6786640F2D83740F23038C2F20006E0
:10077000C2F2000704F58065C2F2000817E000BF6E
:1007800028464FF4007101F01DFB2046022101F0C4
:1007900019FB2046042101F015FB2046082101F039
:1007A00011FB64200BF0FAF801200BF0F7F896F833
:1007B0002E10B87F51EA0002E2D069B1E0B198F89A
:1007C00022004FF400710028284614BF01220022A5
:1007D00001F000FBE8E700BF28464FF4007101F08C
:1007E000F1FA2046022101F0EDFA2046042101F041
:1007F000E9FA4FF4FA70D5E728464FF4007101F09A
:10080000E1FA2046022101F0DDFA4FF47A70C9E7DF
:1008100040F2C840C2F20000002100F0E7BF000033
:1008200040F23C50C2F2000001F066B840F2BC60F9
:10083000C2F2000001F060B840F2DC40C2F20000F9
:1008400001F05AB840F21C70C2F2000001F054B836
:1008500040F25C60C2F2000001F04EB840F29C50E1
:10086000C2F2000001F048B840F2FC50C2F20000B1
:1008700001F042B880B504F09FF8FFF7B9FDFFF72B
:10088000C7FF04F0CDFB04F019FC04F017FD04F0E1
:100890005DFD04F0A3FDFFF7C5FEBDE88040FFF756
:1008A00027BF0000704700007047000010B50446E5
:1008B000C068B3EE0E1A90ED090A9FED395AB0EEFA
:1008C000C00A9FED366AB3EE043AB4EE410AF1EE87
:1008D00010FAB0EE434AB0EE457AB4EE410AB0EEFB
:1008E000460A9FED2D2AC8BFB0EE424AC8BFB0EEFF
:1008F000467AF7EE000AF1EE10FAC8BFB0EE600AD1
:1009000080ED017A80ED020A216980ED004A91EDC7
:10091000090AB0EEC00AB4EE410AF1EE10FAC4BF03
:10092000B0EE465AB0EE606A81ED015A81ED026A7E
:1009300062681268C8BFB0EE423A81ED003AB4F97D
:100940002C10B2F90220494200EE102A01EE101AD2
:10095000B8EEC00AF8EEC10A0BF05CF8D4E9012148
:10096000BDEEC00A096810EE100AB1F9021010813C
:1009700000EE101AB4F92C10206901EE101AB8EE2E
:10098000C00AF8EEC10A0BF045F8BDEEC00AA06837
:1009900010EE101A018110BD00002042000000007E
:1009A0000AD7233C40F2CA3540F2303640F2D83400
:1009B00040F2283740F2380841F23069C2F20005AF
:1009C000C2F20006C2F20004C2F20007C2F200083E
:1009D000C1F6060903E000BF01200AF0DFFF00F0C6
:1009E00041F8287A012807D130684FEA3040206268
:1009F00020460AF02BFB19E094F8240001280FD0C0
:100A0000022813D120680068018869B1616809680B
:100A10000988A8F802100088A8F8000006E000BFC6
:100A20002868C8F8000001E0C8F800903868411C48
:100A3000C0073960D0D0002000210022002303F03D
:100A40007BFAC9E701684968897839B14168496822
:100A50008978002918BF01218177704700218177AB
:100A60007047000080B540F2C820C2F2000003F0D9
:100A7000B1FA40F2E020C2F2000003F0ABFA40F21B
:100A8000D830C2F20000BDE88040FFF7DBBF0000B5
:100A900040F2303440F2D83540F67866C2F20004B5
:100AA000C2F20005C2F20006204603F03FFFA87F15
:100AB00096F82E100138B0FA80F040092075481ED3
:100AC000B0FA80F040096075D5E900010068096856
:100AD0000088098820830120E1820AF05FFFE3E7B4
:100AE000B0F5007F1CDAF12836D040F2FF139842AF
:100AF0005CD110780302CB82537843EA0020C8828D
:100B0000907803020B83D37843EA0020088390791E
:100B10000875D0794875002081F82000704700BF23
:100B20003CD040F2FF23984218BF704790780302F0
:100B30008B83D37843EA0020888310790302CB8328
:100B4000537943EA0020C88390798876D079C876B3
:100B5000002081F823007047107803020B8053783F
:100B600043EA00200880907803024B80D37843EA60
:100B700000204880107903024B81537943EA00201A
:100B80004881907903028B81D27942EA00208881E2
:100B9000002081F8200081F8230070471079087246
:100BA0005079887490794872D079C8747047000081
:100BB00070B581B00022009290F83C20012A03D148
:100BC0000221084601B070BD0E6801220A2E80F88D
:100BD0003C2009D3B2B25200D0F800E012FA86F2FB
:100BE0001E3A0EF10C0305E0D0F800E006EB4602D9
:100BF0000EF110034FF0070C1D680CFA02F4A54328
:100C00001D608D681C6805FA02F222431A6049686B
:100C100006290FD801EB81014A1F71461F2351F8A5
:100C2000345F934025EA03030B60B3B203FA02F288
:100C300014E000BF01EB81030C29B2B204D8714665
:100C400051F8304F233B03E0714651F82C4F413BA4
:100C50001F259D4024EA05059A400D600B6842F26D
:100C6000043CC4F2010C1A43ACF541739E450A6082
:100C70003BD1122E06D1DCF8001041F48001CCF8F3
:100C8000001032E026F0010110292ED1DCF800100E
:100C9000102E41F40001CCF8001026D140F24001A2
:100CA000C2F2000109684DF68362C4F21B32A1FB57
:100CB0000212910C01EB8101490000910099A1B150
:100CC000009901390091009979B100990139009199
:100CD000009951B1009901390091009929B1009909
:100CE0000139009100990029EAD1002180F83C10D7
:100CF000084601B070BD0000002804BF0120704705
:100D000010B50446006C00283ED0206CC00645D4C7
:100D1000206C41F202118843023042F20431206417
:100D2000C4F20101086820F4403008600A6894E8C1
:100D300009101A43D4F810E00A604168012321F435
:100D4000807141604168C0F6007341EA0E21416044
:100D5000416821F040714160416841EA0C01416005
:100D6000816821F400618160E168826811438160DB
:100D7000A16A8268994222F070628260826813D10F
:100D800022F0405119E000BF204600F065F8002035
:100D9000606484F83C00206CC006B9D501200021B5
:100DA00084F83C1010BD00BF11438160816821F0C0
:100DB00040518160E16A826811438160816821F05D
:100DC000020181608168227E94F8203041EA42016C
:100DD0008160416883B141F40061416041684EF235
:100DE000000221F460414160616ACFF6FF724368FE
:100DF00002EB4131194301E021F400614160C16A15
:100E000040F2000C21F47001C162E2696169CFF621
:100E1000F07CC36A0CEB02521A43C262826822F46D
:100E20000072826094F83020836843EA4222826034
:100E3000826822F480628260826842EA8121816055
:100E400000206064216C012262F301012164002111
:100E500084F83C1010BD000080B586B042F200015D
:100E60000068C4F20101002288420592049201D078
:100E700006B080BD43F630000092C4F20200436920
:100E800043F480734361436903F480730093009BD0
:100E90000092036843F004030360006800F004005C
:100EA00000900098012001900320CDE9020201F595
:100EB000684001A900F0B2FE06B080BD90F8202085
:100EC000013A012A08D8006800F1140200201368D2
:100ED00019431160704700BF00F1240201204FF454
:100EE00080211368194311607047000010B590F815
:100EF00020E0D0F800C0AEF1010EBEF1010FDCF829
:100F000008E011D81EF0E05F18D0CEF3016EBEF1FC
:100F1000030F1DD100F1240101204FF400020B68E2
:100F20001A430A6010BD00BF00F1240101204FF4F4
:100F300080220B681A430A6010BD00BF00F1240133
:100F400001204FF400120B681A430A6010BD00BF65
:100F5000012000FA0EF01860886828B14B68CC6850
:100F600044EAC303034303E00868CB6843EA405301
:100F70000CEB0E10C0F880310B69C0F88431097D8C
:100F8000012905D100F5C2710B6843F480730B6031
:100F90005168C0F88C11126800F5C071C0F8882142
:100FA000002001220B681A430A6010BDB0B590F80A
:100FB0002020013A012A2FD846F20060C4F2000036
:100FC000026842F001020260026822F47C52026070
:100FD000D1F814E0CC694A6A0368012C43EA022282
:100FE00002600EF01F024FF0010303FA02F2C36920
:100FF0006FEA020C23EA0203C36113D02CBBC3685F
:1010000003EA0C03C360CB688C8844EA034300EB1B
:10101000CE0423640B4611E0416A41F48021416211
:101020000120B0BDC3681343C3600B688C8844EAD9
:10103000034300EBCE04236401F10C038C681B888E
:1010400043EA044300EBCE04636443688D6943EADA
:101050000204D1F810E0096A002D08BF03EA0C046D
:1010600044604369BEF1000F43EA020408BF03EA8B
:101070000C040129446102D1C1691143C1610168B5
:1010800021F0010101600020B0BD000070470000A8
:1010900010B590F82040013C012C71D8D0F800C068
:1010A000002977D0DCF81040A40777D00CEB011CA6
:1010B000DCF8B0410CF5D87E14F004049460DCF840
:1010C000B04119BFE4085460640D1460DEF80040BC
:1010D000002904F00204D460DCF8B44104F00F04E9
:1010E0001461DCF8B441C4F307249461DCF8B44122
:1010F0004FEA14445461DCF8B8211A70026802EB1C
:101100000112D2F8B8214FEA12225A70026802EB9B
:101110000112D2F8B8214FEA12429A70026802EB2B
:101120000112D2F8B8214FEA1262DA70026802EBBB
:101130000112D2F8BC211A71026802EB0112D2F836
:10114000BC214FEA12225A71026802EB0112D2F856
:10115000BC214FEA12429A71026802EB0112D2F8E6
:10116000BC214FEA1262DA71006814BF00F110016D
:1011700000F10C01002020220B681A430A6010BD08
:1011800000F1240101204FF480220B681A430A6009
:1011900010BD00BFDCF80C40A40787D100F124018A
:1011A00001204FF400120B681A430A6010BD0000C2
:1011B0002DE9F04F81B0044600684669D0F80490EC
:1011C0008768D0F80CB0D0F810A0D0F81880F107DC
:1011D00004D1002530071DD424E000BFF90710D04A
:1011E0000121BA07816009D4780700F1AF80380780
:1011F00000F1B680204600F07FFA02E0204600F0C1
:101200007DFA0025F80500F18780F80300F1B18030
:10121000300707D51BF0100004D0206845F4007596
:101220001021C160700708D51BF0080005D02068A8
:101230000821C160204600F0F5F9B00706D5206806
:10124000C068800702D0204600F0EEF9700607D58E
:101250001AF0100004D0206845F480651021016167
:10126000B00608D51AF0080005D0206808210161F1
:10127000204600F00DFAF00606D5206800698007C8
:1012800002D0204600F006FAB00308D519F010008D
:1012900005D0206810214160204600F0FDF9F003E0
:1012A00008D519F0080005D02068082141602046C3
:1012B00000F02EFA300440F19B805FEA497040F163
:1012C000948006F4807008EA102028435FEA887151
:1012D000014648BF41F00201B20558BF01465FEA2E
:1012E00048700D4648BF45F00405700558BF0D46CF
:1012F000300540F17A8018F0700000F076801038E8
:10130000000905286CD8DFE800F003595D616569C4
:1013100045F0080564E000BF20684FF48071BA050D
:1013200081600BD4780515D438051DD4204600F013
:10133000E7F9F8037FF56CAF1BE000BF204600F033
:10134000E1F9F8037FF564AF13E000BF4FF40065E7
:1013500058E700BF05F50055F8037FF559AF08E0E1
:101360004FF480554EE700BF05F58045F8037FF543
:101370004FAF20684FF48031BA0381600AD47803FC
:1013800010D4380314D4204600F0BEF930073FF5DE
:1013900041AF47E7204600F0B9F930073FF53AAFD3
:1013A00040E700BF05F5004530073FF533AF39E7AB
:1013B00005F5803530073FF52DAF33E745F01005D3
:1013C0000EE000BF45F020050AE000BF45F04005F3
:1013D00006E000BF45F0800502E000BF45F48075DF
:1013E0002068816921F070018161206804214160D9
:1013F00055B1606A40EA05012046616201B0BDE86E
:10140000F04FFFF743BE00BF01B0BDE8F08F000012
:10141000B0B5C8B1044690F8200010B9204600F0DD
:1014200071F82068016841F00101016000F0D8FC0A
:10143000054600BF20684168C90707D100F0D0FC0D
:10144000401B0B28F6D312E00120B0BD016821F04B
:101450000201016000F0C4FC054600BF206841683D
:1014600089070DD500F0BCFC401B0B28F6D3606A41
:10147000052140F400306062012084F82010B0BDE6
:10148000217E0268012922F0800208BF80320260BA
:10149000617E0268012922F0400208BF40320260EA
:1014A000A17E0268012922F0200208BF20320260DA
:1014B000E17E0268012922F0100218BF103202609A
:1014C000217F0268012922F0080208BF0832026069
:1014D000617F0268012922F0040208BF0432026021
:1014E000D4E901C2D4E9033561691A432A4311439F
:1014F000ACF101021143C16100200121606284F856
:101500002010B0BD10B586B0006846F60002C4F2E7
:10151000000200219042CDE90411CDE902110191B0
:1015200034D046F20041C4F20001884277D140F243
:101530002C31C2F200010A6843F64000C4F20200F6
:10154000531C0B6052B900210091016841F00071F9
:101550000160016801F00071009100990021009183
:1015600050F8101C142441F0080140F8101C50F8E9
:10157000100C032100F008000090009840F2004099
:10158000C4F2020000F5006035E000BF43F6400001
:10159000C4F202000091016841F0806101600168BD
:1015A00001F080610091009940F22C31C2F20001FB
:1015B0000A68531C0B6052B900210091016841F088
:1015C00000710160016801F0007100910099002133
:1015D000009150F8101C402441F0020140F8101C0A
:1015E00050F8100C602100F002000090009840F2CA
:1015F0000040C4F2020001910221029100210391F6
:10160000032104910921059101A900F007FB20465F
:101610000521002200F0D8FC204600F0C1FC06B0F5
:1016200010BD000070470000B0B5016846F600022A
:10163000C4F20002914219D046F20042C4F2000204
:10164000914218BFB0BD40F26015C2F2000505F12D
:101650005C0405F1400200212346FFF719FD286CC8
:101660002146BDE8B040FFF703B800BF40F2A444F4
:10167000C2F2000404F11C05002122462B46FFF7AC
:1016800007FD20682946BDE8B040FFF757B80000C5
:10169000704700007047000070470000B0B5044676
:1016A00090F8200001281DD1022084F82000206835
:1016B000016821F00101016000F092FB054600BFC6
:1016C00020684068C00713D000F08AFB401B0B283D
:1016D000F6D3606A40F400306062052084F8200090
:1016E0000120B0BD606A40F4002060620120B0BDFE
:1016F00000206062B0BD000070470000704700002D
:1017000070470000704700007047000070470000FD
:101710007047000010B54379012B4FF002031DD034
:101720000371036802F0100ED3F800C0D1E9004144
:1017300040F6FE7202FA0EF221432CEA020201FA8E
:101740000EF111431960C0211A6801FA0EF122EA64
:10175000010119600121002301714371184610BD78
:10176000002804BF0120704710B50446007920B955
:1017700000206071204600F007F802202071002050
:1017800001212061217110BD80B586B047F2004172
:101790000068C4F20001002288420592049201D040
:1017A00006B080BD43F630000092C4F20200036927
:1017B00043F000530361036903F000530093009B5F
:1017C0000092036843F001030360006800F0010029
:1017D00000900098102001900320CDE9020201F54D
:1017E000C63001A900F01AFA06B080BD10B54279E2
:1017F000012A4FF0020223D00271026801F0100E9C
:101800004FF0010C14680CFA0EF323431360D2F866
:1018100000C049B13C230CF4701103FA0EF3994255
:101820000AD1022105E000BF0CF03C013C2903D1A4
:101830000121536819435160012100220171427155
:10184000104610BD70B5866D044600F0C9FA94F8D4
:101850003510022928D105462068216C026822F043
:1018600016020260426922F08002426109B9A16C4D
:1018700019B1016821F008010160016821F001013E
:10188000016000BF20680068C00715D000F0A8FA0A
:10189000401B0628F6D320206065032084F835001D
:1018A000002184F8341070BD802060650120002183
:1018B00084F8341070BD00BFE06D3F2101FA00F0E4
:1018C000B060012084F835000020002184F8341035
:1018D00070BD000090F83510022909D1052180F86B
:1018E00035100068016821F0010101600020704797
:1018F0008021416501207047F0B581B00446002089
:10190000009040F24000C2F200000268D4E9166084
:1019100048F2B51337680821C1F64E338140394289
:10192000A2FB03250CD0226813685B0708D5136857
:1019300023F004031360B160616D41F00101616542
:1019400001218140394208D022685269120604D52B
:10195000B160616D41F0020161650421814039424D
:1019600008D022681268920704D5B160616D41F019
:101970000401616510218140394217D02068026856
:10198000120713D5B16002680168520308D4C90573
:1019900008D4016821F008010160216C21B905E03B
:1019A00008033FD4216C09B120468847E16D20200F
:1019B00000FA01F23A4241D020680368DB063DD5C7
:1019C000B26094F835300268052B1BD122F0160264
:1019D0000260426922F080024261226C0AB9A26C64
:1019E0001AB1026822F0080202603F208840B0600D
:1019F000012084F83500216D0020002984F834008E
:101A000052D157E00168520310D4C90512D40168BD
:101A100021F010010160012084F83500002084F8D5
:101A2000340007E0A16C0029BED1BFE7080301D450
:101A3000616C00E0E16B09B120468847606DC8B376
:101A4000606DC0072ED0052084F835002068A90AF3
:101A5000026822F001020260009A01328A4200927A
:101A60001AD80268D20717D0009A01328A4200922F
:101A700012D80268D2070FD0009A01328A4200922F
:101A80000AD80268D20707D0009A01328A4200922F
:101A900002D80268D207DFD1012084F83500002087
:101AA00084F83400E16C29B1204601B0BDE8F04073
:101AB000084700BF01B0F0BD2DE9F041044600F039
:101AC0008FF9ECB10546022084F83500002021682A
:101AD00084F83400086820F0010008602168086874
:101AE000C00711D000F07CF9401B0528F6D903256A
:101AF00020230320636584F83550BDE8F08100BFE2
:101B00000120BDE8F08100BF086848F23F02CFF233
:101B10001002D4E9013500EA020C04F10C0898E83F
:101B2000C10143EA0C032B431843D4E9072E304389
:101B300038431043626A40EA0E00042A40EA080370
:101B40001CD1206BD4E90A2E40EA0E00184308602D
:101B50004869BEF1000F20F0030040EA020040F0A7
:101B6000040C11D0B8F5005F36D0B8F1000F45D1A4
:101B7000022A46D0012A3BD032B942E00B604869C4
:101B800020F0070040EA020C01F0F8004AF6AB2210
:101B90001038CAF6AA22A0FB02231A0942F699239A
:101BA000C0F601039A5C40F2FF335F284FF03F001C
:101BB000C1F814C021EA030100FA02F088BF043121
:101BC000C4E916128860002301250020636584F8AB
:101BD0003550BDE8F08100BF032AD5D80125402348
:101BE0000120DFE802F0030E030500BF82E700BF1B
:101BF000AEF1C070B0FA80F0400904E0032A04D3CB
:101C0000C2D1CEF300600028BED0012540230120C0
:101C1000636584F83550BDE8F08100002DE9F04F90
:101C200082B000F13E4241F6004502F1FF77C4F276
:101C30000205082243F6004E4FEAB726A84208BF25
:101C40000722C4F2010E072E38BF4FEAB722012542
:101C5000002600274FF00008009208E008F1010874
:101C60000437B8F1100F06F1020600F0A7800C68E7
:101C700005FA08F914EA090FF0D0D1F804B00322EC
:101C80000BF0030CACF10104B240012C6FEA020A24
:101C900010D88268CC6802EA0A02B440224382600B
:101CA0004268CBF3001422EA090204FA08F4224342
:101CB000426005E0BCF1030F02D14FF0030C20E0BD
:101CC000C2688C6802EA0A02B4402243BCF1020FE7
:101CD000C26016D16FF0030202EA58020244D2F841
:101CE00020C007F01C050F230C69AB402CEA03034E
:101CF00004FA05F52B431362D1F804B001250BF06B
:101D0000030C02680CFA06F302EA0A021A431BF4F7
:101D1000403F0260A2D0002243F644030192C4F285
:101D200002031A684FF6084C42F480421A601A689F
:101D3000CFF6FF7C02F480420192019A28F0030260
:101D4000724452F80C3007F00C050F24AC40A3434A
:101D5000009C04FA05F52B4342F80C30DEF808200D
:101D60004B6842EA090543F60C4CDC0258BF22EAF4
:101D70000905CEF80850C4F2010CDCF800209C02E2
:101D800042EA090558BF22EA0905CCF80050DEF8FE
:101D900004209C0342EA090558BF22EA0905CEF84F
:101DA0000450DEF80020DB0342EA090558BF22EAAE
:101DB0000905CEF80050012550E700BF02B0BDE88C
:101DC000F08F0000426902EA0103914341EA0341B6
:101DD00081617047002A08BF0904816170470000D3
:101DE00044F62870C2F2000000687047B0B538B3FE
:101DF00004460068D4E901124CF6CC43036045F276
:101E00005553036041608260FFF7EAFF2168CA68AA
:101E100092070FD0054602E0C86880070AD0FFF796
:101E2000DFFF401B21683228F6D3C8688007F3D053
:101E30000320B0BD4AF6AA2008600020B0BD00BF54
:101E40000120B0BD01684AF6AA2200200A6070474E
:101E500040F2000044F62871C2F20000C2F2000114
:101E600000780A68104408607047000080B543F6A7
:101E70000040C4F20200016841F400710160016891
:101E800041F480610160016841F4807101600320C8
:101E900000F0C6F8002000F005F800F05FF8002020
:101EA00080BD000070B586B0002543F64001019565
:101EB000C4F202010A68044642F001020A6009689D
:101EC00001A801F0010101910199694600F068F94A
:101ED000049E002E18BF012600F082F94DF68361A2
:101EE000B040C4F21B31A0FB01014FF0FF3000EB0A
:101EF000914140F2D070C2F200004FF0804240F2B7
:101F0000E733C0E90021C0E902530561856100F0B3
:101F100005FC054610B1284606B070BD40F2D070F1
:101F2000C2F2000000F058FC05460028F3D11C2046
:101F300000F036F80F2C0DD81C2021460022002579
:101F400000F042F840F20400C2F2000004602846AB
:101F500006B070BD0125284606B070BD82B00020D5
:101F600043F640010190C4F202014A6842F4804203
:101F70004A604A6802F480420192019A009008681F
:101F8000002240F08050086008680F2100F0805067
:101F9000009000986FF0010002B000F015B800004A
:101FA000002848BF7047C1B200F01F00012202FAAA
:101FB00000F04EF20012CEF2000242EAD10121F00E
:101FC000030108607047000010B54EF60C5CCEF2BD
:101FD000000CDCF80030C3F3022E8EF00704042C52
:101FE00028BF0424BEF103034FF0FF3E0EFA04F4B1
:101FF00038BF0023A14399400EFA03F39A431143DB
:1020000000F00F0200F160430901043A03F5644354
:102010006244002848BF02F10C03197010BD000093
:102020004EF60C51CEF200010A684FF6FF031A403B
:1020300060F30A2242F0806040F0FD700860704753
:102040002DE9F041002800F08B8043F60808C4F227
:1020500002080446D8F8F8030D4600F0070088424D
:1020600007D288F8F853D8F8F80300F00700A84220
:1020700076D12068810717D5410705D5D8F800101B
:1020800041F4E051C8F80010010705D5D8F8001058
:1020900041F46041C8F80010D8F80010A26821F09F
:1020A000F0011143C8F80010C0073FD1D8F8F80379
:1020B00000F00700A84207D988F8F853D8F8F803C9
:1020C00000F00700A8424BD12068410707D5D8F897
:1020D0000010E26821F4E0511143C8F80010000735
:1020E00008D5D8F80000216920F4604040EAC1001A
:1020F000C8F8000000F09CF8D8F8001040F63C2228
:10210000C1F30311C0F60102515C40F2400220FA13
:1021100001F140F20400C2F200000068C2F20002C5
:102120001160FFF7BFFE0020BDE8F0816068811EEE
:10213000022907D258F8081C89015CBF0120BDE8BC
:10214000F08111E0012807D158F8081C89035CBF11
:102150000120BDE8F08107E058F8081C890703D486
:102160000120BDE8F08100BFD8F8001021F0030184
:102170000843C8F80000FFF733FE064641F28837EF
:10218000D8F80000616800F00C00B0EB810F8DD032
:10219000FFF726FE801BB842F2D90320BDE8F0818C
:1021A0000F22026043F60802C4F20202136803F031
:1021B00003034360136803F0F0038360136803F4C0
:1021C000E053C360D2F800C04FF4E05303EADC03ED
:1021D0000361D2F8F80300F00700086070470000C0
:1021E00040F2400043F60801C2F20000C4F20201CE
:1021F0000068096840F64C22C1F38221C0F6010252
:10220000515CC8407047000040F2400043F60801AE
:10221000C2F20000C4F202010068096840F64C22D4
:10222000C1F34231C0F60102515CC8407047000062
:1022300010B543F60404C4F20204606800F00C0018
:1022400008280BD0042819BF42F20040C0F2F40065
:1022500047F64000C0F27D1010BD00BF2068216825
:102260002368490247F64001C0F27D1100F03F02A9
:10227000C3F388105CBF42F20041C0F2F401A1FB3D
:1022800000010023FDF7F0FF21680222C1F30141A4
:1022900002EB4101B0FBF1F010BD00002DE9F0416F
:1022A00082B0002868D00446007843F60006C007D4
:1022B000C4F202060BD0B06800F00C00042840F015
:1022C0009F803068800302D56068002854D0207851
:1022D00080071AD5B06810F00C0F09D0B06800F074
:1022E0000C00082840F0A6807068400200F1A2802F
:1022F0003068800702D5E06801283DD13068216947
:1023000020F0F80040EAC10030602078000737D4A0
:10231000207840074CD4A56955B3B06800F00C0094
:10232000082840F0BB80012D26D07068E16900F4D8
:1023300080028A4220D1216A00F03F028A421BD1EA
:1023400047F6C071626A0140B1EB821F14D1A16AE5
:102350004FF6FF73C903994300F44032A1F5803171
:102360008A4209D1E16A00F07060B0EB016F03D1DD
:10237000002002B0BDE8F081012002B0BDE8F0818C
:102380006069002840F20000C4F2472076D00121A5
:10239000C0F8801EFFF724FD054600BF706F800760
:1023A000B6D4FFF71DFD401B0228F7D9DDE000BFC2
:1023B000306C10F080580AD100200190306C40F051
:1023C00080503064306C00F080500190019847F2EA
:1023D0000007C4F200073868C00541D4386840F4EB
:1023E00080703860FFF7FCFC054600BF3868C00508
:1023F00036D4FFF7F5FC401B0228F7D9B5E000BF43
:10240000B06800F00C00082803D1706840023FF566
:1024100058AF6068B0F5803F07D0B0F5A02F40F00E
:102420008D80306840F480203060306840F4803027
:1024300030608DE0E068002852D00020C4F24720D0
:1024400001210160FFF7CCFC054600BF3068800722
:102450003FF554AFFFF7C4FC401B0228F6D984E0D7
:10246000A068012805D005284ED1306F40F0040047
:102470003067306F40F0010030674FE00021C0F856
:10248000801EFFF7ADFC0546706F80077FF540AFFB
:10249000FFF7A6FC401B0228F6D966E00027C4F22D
:1024A000472700203866FFF79BFC022D05460BD11D
:1024B000306880015ED5FFF793FC401B02284FF087
:1024C0000300F5D955E700BF306880017FF550AFB4
:1024D000FFF786FC401B02284FF00300F4D948E7C1
:1024E0000020C4F2472000210160FFF779FC054677
:1024F000306880077FF509AFFFF772FC401B0228A8
:102500004FF00300F4D934E7316F002821F00101C6
:102510003167316F21F0040131674DD0FFF760FC66
:10252000054641F2883700BF306F800756D4FFF769
:1025300057FC401BB842F7D917E000BF31680028AC
:1025400021F480313160316821F4802131604FD035
:10255000FFF746FC054600BF306880033FF5B7AE85
:10256000FFF73EFC401B6428F6D9032002B0BDE80B
:10257000F08100BF04F11C052FCD084340EA821012
:10258000D9034FF6FF729143A1F5803140EA05600F
:102590000843706001203866FFF722FC044600BF44
:1025A000306880013FF5E4AEFFF71AFC001B0228FB
:1025B0004FF00300F4D9DCE6FFF712FC054641F2C8
:1025C000883700BF306F800708D5FFF709FC401B34
:1025D000B8424FF00300F5D9CBE600BFB8F1000FC9
:1025E0007FF499AE306C20F08050306493E600BFE9
:1025F000FFF7F6FB054600BF306880037FF567AE46
:10260000FFF7EEFB401B64284FF00300F4D9B0E65F
:102610007047000070470000B0B590F83C20012AD8
:1026200004BF0220B0BD01F108053CCDD1E900CEC8
:1026300023F47C5322F470521A432EF4F0431A43CD
:102640002CF4E0431A4324F4C0431A432A43C969D3
:1026500022F48042036811435964002180F83C1041
:102660000846B0BD10B590F83C20012A4FF0020298
:1026700051D080F83D200268D2F804E0D2F808C0BA
:102680000C682EF07003234341F2FF74C4F200047F
:10269000A24253600EDC40F2FF73C4F200039A4280
:1026A00016DCB2F1804F2BD040F20043C4F200039D
:1026B00024E000BF40F2FF33C4F201039A4213DC6E
:1026C00041F60003C4F200039A4219D0002313E03C
:1026D00040F60003C4F200039A4211D040F60043D2
:1026E000C4F200030AE000BF44F20003C4F2010395
:1026F0009A4205D040F20043C4F201039A4204D149
:1027000049682CF08003194391600121002280F870
:102710003D1080F83C20104610BD0000002804BF8A
:102720000120704710B5044690F83D0028B90020FC
:1027300084F83C00204600F01FF8022084F83D0099
:102740002068211D02F0BEFA012084F8460084F8BA
:102750003E0084F83F0084F8400084F8410084F88B
:10276000420084F8430084F8440084F8450084F86B
:102770003D00002010BD000082B0006840F2004122
:10278000C4F20001884215D00021C4F20101884240
:102790001FD10020019043F64000C4F202004168BE
:1027A00041F001014160406800F001000190019892
:1027B00002B070470020009043F64000C4F20200CF
:1027C000016841F002010160006800F00200009021
:1027D000009802B07047000090F83D1001291CBF1E
:1027E00001207047022180F83D10006841F2FF721D
:1027F000C168C4F20002904241F00101C1600DDCE9
:1028000040F2FF71C4F20001884215DCB0F1804F44
:102810002AD040F20041C4F2000123E040F2FF312F
:10282000C4F20101884213DC41F60001C4F2000148
:10283000884219D0002113E040F60001C4F20001E3
:10284000884211D040F60041C4F200010AE000BF06
:1028500044F20001C4F20101884205D040F2004177
:10286000C4F20101884206D1816801F007010629FE
:1028700004BF00207047016841F0010101600020A1
:102880007047000080B590F83C20012A4FF002020A
:1028900000F0C28080F83D20D0F800C04FF677727B
:1028A000DCF8083023EA0202CCF808200B684F2B32
:1028B00028DC1F2B44DD202B45D0302B43D0402B70
:1028C00040F0AC80D1F804E0C968DCF82030DCF8D6
:1028D000202022F00102CCF82020DCF8182022F081
:1028E000F00242EA011123F00A0242EA0E02CCF899
:1028F0001810CCF82020DCF8081041F0470121F036
:10290000300180E06F2B27DDB3F5005F48D0B3F5D1
:10291000805F7AD0702B40F08180D1E901E3C968F3
:10292000DCF8082043EA0E0322F47F4243EA012147
:102930001143CCF80810DCF8081041F0770162E090
:102940000BB1102B6AD1DCF8081021F0700119438B
:1029500041F0070157E000BF502B35D0602B5DD10F
:10296000D1F804E0C968DCF8203023F01003CCF87B
:102970002030DCF81830DCF8202023F4704322F0FB
:10298000A00243EA013142EA0E12CCF81810CCF84A
:102990002020DCF8081041F0670121F0100132E03E
:1029A000D1E901E3C968DCF8082043EA0E0322F408
:1029B0007F4243EA01211143CCF80810DCF80810EB
:1029C00041F480411FE000BFD1F804E0C968DCF8A1
:1029D0002030DCF8202022F00102CCF82020DCF8A6
:1029E000182022F0F00242EA011123F00A0242EA22
:1029F0000E02CCF81810CCF82020DCF8081041F0BA
:102A0000570121F02001CCF808100022012180F8A4
:102A10003D10002180F83C10104680BD0122F5E7F2
:102A20007047000010B5016804460869800744BF7C
:102A3000C8685FEA807039D40869400744BFC86835
:102A40005FEA40703ED40869000744BFC8685FEA87
:102A5000007045D40869C00644BFC8685FEAC0601A
:102A60004AD40869C0071CBFC8685FEAC07051D16A
:102A70000869000644BFC8685FEA006052D408696C
:102A8000400644BFC8685FEA406053D408698006C6
:102A900046BFC8685FEA806010BD6FF02002204624
:102AA0000A61BDE81040FFF7B5BD00BF6FF002003E
:102AB0000861012020778869800743D02046FFF70E
:102AC000AFFF45E06FF004000861022020778869BD
:102AD00010F4407F40D02046FFF7A2FF42E000BF45
:102AE0006FF00800086104202077C86980073DD096
:102AF0002046FFF795FF3FE06FF0100008610820C7
:102B00002077C86910F4407F3AD02046FFF788FF4D
:102B10003CE000BF6FF001000861204600F00AFAB7
:102B20002168A5E76FF0800008612046FFF770FD7F
:102B30002168A4E76FF040000861204600F002FA27
:102B40002168A3E7204600F025F8204600F066F94A
:102B50002168002020776FE7204600F01BF8204610
:102B600000F05CF92168002020776CE7204600F037
:102B700011F8204600F052F921680020207769E71B
:102B8000204600F007F8204600F048F921680020B0
:102B9000207766E7704700002DE9F04390F83C305D
:102BA000012B04BF0220BDE8F0834FEAB202032AE2
:102BB00000F2FC80DFE802F0023E7EBE036840F2D5
:102BC00000471A6A43F4806522F001021A621C6A07
:102BD0001A46D3F804E052F818CF8E6824F00204A5
:102BE000C4F20107BD4244EA060405D1CE6824F0D0
:102BF0000C0426F0040634430E68BD4207D1D1E927
:102C000005572EF4407E45EA0E0545EA070E2CF0E6
:102C100073073743C3F804E09F614F6809695F6336
:102C20001C629F6947F008079F619F6927F00407AE
:102C30009F61B1E0036840F200481A6A43F480657E
:102C400022F010021A621C6A1A46D3F804C052F825
:102C500018EF8F6824F02004C4F20108454544EAC7
:102C6000071407D1CF686FF0400624F0C00406EACD
:102C700007163443D1F80090454506D1D1E90556F1
:102C80002CF440672E4347EA860C2EF4E64747EAC9
:102C90000927C3F804C09F614F6809699F631C62DC
:102CA0009F6947F400679F619F6927F480679F6170
:102CB00071E000BF036840F200481A6A43F480657F
:102CC00022F480721A621C6A1A46D3F804C052F8C1
:102CD0001CEF8F6824F40074C4F20108454544EAEF
:102CE000072408D1CF6840F2FF463F0224F4406435
:102CF00027EA06063443D1F80090454506D1D1E9CC
:102D000005562CF440572E4347EA061C2EF0730755
:102D100047EA0907C3F804C0DF614F680969DF6348
:102D20001C62DF6947F00807DF61DF6927F00407ED
:102D3000DF6131E0036840F200451A6A43F48067BE
:102D400022F480521A621A46D3F820C05C6852F806
:102D50001CEFD1F800808E68C4F20105AF4204D1A7
:102D60004D6924F4804444EA85142CF4005747EA62
:102D700006372EF4E64646EA08265C60DE614E68B9
:102D800009691E641F62DF6947F40067DF61DF695C
:102D900027F48067DF61090213681943116000217D
:102DA000002280F83C200846BDE8F0830121002283
:102DB00080F83C200846BDE8F0830000002804BFEE
:102DC0000120704710B5044690F83D0028B9002056
:102DD00084F83C00204600F01FF8022084F83D00F3
:102DE0002068211D01F06EFF012084F8460084F860
:102DF0003E0084F83F0084F8400084F8410084F8E5
:102E0000420084F8430084F8440084F8450084F8C4
:102E10003D00002010BD000070470000704700001A
:102E200041B1082910D0042914BF00F1410200F17A
:102E30003F020BE090F83E20012A1CBF01207047A2
:102E4000022280F83E2013E000F140021278012AAD
:102E50001CBF012070470222082907D0042914BF93
:102E600080F8412080F83F2002E000BF80F8402039
:102E7000006801F01F010122036A02FA01F123EA4E
:102E800001020262026A114341F2FF72C4F20002BF
:102E9000904201620CDC40F2FF71C4F200018842F2
:102EA00014DCB0F1804F37D040F2004116E000BF93
:102EB00040F2FF31C4F20101884215DC41F6000105
:102EC000C4F20001884227D0002115E040F600013D
:102ED000C4F2000188421FD040F60041C4F2000154
:102EE000884219D01FE000BF44F20001C4F2010182
:102EF000884211D040F20041C4F20101884212D14F
:102F0000416C40F2004340F48062C4F2010341F49A
:102F100000419A42416406D1816801F00701062907
:102F200004BF00207047016841F0010101600020EA
:102F3000704700000068B0F1804F18BF7047FEF77F
:102F400087BF000070470000704700007047000016
:102F5000B0B582B0044600680168C368426901F0F8
:102F60002F05202D03F0200506D12DB1204602B0FB
:102F7000BDE8B04001F056BF5FEA017C1EBF02F021
:102F8000010E03F4907212EB0E0253D1226B012A50
:102F900005D111F0100218BF13F0100236D10A0645
:102FA00022D513F080021FD094F83D1021293FD183
:102FB000A168B1F5805F03D12169002900F0728218
:102FC000216A4A1C226209784160E18C01390A04B5
:102FD000E1842DD1C16821F08001C160C16841F058
:102FE0004001C16002B0B0BD490621D513F04001D7
:102FF0001ED0C16821F04001C1602021204684F824
:103000003D1002B0BDE8B04000F0C2BC002101910B
:10301000016801914168019101994069400613D40A
:10302000A08DE18DE28D002A18BF884240F0BE815C
:1030300002B0B0BDCA0718BF13F4807240F0BA8066
:103040004A0700F1BD80C2E0A16B0868426893B2F4
:10305000002BEDD0A08D8342EAD2E285C969B1F59B
:10306000807F00F09D80206850E8030F216820F4E5
:10307000807041E80302DAB1206850E8030F21684C
:1030800020F4807041E8030292B1206850E8030FF9
:10309000216820F4807041E803024AB1206850E8BA
:1030A000030F216820F4807041E80302002ADAD17E
:1030B000206850E8050F216820F0010041E8050272
:1030C000DAB1206850E8050F216820F0010041E8DE
:1030D000050292B1206850E8050F216820F0010038
:1030E00041E805024AB1206850E8050F216820F048
:1030F000010041E80502002ADAD1206850E8050FF6
:10310000216820F0400041E80502DAB1206850E86B
:10311000050F216820F0400041E8050292B12068C7
:1031200050E8050F216820F0400041E805024AB14F
:10313000206850E8050F216820F0400041E80502B2
:10314000002ADAD1202084F83E0000202063206885
:1031500050E8030F216820F0100041E80302DAB1C3
:10316000206850E8030F216820F0100041E80302B6
:1031700092B1206850E8030F216820F0100041E868
:1031800003024AB1206850E8030F216820F01000C4
:1031900041E80302002ADAD1A06BFEF753FBA08DB1
:1031A000E18D401A81B2204602B0BDE8B040FFF781
:1031B000CBBE00BF226C42F0010222644A0706D552
:1031C000BEF1000F03D0226C42F0020222648A0793
:1031D00006D5BEF1000F03D0226C42F00402226437
:1031E000BCF1000F09D545EA0E02B2FA82F252098B
:1031F00003D1226C42F008022264226C002A3FF4C0
:1032000017AF11F0200118BF002D03D0204601F0A8
:1032100009FE20684069216C00F0400001F00801BF
:10322000401800F0B58000BF206850E8030F216807
:1032300020F4907041E80302BAB3206850E8030F0D
:10324000216820F4907041E8030272B3206850E8CE
:10325000030F216820F4907041E803022AB320682C
:1032600050E8030F216820F4907041E80302002A1F
:10327000DAD11AE0206850E8050F216820F001003B
:1032800041E80502DAB1206850E8050F216820F016
:10329000010041E8050292B1206850E8050F21685D
:1032A00020F0010041E805024AB1206850E8050F0E
:1032B000216820F0010041E80502002ADAD1206BE4
:1032C000012824D1206850E8030F216820F0100065
:1032D00041E80302DAB1206850E8030F216820F0CA
:1032E000100041E8030292B1206850E8030F216802
:1032F00020F0100041E803024AB1206850E8030FB3
:10330000216820F0100041E80302002ADAD12020D1
:1033100084F83E00002020632068406940063FD5C5
:10332000206850E8050F216820F0400041E80502C0
:10333000DAB1206850E8050F216820F0400041E82C
:10334000050292B1206850E8050F216820F0400086
:1033500041E805024AB1206850E8050F216820F0D5
:10336000400041E80502002ADAD1A06BC0B144F662
:103370001961C0F600010165FEF7ACFA00283FF4C0
:1033800057AEA06B016D02B0BDE8B040084700BF6A
:103390002046FFF7DBFD0020206402B0B0BD00BF77
:1033A000204602B0BDE8B040FFF7D0BD401A21680A
:1033B00051E8031F226821F4907142E80313DBB146
:1033C000216851E8031F226821F4907142E8031339
:1033D00093B1216851E8031F226821F4907142E8FB
:1033E00003134BB1216851E8031F226821F4907147
:1033F00042E80313002BDAD1216851E8051F226847
:1034000021F0010142E80513DBB1216851E8051FF5
:10341000226821F0010142E8051393B1216851E8C7
:10342000051F226821F0010142E805134BB1216814
:1034300051E8051F226821F0010142E80513002B25
:10344000DAD1202184F83E1000212163216851E85F
:10345000031F226821F0100142E80313002B3FF400
:10346000A1AE216851E8031F226821F0100142E853
:103470000313002B3FF496AE216851E8031F226826
:1034800021F0100142E80313002B3FF48BAE2168BA
:1034900051E8031F226821F0100142E80313002BBA
:1034A000D4D17FE6216A31F8022B6FF35F224260AC
:1034B00021628AE5002804BF0120704710B5044648
:1034C00090F83D0028B9002084F83C00204600F028
:1034D00021F8242084F83D002068C16821F40051BF
:1034E000C160204601F01EFD2068016921F4904171
:1034F0000161416921F02A014161C16841F4005133
:10350000C16000202021206484F83D1084F83E1022
:1035100010BD00002DE9F04F87B00446006844F666
:10352000FF31C4F2000188424FF000010691CDE95D
:103530000411CDE902115FDD41F20001C4F2010185
:10354000884200F0D58045F20001C4F200018842B3
:1035500000F01E8144F60041C4F20001884240F0B0
:103560001182002643F630000196C4F20200016980
:1035700041F400210161016901F4002101910199E7
:103580000196016841F0010101600068022100F02C
:1035900001000190019803200290059008200690F8
:1035A0000020CDE90316C4F2020002A9FEF736FBA3
:1035B00046F21000C4F2020040F2DC453030C2F2A4
:1035C00000054FF000614FF480624FF4807385E88E
:1035D00043002846C5E90362C5E90566C5E9073623
:1035E0006E62FEF769FA002818BFFDF75DF9A56362
:1035F00005F138003425BCE144F20041C4F2000179
:10360000884200F04D8144F60001C4F20001884276
:1036100040F0B881002643F630000196C4F2020063
:10362000016946F2100841F4802101610169C4F288
:10363000020801F48021019101990196016841F08D
:1036400002010160006802A900F0020001900198E7
:103650004FF4406002900220CDE90306032005905C
:10366000072006900020C4F2020000F58060FEF7FB
:10367000D5FA40F2BC6508F11800C2F200054FF01F
:10368000006B4FF4806A4FF48079C5E9000B4FF46A
:1036900000372846C5E90266C5E904A6C5E90669FA
:1036A000C5E90876FEF708FA002818BFFDF7FCF810
:1036B000A563AC6340F21C7508F14800C2F2000536
:1036C0004021C5E9000B05F1080080E842042846C6
:1036D000C5E90566C5E907976E62FEF7EDF90028B2
:1036E00018BFFDF7E1F8656305F13800272540E1D3
:1036F000002643F630000196C4F20200416941F011
:1037000010014161416901F0100101910199019697
:10371000016841F001010160006802A900F00100A8
:10372000019001984FF4C06002900220CDE9030699
:1037300003200590072006900020C4F20200FEF747
:103740006DFA46F21000C4F2020040F2FC5500F59A
:103750008660C2F200054FF0006185E843004FF437
:1037600000304FF480624FF48073C5E908062846A4
:10377000C5E90362C5E90566EB61FEF79DF900281E
:1037800018BFFDF791F8A56305F138002525F0E095
:10379000002643F630000196C4F2020001690027BA
:1037A00041F4801101610169C4F2020701F4801142
:1037B000019101990196016802AD41F00401016097
:1037C000016846F2100801F0040101910199019687
:1037D00001684FF0020941F00801016000684FF0F4
:1037E000030A00F00800019001984FF48050029005
:1037F0004FF0080B07F500602946C4F20208CDE936
:103800000396CDF814A0CDF818B0FEF707FA0420FF
:10381000CDE9020904A880E8400C07F5406029467C
:10382000FEF7FCF940F23C55C2F200054FF0006B88
:103830004FF4806A4FF480794FF440372846C5E949
:10384000008BC5E90266C5E904A6C5E90669C5E9B4
:103850000876FEF731F9002818BFFDF725F8A563B3
:10386000AC6340F29C5508F1A800C2F2000540216B
:10387000C5E9000B05F1080080E842042846C5E9C7
:103880000566C5E907976E62FEF716F9002818BFAE
:10389000FDF70AF8656305F13800352569E000BFDA
:1038A000002743F630000197C4F2020001690025A9
:1038B00041F4003101610169C4F2020501F40031F3
:1038C000019101990197016802AE41F00101016087
:1038D00001684FF0020801F001010191019901977F
:1038E00001684FF0030941F00801016000684FF0E2
:1038F000070A00F00800019001980820029028466D
:103900003146CDE90387CDF81490CDF818A0FEF725
:1039100085F92020CDE9020804A880E8800605F595
:1039200040603146FEF77AF946F21000C4F2020018
:1039300040F25C657830C2F200054FF0006185E826
:1039400083004FF440304FF480624FF48073C5E938
:1039500008072846C5E90372C5E90577EB61FEF75C
:10396000ABF8002818BFFCF79FFFA56305F13800EE
:1039700026250460284605210022FEF725FB28465F
:10398000FEF70EFB07B0BDE8F08F000070470000A7
:1039900070470000FEE700002DE9F04F83B040F2D1
:1039A0000042C4F20202116848F2B42521F04041FD
:1039B000116011680190C4F2402500201160286058
:1039C00002204FF0000B07F089FA0120286055F81B
:1039D000780C0127002818BF01200290012007F071
:1039E0007DFA0220C5F800B007F078FA2F6055F88C
:1039F000786C012007F072FA0220C5F800B007F0D9
:103A00006DFA2F6055F8784C0120002C18BF012466
:103A100007F064FA0220C5F800B007F05FFA2F60E3
:103A200055F8788C012007F059FA0220C5F800B04B
:103A300007F054FA2F6055F8789C0120B9F1000F77
:103A400018BF4FF0010907F049FA0220C5F800B08D
:103A500007F044FA2F6055F878AC012007F03EFAE1
:103A60000220C5F800B007F039FA2F6055F878BC8D
:103A700001200127BBF1000F18BF4FF0010B07F029
:103A80002DFA00202860022007F028FA2F6055F850
:103A9000787C012007F022FA002040F200422860E2
:103AA000C4F202021068019920F0404010601068D2
:103AB000B1FA81F140F08040490910600220A9600C
:103AC00007F00CFA01202860022007F007FA002E08
:103AD00018BF01260298B8F1000F46EA40004FEAED
:103AE000800040EA440018BF4FF0010840448000C5
:103AF00040EA4900BAF1000F18BF4FF0010A5044E4
:103B0000800040EA4B00002F18BF012738440021F5
:103B1000C0B2296003B0BDE8F08F0000F0B581B0FD
:103B200040F20041C4F202010A68044622F0404219
:103B30000A600A6848F2B42542F080400860C4F286
:103B400040250026E0092E60A860022007F0C6F993
:103B5000012702202F6007F0C1F902202E6007F034
:103B6000BDF9C4F38010A860022007F0B7F9022065
:103B70002F6007F0B3F902202E6007F0AFF9C4F30D
:103B80004010A860022007F0A9F902202F6007F07A
:103B9000A5F902202E6007F0A1F9C4F30010A86077
:103BA000022007F09BF902202F6007F097F902200E
:103BB0002E6007F093F9C4F3C000A860022007F05C
:103BC0008DF902202F6007F089F902202E6007F09E
:103BD00085F9C4F38000A860022007F07FF9022075
:103BE0002F6007F07BF902202E6007F077F9C4F30D
:103BF0004000A860022007F071F902202F6007F052
:103C00006DF902202E6007F069F904F00100A86048
:103C1000022007F063F902202F6007F05FF902200D
:103C20002E6001B0BDE8F04007F058B9B0B540F2E1
:103C30000040C4F20200016848F2B42421F040417F
:103C400001600168C4F2402441F08041016001201C
:103C5000A0602060042007F041F900250420A56041
:103C600007F03CF92560B0BD10B540F20040C4F249
:103C70000200016848F2B42421F04041016001686B
:103C8000C4F2402441F08041016000202060A06027
:103C9000042007F023F9012121600420A160BDE880
:103CA000104007F01BB9000070B540F20044C4F2A8
:103CB0000204206848F23C2520F040402060206843
:103CC000C4F24025206001260120C5F8806007F07D
:103CD00005F90120AE6707F001F90020296859B104
:103CE000296849B1296839B1F72809D8296819B173
:103CF000043029680029F3D100242046AC6770BD48
:103D0000206820F040402060206840F08040206023
:103D10000020A867C5F88000042007F0DFF8012420
:103D20000420AC67C5F8804007F0D8F8204670BD85
:103D3000B7EE002A32EE412A22EE202A21EE000AB6
:103D400030EE020A7047000080B540F2A011C2F2C6
:103D500000010A7F00681302B0F800C003804B7FA7
:103D600043EA022EA0F800E08B7F1A024280CA7F4D
:103D700042EA0322428091F820201302838091F8C6
:103D8000213043EA0222828091F82210C180AEEBFA
:103D90000C010AB281EAE233A3EBE2331FFA83FC9F
:103DA0004FF40053002AC4BF4EF20003CFF6FF7356
:103DB000BCF5805F88BF1944C269418102FA81F174
:103DC000C16180BD00230160C1E90033C1E9023354
:103DD000C1E90433C1E9063341F61911426011808B
:103DE0000168937003810B820B804B61CB6170473C
:103DF00080B58AB04FEA102C8DF80100080A8DF8C2
:103E00000200100A8DF80400180A8DF806004FF41D
:103E1000007003900020CDE905000820079040F2D3
:103E200054408DF803108DF805208DF80730C2F24C
:103E3000000003A96A4609AB8DF800C0FDF756F8EB
:103E40000AB080BD40F2A011C2F200010A7F0068F2
:103E5000130203804B7F43EA022CA0F800C08B7F43
:103E60001A024280CA7F42EA0322428091F820204F
:103E70001302838091F8213043EA02228280B0F954
:103E80000A200FFA8CF391F822109A1AB2F5805F8B
:103E9000C180BEBF514281817047C2F5FD514EF2D3
:103EA0006003B2F5FD5F88BFD118818170470000C3
:103EB000406800230178427891423CBF01230131E0
:103EC0000170837070470000002301608B818B605C
:103ED0004B600B6041F619114260937011800381B1
:103EE0007047000080B58AB04FEA102C8DF80100B1
:103EF000080A8DF80200100A8DF80400180A8DF8DF
:103F0000060040F2FF1003900020CDE905000820D4
:103F1000079040F254408DF803108DF805208DF87D
:103F20000730C2F2000003A96A4609AB8DF800C051
:103F3000FCF7DCFF0AB080BD80B58AB040F2303CAF
:103F4000C2F2000CBCF81610BCF81830080A8DF844
:103F50000000180A8DF80200100A8DF80400BCF861
:103F600014008DF80110ADF8060040F2FF20039018
:103F70000020CDE905000820079040F27C408DF834
:103F800003308DF80520C2F2000003A96A4609AB90
:103F9000FCF7ACFF0AB080BD40F2A011C2F20001F4
:103FA0000A7F0068130203804B7F43EA02220280EB
:103FB0008A7F13024380CB7F43EA0222428091F83A
:103FC00020201302838091F8211041EA0221818090
:103FD00070470000406800230178427891423CBF5E
:103FE00001234A1C027083707047000000230160A7
:103FF000C1E90033C1E90233C1E9043343F232219C
:10400000426093701180038170470000F0B581B069
:1040100014460D460646FFF709FE40F23C07C2F281
:10402000000738784000C0B2FFF778FDFFF73CFE8C
:104030003046FFF773FDFFF737FEFFF7F7FD3878DF
:1040400040000130C0B2FFF769FDFFF72DFE4CB113
:10405000013D00260120FFF79FFC0136A64205F82E
:10406000010FF7D301B0BDE8F040FFF7FDBD000040
:10407000B0B584B040F2084042F2000101230024B0
:10408000C2F20000C4F20101C0F6007301250394DE
:104090004FF48032047680F82040C0E90A34C561CC
:1040A00080F8304080E81600C0E903444561FCF721
:1040B00023FE002818BFFCF7F7FB0A20CDE9000516
:1040C00040F20840C2F2000069460294FCF770FD1D
:1040D000002818BFFCF7E8FB04B0B0BD80B540F283
:1040E000544046F20041C2F20000C4F20001032233
:1040F000002380E80E0000F10C014FF4002C4FF477
:10410000401E81E808504FF4807183618183FDF780
:104110007FF9002808BF80BDBDE88040FCF7C4BB24
:1041200080B540F27C4046F60001C2F20000C4F2C5
:1041300000010322002380E80E0000F10C014FF47F
:10414000002C4FF4401E81E808504FF480718361C9
:104150008183FDF75DF9002808BF80BDBDE8804080
:10416000FCF7A2BB80B582B0022001900020009035
:1041700040F2C84047F20041C2F20000C4F2000120
:104180000160FDF7EDFA002818BFFCF78DFB40F247
:10419000C840C2F2000069460022FDF7BBFA0028C1
:1041A00018BFFCF781FB02B080BD000080B582B073
:1041B000002043F630010190C4F202010A6842F483
:1041C00000120A600A6802F400120192019A00903B
:1041D0000868002240F4800008600868052100F4A7
:1041E0008000009000980B20FDF7EEFE0B20FDF7FD
:1041F000D7FE0C2005210022FDF7E6FE0C20FDF77E
:10420000CFFE0D2005210022FDF7DEFE0D20FDF77B
:10421000C7FE0E2005210022FDF7D6FE0E20FDF779
:10422000BFFE102005210022FDF7CEFE1020FDF775
:10423000B7FE2F2005210022FDF7C6FE2F20FDF737
:10424000AFFE3A2005210022FDF7BEFE3A2002B063
:10425000BDE88040FDF7A4BE70B5AAB040F62020AE
:10426000C0F6010090E81E50806923AD85E81E501D
:10427000299023A8002107F09FFB40F2A806C2F274
:1042800000062D4930602CA0051D1C913ECD806993
:104290000DF1740C8CE83E0022901CA8002107F060
:1042A0008BFB2C4970602BA0051D15912ECDD0E9FC
:1042B00005400DF1580C8CE82E00CDE91A4015A8E8
:1042C000002107F079FB2A49B06029A0051D0E9155
:1042D0002ECDD0E905400DF13C0C8CE82E00CDE947
:1042E00013400EA8002107F067FB2849F06027A0C3
:1042F000051D07912ECDD0E905400DF1200C8CE86D
:104300002E00CDE90C4007A8002107F055FB2649F7
:10431000306125A0051D00912ECDD0E905400DF19D
:10432000040C8CE82E00CDE905406846002107F01A
:1043300043FB70612AB070BDB32A01085907000819
:10434000FDFF0000000000008000000000000000F1
:1043500000000000A12A010805060008FDFF00007A
:1043600000000000800000000000000000000000CD
:10437000BE2A0108A5090008FDFF0000000000009A
:10438000800000000000000000000000CA2A0108B0
:10439000D54B0008FDFF0000000000008000000079
:1043A0000000000000000000AA2A0108910A00088D
:1043B000FDFF000000000000800000000000000081
:1043C000000000002DE9F04F87B0002543F63000D3
:1043D00006950195C4F20200016840F2004841F0E0
:1043E000800101600168C4F2020801F080010191BE
:1043F00001990195016808F5806441F004010160AC
:104400000168012201F004010191019901950168FF
:104410000E2641F00101016001684FF0010A01F030
:104420000101019101990195016841F010010160BC
:10443000016801F01001019101990195016841F0B5
:1044400002010160016801F00201019101990195E9
:10445000016841F00801016000680E2100F00800C9
:10446000019001982046FDF7B5FCA8F58067384615
:10447000242100224FF0240BFDF7ACFC40464FF402
:1044800060410122FDF7A6FC08F5006948464FF49B
:1044900000710122FDF79EFCCDE9026A02AE2046C2
:1044A0003146CDE90455FDF7B9FB032438463146C2
:1044B000CDE902BA04950594FDF7B0FB4FF4204016
:1044C000CDE9020A40463146CDE90454FDF7A6FB8A
:1044D0004FF48040CDE9020A40463146CDE904A4BC
:1044E000FDF79CFB4FF40070CDE9020A48463146C7
:1044F000CDE90455FDF792FB07B0BDE8F08F000051
:1045000080B540F27C7043F20001C2F20000C4F2B8
:104510000001002240F6FF7380E80E00FDF766FC04
:10452000002808BF80BDBDE88040FCF7BDB9000091
:10453000B0B59CB0002540F28870C4F2010500219E
:10454000C2F2000040F61F5240F2E7331691CDE967
:1045500014111191CDE90F11CDE90D11CDE90B1118
:10456000CDE90911CDE90711CDE90511CDE9031117
:10457000CDE90111C0E90052C0E90213C0E90411FC
:104580008161FEF7CBF8002818BFFCF78DF94FF4D6
:104590008050139040F28870C2F2000013A9FEF719
:1045A00071F9002818BFFCF77FF940F28870C2F259
:1045B0000000FEF703FC002818BFFCF775F940F275
:1045C00088700024C2F2000010A9CDE91044FEF763
:1045D00049F8002818BFFCF767F96020CDE9090405
:1045E00040F28870C2F2000009A90422CDE90B4410
:1045F000CDE90D440F94FEF7CFFA002818BFFCF761
:1046000053F940F2887400204FF40051C2F20004C4
:104610000590CDE90300CDE901000691089001A9BC
:104620002046FDF7F9FF002818BFFCF73DF9206888
:1046300040F20041C4F20001884217D0A84232D1B2
:104640000020179043F63000C4F2020001684FF4D6
:10465000006241F0100101600068012100F01000CB
:104660001790179805F5883013E000BF00201790C9
:1046700043F63000C4F202000168C02241F001019B
:1046800001600068022100F001001790179805F5FD
:10469000803017920222189200221B9117A9CDE9AF
:1046A0001922FDF7BBFA1CB0B0BD0000B0B594B044
:1046B00040F2004540F61800C4F200050021C2F2A5
:1046C0000000532240F6C3130E91CDE90C1109915D
:1046D000CDE90711CDE90511CDE90311CDE90111AE
:1046E000C0E90052C0E9021301618161FEF716F8CA
:1046F000002818BFFCF7D8F84FF480500B9040F614
:104700001800C2F200000BA9FEF7BCF8002818BF81
:10471000FCF7CAF840F61800C2F20000FEF74EFBA4
:10472000002818BFFCF7C0F840F618000024C2F2B9
:10473000000008A9CDE90844FDF794FF002818BF40
:10474000FCF7B2F86020CDE9010440F61800C2F28F
:10475000000001A9002203940594FEF71DFA002829
:1047600018BFFCF7A1F840F61804C2F2000401A932
:1047700020460422FEF710FA002818BFFCF794F830
:104780002068A8421AD00021C4F20101884232D127
:1047900000200F9043F63000C4F2020001684FF48D
:1047A000006241F0100101600068012100F010007A
:1047B0000F900F9805F5033013E000BF00200F9015
:1047C00043F63000C4F202000168C02241F001014A
:1047D00001600068022100F001000F900F9805F5BC
:1047E000FE300F9202221092002213910FA9CDE900
:1047F0001122FDF713FA14B0B0BD000080B540F6E9
:104800002C1044F60041C2F20000C4F20001002363
:104810004FF00C0C4FF4E13280E80E00C0E9033396
:10482000C0E905C3C361FEF745FE002808BF80BD8F
:10483000BDE88040FCF738B880B540F6701045F20E
:104840000001C2F20000C4F2000100234FF00C0C82
:104850004FF4E13280E80E00C0E90333C0E905C33C
:10486000C361FEF727FE002808BF80BDBDE8804079
:10487000FCF71AB880B540F6600041F20001C2F2C0
:104880000000C4F2010100234FF00C0C4FF4E132A0
:1048900080E80E00C0E90333C0E905C3C361FEF739
:1048A00009FE002808BF80BDBDE88040FBF7FCBFC3
:1048B00080B540F6A40044F20041C2F20000C4F208
:1048C000000148F2A06200234FF00C0CC0F201027C
:1048D00080E80E00C0E90333C0E905C3C361FEF7F9
:1048E000E9FD002808BF80BDBDE88040FBF7DCBFC4
:1048F00080B540F6E80044F60001C2F20000C4F2C0
:10490000000100234FF00C0C4FF4E13280E80E0060
:10491000C0E90333C0E905C3C361FEF7CBFD00283E
:1049200008BF80BDBDE88040FBF7BEBF80B590F8F2
:10493000201090F823E019294FF0000201F1010343
:1049400038BF012218294FF0000C88BF19230EF13F
:104950000101BEF1190F80F8203080F8222038BF05
:104960004FF0010CBEF1180F88BF192180F82310F9
:1049700080F825C080BD000000210160C0F80A1049
:1049800041F61911C1F600110162192181847047A5
:10499000FEE700007047000080B54CF25D1C4CF251
:1049A0006D1E00F15807C0F6000CC0F6000E87E837
:1049B0000E5080EC030A80BDB0B540F61804C2F278
:1049C0000004204600210025FEF72AFA2046042193
:1049D000FEF726FA40F23440C4F200004FF47A7138
:1049E0000160416040F28870C2F200000421FEF7CD
:1049F00017FA3820C4F201000560B0BD00000000C5
:104A0000EFF30980BFF36F8F154B1A681EF0100F7C
:104A100008BF20ED108A20E9F04F10602DE9090051
:104A20004FF0500080F31188BFF34F8FBFF36F8FAB
:104A300009F0BEFF4FF0000080F31188BDE80900C7
:104A400019680868B0E8F04F1EF0100F08BFB0EC0E
:104A5000108A80F30988BFF36F8F704700BF00BFD3
:104A6000C00000202DE9F0472DED068B40F2C41563
:104A7000C2F2000505F10C08044605F12401404688
:104A80002A46FFF721FA05F1180705F13201EA1C61
:104A90003846FFF719FA05F1400605F15801AA1D3D
:104AA0003046FFF78FF9C4E9006840F664389FED9F
:104AB0003E8A9FED3E9AC2F20008B3EE04AA404639
:104AC000032142F228324FF4FA73B0EE4A0AF0EEB4
:104AD000480AB0EE491AA760FFF75EFF40F63C496E
:104AE000C2F200094846032142F228324FF4FA7319
:104AF000B0EE4A0AF0EE480AB0EE491AFFF74CFF52
:104B000040F6145AC2F2000AB2EE040A50460321DB
:104B10004FF4FA5240F6B833F0EE490AB0EE491AB3
:104B2000FFF73AFF40F68C25C2F20005B6EE000A08
:104B3000284603214FF4FA524FF47A73F0EE490AF3
:104B4000B0EE491AFFF728FF40F6A846C2F2000669
:104B5000B2EE0E0A3046032142F2283240F6B83354
:104B6000F0EE490AB0EE491AFFF716FF40F620278B
:104B7000C2F20007B2EE000A3846032142F22832A0
:104B800041F28833F0EE480AB0EE491AFFF704FF0D
:104B900004F10C0080E80007C4E906572662BDEC6A
:104BA000068BBDE8F08700BF0AD7233C0000000059
:104BB000074B19680868B0E8F04F80F30988BFF325
:104BC0006F8F4FF0000080F31188704700BF00BF67
:104BD000C000002000F004F8012006F0DFFEF9E735
:104BE000B0B540F23030C2F2000090F82210012936
:104BF0000AD1407A40B14EF6581100EB8000CFF652
:104C0000FF71A1EB400000E0002040F67864C2F2A2
:104C10000004A0852046FBF749FEA068FFF748F98D
:104C20006068FFF745F961684868807870B1A068EE
:104C30004268927852B1226800890989128900235A
:104C4000FFF7D6F8012584F82E50B0BD00200021D2
:104C5000002200230025FFF7CBF884F82E50B0BDCA
:104C600080B500BF012006F099FEFBE780B54FF04C
:104C7000500080F31188BFF36F8FBFF34F8F09F09F
:104C8000FDFF30B14EF60450CEF200004FF08051DF
:104C90000160002080F3118880BD00004EF688502E
:104CA000CEF20000016841F4700101604FF0006134
:104CB00040F8801C7047000040F2D070C2F2000043
:104CC000FDF7B0BE10B540F6FF3E0368C4F2000E1B
:104CD00040F2004C7045C4F2010C27DCB0F1804F6B
:104CE00031D040F20042C4F2000290422BD040F694
:104CF0000002C4F20002904225D041F6FF72C4F2D5
:104D00000002904229DC70453CDCB0F1804F5FD05E
:104D100040F20042C4F20002904259D040F6000234
:104D2000C4F20002904253D056E000BF40F6004269
:104D3000C4F20002904206D0604504D00022C4F2C2
:104D400001029042D9D14A6823F07003134341F61F
:104D5000FF72C4F200029042D5DD43F6FF72C4F246
:104D60000102904222DC42F20002C4F200029042B0
:104D70002ED00022C4F20102904229D0604527D0F3
:104D80002AE000BF40F60042C4F2000290421FD069
:104D900041F60002C4F20002904219D041F60042EE
:104DA000C4F20002904213D016E000BF44F20002A9
:104DB000C4F2010290420BD044F60002C4F2010298
:104DC000904205D044F20042C4F20102904203D165
:104DD000CA6823F44073134323F080024B69D1F86F
:104DE00000E08C681A430260C46240F48062C0F83C
:104DF00028E0624504BF096901630121416110BDDA
:104E000040F62C10C2F20000FEF7A2B840F6701077
:104E1000C2F20000FEF79CB8806B0021C185C184FE
:104E2000FEF794B881B090F83E10222921D1836812
:104E30000246B3F5805F09D152F8281F52F8183C9A
:104E4000002B63D003685B680AE000BF52F8281F9C
:104E500013B90369002BF5D003685B6803F07F0387
:104E60000B70116801311160C18D01390A04C185CF
:104E700002D001B0704700BF0168CA6822F020026A
:104E8000CA60CA6822F48072CA604A6922F00102CC
:104E90004A61202180F83E10016B01293ED100219A
:104EA000016300BF016851E8031F026821F010018F
:104EB00042E80313DBB1016851E8031F026821F0E7
:104EC000100142E8031393B1016851E8031F02681F
:104ED00021F0100142E803134BB1016851E8031FB0
:104EE000026821F0100142E80313002BDAD10168B7
:104EF0000A68D20606D5002200920A680092496824
:104F000000910099818D01B0FEF71EB802685268C9
:104F10006FF35F2221F8022B8162A5E701B0FEF753
:104F200035BD000010B504460068D4E902C223690B
:104F3000016921F4405111430161626943EA0C01A6
:104F4000E3691143C268194349F20C639A43114360
:104F5000C1604169A26921F4407141F200431143EB
:104F600040F48062C4F201039A42416102D1FDF72C
:104F70004BF901E0FDF734F9E16963681922B1F5F5
:104F8000004FA0FB020123D15A00DB0FFBF76CF9A5
:104F900048F21F51C5F2EB11A0FB01235A094FF64D
:104FA0009C73C0F6FF7303F1805302FB03003223AE
:104FB00003EBC000A0FB01014FF4F87000EA1110F0
:104FC00000EB0210C1F3421108442168886010BD53
:104FD0009A009B0FFBF748F948F21F51C5F2EB11FD
:104FE000A0FB01235A094FF69C73C0F6FF7302FB26
:104FF0000300322303EB0010A0FB0101F02000EAC4
:10500000511000EB0210C1F343110844216888607D
:1050100010BD000040F66000C2F20000FDF798BF2E
:1050200081B0002040F660010090C2F200010868E3
:10503000896B0268009250F8042F0092009A8268EF
:1050400042F010028260026942F04002026191F86F
:105050003420012A29D0012281F8342091F835200A
:10506000012A1FD1022281F8352000224A650A68F0
:1050700089681368402923F4802313604FF4AF73C9
:10508000536044F6A823C2F20003014604BF194648
:1050900003469160D360106840F00100106001B0D9
:1050A000704700BF002081F8340001B07047000055
:1050B00040F6A400C2F20000FDF74ABF10B581B06F
:1050C0000020009040F6A400C2F200000268806B4D
:1050D0001168009152F8041F00910099916841F005
:1050E00010019160116941F0400111618368802BCA
:1050F00004D14FF48071416501B010BD4AF61D71B5
:10510000C0F60001C16390F834104AF6357CC0F651
:10511000000C0129C0F844C000F0C68090F835109A
:10512000012940F0BE80022180F835100021416540
:10513000D0F800E046F20C4CDEF80010C4F2020C8D
:1051400041F48021CEF8001044F60641C2F200017D
:1051500001F11804CEF810401224402B1346CEF86B
:10516000044004BF0B4611460CF14C029645CEF8A4
:105170000830CEF80C1011D946F27041C4F2020189
:105180008E4549D046F28841C4F202018E4547D18E
:105190004FF40062CCF800207DE000BF46F2080228
:1051A000C4F2020202F1B0018E4519D946F2104153
:1051B000C4F202018E455DD046F22841C4F20201DC
:1051C0008E4551D046F24041C4F202018E450CBFDB
:1051D0004FF400134FF00063C2F800345BE000BFEF
:1051E00002F150018E4527D946F27001C4F2020146
:1051F0008E4543D046F28801C4F202018E4541D06B
:1052000046F2A001C4F202018E450CBF4FF4001318
:105210004FF0006353603EE02022CCF800203AE0DB
:105220000CF194014FF000628E4508BF4FF400125C
:10523000CCF800202FE000BF46F21001C4F20201BA
:105240008E4523D046F22801C4F202018E451FD0BC
:1052500046F24001C4F202018E450CBF4FF4001328
:105260004FF0006316E000BF4FF40063C2F8003453
:1052700011E000BF2023C2F800340CE0202353606B
:1052800009E000BF4FF40063536004E0202301E015
:105290004FF400631360DEF8001041F00101CEF816
:1052A0000010002180F8341001B010BD70470000DC
:1052B00040F6E800C2F20000FDF74ABE81B00020CF
:1052C00040F6E8010090C2F200010868896B0268AC
:1052D000009250F8042F0092009A826842F0100267
:1052E0008260026942F04002026191F83420012A92
:1052F00029D0012281F8342091F83520012A1FD1CC
:10530000022281F8352000224A650A6889681368FC
:10531000402923F4802313604FF4AF73536044F6A5
:105320003843C2F20003014604BF194603469160A8
:10533000D360106840F00100106001B0704700BFFA
:10534000002081F8340001B07047000081B00020D7
:1053500040F62C110090C2F200010868896B0268C7
:10536000009250F8042F0092009A826842F01002D6
:105370008260026942F04002026191F83420012A01
:1053800029D0012281F8342091F83520012A1FD13B
:10539000022281F8352000224A650A68896813686C
:1053A000402923F4802313604FF0C803536044F670
:1053B0009853C2F20003014604BF194603469160A8
:1053C000D360106840F00100106001B0704700BF6A
:1053D000002081F8340001B07047000081B0002047
:1053E00040F670110090C2F200010868896B0268F3
:1053F000009250F8042F0092009A826842F0100246
:105400008260026942F04002026191F83420012A70
:1054100029D0012281F8342091F83520012A1FD1AA
:10542000022281F8352000224A650A6889681368DB
:10543000402923F4802313604FF0C803536044F6DF
:105440006063C2F20003014604BF1946034691603F
:10545000D360106840F00100106001B0704700BFD9
:10546000002081F8340001B070470000FEE7000022
:1054700010B5D8B10446806CC0B1E06CB0B1206DFD
:10548000A0B1242020700320C2F20000A065206992
:10549000617A0028B1FA81F04FEA5010E07209D029
:1054A000204601F0DBFF78B140B210BDFF2040B2D2
:1054B00010BD00BF40F65420C0F601002061204618
:1054C00001F0CCFF0028EFD142F6542042F68421AF
:1054D000C0F60100C0F60101C4E9070141F208006D
:1054E0000721A0822046A175BDE8104000F07AB8DF
:1054F000704700002DE9F04381B00D4601468DF85C
:1055000003004FF0FF00D5B11446C2B1207D8842A0
:1055100014D9A06CC0B1E76CB7B1206DA0B194F8FC
:105520005700012816D163680DF103012F200122D5
:10553000B847A0724FF4E17014E000BFF62040B20B
:1055400001B0BDE8F08300BFFF2040B201B0BDE86C
:10555000F08300BF63680DF103012F200122B847DB
:10556000A07214206168226D9047A07A20B1FE20BD
:1055700040B201B0BDE8F083E0890F2828D84FF091
:105580003008002710264FF00009C1071CBF013862
:10559000E08100BFE289F3B29A4255FA89F15FFADD
:1055A00088F005D91A46234600F044F806E000BF0B
:1055B000234600F03FF8A67BB144B0440028BED19A
:1055C0003744F9B21029C7F11006E3D1B7E700BF9D
:1055D000302029461022234600F02CF840B201B0BA
:1055E000BDE8F08310B584B00446B0F858008007D9
:1055F00004D4002040B204B010BD00BFA06CA8B11C
:10560000E06C98B1206D88B128208DF800006846C4
:105610000121224601F032FA0028EBD1BDF8040046
:10562000A4F85400002040B204B010BDFF2040B2E6
:1056300004B010BD2DE9F04703AF82B0E3B3884654
:10564000996C1D4681B3E96C71B3B8F1000F4FF04E
:10565000FF0132D014462A6D7AB3E97A0723214438
:105660008AB213FA81F121F00701E946ADEB010698
:10567000B546697AD5F848C06B68002995F857A0F7
:10568000314608BF40F08000E04769682A6DA87283
:105690001420BAF1010F08BF4FF4E1709047A87AC7
:1056A00090B1FE2153E000BFFF21A7F10C0448B2E6
:1056B000A546BDE8F08700BFFF21A7F10C0448B262
:1056C000A546BDE8F08700BF002C3FD0601E032830
:1056D00004F0030C02D200211EE000BF24F00302FC
:1056E00008F10103002100BFEC7A58183444645CCF
:1056F00000F8014CEC7A34440C4464785C54EC7A45
:1057000034440C44A4784470EC7A34440C44E47877
:1057100004318A428470E7D1BCF1000F16D0E87AD8
:10572000BCF1010F0844305C08F801000ED0E87AA3
:105730004A1C1044305CBCF1020F08F8020005D08E
:10574000E87A02310844305C08F801000021CD46B7
:10575000A7F10C0448B2A546BDE8F0872DE9F04F4B
:105760008DB0002A01F06C818346906C16460028AB
:1057700001F06081F06C002801F05C81BBF1000F4A
:1057800001F05881306D00284FF0FF0001F0598181
:1057900096F857908846002901F0588106F11500C7
:1057A000089006F11C0007900DF1240C4FF0000A40
:1057B00034210AFB01F01BF800000AFB01B70328A3
:1057C00001D802280CD1B9F1010F09D100203146CE
:1057D00002F0CAFB002841F0348138780DF1240C26
:1057E0001C2801F24581DFE810F09100BB00EB00BE
:1057F00043017301A301310031003100D3010302E1
:10580000330263021D009302C302F3022303530316
:105810008303B303E3031304430471041D001D0059
:105820001D009D043078023700212128CDE90B119D
:105830000A9109913CD0272840F0A484F26D3846A3
:10584000314690470DF1240C00F09DBC08980021D2
:105850000078CDE90B1100280A91099100F092849B
:105860000799BD1C09680138063111F8062C072A72
:1058700000F09484002800F0858411F8032C072A96
:1058800000F08E84012800F07D840A78072A00F059
:105890008A84022800F07684CA78072A00F082847D
:1058A0000438421C01F10C01DFD100F06BBC00BFD9
:1058B00008980078002801F063800799421E096863
:1058C000063111F8060C0D2800F09684002A01F02C
:1058D000578011F8030C0D2800F09084012A01F084
:1058E0004F8008780D2800F08C84022A01F048804F
:1058F000C8780D2800F08484043A501C01F10C0192
:105900004FF00000DDD100F03EBC00BFB06C0028BD
:105910004FF00000ADF8240050D0F06C00284DD0BE
:10592000306D00284AD04020614602223346FFF7FE
:1059300081FE0DF1240C002840F025849DF82410F0
:10594000B81C9DF82520CB098370C1F3021301F028
:105950000F01017002F003014370C17001F010B833
:10596000B06C00284FF00000ADF8240026D0F06C99
:1059700020B3306D10B34220614602223346FFF758
:1059800059FE0DF1240C002840F0FD839DF82410F1
:10599000B81CCB099DF825208370C1F38013437197
:1059A000C1F3011301F00F010170C2F3C001C17016
:1059B00002F007014370017100F0E2BFFF20E2E353
:1059C000B06C002801F03680F06C002801F03280C5
:1059D000306D002801F02E806B2061460122334695
:1059E0006546FFF727FE002841F02B809DF8240034
:1059F000BC1CC0F3401020700020ADF824004B20E8
:105A0000294602223346FFF715FE002841F019808F
:105A10009DF824009DF825104008CA09E07148B29D
:105A20006270C1F38012A270C1F3810201F0030120
:105A3000B0F1FF3FE270217109DD04F108014D2052
:105A400001223346FFF7F6FD002840F0FA87442094
:105A500009A901223346FFF7EDFD30B99DF8241066
:105A60000A0901F00F01A27161710DF1240C8AE3A2
:105A7000089800210078CDE90B1100280A910991BE
:105A800000F080830799023709680138063111F860
:105A9000062C032A00F0D483002800F0738311F849
:105AA000032C032A00F0F283012800F06B830A78AC
:105AB000032A00F01284022800F06483CA78032AC3
:105AC00000F00A840438421C01F10C01DFD159E3D3
:105AD000089800210078CDE90B1100280A9109915E
