:020000040800F2
:10000000D00F00209D01000801480008693B00084E
:10001000FD4700088902000809510008000000009F
:10002000000000000000000000000000314900084E
:100030000106000800000000494800083549000892
:10004000B7010008B7010008B7010008B7010008B0
:10005000B7010008B7010008B7010008B7010008A0
:10006000B7010008B7010008B701000865050008DE
:10007000710500087D05000889050008B701000822
:1000800095050008B7010008B7010008B70100088E
:10009000CD020008B7010008B7010008B701000849
:1000A000B7010008B7010008B7010008B701000850
:1000B00055490008B7010008B7010008B70100085A
:1000C000B7010008B7010008B7010008B701000830
:1000D000B7010008B14C00084D4D00084D4F000815
:1000E000B7010008B7010008B7010008B701000810
:1000F000B7010008B7010008B7010008A105000812
:10010000B7010008B7010008B7010008B7010008EF
:100110009D4A0008A94A0008B7010008B701000875
:10012000AD050008B7010008B9050008C5050008BD
:10013000B7010008B7010008B7010008B7010008BF
:100140001D030008B7010008B7010008B701000847
:10015000B7010008B7010008B7010008B70100089F
:10016000B7010008B7010008B7010008B70100088F
:10017000B7010008B7010008B7010008000000003F
:10018000B7010008B7010008DFF80CD000F068F8EC
:10019000004800473D510008D00F00200648804726
:1001A00006480047FEE7FEE7FEE7FEE7FEE7FEE75C
:1001B000FEE7FEE7FEE7FEE739490008890100088F
:1001C0002DE9F05F0546002092469B46884606468C
:1001D000814640241BE0284641464746224600F01F
:1001E0002FF853465A46C01A914110D3114618466B
:1001F000224600F016F82D1A67EB01084F462246FA
:100200000120002100F00DF817EB00094E41201EDF
:10021000A4F10104DFDC484631462A464346BDE8E6
:10022000F09F202A04DB203A00FA02F100207047F8
:100230009140C2F1200320FA03F319439040704724
:10024000202A04DB203A21FA02F00021704721FA2B
:1002500002F3D040C2F12002914008431946704792
:10026000064C074D06E0E06840F0010394E8070003
:1002700098471034AC42F6D3FFF78AFFBC5200080F
:10028000DC52000870470000FEE7000010B58AB09D
:1002900040F2F00400200121C2F200040690CDE9F2
:1002A0000400CDE90200CDE90000CDE90711099075
:1002B0006946204600F0A6FB2046022100F02AFBFA
:1002C000204600F017FF0AB010BD000040F2F00019
:1002D000C2F2000000F098BC7047000010B58AB070
:1002E00040F2181400200121C2F200040690CDE96A
:1002F0000400CDE90200CDE90000CDE90711099025
:100300006946204600F07EFB2046022100F002FBF9
:10031000204600F0EFFE0AB010BD000040F21810B9
:10032000C2F2000000F070BC7047000010B588B049
:1003300000244FF40060CDE9004407940690CDE915
:100340000444CDE9020403F03BFC002842D003F052
:1003500043FD002842D001AA2020232103F048FEBB
:100360006A462420272103F043FE07AA0020032128
:1003700003F03EFE06AA0420072103F039FE05AA79
:1003800008200B2103F034FE04AA1020132103F0EF
:100390002FFE03AA1420172103F02AFE02AA182018
:1003A0001B2103F025FE6020042103F0EDFD7020E9
:1003B000012103F0E9FD2A20002103F0E5FD2920B9
:1003C000912103F0E1FD2820812103F0DDFD03F000
:1003D0006FFD0446204608B010BD00BF0024204633
:1003E00008B010BDB0B584B0044603F0BFFB402890
:1003F00002D2002004B0B0BD0546400606D405F088
:10040000C000802807D1942001E000BF90206946F9
:100410000D2203F071FC05F01800102816D19DF88C
:1004200001209DF800101C2302F0030503EAD2020C
:1004300042EA411102209DF802C0294420709DF833
:100440000300090441EA0C2108E000BF01202070EC
:100450009DF800009DF80120C100500908439DF857
:10046000041060602172DDF80500DDF80910C4F8A1
:100470000900C4F80D10012004B0B0BD70B540F201
:100480009C040546C2F200040020206003F05CFCDE
:100490004107207112D429786868022922D101BA53
:1004A000090CE0226180C0F3014102EA503211449C
:1004B00008316170C0F347511AE000BFC1061BD478
:1004C0002978686802292DD101BA090CE0226180DF
:1004D000C0F3014102EA5032114408316170C0F3A7
:1004E000475125E00021618041016170C0F3D701CF
:1004F0008126402028E000BF400644BF002070BD98
:1005000029786868022917D101BA090CE0226180B4
:10051000C0F3014102EA5032114408316170C0F366
:1005200047510FE00021618041016170C0F3D701A4
:100530008226422008E000BF0021618041016170F5
:10054000C0F3D701842644202A7A217005F10903DB
:10055000214603F097FB304603F020FC012070BDDC
:100560007047000040F28420C2F2000000F058BE44
:1005700040F20440C2F2000000F052BE40F22420DB
:10058000C2F2000000F04CBE40F26440C2F2000033
:1005900000F046BE40F2A430C2F2000000F040BEBF
:1005A00040F2E420C2F2000000F03ABE40F26410D3
:1005B000C2F2000000F034BE40F24430C2F200004B
:1005C00000F02EBE40F2C410C2F2000000F028BEBF
:1005D00080B504F017F9FFF755FEFFF7C1FF04F0EF
:1005E0006DFB04F0B9FB04F0B7FC04F0FDFC04F073
:1005F00043FDFFF74BFEBDE88040FFF76FBE0000F4
:10060000704700007047000070B581B00022009272
:1006100090F83C20012A03D10221084601B070BDA8
:100620000E6801220A2E80F83C2009D3B2B2520093
:10063000D0F800E012FA86F21E3A0EF10C0305E043
:10064000D0F800E006EB46020EF110034FF0070C65
:100650001D680CFA02F4A5431D608D681C6805FA3C
:1006600002F222431A60496806290FD801EB810182
:100670004A1F71461F2351F8345F934025EA030354
:100680000B60B3B203FA02F214E000BF01EB810386
:100690000C29B2B204D8714651F8304F233B03E025
:1006A000714651F82C4F413B1F259D4024EA05051A
:1006B0009A400D600B6842F2043CC4F2010C1A43EC
:1006C000ACF541739E450A603BD1122E06D1DCF891
:1006D000001041F48001CCF8001032E026F0010156
:1006E00010292ED1DCF80010102E41F40001CCF8B6
:1006F000001026D140F20801C2F2000109684DF64F
:100700008362C4F21B32A1FB0212910C01EB810146
:10071000490000910099A1B1009901390091009917
:1007200079B1009901390091009951B100990139CD
:100730000091009929B1009901390091009900298F
:10074000EAD1002180F83C10084601B070BD0000DD
:10075000002804BF0120704710B50446006C002833
:100760003ED0206CC00645D4206C41F20211884373
:10077000023042F204312064C4F20101086820F41E
:10078000403008600A6894E809101A43D4F810E071
:100790000A604168012321F4807141604168C0F61C
:1007A000007341EA0E214160416821F040714160CF
:1007B000416841EA0C014160816821F40061816077
:1007C000E168826811438160A16A8268994222F0DF
:1007D00070628260826813D122F0405119E000BF3C
:1007E000204600F065F80020606484F83C00206C2E
:1007F000C006B9D50120002184F83C1010BD00BF0F
:1008000011438160816821F040518160E16A826812
:1008100011438160816821F0020181608168227E3C
:1008200094F8203041EA42018160416883B141F48B
:100830000061416041684EF2000221F46041416074
:10084000616ACFF6FF72436802EB4131194301E060
:1008500021F400614160C16A40F2000C21F4700192
:10086000C162E2696169CFF6F07CC36A0CEB0252A7
:100870001A43C262826822F40072826094F83020C7
:10088000836843EA42228260826822F48062826046
:10089000826842EA8121816000206064216C01222B
:1008A00062F301012164002184F83C1010BD0000B6
:1008B00080B586B042F200010068C4F20101002256
:1008C00088420592049201D006B080BD43F6300004
:1008D0000092C4F20200436943F4807343614369A8
:1008E00003F480730093009B0092036843F00403B9
:1008F0000360006800F0040000900098012001905F
:100900000320CDE9020201F5684001A900F02EFEA6
:1009100006B080BD90F82020013A012A08D800686E
:1009200000F114020020136819431160704700BFE2
:1009300000F1240201204FF4802113681943116053
:100940007047000010B590F820E0D0F800C0AEF17C
:10095000010EBEF1010FDCF808E011D81EF0E05FD7
:1009600018D0CEF3016EBEF1030F1DD100F12401AA
:1009700001204FF400020B681A430A6010BD00BF4B
:1009800000F1240101204FF480220B681A430A6011
:1009900010BD00BF00F1240101204FF400120B68CC
:1009A0001A430A6010BD00BF012000FA0EF0186063
:1009B000886828B14B68CC6844EAC303034303E06A
:1009C0000868CB6843EA40530CEB0E10C0F8803146
:1009D0000B69C0F88431097D012905D100F5C27188
:1009E0000B6843F480730B605168C0F88C11126877
:1009F00000F5C071C0F88821002001220B681A435D
:100A00000A6010BDB0B590F82020013A012A2FD815
:100A100046F20060C4F20000026842F00102026087
:100A2000026822F47C520260D1F814E0CC694A6A70
:100A30000368012C43EA022202600EF01F024FF00D
:100A4000010303FA02F2C3696FEA020C23EA02030C
:100A5000C36113D02CBBC36803EA0C03C360CB682B
:100A60008C8844EA034300EBCE0423640B4611E078
:100A7000416A41F4802141620120B0BDC368134343
:100A8000C3600B688C8844EA034300EBCE04236404
:100A900001F10C038C681B8843EA044300EBCE048D
:100AA000636443688D6943EA0204D1F810E0096A7F
:100AB000002D08BF03EA0C0444604369BEF1000F37
:100AC00043EA020408BF03EA0C040129446102D18D
:100AD000C1691143C161016821F001010160002079
:100AE000B0BD00007047000010B590F82040013CF8
:100AF000012C71D8D0F800C0002977D0DCF8104064
:100B0000A40777D00CEB011CDCF8B0410CF5D87EC3
:100B100014F004049460DCF8B04119BFE408546098
:100B2000640D1460DEF80040002904F00204D46073
:100B3000DCF8B44104F00F041461DCF8B441C4F3F0
:100B400007249461DCF8B4414FEA14445461DCF8A2
:100B5000B8211A70026802EB0112D2F8B8214FEAEC
:100B600012225A70026802EB0112D2F8B8214FEA41
:100B700012429A70026802EB0112D2F8B8214FEAD1
:100B80001262DA70026802EB0112D2F8BC211A710B
:100B9000026802EB0112D2F8BC214FEA12225A710C
:100BA000026802EB0112D2F8BC214FEA12429A719C
:100BB000026802EB0112D2F8BC214FEA1262DA712C
:100BC000006814BF00F1100100F10C010020202288
:100BD0000B681A430A6010BD00F1240101204FF494
:100BE00080220B681A430A6010BD00BFDCF80C407D
:100BF000A40787D100F1240101204FF400120B68F3
:100C00001A430A6010BD00002DE9F04F81B0044680
:100C100000684669D0F804908768D0F80CB0D0F826
:100C200010A0D0F81880F10704D1002530071DD49A
:100C300024E000BFF90710D00121BA07816009D470
:100C4000780700F1AF80380700F1B680204600F049
:100C50007FFA02E0204600F07DFA0025F80500F159
:100C60008780F80300F1B180300707D51BF0100032
:100C700004D0206845F400751021C160700708D5C4
:100C80001BF0080005D020680821C160204600F054
:100C9000F5F9B00706D52068C068800702D0204665
:100CA00000F0EEF9700607D51AF0100004D02068A5
:100CB00045F4806510210161B00608D51AF00800DE
:100CC00005D0206808210161204600F00DFAF006E9
:100CD00006D520680069800702D0204600F006FA99
:100CE000B00308D519F0100005D02068102141602C
:100CF000204600F0FDF9F00308D519F0080005D0F2
:100D0000206808214160204600F02EFA300440F1AE
:100D10009B805FEA497040F1948006F4807008EA95
:100D2000102028435FEA8871014648BF41F0020164
:100D3000B20558BF01465FEA48700D4648BF45F00E
:100D40000405700558BF0D46300540F17A8018F053
:100D5000700000F076801038000905286CD8DFE8B4
:100D600000F003595D61656945F0080564E000BF66
:100D700020684FF48071BA0581600BD4780515D4D2
:100D800038051DD4204600F0E7F9F8037FF56CAF75
:100D90001BE000BF204600F0E1F9F8037FF564AFE7
:100DA00013E000BF4FF4006558E700BF05F500559C
:100DB000F8037FF559AF08E04FF480554EE700BFC8
:100DC00005F58045F8037FF54FAF20684FF480317B
:100DD000BA0381600AD4780310D4380314D42046AF
:100DE00000F0BEF930073FF541AF47E7204600F07D
:100DF000B9F930073FF53AAF40E700BF05F50045C8
:100E000030073FF533AF39E705F5803530073FF55B
:100E10002DAF33E745F010050EE000BF45F020058B
:100E20000AE000BF45F0400506E000BF45F0800540
:100E300002E000BF45F480752068816921F07001EF
:100E4000816120680421416055B1606A40EA050172
:100E50002046616201B0BDE8F04FFFF743BE00BF1E
:100E600001B0BDE8F08F0000B0B5C8B1044690F8FD
:100E7000200010B9204600F071F82068016841F0A8
:100E80000101016000F04CFC054600BF206841688C
:100E9000C90707D100F044FC401B0B28F6D312E031
:100EA0000120B0BD016821F00201016000F038FCB2
:100EB000054600BF2068416889070DD500F030FC69
:100EC000401B0B28F6D3606A052140F400306062B5
:100ED000012084F82010B0BD217E0268012922F093
:100EE000800208BF80320260617E0268012922F020
:100EF000400208BF40320260A17E0268012922F050
:100F0000200208BF20320260E17E0268012922F03F
:100F1000100218BF10320260217F0268012922F0FE
:100F2000080208BF08320260617F0268012922F0CE
:100F3000040208BF04320260D4E901C2D4E90335D7
:100F400061691A432A431143ACF101021143C161A3
:100F500000200121606284F82010B0BD10B586B079
:100F6000006846F60002C4F2000200219042CDE97A
:100F70000411CDE90211019134D046F20041C4F2CE
:100F80000001884277D140F2A401C2F200010A6850
:100F900043F64000C4F20200531C0B6052B900211A
:100FA0000091016841F000710160016801F0007179
:100FB000009100990021009150F8101C142441F078
:100FC000080140F8101C50F8100C032100F0080034
:100FD0000090009840F20040C4F2020000F500606A
:100FE00035E000BF43F64000C4F202000091016802
:100FF00041F080610160016801F080610091009919
:1010000040F2A401C2F200010A68531C0B6052B9FD
:1010100000210091016841F000710160016801F058
:101020000071009100990021009150F8101C40249B
:1010300041F0020140F8101C50F8100C602100F043
:1010400002000090009840F20040C4F202000191BA
:1010500002210291002103910321049109210591AC
:1010600001A900F083FA20460021002200F014FCC0
:10107000204600F0FDFB06B010BD000070470000E8
:10108000B0B5016846F60002C4F20002914219D0E0
:1010900046F20042C4F20002914218BFB0BD40F2D5
:1010A0003805C2F2000505F15C0405F1400200219B
:1010B0002346FFF719FD286C2146BDE8B040FFF735
:1010C0000BB900BF40F24014C2F2000404F11C0549
:1010D000002122462B46FFF707FD20682946BDE880
:1010E000B040FFF721B900007047000070470000D2
:1010F00070470000B0B5044690F8200001281DD1CB
:10110000022084F820002068016821F001010160BC
:1011100000F006FB054600BF20684068C00713D0FA
:1011200000F0FEFA401B0B28F6D3606A40F4003052
:101130006062052084F820000120B0BD606A40F4A0
:10114000002060620120B0BD00206062B0BD0000E0
:1011500070470000704700007047000070470000B3
:1011600070470000704700007047000070B5866D42
:10117000044600F0D5FA94F83510022928D1054626
:101180002068216C026822F016020260426922F097
:101190008002426109B9A16C19B1016821F008010E
:1011A0000160016821F00101016000BF2068006852
:1011B000C00715D000F0B4FA401B0628F6D3202053
:1011C0006065032084F83500002184F8341070BD78
:1011D000802060650120002184F8341070BD00BFBC
:1011E000E06D3F2101FA00F0B060012084F8350085
:1011F0000020002184F8341070BD000090F83510F4
:10120000022909D1052180F835100068016821F014
:101210000101016000207047802141650120704775
:10122000F0B581B004460020009040F20800C2F200
:1012300000000268D4E9166048F2B5133768082147
:10124000C1F64E3381403942A2FB03250CD02268FF
:1012500013685B0708D5136823F004031360B160BB
:10126000616D41F00101616501218140394208D081
:1012700022685269120604D5B160616D41F0020125
:10128000616504218140394208D0226812689207C2
:1012900004D5B160616D41F00401616510218140A8
:1012A000394217D020680268120713D5B16002686E
:1012B0000168520308D4C90508D4016821F0080167
:1012C0000160216C21B905E008033FD4216C09B10C
:1012D00020468847E16D202000FA01F23A4241D0D1
:1012E00020680368DB063DD5B26094F835300268AB
:1012F000052B1BD122F016020260426922F0800207
:101300004261226C0AB9A26C1AB1026822F008028A
:1013100002603F208840B060012084F83500216DD4
:101320000020002984F8340052D157E001685203AC
:1013300010D4C90512D4016821F010010160012008
:1013400084F83500002084F8340007E0A16C0029FF
:10135000BED1BFE7080301D4616C00E0E16B09B1C5
:1013600020468847606DC8B3606DC0072ED0052049
:1013700084F835002068A90A026822F001020260A0
:10138000009A01328A4200921AD80268D20717D016
:10139000009A01328A42009212D80268D2070FD016
:1013A000009A01328A4200920AD80268D20707D016
:1013B000009A01328A42009202D80268D207DFD135
:1013C000012084F83500002084F83400E16C29B154
:1013D000204601B0BDE8F040084700BF01B0F0BDB5
:1013E0002DE9F041044600F09BF9ECB105460220DE
:1013F00084F835000020216884F83400086820F063
:101400000100086021680868C00711D000F088F961
:10141000401B0528F6D9032520230320636584F8A3
:101420003550BDE8F08100BF0120BDE8F08100BF6C
:10143000086848F23F02CFF21002D4E9013500EA11
:10144000020C04F10C0898E8C10143EA0C032B4399
:101450001843D4E9072E304338431043626A40EA08
:101460000E00042A40EA08031CD1206BD4E90A2E9E
:1014700040EA0E00184308604869BEF1000F20F0F2
:10148000030040EA020040F0040C11D0B8F5005F00
:1014900036D0B8F1000F45D1022A46D0012A3BD000
:1014A00032B942E00B60486920F0070040EA020CC4
:1014B00001F0F8004AF6AB221038CAF6AA22A0FBC7
:1014C00002231A0945F2B223C0F600039A5C40F2E7
:1014D000FF335F284FF03F00C1F814C021EA030139
:1014E00000FA02F088BF0431C4E9161288600023B4
:1014F00001250020636584F83550BDE8F08100BF08
:10150000032AD5D8012540230120DFE802F0030E8D
:10151000030500BF82E700BFAEF1C070B0FA80F0F3
:10152000400904E0032A04D3C2D1CEF300600028AE
:10153000BED0012540230120636584F83550BDE805
:10154000F0810000B0B5044600F0EAF8054640F22C
:101550000000C2F200000078611C18BF044400BF04
:1015600000F0DEF8401BA042FAD3B0BD2DE9F04FE9
:1015700082B000F13E4241F6004502F1FF77C4F22D
:101580000205082243F6004E4FEAB726A84208BFDC
:101590000722C4F2010E072E38BF4FEAB7220125F9
:1015A000002600274FF00008009208E008F101082B
:1015B0000437B8F1100F06F1020600F0A7800C689E
:1015C00005FA08F914EA090FF0D0D1F804B00322A3
:1015D0000BF0030CACF10104B240012C6FEA020ADB
:1015E00010D88268CC6802EA0A02B44022438260C2
:1015F0004268CBF3001422EA090204FA08F42243F9
:10160000426005E0BCF1030F02D14FF0030C20E073
:10161000C2688C6802EA0A02B4402243BCF1020F9D
:10162000C26016D16FF0030202EA58020244D2F8F7
:1016300020C007F01C050F230C69AB402CEA030304
:1016400004FA05F52B431362D1F804B001250BF021
:10165000030C02680CFA06F302EA0A021A431BF4AE
:10166000403F0260A2D0002243F644030192C4F23C
:1016700002031A684FF6084C42F480421A601A6856
:10168000CFF6FF7C02F480420192019A28F0030217
:10169000724452F80C3007F00C050F24AC40A34301
:1016A000009C04FA05F52B4342F80C30DEF80820C4
:1016B0004B6842EA090543F60C4CDC0258BF22EAAB
:1016C0000905CEF80850C4F2010CDCF800209C0299
:1016D00042EA090558BF22EA0905CCF80050DEF8B5
:1016E00004209C0342EA090558BF22EA0905CEF806
:1016F0000450DEF80020DB0342EA090558BF22EA65
:101700000905CEF80050012550E700BF02B0BDE842
:10171000F08F0000002A08BF0904816170470000B3
:1017200040F6C830C2F200000068704740F2000086
:1017300040F6C831C2F20000C2F2000100780A6827
:10174000104408607047000080B543F60040C4F2C2
:101750000200016841F400710160016841F4806198
:101760000160016841F480710160032000F0C0F85D
:101770000F2000F005F800F05FF8002080BD0000A9
:1017800070B586B0002543F640010195C4F2020110
:101790000A68044642F001020A60096801A801F0E3
:1017A000010101910199694600F062F9049E002E41
:1017B00018BF012600F07CF94DF68361B040C4F2F9
:1017C0001B31A0FB01014FF0FF3000EB914140F2D3
:1017D0006450C2F200004FF0804240F2E733C0E9AB
:1017E0000021C0E902530561856101F081F80546D9
:1017F00010B1284606B070BD40F26450C2F200003D
:1018000001F0D4F805460028F3D11C2000F030F890
:101810000F2C0DD81C2021460022002500F03CF89A
:1018200040F20400C2F200000460284606B070BD19
:101830000125284606B070BD82B0002043F6400165
:101840000190C4F202014A6842F480424A604A6848
:1018500002F480420192019A0090086840F08050A2
:101860000860086800F080500090009802B070474F
:10187000002848BF7047C1B200F01F00012202FAE1
:1018800000F04EF20012CEF2000242EAD10121F045
:10189000030108607047000010B54EF60C5CCEF2F4
:1018A000000CDCF80030C3F3022E8EF00704042C89
:1018B00028BF0424BEF103034FF0FF3E0EFA04F4E8
:1018C00038BF0023A14399400EFA03F39A43114312
:1018D00000F00F0200F160430901043A03F564438C
:1018E0006244002848BF02F10C03197010BD0000CB
:1018F0004EF60C51CEF200010A684FF6FF031A4073
:1019000060F30A2242F0806040F0FD70086070478A
:101910002DE9F041002800F08B8043F60808C4F25E
:1019200002080446D8F8F8030D4600F00700884284
:1019300007D288F8F853D8F8F80300F00700A84257
:1019400076D12068810717D5410705D5D8F8001052
:1019500041F4E051C8F80010010705D5D8F800108F
:1019600041F46041C8F80010D8F80010A26821F0D6
:10197000F0011143C8F80010C0073FD1D8F8F803B0
:1019800000F00700A84207D988F8F853D8F8F80300
:1019900000F00700A8424BD12068410707D5D8F8CE
:1019A0000010E26821F4E0511143C8F8001000076C
:1019B00008D5D8F80000216920F4604040EAC10051
:1019C000C8F8000000F09CF8D8F8001045F29A2200
:1019D000C1F30311C0F60002515C40F2080220FA84
:1019E00001F140F20400C2F200000068C2F20002FD
:1019F0001160FFF7C5FE0020BDE8F0816068811E20
:101A0000022907D258F8081C89015CBF0120BDE8F3
:101A1000F08111E0012807D158F8081C89035CBF48
:101A20000120BDE8F08107E058F8081C890703D4BD
:101A30000120BDE8F08100BFD8F8001021F00301BB
:101A40000843C8F80000FFF76BFE064641F28837EE
:101A5000D8F80000616800F00C00B0EB810F8DD069
:101A6000FFF75EFE801BB842F2D90320BDE8F0818B
:101A70000F22026043F60802C4F20202136803F068
:101A800003034360136803F0F0038360136803F4F7
:101A9000E053C360D2F800C04FF4E05303EADC0324
:101AA0000361D2F8F80300F00700086070470000F7
:101AB00040F2080043F60801C2F20000C4F202013D
:101AC0000068096845F2AA22C1F38221C0F600022B
:101AD000515CC8407047000040F2080043F608011E
:101AE000C2F20000C4F202010068096845F2AA22AD
:101AF000C1F34231C0F60002515CC840704700009B
:101B000010B543F60404C4F20204606800F00C004F
:101B100008280BD0042819BF42F20040C0F2F4009C
:101B200047F64000C0F27D1010BD00BF206821685C
:101B30002368490247F64001C0F27D1100F03F02E0
:101B4000C3F388105CBF42F20041C0F2F401A1FB74
:101B500000010023FEF734FB21680222C1F301419A
:101B600002EB4101B0FBF1F010BD00002DE9F041A6
:101B700082B0002868D00446007843F60006C0070B
:101B8000C4F202060BD0B06800F00C00042840F04C
:101B90009F803068800302D56068002854D0207888
:101BA00080071AD5B06810F00C0F09D0B06800F0AB
:101BB0000C00082840F0A6807068400200F1A28066
:101BC0003068800702D5E06801283DD1306821697E
:101BD00020F0F80040EAC10030602078000737D4D8
:101BE000207840074CD4A56955B3B06800F00C00CC
:101BF000082840F0BB80012D26D07068E16900F410
:101C000080028A4220D1216A00F03F028A421BD121
:101C100047F6C071626A0140B1EB821F14D1A16A1C
:101C20004FF6FF73C903994300F44032A1F58031A8
:101C30008A4209D1E16A00F07060B0EB016F03D114
:101C4000002002B0BDE8F081012002B0BDE8F081C3
:101C50006069002840F20000C4F2472076D00121DC
:101C6000C0F8801EFFF75CFD054600BF706F80075F
:101C7000B6D4FFF755FD401B0228F7D9DDE000BFC1
:101C8000306C10F080580AD100200190306C40F088
:101C900080503064306C00F080500190019847F221
:101CA0000007C4F200073868C00541D4386840F422
:101CB00080703860FFF734FD054600BF3868C00506
:101CC00036D4FFF72DFD401B0228F7D9B5E000BF41
:101CD000B06800F00C00082803D1706840023FF59E
:101CE00058AF6068B0F5803F07D0B0F5A02F40F046
:101CF0008D80306840F480203060306840F480305F
:101D000030608DE0E068002852D00020C4F2472007
:101D100001210160FFF704FD054600BF3068800720
:101D20003FF554AFFFF7FCFC401B0228F6D984E0D6
:101D3000A068012805D005284ED1306F40F004007E
:101D40003067306F40F0010030674FE00021C0F88D
:101D5000801EFFF7E5FC0546706F80077FF540AFFA
:101D6000FFF7DEFC401B0228F6D966E00027C4F22C
:101D7000472700203866FFF7D3FC022D05460BD11C
:101D8000306880015ED5FFF7CBFC401B02284FF086
:101D90000300F5D955E700BF306880017FF550AFEB
:101DA000FFF7BEFC401B02284FF00300F4D948E7C0
:101DB0000020C4F2472000210160FFF7B1FC054676
:101DC000306880077FF509AFFFF7AAFC401B0228A7
:101DD0004FF00300F4D934E7316F002821F00101FE
:101DE0003167316F21F0040131674DD0FFF798FC66
:101DF000054641F2883700BF306F800756D4FFF7A1
:101E00008FFC401BB842F7D917E000BF31680028AB
:101E100021F480313160316821F4802131604FD06C
:101E2000FFF77EFC054600BF306880033FF5B7AE84
:101E3000FFF776FC401B6428F6D9032002B0BDE80A
:101E4000F08100BF04F11C052FCD084340EA821049
:101E5000D9034FF6FF729143A1F5803140EA056046
:101E60000843706001203866FFF75AFC044600BF43
:101E7000306880013FF5E4AEFFF752FC001B0228FA
:101E80004FF00300F4D9DCE6FFF74AFC054641F2C7
:101E9000883700BF306F800708D5FFF741FC401B33
:101EA000B8424FF00300F5D9CBE600BFB8F1000F00
:101EB0007FF499AE306C20F08050306493E600BF20
:101EC000FFF72EFC054600BF306880037FF567AE44
:101ED000FFF726FC401B64284FF00300F4D9B0E65E
:101EE00090F851007047000070B538B10446406A60
:101EF00030B10020206104F1140007E0012070BD22
:101F00006068B0F5827F03D004F11C0000210160FD
:101F10000026A66294F8510020B9204684F850604B
:101F200000F03CF8022084F8510094E80F0001F41E
:101F30008271056802F4044225F0400505601144F1
:101F400003F400622369114403F00202636911443F
:101F500003F00102A369E569114403F4007211441E
:101F600005F03802256A114405F08002A56A114384
:101F700005F4005211430160626A042101EA134131
:101F800002F0100211444160C16921F40061C16195
:101F90000120666584F85100304670BD2DE9F04798
:101FA00086B00446016843F20000C4F20100814299
:101FB00002D006B0BDE8F087002643F63001019656
:101FC000C4F202014A6946F2104842F480524A6162
:101FD0004A6900F5504002F480520192019A01963C
:101FE0000A68C4F2020842F001020A60096801F0BE
:101FF000010101910199E02101910221CDE902162F
:10200000032104910521059101A9FFF7AFFA40F2E0
:102010006415C2F200054FF0C0674FF4806A4FF4B8
:1020200080792846C5E90087C5E90266C5E904A6A6
:10203000C5E90669C5E90866FFF7D2F9002818BFA7
:10204000FEF7E0FAE564AC6340F2C41508F148001D
:10205000C2F200054021C5E9000705F1080080E84B
:1020600042042846C5E90566C5E907966E62FFF792
:10207000B7F9002818BFFEF7C5FAA564AC6306B02F
:10208000BDE8F0872DE9F04381B0044640681D4665
:102090001746B0F5827F0E4601D1A068E0B394F8F0
:1020A0005000012804D1022001B0BDE8F08300BF38
:1020B0004FF0010984F85090FFF732FB94F851106B
:1020C000012927D18046002E4FF0010018BF002FB4
:1020D00000F0C9800420002184F851006165A663E6
:1020E000A787E7872163A186E186A2682068B2F509
:1020F000004F216461644BD00168490653D5E16803
:10210000E08F002957D0002800F08680681C1CD181
:102110002DE000BF0220A6E0042084F851002046F4
:10212000314632463B46009500F0D0F901B0BDE89B
:10213000F08300BFC068A16B21F8020BA163E08FA0
:102140000138E087E08F002866D020688168C907E1
:10215000F0D1FFF7E5FAA0EB0800A842F2D3032084
:1021600081E000BFFFF7DCFAE08F002854D0206840
:102170008168C907F6D0C068A16B21F8020BA16382
:10218000E08F0138E087E08F0028F0D144E000BF05
:10219000016821F040010160016821F48041016083
:1021A00001684906ABD4016841F040010160E16873
:1021B000E08F0029A7D178B3681C0CD11CE000BFC8
:1021C000007BA16B0870A06B0130A063E08F013829
:1021D000E087E08F00B320688168C907F0D1FFF77E
:1021E0009FFAA0EB0800A842F3D303203BE000BF16
:1021F000FFF796FAE08F78B120688168C907F7D0B9
:10220000007BA16B0870A06B0130A063E08F0138E8
:10221000E087E08F0028EFD16068B0F5827F0ED1B3
:10222000A068B0F5004F02D0B0F5806F0AD12168E8
:10223000B0F5806F0A6822F040020A6002D12046A1
:10224000012101E0204680212A46434602F0FEFAA1
:1022500028B1606D40F02000606520206065606DF1
:10226000002818BF0120002184F8519084F85010F4
:1022700001B0BDE8F08300002DE9F04383B00446CF
:1022800090F85000012803D1022003B0BDE8F0838C
:102290004FF001091D4616460F4684F85090FFF78F
:1022A0003FFA94F85110012944D18046002F4FF095
:1022B000010018BF002E00F0D6800320002184F812
:1022C000510061652763A686E686A163A187E18741
:1022D000A0682164B0F5004F2068616407D10168EF
:1022E00021F040010160016841F480410160016812
:1022F000490603D4016841F0400101606168731E22
:10230000E268B1FA81F1B3FA83F349095B09B2F5E6
:10231000006F41EA03013DD131B137F8021BC160C2
:102320002763E08E0138E086E08E00286CD0681CC0
:102330000DD11EE0022096E0216B31F8022BC26025
:102340002163E08E0138E086E08E00285CD02068B2
:1023500081688907F0D4FFF7E3F9A0EB0800A842F1
:10236000F2D303207FE000BFFFF7DAF9E08E002808
:102370004AD0206881688907F6D5216B31F8022B95
:10238000C2602163E08E0138E086E08E0028F0D143
:102390003AE000BF39B139780173206B0130206316
:1023A000E08E0138E086E08E70B3681C0BD11BE034
:1023B000216B09780173206B01302063E08E0138B6
:1023C000E086E08E00B3206881688907F0D4FFF7CB
:1023D000A7F9A0EB0800A842F3D3032043E000BF15
:1023E000FFF79EF9E08E78B1206881688907F7D5FC
:1023F000216B09780173206B01302063E08E013876
:10240000E086E08E0028EFD140F20800C2F2000022
:10241000006849F68171C1F25E61A0FB0101480DBF
:102420004FF47A71484302906068B0F5827F23D1FF
:10243000204680212A46434602F008FA28B1606D02
:1024400040F02000606520206065A06838B9002059
:1024500001902068C1680191806801900198606DC9
:10246000002818BF0120002184F8519084F85010F2
:1024700003B0BDE8F08300BF02980028E5D00298C1
:1024800001380290206880680006DED50298002896
:10249000DBD0029801380290206880680006D4D50D
:1024A00002980028D1D002980138029020688068F4
:1024B0000006CAD502980028C7D0029801380290B9
:1024C000206880680006D7D4BFE700002DE9F043FC
:1024D00083B0044690F85000012803D1022003B0D5
:1024E000BDE8F08301201E4615460F4684F85000D3
:1024F000FFF716F994F851108146012940F09880B1
:10250000002F4FF0010018BF002D00F09E80002E1C
:1025100000F09B8094F85100002104281CBF052086
:1025200084F851006165A563E687A6872763E68680
:102530002068A686216461640168490603D40168A5
:1025400041F0400101606168731EE268B1FA81F1F7
:10255000B3FA83F3DDF8288049095B09B2F5006F0F
:1025600041EA03017AD131B137F8021BC160276318
:10257000E08E0138E086012518F1010031D101E03B
:10258000FFF7CEF8E08E18B9E08F002800F0D08079
:102590002068816889070CD5E18E51B1012D08D1E1
:1025A000216B002531F8022BC2602163E18E0139D5
:1025B000E1868168C907E3D0E18F0029E0D0C068D7
:1025C000A16B012521F8020BA163E08F0138E087A0
:1025D000D6E700BFFFF7A4F8A0EB0900404580F064
:1025E000FD80E08E18B9E08F002800F0A1802068FF
:1025F000816889070CD5E18E51B1012D08D1216B7D
:10260000002531F8022BC2602163E18E0139E18699
:102610008168C907DED0E18F0029DBD0C068A16BDB
:10262000012521F8020BA163E08F0138E087D1E793
:102630006068B0F5827F07D1A06800284FF00200E3
:1026400008BF042901D15BE70220012184F8511061
:10265000002184F8501003B0BDE8F08339B1397817
:102660000173206B01302063E08E0138E086012584
:1026700018F1010033D101E0FFF752F8E08E10B9F4
:10268000E08F002854D02068816889070ED5E18E3C
:1026900061B1012D0AD1216B002509780173216BED
:1026A000206801312163E18E0139E1868168C90723
:1026B000E2D0E18F0029DFD0C068A16B012508704E
:1026C000A06B0130A063E08F0138E087D4E700BF42
:1026D000FFF726F8A0EB0900404580F08180E08EEE
:1026E00008B9E08F20B32068816889070ED5E18E94
:1026F00061B1012D0AD1216B002509780173216B8D
:10270000206801312163E18E0139E1868168C907C2
:10271000DED0E18F0029DBD0C068A16B01250870F5
:10272000A06B0130A063E08F0138E087D0E700BFE5
:1027300040F20800C2F20000006849F68171C1F25F
:102740005E61A0FB0101480D4FF47A71484302908D
:102750006068B0F5827F0FD12046802142464B460B
:1027600002F074F860B3606D40F0200060652020D6
:102770006065012069E700BF029808B3029801383C
:1027800002902068806800061AD50298C0B10298AD
:102790000138029020688068000611D5029878B14F
:1027A00002980138029020688068000608D50298D7
:1027B00030B1029801380290206880680006DBD4AE
:1027C000A06800284FF000007FF43FAF019021681F
:1027D000CA68019289680191019936E7032034E7BC
:1027E000032032E77047000070470000B0B590F852
:1027F0003C20012A04BF0220B0BD01F108053CCDF8
:10280000D1E900CE23F47C5322F470521A432EF403
:10281000F0431A432CF4E0431A4324F4C0431A4310
:102820002A43C96922F48042036811435964002194
:1028300080F83C100846B0BD10B590F83C20012A45
:102840004FF0020251D080F83D200268D2F804E037
:10285000D2F808C00C682EF07003234341F2FF74D5
:10286000C4F20004A24253600EDC40F2FF73C4F2D3
:1028700000039A4216DCB2F1804F2BD040F20043A5
:10288000C4F2000324E000BF40F2FF33C4F20103AE
:102890009A4213DC41F60003C4F200039A4219D0B5
:1028A000002313E040F60003C4F200039A4211D063
:1028B00040F60043C4F200030AE000BF44F2000304
:1028C000C4F201039A4205D040F20043C4F201036E
:1028D0009A4204D149682CF0800319439160012188
:1028E000002280F83D1080F83C20104610BD00000A
:1028F000002804BF0120704710B5044690F83D0041
:1029000028B9002084F83C00204600F01FF802207F
:1029100084F83D002068211D02F022F8012084F88F
:10292000460084F83E0084F83F0084F8400084F8B4
:10293000410084F8420084F8430084F8440084F89D
:10294000450084F83D00002010BD000082B0006802
:1029500040F20041C4F20001884215D00021C4F2C7
:10296000010188421FD10020019043F64000C4F2CB
:102970000200416841F001014160406800F001003F
:102980000190019802B070470020009043F640008B
:10299000C4F20200016841F002010160006800F029
:1029A00002000090009802B07047000090F83D10BF
:1029B00001291CBF01207047022180F83D100068EA
:1029C00041F2FF72C168C4F20002904241F001017D
:1029D000C1600DDC40F2FF71C4F20001884215DCD9
:1029E000B0F1804F2AD040F20041C4F2000123E050
:1029F00040F2FF31C4F20101884213DC41F60001CC
:102A0000C4F20001884219D0002113E040F6000111
:102A1000C4F20001884211D040F60041C4F2000126
:102A20000AE000BF44F20001C4F20101884205D06F
:102A300040F20041C4F20101884206D1816801F0F0
:102A40000701062904BF00207047016841F0010119
:102A5000016000207047000080B590F83C20012AFA
:102A60004FF0020200F0C28080F83D20D0F800C094
:102A70004FF67772DCF8083023EA0202CCF808201F
:102A80000B684F2B28DC1F2B44DD202B45D0302B2F
:102A900043D0402B40F0AC80D1F804E0C968DCF8AA
:102AA0002030DCF8202022F00102CCF82020DCF8D5
:102AB000182022F0F00242EA011123F00A0242EA51
:102AC0000E02CCF81810CCF82020DCF8081041F0E9
:102AD000470121F0300180E06F2B27DDB3F5005F67
:102AE00048D0B3F5805F7AD0702B40F08180D1E977
:102AF00001E3C968DCF8082043EA0E0322F47F42B0
:102B000043EA01211143CCF80810DCF8081041F029
:102B1000770162E00BB1102B6AD1DCF8081021F0CC
:102B20007001194341F0070157E000BF502B35D029
:102B3000602B5DD1D1F804E0C968DCF8203023F0C7
:102B40001003CCF82030DCF81830DCF8202023F417
:102B5000704322F0A00243EA013142EA0E12CCF89F
:102B60001810CCF82020DCF8081041F0670121F0A3
:102B7000100132E0D1E901E3C968DCF8082043EA3A
:102B80000E0322F47F4243EA01211143CCF80810DE
:102B9000DCF8081041F480411FE000BFD1F804E0E8
:102BA000C968DCF82030DCF8202022F00102CCF8E3
:102BB0002020DCF8182022F0F00242EA011123F074
:102BC0000A0242EA0E02CCF81810CCF82020DCF8F9
:102BD000081041F0570121F02001CCF80810002224
:102BE000012180F83D10002180F83C10104680BD86
:102BF0000122F5E77047000010B501680446086936
:102C0000800744BFC8685FEA807039D4086940070C
:102C100044BFC8685FEA40703ED40869000744BFFB
:102C2000C8685FEA007045D40869C00644BFC86838
:102C30005FEAC0604AD40869C0071CBFC8685FEA81
:102C4000C07051D10869000644BFC8685FEA0060DF
:102C500052D40869400644BFC8685FEA406053D454
:102C60000869800646BFC8685FEA806010BD6FF0E3
:102C7000200220460A61BDE81040FFF7B5BD00BF45
:102C80006FF002000861012020778869800743D037
:102C90002046FFF7AFFF45E06FF004000861022017
:102CA0002077886910F4407F40D02046FFF7A2FFCC
:102CB00042E000BF6FF00800086104202077C86977
:102CC00080073DD02046FFF795FF3FE06FF01000F2
:102CD000086108202077C86910F4407F3AD0204668
:102CE000FFF788FF3CE000BF6FF00100086120465D
:102CF00000F00AFA2168A5E76FF08000086120461D
:102D0000FFF770FD2168A4E76FF0400008612046DE
:102D100000F002FA2168A3E7204600F025F82046DB
:102D200000F066F92168002020776FE7204600F068
:102D30001BF8204600F05CF92168002020776CE742
:102D4000204600F011F8204600F052F921680020DA
:102D5000207769E7204600F007F8204600F048F9A0
:102D600021680020207766E7704700002DE9F043D6
:102D700090F83C30012B04BF0220BDE8F0834FEAFD
:102D8000B202032A00F2FC80DFE802F0023E7EBEBF
:102D9000036840F200471A6A43F4806522F001029A
:102DA0001A621C6A1A46D3F804E052F818CF8E68EB
:102DB00024F00204C4F20107BD4244EA060405D12E
:102DC000CE6824F00C0426F0040634430E68BD429D
:102DD00007D1D1E905572EF4407E45EA0E0545EAB4
:102DE000070E2CF073073743C3F804E09F614F6868
:102DF00009695F631C629F6947F008079F619F69CB
:102E000027F004079F61B1E0036840F200481A6AA6
:102E100043F4806522F010021A621C6A1A46D3F845
:102E200004C052F818EF8F6824F02004C4F201089F
:102E3000454544EA071407D1CF686FF0400624F0F7
:102E4000C00406EA07163443D1F80090454506D180
:102E5000D1E905562CF440672E4347EA860C2EF440
:102E6000E64747EA0927C3F804C09F614F6809692C
:102E70009F631C629F6947F400679F619F6927F405
:102E800080679F6171E000BF036840F200481A6AE2
:102E900043F4806522F480721A621C6A1A46D3F8E1
:102EA00004C052F81CEF8F6824F40074C4F20108C7
:102EB000454544EA072408D1CF6840F2FF463F0267
:102EC00024F4406427EA06063443D1F800904545CF
:102ED00006D1D1E905562CF440572E4347EA061C8B
:102EE0002EF0730747EA0907C3F804C0DF614F6893
:102EF0000969DF631C62DF6947F00807DF61DF698A
:102F000027F00407DF6131E0036840F200451A6AE8
:102F100043F4806722F480521A621A46D3F820C024
:102F20005C6852F81CEFD1F800808E68C4F201058D
:102F3000AF4204D14D6924F4804444EA85142CF452
:102F4000005747EA06372EF4E64646EA08265C6054
:102F5000DE614E6809691E641F62DF6947F400671D
:102F6000DF61DF6927F48067DF61090213681943B5
:102F700011600021002280F83C200846BDE8F08363
:102F80000121002280F83C200846BDE8F0830000C3
:102F9000002804BF0120704710B5044690F83D009A
:102FA00028B9002084F83C00204600F01FF80220D9
:102FB00084F83D002068211D01F0D2FC012084F836
:102FC000460084F83E0084F83F0084F8400084F80E
:102FD000410084F8420084F8430084F8440084F8F7
:102FE000450084F83D00002010BD0000704700003F
:102FF0007047000041B1082910D0042914BF00F126
:10300000410200F13F020BE090F83E20012A1CBF74
:1030100001207047022280F83E2013E000F14002B8
:103020001278012A1CBF012070470222082907D00C
:10303000042914BF80F8412080F83F2002E000BF3F
:1030400080F84020006801F01F010122036A02FAA3
:1030500001F123EA01020262026A114341F2FF72A6
:10306000C4F20002904201620CDC40F2FF71C4F233
:103070000001884214DCB0F1804F37D040F20041AB
:1030800016E000BF40F2FF31C4F20101884215DCB6
:1030900041F60001C4F20001884227D0002115E06A
:1030A00040F60001C4F2000188421FD040F6004102
:1030B000C4F20001884219D01FE000BF44F20001B1
:1030C000C4F20101884211D040F20041C4F2010172
:1030D000884212D1416C40F2004340F48062C4F255
:1030E000010341F400419A42416406D1816801F034
:1030F0000701062904BF00207047016841F0010163
:1031000001600020704700000068B0F1804F18BFD8
:103110007047FEF70BBB00007047000070470000CF
:1031200070470000B0B582B0044600680168C3680B
:10313000426901F02F05202D03F0200506D12DB1A5
:10314000204602B0BDE8B04001F0BABC5FEA017CA5
:103150001EBF02F0010E03F4907212EB0E0253D167
:10316000226B012A05D111F0100218BF13F01002D2
:1031700036D10A0622D513F080021FD094F83D10F4
:1031800021293FD1A168B1F5805F03D121690029D0
:1031900000F07282216A4A1C226209784160E18C47
:1031A00001390A04E1842DD1C16821F08001C16098
:1031B000C16841F04001C16002B0B0BD490621D5EF
:1031C00013F040011ED0C16821F04001C1602021F0
:1031D000204684F83D1002B0BDE8B04000F0C2BC0B
:1031E00000210191016801914168019101994069B3
:1031F000400613D4A08DE18DE28D002A18BF8842CD
:1032000040F0BE8102B0B0BDCA0718BF13F480728F
:1032100040F0BA804A0700F1BD80C2E0A16B0868A7
:10322000426893B2002BEDD0A08D8342EAD2E285B2
:10323000C969B1F5807F00F09D80206850E8030FD8
:10324000216820F4807041E80302DAB1206850E878
:10325000030F216820F4807041E8030292B12068D6
:1032600050E8030F216820F4807041E803024AB15E
:10327000206850E8030F216820F4807041E80302C1
:10328000002ADAD1206850E8050F216820F00100FB
:1032900041E80502DAB1206850E8050F216820F006
:1032A000010041E8050292B1206850E8050F21684D
:1032B00020F0010041E805024AB1206850E8050FFE
:1032C000216820F0010041E80502002ADAD12068D7
:1032D00050E8050F216820F0400041E80502DAB10E
:1032E000206850E8050F216820F0400041E8050201
:1032F00092B1206850E8050F216820F0400041E8B5
:1033000005024AB1206850E8050F216820F040000E
:1033100041E80502002ADAD1202084F83E0000208E
:103320002063206850E8030F216820F0100041E876
:103330000302DAB1206850E8030F216820F0100082
:1033400041E8030292B1206850E8030F216820F0A1
:10335000100041E803024AB1206850E8030F2168D9
:1033600020F0100041E80302002ADAD1A06BFDF73B
:10337000FDFEA08DE18D401A81B2204602B0BDE86D
:10338000B040FFF7CBBE00BF226C42F001022264C6
:103390004A0706D5BEF1000F03D0226C42F00202AC
:1033A00022648A0706D5BEF1000F03D0226C42F0DA
:1033B00004022264BCF1000F09D545EA0E02B2FAFC
:1033C00082F2520903D1226C42F008022264226C7C
:1033D000002A3FF417AF11F0200118BF002D03D0D1
:1033E000204601F06DFB20684069216C00F0400030
:1033F00001F00801401800F0B58000BF206850E8D7
:10340000030F216820F4907041E80302BAB32068EA
:1034100050E8030F216820F4907041E8030272B372
:10342000206850E8030F216820F4907041E80302FF
:103430002AB3206850E8030F216820F4907041E817
:103440000302002ADAD11AE0206850E8050F21684B
:1034500020F0010041E80502DAB1206850E8050FCC
:10346000216820F0010041E8050292B1206850E88F
:10347000050F216820F0010041E805024AB12068EB
:1034800050E8050F216820F0010041E80502002AFC
:10349000DAD1206B012824D1206850E8030F21687D
:1034A00020F0100041E80302DAB1206850E8030F71
:1034B000216820F0100041E8030292B1206850E832
:1034C000030F216820F0100041E803024AB1206890
:1034D00050E8030F216820F0100041E80302002AA1
:1034E000DAD1202084F83E00002020632068406963
:1034F00040063FD5206850E8050F216820F04000C5
:1035000041E80502DAB1206850E8050F216820F093
:10351000400041E8050292B1206850E8050F21689B
:1035200020F0400041E805024AB1206850E8050F4C
:10353000216820F0400041E80502002ADAD1A06BA2
:10354000C0B144F6B521C0F600010165FDF756FE95
:1035500000283FF457AEA06B016D02B0BDE8B0404B
:10356000084700BF2046FFF7DBFD0020206402B0C3
:10357000B0BD00BF204602B0BDE8B040FFF7D0BDEF
:10358000401A216851E8031F226821F4907142E833
:103590000313DBB1216851E8031F226821F4907105
:1035A00042E8031393B1216851E8031F226821F414
:1035B000907142E803134BB1216851E8031F226860
:1035C00021F4907142E80313002BDAD1216851E80D
:1035D000051F226821F0010142E80513DBB12168D3
:1035E00051E8051F226821F0010142E8051393B15B
:1035F000216851E8051F226821F0010142E8051306
:103600004BB1216851E8051F226821F0010142E811
:103610000513002BDAD1202184F83E10002121630C
:10362000216851E8031F226821F0100142E80313CA
:10363000002B3FF4A1AE216851E8031F226821F05E
:10364000100142E80313002B3FF496AE216851E8C5
:10365000031F226821F0100142E80313002B3FF4FE
:103660008BAE216851E8031F226821F0100142E867
:103670000313002BD4D17FE6216A31F8022B6FF3BC
:103680005F22426021628AE5002804BF0120704762
:1036900010B5044690F83D0028B9002084F83C009D
:1036A000204600F021F8242084F83D002068C168FD
:1036B00021F40051C160204601F082FA20680169BE
:1036C00021F490410161416921F02A014161C16801
:1036D00041F40051C16000202021206484F83D1095
:1036E00084F83E1010BD00002DE9F04F87B004466D
:1036F000006844F6FF31C4F2000188424FF0000137
:103700000691CDE90411CDE902115FDD41F200011E
:10371000C4F20101884200F0D58045F20001C4F2F4
:103720000001884200F01E8144F60041C4F200010D
:10373000884240F01182002643F630000196C4F220
:103740000200016941F400210161016901F40021D5
:10375000019101990196016841F001010160006841
:10376000022100F0010001900198032002900590D1
:10377000082006900020CDE90316C4F2020002A939
:10378000FDF7F4FE46F21000C4F2020040F22425D8
:103790003030C2F200054FF000614FF480624FF408
:1037A000807385E843002846C5E90362C5E90566DC
:1037B000C5E907366E62FDF713FE002818BFFCF757
:1037C00021FFA56305F138003425BCE144F2004136
:1037D000C4F20001884200F04D8144F60001C4F2B9
:1037E0000001884240F0B881002643F6300001967F
:1037F000C4F20200016946F2100841F4802101611F
:103800000169C4F2020801F4802101910199019635
:10381000016841F002010160006802A900F00200A5
:10382000019001984FF4406002900220CDE9030618
:1038300003200590072006900020C4F2020000F546
:103840008060FDF793FE40F2044508F11800C2F2D3
:1038500000054FF0006B4FF4806A4FF48079C5E9A2
:10386000000B4FF400372846C5E90266C5E904A6F7
:10387000C5E90669C5E90876FDF7B2FD002818BF5D
:10388000FCF7C0FEA563AC6340F2644508F1480054
:10389000C2F200054021C5E9000B05F1080080E8EF
:1038A00042042846C5E90566C5E907976E62FDF73B
:1038B00097FD002818BFFCF7A5FE656305F13800E9
:1038C000272540E1002643F630000196C4F20200AD
:1038D000416941F010014161416901F0100101911C
:1038E00001990196016841F001010160006802A997
:1038F00000F00100019001984FF4C0600290022096
:10390000CDE9030603200590072006900020C4F2AD
:103910000200FDF72BFE46F21000C4F2020040F256
:10392000443500F58660C2F200054FF0006185E87D
:1039300043004FF400304FF480624FF48073C5E9C8
:1039400008062846C5E90362C5E90566EB61FDF78F
:1039500047FD002818BFFCF755FEA56305F13800A8
:103960002525F0E0002643F630000196C4F202005F
:103970000169002741F4801101610169C4F2020765
:1039800001F48011019101990196016802AD41F0A5
:1039900004010160016846F2100801F00401019180
:1039A0000199019601684FF0020941F00801016098
:1039B00000684FF0030A00F00800019001984FF4EE
:1039C000805002904FF0080B07F500602946C4F2C2
:1039D0000208CDE90396CDF814A0CDF818B0FDF794
:1039E000C5FD0420CDE9020904A880E8400C07F5D4
:1039F00040602946FDF7BAFD40F28425C2F2000579
:103A00004FF0006B4FF4806A4FF480794FF44037E9
:103A10002846C5E9008BC5E90266C5E904A6C5E9E3
:103A20000669C5E90876FDF7DBFC002818BFFCF73E
:103A3000E9FDA563AC6340F2E42508F1A800C2F2F9
:103A400000054021C5E9000B05F1080080E84204AB
:103A50002846C5E90566C5E907976E62FDF7C0FC13
:103A6000002818BFFCF7CEFD656305F13800352549
:103A700069E000BF002743F630000197C4F202005E
:103A80000169002541F4003101610169C4F20205B8
:103A900001F40031019101990197016802AE41F0F2
:103AA0000101016001684FF0020801F0010101917C
:103AB0000199019701684FF0030941F00801016085
:103AC00000684FF0070A00F00800019001980820F4
:103AD000029028463146CDE90387CDF81490CDF801
:103AE00018A0FDF743FD2020CDE9020804A880E8D6
:103AF000800605F540603146FDF738FD46F21000BE
:103B0000C4F2020040F2A4357830C2F200054FF052
:103B1000006185E883004FF440304FF480624FF439
:103B20008073C5E908072846C5E90372C5E905772A
:103B3000EB61FDF755FC002818BFFCF763FDA5639A
:103B400005F1380026250460284600210022FDF7F3
:103B5000A3FE2846FDF78CFE07B0BDE8F08F0000FD
:103B60007047000070470000FEE70000B0B582B06B
:103B70000024C4F20204204610210022FDF7CAFDF1
:103B800040F2C445B020C2F200058DF806000DF1E8
:103B90000601284601220A23FEF76EFB0DF10701FC
:103BA000284601220A23FEF76DFA9DF807502046A9
:103BB00010210122FDF7AEFD284602B0B0BD000085
:103BC00010B50020C4F20200102101220124FDF7EB
:103BD000A1FD40F2C440C2F20000FEF781F90128C5
:103BE00002D1204610BD00BF40F2C440C2F2000026
:103BF000FEF776F9012837D040F2C440C2F2000047
:103C0000FEF76EF901282FD040F2C440C2F2000046
:103C1000FEF766F9012827D040F2C440C2F2000046
:103C2000FEF75EF901281FD040F2C440C2F2000046
:103C3000FEF756F9012817D040F2C440C2F2000046
:103C4000FEF74EF901280FD040F2C440C2F2000046
:103C5000FEF746F9012807D040F2C440C2F2000046
:103C6000FEF73EF9012801D1012010BD40F2C44009
:103C7000C2F20000FEF734F90138B0FA80F04409CE
:103C8000204610BD2DE9F04182B040F20008C4F298
:103C9000020815460F4604464046102100221E46E3
:103CA000FDF738FD8DF8064040F2C444C2F200042E
:103CB0000DF10601204601220A23FEF7DDFA204617
:103CC000394604220A23FEF7D7FA0DF107012046F0
:103CD00001220A238DF80750FEF7CEFA204631461E
:103CE0002A460A23FEF7C8FA404610210122FDF7B2
:103CF00011FD02B0BDE8F081F0B581B00027C4F23B
:103D0000020714460D460646384610210022FDF7EC
:103D100001FD8DF8036040F2C446C2F200060DF1C9
:103D20000301304601220A23FEF7A6FA304629464F
:103D300022460A23FEF7A6F9384610210122FDF794
:103D4000E9FC01B0F0BD0000B0B582B00024C4F2BF
:103D50000204204610210022FDF7DCFC40F2C4459D
:103D6000A020C2F200058DF806000DF106012846DC
:103D700001220A23FEF780FA0DF1070128460122ED
:103D80000A23FEF77FF99DF80750204610210122F3
:103D9000FDF7C0FC284602B0B0BD0000B0B582B04F
:103DA0000025C4F202050446284610210022FDF732
:103DB000B1FC40F2C440C2F200000DF10701012243
:103DC0000A238DF80740FEF757FA284610210122F2
:103DD000FDF7A0FC02B0B0BD2DE9F04F83B0002488
:103DE000C4F20204204610210022FDF793FC40F2A9
:103DF000C4450220C2F200058DF806000DF106014F
:103E0000284601220A230A27FEF736FA0F208DF8EA
:103E100007000DF10701284601220A23FEF72CFABC
:103E200080208DF8080002A9284601220A23FEF707
:103E300023FA204610210122FDF76CFC0DF1090840
:103E40004FF00E0B0DF10A090DF10B062046102163
:103E50000022FDF75FFC03208DF80900284641464B
:103E600001220A23FEF708FA2846494601220A23BE
:103E70008DF80AB0FEF700FA2846314601220A23DF
:103E8000FEF700F99DF80BA0204610210122FDF756
:103E900041FC0AF0E00080281CBF013F5FEA076197
:103EA000D4D18038B0FA80F0400903B0BDE8F08F7B
:103EB0002DE9F04F83B00024C4F202042046102103
:103EC00000220026FDF726FC40F2C4450220C2F283
:103ED00000058DF806000DF10601284601220A238F
:103EE0000A27FEF7C9F90F208DF807000DF1070129
:103EF000284601220A23FEF7BFF902A9284601221B
:103F00000A238DF80860FEF7B7F920461021012238
:103F1000FDF700FC0DF109084FF00E0B0DF10A0939
:103F20000DF10B06204610210022FDF7F3FB0320C4
:103F30008DF809002846414601220A23FEF79CF924
:103F40002846494601220A238DF80AB0FEF794F963
:103F50002846314601220A23FEF794F89DF80BA06B
:103F6000204610210122FDF7D5FBBAF1200F02D324
:103F7000013F3806D6D10020BAF1200F38BF01200A
:103F800003B0BDE8F08F0000F0B581B00024C4F2AA
:103F900002040D460646204610210022FDF7BAFB1A
:103FA00040F2C4470220C2F200078DF801000DF173
:103FB0000101384601220A23FEF75EF90DF10201E4
:103FC000384601220A238DF80260FEF755F90DF1FB
:103FD0000301384601220A238DF80350FEF74CF9FD
:103FE000204610210122FDF795FB01B0F0BD000035
:103FF0002DE9F04182B040F20008C4F202081546F3
:104000000E460746404610210022FDF783FB40F292
:10401000C4440220C2F200048DF806000DF106012E
:10402000204601220A23FEF727F90DF10701204659
:1040300001220A238DF80770FEF71EF9F01B0130EC
:10404000C2B2204629460A23FEF716F9404610213F
:104050000122FDF75FFB02B0BDE8F08180B58AB0B8
:104060004FEA102C8DF80100080A8DF80200100AA2
:104070008DF80400180A8DF8060040F2FF10039036
:104080000020CDE905000820079040F2F0008DF8EF
:1040900003108DF805208DF80730C2F2000003A947
:1040A0006A4609AB8DF800C0FCF74CFC0AB080BD35
:1040B000B0B584B040F2A80042F200010123002410
:1040C000C2F20000C4F20101C0F60073012503949E
:1040D0004FF48032047680F82040C0E90A34C5618C
:1040E00080F8304080E81600C0E903444561FCF7E1
:1040F0002FFB002818BFFCF785FA0A20CDE9000540
:1041000040F2A800C2F2000069460294FCF77CFA73
:10411000002818BFFCF776FA04B0B0BD80B540F2B5
:10412000F00046F20041C2F20000C4F20001032296
:10413000002380E80E0000F10C014FF4002C4FF436
:10414000401E81E808504FF4807183618183FCF741
:104150008BFE002808BF80BDBDE88040FCF752BA46
:1041600080B540F2181046F60001C2F20000C4F219
:1041700000010322002380E80E0000F10C014FF43F
:10418000002C4FF4401E81E808504FF48071836189
:104190008183FCF769FE002808BF80BDBDE8804030
:1041A000FCF730BA80B582B0002043F630010190B0
:1041B000C4F202010A6842F400120A600A6802F4BA
:1041C00000120192019A00900868002240F48000D9
:1041D00008600868002100F48000009000980B201F
:1041E000FDF75AFB0B20FDF743FB0C2000210022BA
:1041F000FDF752FB0C20FDF73BFB0D2000210022B8
:10420000FDF74AFB0D20FDF733FB0E2000210022B5
:10421000FDF742FB0E20FDF72BFB102000210022B2
:10422000FDF73AFB1020FDF723FB2F200021002291
:10423000FDF732FB2F20FDF71BFB38200021002269
:10424000FDF72AFB3820FDF713FB3A20002100225E
:10425000FDF722FB3A20FDF70BFB3B20002100225B
:10426000FDF71AFB3B2002B0BDE88040FDF700BB24
:104270002DE9F04F87B0002543F6300006950195F3
:10428000C4F20200016840F2004841F08001016080
:104290000168C4F2020801F08001019101990195C1
:1042A000016808F5806641F00401016001680022A0
:1042B00001F00401019101990195016841F00101AA
:1042C0000160016801F00101019101990195016806
:1042D00041F010010160016801F0100101910199A4
:1042E0000195016841F002010160016801F00201DD
:1042F000019101990195016841F008010160006890
:10430000022100F00800019001983046FDF702FA02
:1043100030460C2101224FF0010AFDF7FBF9A8F508
:1043200080642046142100224FF0140BFDF7F2F9AF
:1043300040464FF460410122FDF7ECF908F50069B1
:1043400048464FF400710122FDF7E4F90E2002AF58
:10435000CDE9020A30463946CDE90455FDF706F9A4
:10436000032620463946CDE902BA04950596FDF7A5
:10437000FDF84FF42040CDE9020A40463946CDE928
:104380000456FDF7F3F84FF48040CDE9020A4046A9
:104390003946CDE904A6FDF7E9F84FF40070CDE900
:1043A000020A48463946CDE90455FDF7DFF807B063
:1043B000BDE8F08F80B540F2C44043F20001C2F284
:1043C0000000C4F201014FF48272002380E80E0065
:1043D00000F114014FF4007C4FF0180E81E80850F2
:1043E0000A21C0E90333C0E90833C0E90A31FDF707
:1043F0007BFD002808BF80BDBDE88040FCF702B906
:10440000B0B59CB0002540F21C50C4F2010500215B
:10441000C2F2000040F61F5240F2E7331691CDE998
:1044200014111191CDE90F11CDE90D11CDE90B1149
:10443000CDE90911CDE90711CDE90511CDE9031148
:10444000CDE90111C0E90052C0E90213C0E904112D
:104450008161FEF74DFA002818BFFCF7D3F84FF43E
:104460008050139040F21C50C2F2000013A9FEF7D6
:10447000F3FA002818BFFCF7C5F840F21C50C2F24E
:104480000000FEF785FD002818BFFCF7BBF840F2DE
:104490001C500024C2F2000010A9CDE91044FEF720
:1044A000CBF9002818BFFCF7ADF86020CDE909046E
:1044B00040F21C50C2F2000009A90422CDE90B44CD
:1044C000CDE90D440F94FEF751FC002818BFFCF70E
:1044D00099F840F21C5400204FF40051C2F200043D
:1044E0000590CDE90300CDE901000691089001A9EE
:1044F0002046FEF77BF9002818BFFCF783F82068F8
:1045000040F20041C4F20001884217D0A84232D1E3
:104510000020179043F63000C4F2020001684FF407
:10452000006241F0100101600068012100F01000FC
:104530001790179805F5883013E000BF00201790FA
:1045400043F63000C4F202000168C02241F00401C9
:1045500001600068022100F004001790179805F52B
:10456000843017920222189200221B9117A9CDE9DC
:104570001922FCF7FBFF1CB0B0BD0000B0B594B031
:1045800040F2004540F2AC50C4F200050021C2F2F6
:104590000000532240F6C3130E91CDE90C1109918E
:1045A000CDE90711CDE90511CDE90311CDE90111DF
:1045B000C0E90052C0E9021301618161FEF798F978
:1045C000002818BFFCF71EF84FF480500B9040F203
:1045D000AC50C2F200000BA9FEF73EFA002818BF4B
:1045E000FCF710F840F2AC50C2F20000FEF7D0FC2D
:1045F000002818BFFCF706F840F2AC500024C2F2C5
:10460000000008A9CDE90844FEF716F9002818BFF4
:10461000FBF7F8FF6020CDE9010440F2AC50C2F294
:10462000000001A9002203940594FEF79FFB0028D7
:1046300018BFFBF7E7FF40F2AC54C2F2000401A937
:1046400020460422FEF792FB002818BFFBF7DAFF92
:104650002068A8421AD00021C4F20101884232D158
:1046600000200F9043F63000C4F2020001684FF4BE
:10467000006241F0100101600068012100F01000AB
:104680000F900F9805F5033013E000BF00200F9046
:1046900043F63000C4F202000168C02241F0040178
:1046A00001600068022100F004000F900F9805F5EA
:1046B00001300F9202221092002213910FA9CDE92E
:1046C0001122FCF753FF14B0B0BD000080B540F2DA
:1046D000C06044F60041C2F20000C4F200010023B1
:1046E0004FF00C0C4FF4E13280E80E00C0E90333C8
:1046F000C0E905C3C361FEF7C7FF002808BF80BD3E
:10470000BDE88040FBF77EBF80B540F2047045F203
:104710000001C2F20000C4F2000100234FF00C0CB3
:104720004FF4E13280E80E00C0E90333C0E905C36D
:10473000C361FEF7A9FF002808BF80BDBDE8804027
:10474000FBF760BF80B540F2F45041F20001C2F2C5
:104750000000C4F2010100234FF00C0C4FF4E132D1
:1047600080E80E00C0E90333C0E905C3C361FEF76A
:104770008BFF002808BF80BDBDE88040FBF742BF2B
:1047800080B540F2386044F20041C2F20000C4F249
:10479000000148F2A06200234FF00C0CC0F20102AD
:1047A00080E80E00C0E90333C0E905C3C361FEF72A
:1047B0006BFF002808BF80BDBDE88040FBF722BF2B
:1047C00080B540F27C6044F60001C2F20000C4F201
:1047D000000100234FF00C0C4FF4E13280E80E0092
:1047E000C0E90333C0E905C3C361FEF74DFF0028EC
:1047F00008BF80BDBDE88040FBF704BFFEE70000B6
:1048000070470000B0B540F2AC54C2F2000420463C
:1048100000210025FEF7EEFB20460421FEF7EAFB0F
:1048200040F23440C4F200004FF47A7101604160FC
:1048300040F21C50C2F200000421FEF7DBFB3820DE
:10484000C4F201000560B0BD704700002DE9F041E1
:1048500082B01E4690460D460446FCF761FF301AB2
:1048600000EB0807FCF75CFF40F20801C2F2000110
:104870000968C1F3CB317943019121688A682A40E4
:10488000AA4227D1064618F101001FD0FCF748FFC5
:10489000801BB84222D2019801990028A1F10101A0
:1048A00001912168896808BF074601EA0500A8420E
:1048B000ECD00FE088682840A8420BD188682840D7
:1048C000A84207D188682840A84203D188682840B8
:1048D000A842EFD0002002B0BDE8F081D4E9000189
:1048E0004268B1F5827F22F0E00242600AD1A168FD
:1048F000B1F5004F02D0B1F5806F03D1016821F00E
:1049000040010160A16AB1F5005F07D1016821F49F
:1049100000510160016841F400510160012084F8F8
:104920005100002084F85000032002B0BDE8F0815F
:1049300070470000704700004EF68850CEF200002D
:10494000016841F4700101604FF0006140F8801C83
:104950007047000040F26450C2F20000FEF74CB90C
:1049600010B540F6FF3E0368C4F2000E40F2004C62
:104970007045C4F2010C27DCB0F1804F31D040F219
:104980000042C4F2000290422BD040F60002C4F272
:104990000002904225D041F6FF72C4F2000290421C
:1049A00029DC70453CDCB0F1804F5FD040F2004222
:1049B000C4F20002904259D040F60002C4F2000254
:1049C000904253D056E000BF40F60042C4F20002CD
:1049D000904206D0604504D00022C4F20102904209
:1049E000D9D14A6823F07003134341F6FF72C4F231
:1049F00000029042D5DD43F6FF72C4F201029042FC
:104A000022DC42F20002C4F2000290422ED00022C8
:104A1000C4F20102904229D0604527D02AE000BFAD
:104A200040F60042C4F2000290421FD041F600025C
:104A3000C4F20002904219D041F60042C4F20002D2
:104A4000904213D016E000BF44F20002C4F201020B
:104A500090420BD044F60002C4F20102904205D00D
:104A600044F20042C4F20102904203D1CA6823F426
:104A70004073134323F080024B69D1F800E08C6847
:104A80001A430260C46240F48062C0F828E06245C4
:104A900004BF096901630121416110BD40F2C0609A
:104AA000C2F20000FEF73EBB40F20470C2F200000A
:104AB000FEF738BB806B0021C185C184FEF730BB97
:104AC00081B090F83E10222921D183680246B3F5C7
:104AD000805F09D152F8281F52F8183C002B63D090
:104AE00003685B680AE000BF52F8281F13B9036926
:104AF000002BF5D003685B6803F07F030B7011682F
:104B000001311160C18D01390A04C18502D001B0A3
:104B1000704700BF0168CA6822F02002CA60CA68F4
:104B200022F48072CA604A6922F001024A6120219F
:104B300080F83E10016B01293ED10021016300BFC6
:104B4000016851E8031F026821F0100142E80313D5
:104B5000DBB1016851E8031F026821F0100142E84F
:104B6000031393B1016851E8031F026821F010019B
:104B700042E803134BB1016851E8031F026821F0BA
:104B8000100142E80313002BDAD101680A68D2064B
:104B900006D5002200920A680092496800910099A7
:104BA000818D01B0FEF7BABA026852686FF35F22D6
:104BB00021F8022B8162A5E701B0FEF7D1BF00000A
:104BC00010B504460068D4E902C22369016921F4E2
:104BD000405111430161626943EA0C01E3691143E9
:104BE000C268194349F20C639A431143C160416999
:104BF000A26921F4407141F20043114340F4806204
:104C0000C4F201039A42416102D1FCF765FF01E061
:104C1000FCF74EFFE16963681922B1F5004FA0FB74
:104C2000020123D15A00DB0FFBF7CAFA48F21F51E9
:104C3000C5F2EB11A0FB01235A094FF69C73C0F695
:104C4000FF7303F1805302FB0300322303EBC00028
:104C5000A0FB01014FF4F87000EA111000EB021004
:104C6000C1F3421108442168886010BD9A009B0F6F
:104C7000FBF7A6FA48F21F51C5F2EB11A0FB012386
:104C80005A094FF69C73C0F6FF7302FB03003223F0
:104C900003EB0010A0FB0101F02000EA511000EB33
:104CA0000210C1F3431108442168886010BD000060
:104CB00040F2F450C2F20000FEF734BA81B0002096
:104CC00040F2F4510090C2F200010868896B02685A
:104CD000009250F8042F0092009A826842F010026D
:104CE0008260026942F04002026191F83420012A98
:104CF00029D0012281F8342091F83520012A1FD1D2
:104D0000022281F8352000224A650A688968136802
:104D1000402923F4802313604FF4AF73536040F2B3
:104D20004873C2F20003014604BF1946034691606E
:104D3000D360106840F00100106001B0704700BF00
:104D4000002081F8340001B07047000040F2386064
:104D5000C2F20000FEF7E6B910B581B00020009065
:104D600040F23860C2F200000268806B1168009166
:104D700052F8041F00910099916841F01001916070
:104D8000116941F0400111618368802B04D14FF417
:104D90008071416501B010BD45F20D11C0F60001F2
:104DA000C16390F8341045F2251CC0F6000C0129AF
:104DB000C0F844C000F0C68090F83510012940F0DA
:104DC000BE80022180F8351000214165D0F800E056
:104DD00046F20C4CDEF80010C4F2020C41F48021C3
:104DE000CEF8001040F6A601C2F2000101F118044D
:104DF000CEF810401224402B1346CEF8044004BFD6
:104E00000B4611460CF14C029645CEF80830CEF810
:104E10000C1011D946F27041C4F202018E4549D0FE
:104E200046F28841C4F202018E4547D14FF4006238
:104E3000CCF800207DE000BF46F20802C4F2020276
:104E400002F1B0018E4519D946F21041C4F20201B7
:104E50008E455DD046F22841C4F202018E4551D004
:104E600046F24041C4F202018E450CBF4FF40013DC
:104E70004FF00063C2F800345BE000BF02F1500164
:104E80008E4527D946F27001C4F202018E4543D007
:104E900046F28801C4F202018E4541D046F2A001DB
:104EA000C4F202018E450CBF4FF400134FF00063B3
:104EB00053603EE02022CCF800203AE00CF194014F
:104EC0004FF000628E4508BF4FF40012CCF800206E
:104ED0002FE000BF46F21001C4F202018E4523D03C
:104EE00046F22801C4F202018E451FD046F240016D
:104EF000C4F202018E450CBF4FF400134FF0006363
:104F000016E000BF4FF40063C2F8003411E000BFA8
:104F10002023C2F800340CE02023536009E000BFD6
:104F20004FF40063536004E0202301E04FF400637A
:104F30001360DEF8001041F00101CEF800100021EE
:104F400080F8341001B010BD7047000040F27C6062
:104F5000C2F20000FEF7E6B881B0002040F27C61AA
:104F60000090C2F200010868896B0268009250F854
:104F7000042F0092009A826842F010028260026957
:104F800042F04002026191F83420012A29D0012226
:104F900081F8342091F83520012A1FD1022281F8AE
:104FA000352000224A650A6889681368402923F47D
:104FB000802313604FF4AF73536040F6D803C2F2FE
:104FC0000003014604BF194603469160D360106890
:104FD00040F00100106001B0704700BF002081F870
:104FE000340001B07047000081B0002040F2C06181
:104FF0000090C2F200010868896B0268009250F8C4
:10500000042F0092009A826842F0100282600269C6
:1050100042F04002026191F83420012A29D0012295
:1050200081F8342091F83520012A1FD1022281F81D
:10503000352000224A650A6889681368402923F4EC
:10504000802313604FF0C803536040F63823C2F248
:105050000003014604BF194603469160D3601068FF
:1050600040F00100106001B0704700BF002081F8DF
:10507000340001B07047000081B0002040F204719C
:105080000090C2F200010868896B0268009250F833
:10509000042F0092009A826842F010028260026936
:1050A00042F04002026191F83420012A29D0012205
:1050B00081F8342091F83520012A1FD1022281F88D
:1050C000352000224A650A6889681368402923F45C
:1050D000802313604FF0C803536040F60033C2F2E0
:1050E0000003014604BF194603469160D36010686F
:1050F00040F00100106001B0704700BF002081F84F
:10510000340001B070470000FEE700000168086845
:1051100040F4002240F6A600C2F200000A60FFF749
:1051200013BF00000168086820F4002240F6A600C2
:10513000C2F2000018300A60FFF706BF92B047F2D3
:105140000005C4F20005FCF7FFFA002443F6400016
:10515000CDE90A44CDE908440194C4F20200016893
:10516000022741F0805101600068012600F0805064
:10517000019001980194286840F4804028602868D4
:1051800000F48040019001984FF4803007904FF474
:1051900080000D9019200E904FF4A870CDE90F07F4
:1051A0000420119006A806960C97FCF7DFFC0F2050
:1051B000CDE901074FF4A05004904FF480500590C2
:1051C00001A805210394FCF7A3FBFFF751F8FEF7B4
:1051D000E9FFFFF7D3F9FFF7D3FAFEF79FFFFEF7DA
:1051E000BFFFFFF70DF9FEF763FFFFF76FFAFFF759
:1051F0008BFAFFF7A7FAFFF7E3FAFFF7DBF8FBF705
:10520000E7F9FBF793F840F21004C2F2000440F211
:10521000FF10082140F24F42231D2670C0F60041C6
:10522000C0F2056207C3072005F5CC3504F114066A
:10523000207400BF2046FBF721F9421E28464FF09C
:10524000040118BF0122FCF765FA3046FBF7CAF8E3
:10525000421E28464FF0080118BF0122FCF75AFAF7
:105260004FF47A704FF4FA6140F6B8324FF47A6333
:10527000FEF7F4FE0120FCF765F9DBE702E008C861
:10528000121F08C1002AFAD170477047002001E0C0
:1052900001C1121F002AFBD170470000000000006E
:1052A00000000102030406070809000000000102D3
:1052B000030400061016000610160000E052000855
:1052C00000000020100000007C520008F05200088E
:1052D00010000020C00F00008C52000800000000E9
:1052E00001000000100000000024F4000000000095
:040000050800018965
:00000001FF
